:020000040800F2
:100000004030002049010008891E0008911A0008AC
:10001000851E00089B1300089731000800000000AF
:10002000000000000000000000000000752700082C
:100030009D15000800000000212500080D2900087A
:100040006301000863010008630100086301000800
:1000500063010008630100086301000863010008F0
:1000600063010008630100086301000863010008E0
:1000700063010008630100086301000863010008D0
:1000800063010008630100086301000863010008C0
:1000900063010008630100086301000863010008B0
:1000A00063010008630100086301000863010008A0
:1000B00063010008052A00086301000863010008C5
:1000C0006301000863010008630100086301000880
:1000D00063010008692E0008192F00086301000859
:1000E0006301000863010008630100086301000860
:1000F0006301000863010008630100086301000850
:10010000630100086301000863010008630100083F
:10011000630100086301000863010008630100082F
:10012000630100086301000863010008630100081F
:10013000DFF810D000F00AFF00480047DD44000857
:10014000AFF3008040300020064880470648004753
:10015000FEE7FEE7FEE7FEE7FEE7FEE7FEE7FEE777
:10016000FEE7FEE73529000831010008A0F1410152
:10017000192900D82030704740EA01039B0703D0BB
:1001800009E008C9121F08C0042AFAD203E011F8D6
:10019000013B00F8013B521EF9D27047D2B201E098
:1001A00000F8012B491EFBD270470022F6E710B57C
:1001B00013460A4604461946FFF7F0FF204610BDD5
:1001C00030B505462A460B4612F8010B13F8014BD1
:1001D00008B1A042F8D01CB1002802D06D1CF1E794
:1001E000284630BDCAB2401E10F8011F8A4202D014
:1001F0000029F9D100207047421C10F8011B00298A
:10020000FBD1801A704710B5002200E0521C835CBD
:100210008C5CA34201D1002BF8D1D8B2E1B2401AD4
:1002200010BD034611F8012B00F8012B002AF9D16B
:100230001846704730B505460020034600E05B1CB9
:10024000934205D2EC5CC85C201A01D1002CF6D197
:1002500030BD00000FB400B58DB010A909900B900F
:1002600000914FF0FF300A9000200C900548069056
:10027000054807906A4609A80F9900F0DFFC0DB009
:100280005DF814FB590C0008770C00082DE9FF5F9E
:100290001D464FF0FF3BD5E9014691465F464FF0C2
:1002A0000008A9697F1C01988847296A8246884707
:1002B0000028F6D1BAF1FF3F0CD024F4C064002E20
:1002C00019DD600614D5BAF12B0F09D0BAF12D0F44
:1002D0000ED103E0584604B0BDE8F09F44F48064BA
:1002E000A9697F1C01988847761E8246002E02DD90
:1002F000BAF1300F03D0B9F1000F26D032E0A9696E
:10030000761E44F400747F1C019888478246002EB4
:1003100005DDBAF1780F06D0BAF1580F03D0B9F164
:10032000000F10D01EE0B9F1000F02D0B9F1100F8C
:1003300018D1A969761E24F400747F1C019888479F
:100340008246102002E0082000E00A20814609E0F1
:1003500008FB0908A969761E44F400747F1C019803
:1003600088478246002E05DD4946504600F052FC83
:100370000028EDDAE96901988847A00502D46FF0FA
:100380000100A8E7E00725D1600613D5600502D576
:10039000C8F1000000E0404629680A1D2A6009688B
:1003A000220501D5087015E0220701D5088011E06B
:1003B00008600FE02868011D29600068210502D54A
:1003C00080F8008006E0210702D5A0F8008001E057
:1003D000C0F8008038467EE72DE9FF5FD2E901A72B
:1003E0004FF00008916999461446DDF838B046464A
:1003F00001988847054659EA0B0005D009E0A16934
:10040000761C019888470546216A284688470028B7
:10041000F5D1681C03D05FEACA7005D015E04FF033
:10042000FF3004B0BDE8F09F2068011D2160D0F8C6
:1004300000800AE05FEACA7001D108F8015BA16997
:10044000761C7F1E019888470546002F1ADD681C20
:1004500018D0B9F1000F0DD0E81705EBD0604211AC
:1004600020F01F0059F822102A1A01209040014262
:10047000E0D107E0BBF1000FDCD1216A28468847B4
:100480000028D7D0E16901988847BBF1000F07D158
:10049000002E05DD5FEACA7002D1002188F8001045
:1004A000A068B84203DDBBF1000F03D017B16FF0B5
:1004B0000100B6E73046B4E72DE9FF4F087883B076
:1004C0009946FF2805D0491C2D2804D0002400207F
:1004D00008E000200BE00124F9E700EB800003EBCB
:1004E0004000491C0B78FF2BF7D104B14042002398
:1004F0000293147819461D462D2C01D02B2C04D1C3
:10050000521C2D2C13D000240294AA461478FF2CE0
:100510000FD00A25A3FB057801FB05814FF0000CE5
:1005200003FB0C11521CE3194AEB0101EEE7012415
:10053000EAE7814453EA010002D019F5C87F06DAE0
:1005400003980021C0E9001107B0BDE8F08F002535
:10055000AE4E2F46DFF8B882184600F0B7FCCDE962
:100560000001B9F1000002DAC9F1000400E004461C
:100570000023A74A1AEB030B42EB045A12E0E007F0
:1005800007D02A4633463846414600F0ECF9074684
:1005900088462A4633461046194600F0E4F90546D7
:1005A0000E466410002CEAD1DDE90001B9F1000F1C
:1005B0005A46534606DA00F01AFC3A46434600F023
:1005C00016FC05E000F0CFF93A46434600F0CBF9BF
:1005D000029A0AB181F00041039AC2E90001B3E72F
:1005E0002DE9FF4F1F468DB0D7E901464FF0FF3888
:1005F0002E2045464FF000090B90B9696D1C0E98EE
:100600008847396A824688470028F6D1BAF1FF3F09
:100610000AD024F4D064002E11DDBAF12B0F08D0DB
:10062000BAF12D0F0BD102E0404611B08DE744F432
:100630008064B9696D1C0E9888478246761E6946AB
:10064000600501D52D2000E02B208DF8000001F180
:10065000010B0DF1200809E0B9696D1C0E9888475F
:1006600082460F9844F40074761E0560002E02DD69
:10067000BAF1300FF0D00B998A453ED144F0800496
:1006800006E00F99681CA9F1010944F400740860A0
:10069000B9696D1C761E0E98884782463028F0D0C6
:1006A0002BE00B998A4505D1200603D444F0800441
:1006B000761E18E0504602F077FF08B30DF11301E3
:1006C000761E44F400748B4508D2AAF130000BF872
:1006D000010B200607D5A9F1010003E0200602D492
:1006E00009F101008146A00502D50F99681C086038
:1006F000B9696D1C0E9888478246002ED1DC53E004
:10070000002E51DDBAF1650F02D0BAF1450F4BD181
:10071000A00549D5B9696D1C24F44074761E0E9865
:1007200088478246002E0CDD2B2804D0BAF12D0F0D
:1007300007D144F48074B9696D1C0E9888478246CD
:10074000761EE00501D52D2100E02B2108F8011BC4
:10075000CDF82C8021E00DF12901761E44F40074BF
:1007600088450CD2AAF1300010F0FF0088F8000094
:1007700002D10B99884509D908F1010806E0E00586
:1007800001D5244801E042F20F708146B9696D1C21
:100790000E98884782460F980560002E04DD50466B
:1007A00002F002FF0028D6D1F9690E988847FF2091
:1007B0008BF8000088F800000020069007904B4658
:1007C0006A4608A906A8FFF777FEA00502D46FF0D5
:1007D00001002AE714F0240F0AD0E00714D1DDE964
:1007E00006123868031D3B600068C0E900120BE088
:1007F000DDE9060100F08EFB0146E00704D1386810
:10080000021D3A600068016028460EE700001440AF
:100810000000F03FF1D8FFFF2DE9FE4F804681EA4E
:100820000300C00F0C46009021F0004123F000456A
:10083000B8EB0200A94105D24046214690461C462D
:100840000B46024623F00040104347D0270DC7F364
:100850000A00C3F30A510290401A019040286BDA53
:10086000C3F3130040F4801B0098924620B100238C
:10087000D2EB030A63EB0B0B01985946C0F140021F
:10088000504600F096F906460D4650465946019AE4
:1008900000F0AEF910EB08006141002487EA115224
:1008A00084EAE7731A4340D0009A62B3019A012A9E
:1008B0004FEA075215DC001B61EB02014FF00042CA
:1008C00002EA0752CDE90042001C41F58011324690
:1008D0002B4600F03EFA03B0BDE8F08F40462146BB
:1008E000F9E7001B61EB0201001C41F580130018C1
:1008F0005B412018A2F5001747EB030140EAD570D1
:10090000B6196D4111E06D084FEA360645EAC0752B
:100910004FEA0752001B61EB0201001C41F58011F8
:1009200049084FEA30000019514132462B4603B0C6
:10093000BDE8F04F00F0FEB900980122400000230E
:10094000D0EB020263EBE073009821464FEAE074BB
:10095000B8EB000061EB0401E9E783F000435BE7DB
:1009600081F0004158E72DE9FE4F81EA030404F0CD
:10097000004421F0004100944FF0000B23F00043AD
:1009800050EA01045ED052EA03045BD0C3F30A5478
:10099000C1F30A552C44A4F2F3340194A0FB025491
:1009A000C1F3130141F48011C3F3130343F4801323
:1009B00001FB024400FB034E840A970A44EA815477
:1009C00047EA8357A4FB076802958D0A05FB078554
:1009D0004FEA932C04FB0C542705029D4FEA06585E
:1009E00047EA1637B5EB08056EEB070C870E920E3B
:1009F00047EA811742EA8312A7FB0201B6EB0B011B
:100A000064EB00042B0D43EA0C335E1844EB1C50DE
:100A1000DA465146E7FB0201C5F313044FEA0B33F4
:100A200043EA14534FEA0432019C43EA0603A4F15B
:100A30000C040294009CCDE900B400F08AF903B0E4
:100A4000BDE8F08F00200146F9E70EB5C10F80EA3E
:100A5000E0700844CA07002140F233438DE80E00DD
:100A60000A460B4600F075F903B000BD0EB540F222
:100A7000334102910021CDE900110A460B4600F0F6
:100A800068F903B000BD70B5C1F30A5201F000452A
:100A90000024C1F3130140F2FF3341F480119A4264
:100AA00001DA002070BD40F233439A42A2F2334291
:100AB00003DC524200F08CF800E090402C43F1D06F
:100AC000404270BD30B5041E71F1000404DB4FF0EC
:100AD0000044404264EB0101141E73F1000405DB85
:100AE0001C464FF00043524263EB04038B4208BFA5
:100AF000824230BD30B5041E71F1000404DB4FF0BA
:100B00000044404264EB0101141E73F1000405DB54
:100B10001C464FF00043524263EB0403994208BF66
:100B2000904230BD30B50B46014600202022012402
:100B300009E021FA02F59D4205D303FA02F5491BAB
:100B400004FA02F52844151EA2F10102F1DC30BDC1
:100B50002DE9F05F0546002092469B4688460646F2
:100B6000814640241BE0284641464746224600F085
:100B70002FF853465A46C01A914110D311461846D1
:100B8000224600F016F82D1A67EB01084F46224660
:100B90000120002100F00DF817EB00094E41201E46
:100BA000A4F10104DFDC484631462A464346BDE84D
:100BB000F09F202A04DB203A00FA02F1002070475F
:100BC0009140C2F1200320FA03F31943904070478B
:100BD000202A04DB203A21FA02F00021704721FA92
:100BE00002F3D040C2F120029140084319467047F9
:100BF000202A06DBCB17203A41FA02F043EAE073E1
:100C000006E041FA02F3D040C2F1200291400843CD
:100C1000194670473A2800D2303820F02002412A85
:100C200001D3A2F13700884201D34FF0FF30704763
:100C3000026811441378016018467047D160044976
:100C400051610449116200211161114600F096B909
:100C5000310C0008710F0008426842B1016811F8B8
:100C6000013B23B1521EC0E9001218467047012112
:100C7000C160881E704742685AB1C368016843B9B1
:100C800083688B4205D0491E521CC0E90012002027
:100C900070474FF0FF3070470FB4002300B589B0A4
:100CA0000CA900910B996FF00042CB601E4B06938C
:100CB0001E4B07930423CDE901321D4A08920246D8
:100CC0006B460020FFF78CFC09B05DF814FB70B593
:100CD00086B006464FF0FF300091CDE901010020BB
:100CE00015460C4604903246694604A8FFF7D4FF27
:100CF00002460498211825B108B1084600E02046B4
:100D00002860049800280DD0002A02DD009888424F
:100D100008D0081B0094CDE901043246694604A8B6
:100D2000FFF7BAFF06B070BD590C0008770C000839
:100D3000710F000810B5141E73F1000408DA401C8E
:100D400041F1000192185B411A4301D120F00100EA
:100D500010BD2DE9F04D92469B4611B1B1FA81F2DA
:100D600002E0B0FA80F220329046FFF722FF0446FC
:100D70000F4640EA0A0041EA0B0153465A4608432F
:100D800013D0114653EA010019D0C8F14002504671
:100D9000FFF71EFF05460E46504659464246FFF7EE
:100DA00008FF084305D0012004E020463946BDE88D
:100DB000F08D0020054346EAE0762C4337430A983D
:100DC0006305E40AA0EB08000022FD0A44EA475448
:100DD0000A3002D500200146E9E7010510196941F2
:100DE000DDE9084500196941BDE8F04DA2E72DE9AC
:100DF000F04D81EA030404F0004B21F00045144655
:100E00004FF0000A23F0004150EA050220D054EAD6
:100E100001021DD0C5F30A570246C5F31303C1F3FF
:100E20001300C1F30A5640F4801543F48013A7EB76
:100E30000608101BD64608F2FD3873EB050002D3F6
:100E400008F1010801E092185B41B8F1000F03DAE4
:100E500000200146BDE8F08D00204FF480110646C9
:100E600084460EE0171B73EB050705D3121B63EBDB
:100E7000050306434CEA010C49084FEA300092187A
:100E80005B4150EA0107EDD152EA030012D082EA39
:100E9000040083EA0501084305D0101BAB4106D2CC
:100EA0000122002306E000224FF0004302E06FF031
:100EB000010253101AEB06004CEB085110EB0A002C
:100EC00041EB0B01BDE8F04DFFF734BF0EB540F22A
:100ED000334202920022CDE900221346FFF739FF88
:100EE00003B000BDC1F30A52C1F3130140F2FF3356
:100EF00041F480119A4202DA00200146704740F224
:100F000033439A42A2F2334202DC5242FFF760BE00
:100F1000FFF74FBE01F0004330B421F0004150EA2A
:100F2000010206D00A0DA2F56072C1F31301002A76
:100F300002DC30BC00207047440F44EAC104C10009
:100F4000E01830BC00EBC25000F0B0B9064C074DC1
:100F500006E0E06840F0010394E807009847103489
:100F6000AC42F6D3FFF7E8F8685600088856000848
:100F7000C0B24FF4F05100F0D1B900002DE9F34FA9
:100F80008BB04FF0000801F10C000C464FF0010B44
:100F900046460DF1080A01906269012101989047C7
:100FA000051E2DD0252D2CD0216A8847C0B162693D
:100FB000012101989047216A88470028F7D1411EF6
:100FC00062690198904700E0761CA1690B988847F8
:100FD000216A88470028F7D1E1690B988847DBE749
:100FE000A1690B9888470746A84201D1761CD3E730
:100FF000E1690B9888477F1C02D1B8F1000F6FD0D0
:1010000047E1002762693D463946019890472A2802
:1010100004D162690121019890470125DFF8889287
:101020006269012101989047A0F130010A290AD292
:101030004F45E5DC07EB870100EB4107303FDFD48C
:1010400045F01005ECE7E90601D46FF000476C2885
:101050000AD04C2814D0682815D06A280DD07428DE
:101060001CD07A281AD01DE06269012101989047AE
:101070006C2802D045F0040514E045F002050DE0AF
:1010800045F020050AE0626901210198904768282F
:1010900002D045F0080505E045F4006562690121CC
:1010A00001989047C4E9015765283DD019DC5828BC
:1010B0007AD00CDC452837D004DC252826D04128FE
:1010C00031D131E046282FD047282CD12CE05B28A5
:1010D00077D0612828D063287CD0642823D15AE0B7
:1010E000D1E06F2848D008DC66281DD067281BD0C7
:1010F000692821D06E2816D127E0702845D07328A2
:1011000068D0752847D078280DD14DE0A1690B989B
:101110008847054625283FF469AFE1690B98884761
:101120006D1C3FF46AAFB4E023466A466FF00100DD
:101130000B99FFF755FA9FE045F040006060A80763
:1011400023464FF0000236D43EE0E8077FF447AF75
:101150002068011D21600068290501D506701BE784
:10116000290701D5068017E7A90703D5F117C0E9BC
:10117000006111E706600FE745F040006060A807D6
:1011800023464FF0080216D41EE040F60E0125EA71
:101190000100606016E045F040006060A80723464B
:1011A0004FF00A0207D40FE045F040006060A80746
:1011B00008D5234610226FF001000B99AFF3008091
:1011C0005AE007E0234610226FF001000B99FFF769
:1011D0005DF851E04FF000094F464B46632802D0BE
:1011E0005B2807D041E02079C00601D40120A0602F
:1011F00001273AE062690121019890475E2805D1F4
:101200004FF001096269494601989047216939B94F
:1012100000210A46534643F82120491C0829FADBDD
:10122000B0B3216969B9C11700EBD16253110AEB60
:10123000830122F01F02821A01200B6890400343B1
:101240000B6062690121019890475D28E8D1B9F1EE
:10125000000F09D00020514651F82020D24341F818
:101260002020401C0828F7DB02AB224600976FF0D5
:1012700001000B99FFF7B0F800280CDA401C08D1E8
:10128000BBF1000F05D04FF0FF300DB0BDE8F08F7F
:10129000FFE74046F9E7E90701D108F101080644F4
:1012A0004FF0000B78E60000CCCCCC0C0029A8BF96
:1012B0007047401C490008BF20F00100704710B47F
:1012C000B0FA80FC00FA0CF050EA010404BF10BC34
:1012D000704749B1CCF1200421FA04F411FA0CF161
:1012E00018BF012121430843A3EB0C01CB1D4FEA9A
:1012F00000614FEA102042BF002010BC704700EB95
:10130000C35010440029A4BF10BC7047401C4900C2
:1013100008BF20F0010010BC704700007F2801D9F1
:10132000002208E0064A02EB5002C007127800D102
:10133000120902F00F02012090400840704700009F
:101340001956000870B58C1810F8015B15F00703EA
:1013500001D110F8013B2A1106D110F8012B03E04E
:1013600010F8016B01F8016B5B1EF9D12B0705D456
:101370000023521E0DD401F8013BFAE710F8013B9F
:10138000CB1A921C03E013F8015B01F8015B521EBB
:10139000F9D5A142D8D3002070BD00BFFEE770B5DB
:1013A00005460C460026284601F08AF9064626EA3C
:1013B0000401284601F0F2FE70BD000008B50121CD
:1013C000042001F0F3F804208DF803000120ADF8AB
:1013D000000003208DF802006946024800F04CFA34
:1013E00008BD00000008014008B50121042001F0FB
:1013F000DDF810208DF803000120ADF80000032077
:101400008DF802006946024800F036FA08BD000077
:101410000008014010B500F09DFD00F079FD05A227
:101420000021084600F002FE03A200213C2000F04B
:10143000FDFD10BD543A0000483A00002DE9F84F78
:1014400000F076F80121244800F0ACFA012122488E
:1014500000F09DFAA8BB00BF01211F4800F097FAD9
:101460000028F9D000BF01211B4800F090FA0128A4
:10147000F9D000F035F8044600F032F8054600F0E7
:101480002FF8064600F02CF8074600F029F80090E7
:101490000121114800F084FA372002F088FE012172
:1014A0000D4800F07FFA60193044C119009881425C
:1014B00007D104F0FF0805F0FF0906F0FF0A07F066
:1014C000FF0B0648C0F80080C0F80490C0F808A0E0
:1014D000C0F80CB0BDE8F88F0008014030100020C3
:1014E00070B5002500BF1CE000BF01210F4800F0CF
:1014F0004EFA0028F9D01E2002F059FE6006040EB4
:1015000001210A4800F043FA012801D144F0010406
:1015100000BF0121054800F03AFA0128F9D0681C03
:10152000C5B2082DE0DB204670BD00000008014078
:1015300010B5FFF759FF01210B4800F033FA1E20C8
:1015400002F035FE0121084800F02AFA142002F0CA
:1015500022FE0121044800F025FA1E2002F027FE99
:10156000FFF72CFF10BD00000008014008B5FFF791
:1015700065FF012000900848022300218268202096
:1015800000F022FE0120009003480323002102689E
:101590005C2000F019FE08BD3010002070470000EC
:1015A00010B51621014801F0FAFB10BD00040040FF
:1015B00010B50A21014801F0F2FB10BD0004004003
:1015C00010B54FF4E13002F007FF0DA1104803F011
:1015D00062FF4FF4FA6002F0DEFD0EA10C4803F04A
:1015E0005AFF4FF4FA6002F0D6FD16A1084803F046
:1015F00052FF4FF4FA6002F0CEFD00F0F5FB10BD93
:101600000D0A41542B43574D4F44453D310D0A00BF
:101610000044004041542B4D5154545553455243BE
:1016200046473D302C312C2230222C2263796673C0
:10163000222C22313233343536222C302C302C22DD
:10164000220D0A0041542B4D515454434F4E4E3DF0
:10165000302C223132302E32362E3234312E383682
:10166000222C313838332C310D0A0000F8B50646EB
:10167000314645A001F04CFE45A13046FEF7A0FDE5
:1016800000B9F8BD4548464B464A47A10090304650
:10169000FEF7E0FD7D2142480068401E3F4A11549C
:1016A000002011463E4A12688854084602F05AFC4F
:1016B00004461CB944A001F02BFEE2E7394932A0F0
:1016C00001F026FE44A13748FEF79DFDA8B946A1CA
:1016D000204602F031FC054645A1204602F02CFCD4
:1016E000074645492869FEF78EFD28B943A001F059
:1016F0000FFE46497869086040E045A12948FEF799
:1017000082FD00281CD146A001F002FE4AA120461D
:1017100002F012FC054636A1204602F00DFC0746F9
:1017200019A0296901F0F4FD45492869FEF76BFD10
:1017300028B932A001F0ECFD4249786908601DE04B
:1017400041A11848FEF75FFDC0B941A001F0E0FDDE
:1017500044A1204602F0F0FB054605B991E70AA036
:10176000296901F0D5FD41A12869FEF74CFD20B99A
:1017700022A001F0CDFD00F0A5FA00BF204602F046
:10178000AFFB00BF7DE7000025730D0A00000000DD
:101790004D5154545355425245435600300F00208A
:1017A0002C0000201C0F00202B4D51545453554247
:1017B000524543563A302C22255B5E225D222C2571
:1017C000642C255B5E7D5D004A534F4E204572724E
:1017D0006F720D0A00000000636F6E74726F6C5FB1
:1017E0007377697463680000656C65634964000021
:1017F000737461746500000000560008E68EA5E66B
:1018000094B6E68890E58A9F0D0A0000300000201B
:10181000636F6E74726F6C5F736C756963650000E3
:10182000E5A484E7908620636F6E74726F6C5F73BB
:101830006C756963650D0A007761746572496400AF
:101840000A560008340000206D6F6E69746F7200D4
:10185000E5A484E79086206D6F6E69746F720D0A3F
:101860000000000072657175657374006765745FD0
:1018700064617461000000002DE9F041024600251A
:101880000026002000230024002791F803C00CF05C
:101890000F0591F803C00CF0100CBCF1000F03D041
:1018A00091F802C04CEA050591F800C0BCF1000FA8
:1018B00031D0146800202BE04FF0010C0CFA00F33B
:1018C000B1F800C00CEA03069E4220D183004FF01D
:1018D0000F0C0CFA03F7BC4305FA03FC4CEA0404B2
:1018E00091F803C0BCF1280F06D14FF0010C0CFA9F
:1018F00000FCC2F814C00AE091F803C0BCF1480F24
:1019000005D14FF0010C0CFA00FCC2F810C0401CCD
:101910000828D1D31460B1F800C0BCF1FF0F34DD4A
:10192000546800202EE000F1080C4FF0010808FA7E
:101930000CF3B1F800C00CEA03069E4221D18300EB
:101940004FF00F0C0CFA03F7BC4305FA03FC4CEA0A
:10195000040491F803C0BCF1280F05D100F1080C74
:1019600008FA0CF8C2F8148091F803C0BCF1480FD3
:1019700007D100F1080C4FF0010808FA0CF8C2F882
:101980001080401C0828CED35460BDE8F081024688
:10199000002093680B400BB1012000E0002070474D
:1019A000416170470161704708B50121042000F0D2
:1019B000FDFD4FF48050ADF8000010208DF80300BD
:1019C00002208DF8020069462E48FFF755FF0121DD
:1019D000042000F0EBFD4FF40060ADF8000004209F
:1019E0008DF8030002208DF8020069462548FFF7B4
:1019F00043FF0121042000F0D9FD4FF48070ADF8C1
:101A0000000010208DF8030002208DF802006946C6
:101A10001C48FFF731FF0121082000F0C7FD4FF4FB
:101A20008040ADF8000010208DF8030002208DF8F2
:101A3000020069461448FFF71FFF0121082000F04B
:101A4000B5FD4FF48050ADF8000010208DF8030074
:101A500002208DF8020069460B48FFF70DFF0121B7
:101A6000102000F0A3FD4FF40050ADF8000010204E
:101A70008DF8030002208DF8020069460348FFF745
:101A8000FBFE08BD00080140000C014000100140B1
:101A900000BFFEE7002001E0411CC8B20A28FBDBC2
:101AA0007047000008B50121082000F07FFD4020AC
:101AB000ADF8000003208DF8020014208DF803001B
:101AC00069460648FFF7D8FE8020ADF80000694659
:101AD0000248FFF7D1FE00F01DF808BD000C0140E0
:101AE00010B50120094908600949C1F89801FFF7BC
:101AF000D1FF002005490860FFF7CCFF0020044912
:101B0000C1F89801FFF7C6FF10BD00009C8121427B
:101B10000080214210B500200549086001200549D8
:101B2000C1F89801FFF7B6FF01200149086010BD18
:101B30009C8121420080214210B501200C4908609F
:101B4000FFF7A8FF01200B49C1F89801FFF7A2FF9A
:101B500080210948FFF71BFF08B1012400E00024A1
:101B600000200349091F0860FFF794FF204610BDBD
:101B70009C81214200802142000C014010B50121CE
:101B80000148FFF70DFF10BD000C014010B5012109
:101B90000148FFF707FF10BD000C014010B50446D7
:101BA000412C25D108210846FFF7F9FB3D211120E2
:101BB00001F0F4FA8621172001F0F0FA7F212620A7
:101BC00001F0ECFA1E212D2001F0E8FA00212C2072
:101BD00001F0E4FA8D212A2001F0E0FA3E212B20C9
:101BE00001F0DCFA012002F0C9FA00F031FB01E05B
:101BF000FF2010BD0020FCE770B58EB002F04AF95E
:101C00000546184818A10268284602F0F7F818A2FD
:101C100019A1284602F0F2F819A21BA1284602F0E9
:101C2000EDF8284602F024FA04462046FEF7E4FACE
:101C30000646324617A101A801F07AFB01A9204807
:101C400003F029FC4FF4FA7002F0A5FA21461C4873
:101C500003F021FC284602F043F9204601F07CFB0A
:101C60000EB070BD380000206E616D650000000090
:101C7000434B2D30303100006D616368696E650043
:101C8000636172642D3031006163636573736C64EA
:101C9000000000000D0A41542B4D51545450554240
:101CA0005241573D302C226163636573735F636FEC
:101CB0006E74726F6C222C25642C302C300D0A004F
:101CC00000440040F0B58DB002F0E4F8074623A2CE
:101CD00026A1384602F092F827A22EA1384602F03B
:101CE0008DF82EA22FA1384602F088F82F49886877
:101CF000FEF7BCFE044622460B462DA1384602F0F4
:101D00005FF82A490868FEF7B1FE044622460B46F2
:101D100029A1384602F054F8384602F0A9F90646DF
:101D20003046FEF769FA0446224624A1684601F0CF
:101D3000FFFA69462B4803F0AEFB4FF4FA7002F04D
:101D40002AFA3146274803F0A6FB384602F0C8F8C5
:101D5000304601F001FB0DB0F0BD0000E88DB7E8A2
:101D60008B9131E58FB7E6A5BC000000646F726D02
:101D700069746F7279496400E88DB7E88B9131E539
:101D80008FB7E6A5BC31E5B182313031E688BFE9D5
:101D900097B40000726F6F6D496400004D4E542D72
:101DA000303031006D6E7469640000003010002026
:101DB00074656D700000000068756D000D0A415477
:101DC0002B4D5154545055425241573D302C226DA9
:101DD0006F6E69746F72222C25642C302C300D0AC2
:101DE000000000000044004010B50CA1144803F0AE
:101DF00052FB4FF4FA6002F0CEF912A1104803F042
:101E00004AFB4FF4FA6002F0C6F917A10C4803F040
:101E100042FB4FF4FA6002F0BEF910BD41542B4D65
:101E20005154545355423D302C22636F6E74726F7F
:101E30006C5F736C75696365222C310D0A000000BC
:101E40000044004041542B4D5154545355423D30B1
:101E50002C22636F6E74726F6C5F73776974636842
:101E6000222C310D0A00000041542B4D5154545383
:101E700055423D302C226D6F6E69746F72222C3189
:101E80000D0A000000BFFEE77047000070B500219A
:101E900000230F22C47804B3154C246804F4E064D2
:101EA000C4F5E064210AC1F10403CA40447804FA8D
:101EB00003F184781440214309010E4C0678A155A2
:101EC000047804F01F050124AC4005786D11AD00C5
:101ED00005F1E025C5F8004109E0047804F01F058C
:101EE0000124AC40044D0678761145F8264070BDBB
:101EF0000CED00E000E400E080E100E00249014375
:101F0000024A1160704700000000FA050CED00E085
:101F100010B5002000F001F810BD70B50646002491
:101F200015E004F1B001C8B201F0C6F9002001F0DB
:101F3000C3F9102001F0C0F9002504E0304601F09B
:101F4000D1F9681CC5B2822DF8DB601CC4B2082C24
:101F5000E7DB70BD10B5FFF7A5FDAE2001F0ACF9D1
:101F6000002001F0A9F9102001F0A6F9402001F0AD
:101F7000A3F9B02001F0A0F9812001F09DF9FF2024
:101F800001F09AF9A12001F097F9A62001F094F947
:101F9000A82001F091F93F2001F08EF9C82001F04E
:101FA0008BF9D32001F088F9002001F085F9D520C4
:101FB00001F082F9802001F07FF9D82001F07CF94E
:101FC000052001F079F9D92001F076F9F12001F02E
:101FD00073F9DA2001F070F9122001F06DF9DB20BD
:101FE00001F06AF9302001F067F98D2001F064F901
:101FF000142001F061F9AF2001F05EF910BD70B559
:1020000004460D4605F1B001C8B201F055F9A11C16
:10201000C1F3031141F0100001F04EF9A11C01F0D1
:102020000F0141F0010001F047F970BD2DE9F047C3
:10203000074688461646002580E03078A02843DD14
:1020400000253AE0702F04DD002708F1020000F0BF
:10205000FF0830783C4911F8151088422CD170786F
:10206000012101EB4501384A515C884224D14146A7
:102070003846FFF7C4FF002406E004EB4511334A5D
:10208000505C01F02FF9641C102CF6D308F101000C
:10209000C1B23846FFF7B3FF002407E004EB451157
:1020A00010312A4A505C01F01DF9641C102CF5D344
:1020B00007F11000C7B204E06D1C25480068854296
:1020C000C0D300BFB61C39E07A2F04DD002708F129
:1020D000020000F0FF0831781E48FEF783F88146C1
:1020E000B9F1000F29D041463846FFF788FF002498
:1020F00009E099F80010203904EB0111164A505CF0
:1021000001F0F0F8641C082CF3D308F10100C1B20F
:102110003846FFF774FF00240AE099F800102039D0
:1021200004EB011108310C4A505C01F0DBF8641C2F
:10213000082CF2D307F10800C7B2761C30780028CB
:102140007FF47BAFBDE8F087000C00204006002044
:10215000EC0C00208B0C0020500000202DE9F041F9
:1021600007460E46904600250024A8F12000C5B27F
:10217000812F02DD0027B01CC6B231463846FFF77A
:102180003EFF002407E004EB05110E4A505C01F00D
:10219000A9F8601CC4B2082CF5DB701CC1B238462B
:1021A000FFF72DFF002408E004EB05110831054A74
:1021B000505C01F097F8601CC4B2082CF4DBBDE859
:1021C000F0810000500000202DE9F04705468946C7
:1021D00090461E46DDF820A000242FE0301B401E54
:1021E000C1B20A2002F083F9B8FBF0F00A21B0FB7B
:1021F000F1F201FB1207A7B9BAF1000F08D00821CC
:1022000001FB0451C8B230224946FFF7A7FF07E09F
:10221000082101FB0451C8B220224946FFF79EFF66
:102220000AE007F13001CAB2082101FB0451C8B22B
:102230004946FFF793FF00BF601CC4B2B442CDDB38
:10224000BDE8F08710B503211420FFF7A8F810BDF2
:1022500010B5142000F034FA044604F0030018B955
:102260000321142000F087FA10BDF0B587B00546B1
:10227000002708210846FFF792F800210D2000F002
:102280008DFF80210E20FFF78AF893208DF804003F
:1022900020208DF8050006A801AB022201A90090BC
:1022A0000C2000F01AF8064686B9002407E001A8C1
:1022B000005D285501A8005D4740601CC4B2042C95
:1022C000F5DB01A8005DB84200D0FE2680210E207B
:1022D00000F051FA304607B0F0BD2DE9FE4F06463A
:1022E000884691469A46DDF830B0FE2002900020E4
:1022F000019000900C2E06D00E2E09D112200190D4
:102300001020009005E0772001903020009000E040
:1023100000BF00BF019840F08001022000F03EFFA6
:1023200080210420FFF73BF80021012000F036FF58
:1023300080210A2000F01FFA002505E018F805109A
:10234000092000F02BFF6D1C4D45F7D331460120CD
:1023500000F024FF0C2E03D180210D2000F00BFA99
:102360004FF4FA6500BF042000F0AAF904466D1E80
:1023700035B104F0010018B9009820400028F2D0CF
:1023800080210D20FFF70BF895B3062000F098F997
:1023900000F01B0068BB002002900198204000F074
:1023A000010008B1FF2002900C2E24D10A2000F079
:1023B00087F904460C2000F083F900F007072FB1DD
:1023C000601E07EBC000CBF8000002E0E000CBF895
:1023D000000004B90124122C00DD1224002505E0C0
:1023E000092000F06DF90AF805006D1CA542F7D32D
:1023F00001E0FE20029080210C2000F0BCF90021B9
:10240000012000F0CBFE0298BDE8FE8F70B588B0C9
:1024100005460C4608210846FEF7C1FF07210D209E
:1024200000F0BCFE0321142000F0A5F98DF808503F
:1024300007A802AB012202A900900C20FFF74DFF74
:1024400006464EB90798102806D19DF8080020705E
:102450009DF80900607000E0FE26304608B070BDAF
:1024600010B54FF480512C48FFF79CFA012001F081
:1024700085FE4FF480512848FFF792FA012001F0C1
:102480007DFE4FF480512448FFF78CFA0A2001F0BA
:1024900075FE022000F014F980281ED181011F482A
:1024A000FFF780FA0A2001F069FE4FF400511B4843
:1024B000FFF776FA0A2001F061FE4FF40051174849
:1024C000FFF770FA0A2001F059FE4FF4005113484B
:1024D000FFF766FA0A2001F051FE0F21012000F0FB
:1024E0005DFE3D21112000F059FE1E212D2000F03F
:1024F00055FE00212C2000F051FE8D212A2000F0F5
:102500004DFE3E212B2000F049FE4021152000F019
:1025100045FE002010BD00000008014000100140F1
:102520007047000010B509495220FFF76FFF60B9EE
:1025300007A000F0EDFE0848FFF797FE28B907A0B6
:1025400000F0E6FE01200849087010BD40000020A0
:102550006F6B0D0A000000003C0000206F70656E7C
:1025600020646F6F720D0A004C00002029B1064AEA
:10257000D2690243044BDA6104E0034AD269824320
:10258000014BDA61704700000010024029B1064A91
:1025900012690243044B1A6104E0034A1269824340
:1025A000014B1A61704700000010024029B1064A31
:1025B00092690243044B9A6104E0034A92698243A0
:1025C000014B9A61704700000010024029B1064A91
:1025D000D2680243044BDA6004E0034AD2688243C3
:1025E000014BDA60704700000010024030B5002156
:1025F0000022002400232D4D6D6805F00C0121B14F
:10260000042905D0082923D105E0294D056022E0E1
:10261000274D05601FE0254D6D6805F47012234DB0
:102620006D6805F48034022505EB92421CB9214DFA
:10263000554305600BE01D4D6D6805F400351DB177
:102640001C4D5543056002E0194D5543056002E0FD
:10265000174D056000BF00BF144D6D6805F0F00117
:102660000909154D6B5C0568DD4045600F4D6D68CF
:1026700005F4E061090A104D6B5C4568DD4085603A
:102680000A4D6D6805F46051C90A0B4D6B5C4568D5
:10269000DD40C560054D6D6805F44041890B074D6F
:1026A0006B5CC568B5FBF3F5056130BD00100240F9
:1026B00000127A0000093D000000002010000020F8
:1026C0002DE9F041064600254FF480512748FFF7D9
:1026D00067F97E2000EA460040F0800708241BE0EE
:1026E0004FF480412148FFF75BF907F0800028B1E3
:1026F0004FF480711E48FFF755F904E04FF48071E4
:102700001B48FFF74DF94FF480411848FFF74AF98D
:102710007806070E601EC4B2002CE1DC082416E027
:102720004FF480411148FFF73BF96806050E4FF45E
:1027300080410E48FFF736F94FF400610C48FFF76F
:1027400026F9012801D145F00105601EC4B2002C14
:10275000E6DC4FF480510548FFF724F94FF480413F
:102760000248FFF71FF92846BDE8F081000C014040
:1027700000080140704770B505460C460026284603
:10278000FFF79EFF064646EA0401284600F006FDD4
:1027900070BD10B500F002F810BD00000CB50020AF
:1027A000019000903348006840F48030314908605F
:1027B00000BF3048006800F4003000900198401CD1
:1027C0000190009818B90198B0F5A06FF1D129488F
:1027D000006800F4003010B10120009001E00020FA
:1027E00000900098012843D12348006840F0100071
:1027F000214908600846006820F003000860084688
:10280000006840F0020008601A48406819494860B2
:102810000846406848600846406840F48060486068
:102820000846406820F47C1048600846406840F440
:10283000E81048600846006840F08070086000BFFB
:102840000C48006800F000700028F9D00948406882
:1028500020F00300074948600846406840F0020045
:10286000486000BF0348406800F00C000828F9D118
:102870000CBD0000001002400020024010B50020F6
:1028800080F3108800BF4FF4A060FFF737FB00F023
:1028900081F800F0D9FA4FF4E13001F045FD41F242
:1028A000883001F078FC11A000F032FDFEF788FEC0
:1028B00012A000F02DFD4FF4E13001F08DFDFEF788
:1028C000A9FDFFF771F8C72141F61F4000F0A8F8F5
:1028D00002F0F2FCFFF7C4FDFFF7B4FCFFF7B8FC11
:1028E0004120FFF75BF9FEF723FE10BD696E6974A6
:1028F000206573703832363600000000696E6974E6
:102900002065737038323636206F6B0000200CE083
:10291000074951F8201031B1054951F82010491EDE
:10292000034A42F82010411CC8B20828F0DB704767
:10293000FC0C002010B51348006840F0010011495C
:10294000086008464068104908400E49486008463B
:1029500000680E4908400B4908600846006820F4EA
:10296000802008600846406820F4FE0048604FF46C
:102970001F008860FFF70DFF4FF0006004490860FA
:1029800010BD0000001002400000FFF8FFFFF6FE3F
:1029900008ED00E030B5002005E00021154A42F8BE
:1029A0002010411CC8B20828F7DB1349B1F1807F21
:1029B00000D31DE021F07F40401E4FF0E022506127
:1029C00050170F22002807DA13071D0E0B4B00F0DB
:1029D0000F04241F1D5503E013071C0E084B1C5445
:1029E00000BF00204FF0E02290610720106100BF7F
:1029F00030BD0000FC0C00204019010018ED00E083
:102A000000E400E010B50121044800F061F918B1BC
:102A10000121024800F058F810BD000000040040F9
:102A200030B589B005460C4601210220FFF79EFD16
:102A300001210420FFF7BAFD4020ADF8200003205B
:102A40008DF8220018208DF8230008A91648FEF7FB
:102A500013FF164800F048F8ADF814500020ADF808
:102A60001600ADF81840ADF81A0005A90F4800F09F
:102A700099F96020ADF804000120ADF806000020AF
:102A8000ADF80C0001A9094800F034F90821074805
:102A900000F07CF90121054800F00AF80121034803
:102AA00000F015F809B030BD0008014000040040F6
:102AB00021B1028842F08002028004E002884FF6D1
:102AC0007F731A4002807047CA430282704721B167
:102AD000028842F00102028004E002884FF6FE7391
:102AE0001A4002807047000010B5044668488442CE
:102AF00008D10121C014FFF769FD0021E014FFF7A0
:102B000065FDC4E0B4F1804F08D101210846FFF70C
:102B10003DFD00210120FFF739FDB8E05D4884420A
:102B200008D101210220FFF731FD00210220FFF72B
:102B30002DFDACE05848844208D101210420FFF764
:102B400025FD00210420FFF721FDA0E05348844229
:102B500008D101210820FFF719FD00210820FFF707
:102B600015FD94E04E48844208D101211020FFF762
:102B70000DFD00211020FFF709FD88E0494884423F
:102B800008D101212020FFF701FD00212020FFF7BF
:102B9000FDFC7CE04448844208D101214014FFF749
:102BA00015FD00216014FFF711FD70E03F488442DD
:102BB00009D10121C804FFF709FD00214FF40020CD
:102BC000FFF704FD63E03A48844209D1012108057A
:102BD000FFF7FCFC00214FF48010FFF7F7FC56E0F4
:102BE0003448844209D101214805FFF7EFFC002158
:102BF0004FF40010FFF7EAFC49E02F48844208D167
:102C000001214020FFF7C2FC00214020FFF7BEFC5D
:102C10003DE02A48844208D101218020FFF7B6FC1C
:102C200000218020FFF7B2FC31E02548844208D122
:102C300001218015FFF7AAFC0021A015FFF7A6FCD3
:102C400025E02048844209D101210804FFF7BEFC99
:102C500000214FF48030FFF7B9FC18E01A48844295
:102C600009D101214804FFF7B1FC00214FF40030E5
:102C7000FFF7ACFC0BE01548844208D10121880421
:102C8000FFF7A4FC00214FF48020FFF79FFC10BD4C
:102C9000002C01400004004000080040000C0040EF
:102CA000001000400014004000340140004C01407E
:102CB000005001400054014000180040001C00403A
:102CC0000020004000400140004401400048014015
:102CD00030B50246002000230024158A05EA0103CE
:102CE000958905EA010413B10CB1012000E0002030
:102CF00030BD000070B5002400220023058C4FF683
:102D0000FE7635400584028C8388048B4FF68F75E0
:102D10002C40B51E2C400D882C43751E2A400D8971
:102D20002A434D882A43144DA8420BD0134DA84284
:102D300008D0134DA84205D0124DA84202D0124D22
:102D4000A84213D14FF6F7752A404D892A434FF612
:102D5000FB752A408D882A434FF6FF652B404FF6BE
:102D6000FF552B408D892B43CD892B4383800483D2
:102D7000CD888586028470BD002C0140003401405E
:102D80000040014000440140004801400A46002143
:102D9000018B4FF6F7731940114301837047818609
:102DA00070470000002202881D4B98420ED01D4B38
:102DB00098420BD0B0F1804F08D01B4B984205D001
:102DC0001A4B984202D01A4B984204D14FF68F7397
:102DD0001A404B881A43174B984207D0164B98421B
:102DE00004D04FF6FF431A40CB881A4302808B88E9
:102DF00083850B8803850A4B98420BD0094B984278
:102E000008D00E4B984205D00D4B984202D00D4B86
:102E1000984201D10B7A0386012383827047000018
:102E2000002C014000340140000400400008004034
:102E3000000C004000100040001400400040014021
:102E400000440140004801400A20064948604FF410
:102E5000FA708860C8604000C8610A200861486153
:102E600070470000FC0C002010B540F225510D48C1
:102E700000F0CDF801280ED10A200B49486109481D
:102E800000F080F9C4B2094801880088401C074A54
:102E900010800748445440F22551024800F08FF852
:102EA00010BD000000380140FC0C0020280000206C
:102EB0001C0D002010B51248406908B1002010BD5B
:102EC0001048008808B90020F9E700200E490D4A93
:102ED000128888540DA10C48FDF795F910B9FEF73A
:102EE0008BFE03E008490B4802F0D5FA4FF48071DD
:102EF0000548FDF75AF90020024908800120DEE765
:102F0000FC0C0020280000201C0D00206F70656E56
:102F1000000000000044004010B540F225510D486B
:102F200000F075F801280ED10A200B498861094884
:102F300000F028F9C4B2094801880088401C074AFB
:102F400010800748445440F22551024800F037F8F9
:102F500010BD000000440040FC0C00202A000020AE
:102F60001C0E002010B50E48806908B1002010BD6D
:102F70000C48008808B90020F9E700200A49094AEE
:102F8000128888540846FEF771FB4FF4807106489A
:102F9000FDF70BF90020034908800120E7E7000056
:102FA000FC0C00202A0000201C0E002001F40072FE
:102FB000B2F5007F00D100BFCA430280704710B550
:102FC0000022002340F66A14A14200D100BF0A1279
:102FD00001249440A3B2DC43048010BD21B1828956
:102FE00042F40052828104E082894DF6FF731A4058
:102FF0008281704702460020B1F5007F00D100BFFA
:1030000013880B400BB1012000E00020704770B521
:103010000246002400230025002040F66A16B14233
:1030200000D100BFC1F3421501F01F03012606FACB
:1030300003F3012D02D19689334006E0022D02D11F
:10304000168A334001E0968A33400C12012606FAB4
:1030500004F41688344013B10CB1012000E00020C4
:1030600070BDF0B50346002400260025002040F680
:103070006A17B94200D100BF1846C1F3421401F0EB
:103080001F06012707FA06F5012C01D10C3004E0D8
:10309000022C01D1103000E014301AB107682F4320
:1030A000076002E00768AF430760F0BD2DE9F04715
:1030B00086B005460E460024A24600BFA146002762
:1030C000B08900B100BF2F462C8A4CF6FF70044037
:1030D000F08804432C82AC894EF6F3100440B0888B
:1030E00031890843718908430443AC81AC8A4FF6A7
:1030F000FF400440B0890443AC8201A8FFF776FA90
:103100001F48874202D1DDF810A001E0DDF80CA0D5
:10311000A88900F4004040B10AEBCA0000EB0A1095
:1031200031684900B0FBF1F807E00AEBCA0000EB98
:103130000A1031688900B0FBF1F86420B8FBF0F0A8
:1031400004012009642101FB1089A88900F40040D2
:1031500040B1322000EBC900B0FBF1F000F00700F5
:10316000044308E0322000EB09106421B0FBF1F0C9
:1031700000F00F0004432C8106B0BDE8F08700008A
:103180000038014001468888C0F308007047C1F349
:1031900008028280704700BFFEE700002DE9F04181
:1031A00006460D464FF480412B48FEF7F9FB4FF4DD
:1031B00080512948FEF7F4FB7E2000EA46070824E8
:1031C0001BE007F0800028B14FF480712348FEF720
:1031D000E9FB04E04FF480712048FEF7E1FB4FF477
:1031E00080411D48FEF7DEFB7806070E4FF4804154
:1031F0001948FEF7D5FB601EC4B2002CE1DC0824A0
:103200001BE005F0800028B14FF480711348FEF7F1
:10321000C9FB04E04FF480711048FEF7C1FB4FF486
:1032200080410D48FEF7BEFB6806050E4FF4804155
:103230000948FEF7B5FB601EC4B2002CE1DC4FF478
:1032400080510548FEF7AEFB4FF480410248FEF77F
:10325000A9FBBDE8F0810000000C0140000801401E
:1032600070B50446002520E004F0800018B101206C
:103270000F49086002E000200D490860FEF70AFCD3
:1032800001200B49091F0860FEF704FC00200949D2
:10329000C1F89801072D02D1012005490860600698
:1032A000040EFEF7F7FB681CC5B2082DDCDB70BD11
:1032B0009C8121420080214210B50446FEF710FC9B
:1032C0007820FFF7CDFFFEF737FC0020FFF7C8FF9F
:1032D000FEF732FC2046FFF7C3FFFEF72DFCFEF79A
:1032E00019FC10BD10B50446FEF7FAFB7820FFF775
:1032F000B7FFFEF721FC4020FFF7B2FFFEF71CFCF2
:103300002046FFF7ADFFFEF717FCFEF703FC10BDEC
:103310000FB4054B10B503A9044A029800F04CF90C
:1033200010BC5DF814FB0000AD420008F00C00205A
:103330000FB4084B10B504A902AA039800F03CF999
:10334000044602A9002000F0BAFC204610BC5DF83B
:1033500014FB0000BF3C000830B528B1144C031F1B
:10336000002021680A4605E0084630BD9A4203D88D
:1033700010465268002AF9D1002800D041680BD0CD
:103380000468A3EB0005A54204D11B681C44034656
:10339000046002E0436000E023603AB11C68D51A83
:1033A000A54203D115682C441C6052685A6030BD98
:1033B000F40C00202DE9F04782460F4C10480D4ECA
:1033C0000E4F001B4FF0000820F007054FF00109D9
:1033D00000221146504601F059F8002802D1306809
:1033E00010B10020BDE8F0873C60C4E90058C6F881
:1033F0000090EDE7F80C002044100020F40C0020B1
:103400004020002002E008C8121F08C1002AFAD19B
:1034100070477047002001E001C1121F002AFBD154
:10342000704700002DE9FF5F82B00021DDE9043024
:10343000020DDDF840B0034318D044F61050A2F25C
:10344000FF3242431514119801281FD0A5EB0B0041
:10345000401C5FEA000A4FF000064E4FDFF838913B
:10346000B046504615D5CAF1000413E01198012466
:103470004AA3012801D16FEA0B010298119AC0E911
:103480000031C0E9024206B0BDE8F09FCBF1000078
:10349000DFE704460021404A491842EB0450CDE9D9
:1034A000001012E0E00707D032463B46404649464E
:1034B000FDF759FA8046894632463B461046194682
:1034C000FDF751FA06460F466410002CEAD1DDE9FB
:1034D0000401DDE90023BAF1000F06DAFDF743FA33
:1034E00042464B46FDF73FFA05E0FDF780FC4246B9
:1034F0004B46FDF77CFC04460E460022284BFDF7A8
:10350000F9FA03D84FF0FF30014607E00022254BBF
:1035100020463146FDF780F9FDF7E4FC102409E070
:10352000002C0ADB0A220023FDF712FB039B30323A
:103530001A55641E50EA0102F2D1641C039AC4F1C8
:1035400011031444119A012A03D0012208430DD11A
:103550000AE0084304D000204FF0110B119072E7ED
:10356000A3EB0B056D1E0DE05B4504DD4FF0000283
:1035700005F1010504E003DA4FF00002A5F10105B1
:10358000002AECD002981199C0E90231C0E9004547
:1035900079E70000000014400000F03F3000000018
:1035A0000000F0430000E03F30380A2801D201203B
:1035B00070470020704700002DE9FF4F95B09A46F4
:1035C000884606460025EEE1252877D100242746C7
:1035D000F94A0121039400E0044316F8013F203B1F
:1035E00001FA03F01042F7D130782A2811D06FF099
:1035F0002F033078A0F13002092A16D8039A44F03C
:10360000020402EB820203EB42021044761C039098
:10361000EFE758F8042B0392002A03DA504244F4EF
:103620000054039044F00204761C30782E2816D102
:1036300016F8010F44F004042A280DD06FF02F0271
:103640003078A0F13003092B09D807EB870302EB90
:103650004303C718761CF3E758F8047B761C3078D0
:103660006C280FD006DC4C2817D068280DD06A28AB
:1036700014D104E0742810D07A280FD10DE044F45E
:1036800000140AE044F4801401E044F44014727819
:10369000824202D104F58014761C761C30786628AC
:1036A0000BD013DC582877D009DC002875D04528CA
:1036B000F6D04628F4D047281AD193E118E06328C1
:1036C00035D0642879D0652812D18BE1702873D069
:1036D00008DC6728F1D069286FD06E280DD06F28DC
:1036E00006D1ACE073282CD0752874D0782853D03C
:1036F0005246179990476D1C54E1C4F302500228BA
:1037000009D003280DD0D8F8001004280DD00D6082
:1037100008F1040846E1D8F80010EA17C1E90052A0
:10372000F6E7D8F800100D80F2E70D70F0E718F812
:10373000041B8DF8001000208DF80100EB460120DD
:1037400003E058F804BB4FF0FF3061074FF0000171
:1037500002D40DE009F101018946B9420FDA814531
:10376000F8DB1BF809100029F4D108E009F1010188
:1037700089468142FADB1BF809100029F6D103982B
:103780005346A0EB090721463846179A00F080FA05
:10379000284400EB090507E044E008E10DE01BF8D0
:1037A000010B524617999047B9F10109F7D25346D8
:1037B00021463846179AF2E039E00A21C4F3025252
:1037C0004FF0000B0091022A06D058F8040BC117E5
:1037D000032A09D00AE023E008F1070020F00702DD
:1037E000F2E80201904605E000B2C117042A01D1B7
:1037F00040B2C117002906DA0A460021404261EBB7
:1038000002012D2202E0220504D52B228DF804208E
:10381000012203E0E20701D02022F7E7914657E0BA
:103820000A2100E010214FF0000B00910BE0102165
:103830004FF0000B44F004040827009103E0082037
:103840004FF0000B0090C4F30252022A05D058F842
:10385000040B0021032A08D008E008F1070020F03B
:103860000702F2E80201904603E080B2042A00D188
:10387000C0B24FF0000922072AD53278702A07D04B
:10388000DDF800C08CF0100C5CEA0B0C05D00EE0EB
:1038900040228DF80420012208E050EA010306D0FE
:1038A00030238DF804308DF8052002229146009BCC
:1038B00083F0080353EA0B030AD150EA010201D155
:1038C000620705D530228DF804204FF001097F1ED4
:1038D0003278582A04D039A20C920CAA02920BE03A
:1038E0003BA2F9E75B46009AFDF732F90C9B9B5C23
:1038F000029A521E0292137050EA0102F2D102980B
:1039000004A9081A00F1200B600702D524F48034C2
:1039100000E001275F4502DDA7EB0B0000E000207F
:1039200000EB0B01009003984944401A0390E00318
:1039300006D453462146179A039800F0A9F9054486
:10394000002706E001A85246C05D179990476D1CFC
:103950007F1C4F45F6DBE0030CD553462146179AF2
:10396000039800F095F9054404E030205246179979
:1039700090476D1C0099481E00900029F5DC08E076
:103980000298029952460078491C02911799904773
:103990006D1CBBF10001ABF1010BF1DC5BE100F050
:1039A00065F90544761C307800287FF40DAE19B017
:1039B0002846BDE8F08F000009280100303132337D
:1039C000343536373839616263646566000000005B
:1039D0003031323334353637383941424344454645
:1039E00000000000600700D4062708F1070020F05F
:1039F0000700F0E80223804603F0004C5FEA0C0069
:103A000001D097A009E0200501D596A005E0E007C8
:103A100001D095A001E0AFF24C001390307823F074
:103A2000004365280CD006DC452809D046281DD067
:103A300047287FD13BE0662818D067287AD136E046
:103A40000021112F01DB112000E0781CCDE90001DD
:103A500004A90CA8FFF7E6FCDDE90D010C9A4FF074
:103A6000000B07F10109109200914EE04FF0004069
:103A70000097CDE9011004A90CA8FFF7D3FCDDE9FC
:103A80000D020C9B0F994FF0000B91461093009282
:103A900011B9791C00EB0109B7EB090003D4C0F19F
:103AA000FF3B07F10109A9EB0700019042E0012F5C
:103AB00000DA01270021112F01DD112000E0384636
:103AC000CDE9000104A90CA8FFF7ACFCDDE90D016C
:103AD0000C9A00914FF0000BB946109221070FD4B9
:103AE000009A4A4503DA914601E0A9F10109B9F1CA
:103AF000010F05DD109AA9F10101515C3029F4D0C4
:103B0000B84202DA10F1040F03DA0121CDE9011005
:103B100010E0002803DC8344A9EB000102E0411C13
:103B2000494500DD8946A0EB0B00401C01904FF099
:103B300000400290200705D40198484502DB4FF071
:103B4000FF30019000208DF84B0002980DF14B07DB
:103B5000B0F1004F25D002200C902B200D90029840
:103B600000280CDA404202902D200D9007E00A2137
:103B70000298FCF7D7FF3031029007F8011D0C992D
:103B8000481E0C900029F2DC02980028EFD1791E23
:103B90000D980870307800F0200040F0450007F8DC
:103BA000020D11A8C01BC01D02901398007800B12F
:103BB000012000EB0901019801EBE071029801443A
:103BC0000398401A401E0390E00306D45346214652
:103BD000179A039800F05CF805441398007818B120
:103BE0005246179990476D1CE00323D55346214652
:103BF000179A039800F04CF805441BE0BBF1000F46
:103C000007DB0098584504DD1098179910F80B0051
:103C100001E0179930205246904701980BF1010BB3
:103C2000401E05F10105019004D12E20524617993E
:103C300090476D1CB9F10001A9F10109DEDC05E036
:103C400017F8010B5246179990476D1C0299481EB0
:103C500002900029F4DC53462146179A03989EE609
:103C60002D0000002B000000200000002DE9F04195
:103C7000044600251E461746880404D405E039464C
:103C80002020B0476D1C641EF9D52846BDE8F081A0
:103C90002DE9F041044600251E469046C80301D593
:103CA000302700E02027880404D505E04146384647
:103CB000B0476D1C641EF9D52846BDE8F0810A683E
:103CC000531C0B601070704770B505460C460026FB
:103CD00014B10DB1A54201D1002070BDAE6826B966
:103CE000AC6064600020206007E0706828B1214665
:103CF000706801F027FBA86844600120EDE72DE91A
:103D0000F04705460E4614461F46DDF820904FF05A
:103D10000008C2461DB116B10CB1A54202D1002067
:103D2000BDE8F087B9F1000F07D0304600F0EAF99E
:103D30008046E06840F4007A0CE03946304600F0F6
:103D4000A1F98046B8F1000F01D10020E8E7E06852
:103D500020F4007AA08900F4007020B9206A10B124
:103D6000206A79688847C4F82080C4F80CA02146EE
:103D70002846FFF7A9FFD3E7014609B1086808B94B
:103D80000020704719B1D1E90120904201D30846C3
:103D9000F7E702E08868401C886041B1D1E9012062
:103DA000904204D28A680868805C2028F2DDD1E95C
:103DB0000120904202D18868401E88600846E0E7F2
:103DC0002DE9F84306460F4614461D46204629466F
:103DD00000F02EF880460020074B424639460090FE
:103DE0003046FFF78CFF10B14046BDE8F8834046EF
:103DF00000F076F80020F8E71C000020F8B5054632
:103E00000E461446204600F051F807460020074BA6
:103E10003A46314600902846FFF771FF08B1384610
:103E2000F8BD384600F05CF80020F9E71C000020DF
:103E300070B505460E46134800F087F80446F4B105
:103E40000820E060C4E906560F4A104B2846314668
:103E5000FCF750FE03D86FF0004060610FE00022D5
:103E60000B4B28463146FCF72DFE03D84FF000409F
:103E7000606104E028463146FCF705FE606120469B
:103E800070BD00001C0000200000C0FFFFFFDF41EC
:103E90000000E0C110B5044800F057F804460CB12A
:103EA0004020E060204610BD1C00002070B5054693
:103EB0000A4800F04AF804466CB11020E060074957
:103EC000284600F0DFF82061206920B9204600F084
:103ED00007F8002070BD2046FCE700001C00002011
:103EE00070B50446002522E02568A08900F48070A2
:103EF00020B9A06810B1A068FFF7F2FFA08900F414
:103F0000807028B9206918B10A4A20695168884729
:103F1000A08900F4007028B9206A18B1054A206A07
:103F20005168884703484168204688472C46002C42
:103F3000DAD170BD1C00002070B504460D46002289
:103F40002946204600F0C6F970BD70B50446282009
:103F50002168884705461DB128212846FCF725F928
:103F6000284670BD10B5044600221146204600F0D8
:103F70006BF810BD2DE9F0478AB004460E46154691
:103F800098461C2103A8FCF710F9002700202C49B3
:103F90000860486004B106B932E00394049600203A
:103FA0000590284A07CA07AB07C32648FFF7CDFF8D
:103FB000074607B924E003A801F098F98246FFF705
:103FC000DBFE81464946384600F048FD00B917E05F
:103FD000B8F1000F0BD003A8FFF7CEFEDDE9041007
:103FE000884203D205990398405C00B108E01DB1F6
:103FF000059903980844286038460AB0BDE8F08760
:1040000017B13846FFF76CFFC4B10194002002904D
:10401000DDE90410884202D20598029004E0049879
:1040200010B10498401E02901DB1DDE90101084461
:1040300028600348DDE9011206C000BF0020DCE76C
:10404000140000201C0000202DE9F04104460D461C
:10405000164614B90020BDE8F0812046FCF7CCF8E4
:10406000471C33462A4639462046FFF783FFF2E7CE
:1040700010B50446024A0121204600F08DFD10BD16
:104080001C0000202DE9F04104460D4600260027C3
:1040900014B90020BDE8F0812046FCF7ADF8461CBD
:1040A00030462968884707460FB90020F2E73246B4
:1040B00021463846FCF760F83846EBE770B5044611
:1040C0000D4604B10DB9012070BDAC4201D10020F4
:1040D000FAE705E0207808B90020F5E7641C6D1CBC
:1040E0002078FCF743F806462878FCF73FF886422C
:1040F000F0D02078FCF73AF806462878FCF736F836
:10410000301AE1E7704700002DE9FC5F04460D46D8
:1041100016461F4627F00043B24625F0004052469F
:10412000CDE9004020460199FCF7E4FC03D225F0DC
:104130000041204602E027F0004130468046894693
:1041400000220D4B40464946FCF70DFC82468B464B
:1041500032463B4620462946FCF7FFFB21F0004152
:1041600052465B46CDE90001FCF7ACFC02D80120C9
:10417000BDE8FC9F0020FBE70000B03C002107E009
:10418000002200E0521C4EF660239A42FAD3491CEA
:104190008142F5D3704710B5044603E04FF47A70BE
:1041A00000F005F8201EA4F10104F7D110BD10B5F0
:1041B0004FF0E0235B694FF47A74B3FBF4F3584398
:1041C0004FF0E023996900BF4FF0E0239B698B42D9
:1041D00004D24FF0E0239B69CA1A07E04FF0E023B6
:1041E0005B690B444FF0E024A4691A1B8242EBD3B5
:1041F00010BD2DE9F04104460D46002600270CB104
:10420000206810B90020BDE8F081606828B1D4E9C9
:104210000110884201D30020F5E7B5F1004F01D32A
:104220000020F0E7A068401C05446068A84203D362
:10423000A16820680844E6E7206908B10020E2E7A9
:10424000B5F1804F07D3B5F1004F02D26FF00047B0
:1042500002E00020D7E76F00206A60B13946226A89
:10426000206890470646DEB9E1692068884700204B
:1042700060602060C7E73846A1698847064636B9BE
:10428000E16920688847002060602060BBE7A06883
:10429000421C30462168FBF76FFFE16920688847C0
:1042A00067602660A0683044ADE7000070B5044642
:1042B0000D46A1B20548FEF76AFF00BF4021034842
:1042C000FEF798FE0028F9D0204670BD0038014066
:1042D0002E2070472DE9F04105460E461746002472
:1042E00005B116B90020BDE8F081AC685FB100E00F
:1042F00024688CB1206A78B13046216AFBF783FFCD
:104300000028F5D108E000E024682CB13046216A8D
:10431000FFF7D4FE0028F7D10CB1206A08B90020BD
:10432000E1E72046DFE7000010B588B00446012130
:1043300044F20400FEF73AF918208DF81F004FF4FC
:104340000070ADF81C0003208DF81E0007A920485E
:10435000FDF792FA48208DF81B004FF48060ADF80D
:10436000180003208DF81A0006A91948FDF784FAF1
:1043700002940020ADF80C00ADF80E00ADF810006E
:104380000C20ADF812000020ADF8140002A911486D
:10439000FEF78CFE25208DF8040001208DF8070023
:1043A0008DF8050002208DF8060001A8FDF76EFDCE
:1043B000012240F225510748FEF753FE012105482E
:1043C000FEF70CFE40210348FEF7F0FD08B010BDDB
:1043D000000801400038014010B588B004460121B2
:1043E0000420FEF7E3F801214804FEF7BFF804209B
:1043F000ADF81C0003208DF81E0018208DF81F005A
:1044000007A92048FDF738FA0820ADF81800032066
:104410008DF81A0048208DF81B0006A91948FDF7F1
:104420002BFA02940020ADF814000C20ADF8120015
:104430000020ADF81000ADF80E00ADF80C0002A998
:104440001148FEF733FE26208DF8040001208DF878
:1044500007008DF8050002208DF8060001A8FDF781
:1044600015FD012240F225510748FEF7FAFD012112
:104470000548FEF7B3FD40210348FEF797FD08B05D
:1044800010BD000000080140004400402DE9F0414B
:104490000B3020F00706104D19E02068B04215D30C
:1044A000B0420AD9871B201DD4F80480FBF764FEB4
:1044B000A019C0E90078286004E060682860201D29
:1044C000FBF75AFE201D2660BDE8F081251D2C68F3
:1044D000002CE2D10020F7E7F40C0020FEF7CEF923
:1044E0006420FFF758FE01E000F02FFFFCE710B555
:1044F0000246012000E050430B1EA1F10104E1B28D
:10450000F9D110BD2DE9F04180460C460025002769
:10451000E068B0F57A7F02D30020BDE8F081E06862
:10452000401CE060A1682068405C5B2800D05FE030
:10453000A068401CA0602046FFF71EFC4CB1D4E9E7
:104540000110884205D2A1682068405C5D2800D136
:104550003FE01CB1D4E90110884203D3A068401E9B
:10456000A06045E0A068401EA06000BF04F11000FC
:10457000FFF7EBFC064606B93AE015B93546374673
:1045800002E03E6077603746A068401CA06020468D
:10459000FFF7F2FB2146384600F060FA00B927E049
:1045A0002046FFF7E9FB44B1D4E90110884204D268
:1045B000A1682068405C2C28D8D044B1D4E901100F
:1045C000884204D2A1682068405C5D2800D00FE0DA
:1045D00000BFE068401EE06005B16F602020C8F8B1
:1045E0000C00C8F80850A068401CA060012094E7A7
:1045F00015B12846FFF774FC00208EE70246002321
:10460000002100BF23E0505C302806DB505C3928D5
:1046100003DC505C3038034415E0505C412806DB75
:10462000505C462803DC505C373803440BE0505C98
:10463000612806DB505C662803DC505C5738034475
:1046400001E000207047032900D21B01491C042906
:10465000D9D31846F6E700002DE9F04391B0804623
:104660000C4600BF00201090FFF732FE8146002567
:104670000CB1206818B9002011B0BDE8F083002506
:104680003CE0A16820680844405D342820D00ADC62
:10469000A0F12B0009282ED2DFE800F0202D212ADE
:1046A0002D1617181900382816D006DC352810D01A
:1046B00036280FD037281ED10DE039280DD04528D7
:1046C0000FD0652817D10BE000BF00BF00BF00BFAF
:1046D00000BF00BF00BF00BF00BF00BF00BF00BFE2
:1046E00000BFA16820680844405D0DF8050003E0A4
:1046F0000DF8059000E00AE000BF6D1C3F2D05D2CB
:1047000024B1A068284461688842BAD300BF002061
:104710000DF8050010A9684600F006FE06460F4693
:1047200068461099884201D10020A5E7C8E90667CC
:10473000144A154B30463946FCF7DCF904D86FF0C3
:104740000040C8F8140011E00022104B30463946F2
:10475000FCF7B8F904D84FF00040C8F8140005E0A1
:1047600030463946FCF78FF9C8F814000820C8F81D
:104770000C00A0686A461099891A0844A0600120BC
:104780007AE700000000C0FFFFFFDF410000E0C14A
:104790002DE9F04180460C4600260025E068B0F582
:1047A0007A7F02D30020BDE8F081E068401CE06021
:1047B00044B1D4E90110884204D2A1682068405C69
:1047C0007B2800D07DE0A068401CA0602046FFF759
:1047D000D3FA4CB1D4E90110884205D2A16820680F
:1047E000405C7D2800D15DE01CB1D4E90110884215
:1047F00003D3A068401EA06063E0A068401EA060D4
:1048000000BF04F11000FFF7A0FB074607B958E00E
:1048100016B93E463D4602E02F607D603D46A068E9
:10482000401CA0602046FFF7A7FA2146284600F06A
:104830004EF800B945E02046FFF79EFA2869286245
:104840000020286144B1D4E90110884204D2A16853
:104850002068405C3A2800D033E0A068401CA0608B
:104860002046FFF789FA2146284600F0F7F800B9FC
:1048700027E02046FFF780FA44B1D4E901108842CE
:1048800004D2A1682068405C2C28BAD044B1D4E995
:104890000110884204D2A1682068405C7D2800D0C5
:1048A0000FE000BFE068401EE06006B17560402088
:1048B000C8F80C00C8F80860A068401CA06001207F
:1048C00071E716B13046FFF70BFB00206BE72DE9CF
:1048D000F84F80460C46A16820680844461CA16831
:1048E00020680844451C002000900027A16820682B
:1048F000405C222800D0A6E04FF0000AD1460DE02F
:1049000028785C2809D1681C2168401A61688842AF
:1049100000D398E009F101096D1C6D1C2068281A6C
:104920006168884202D228782228E9D12068281AB2
:104930006168884202D22878222800D083E0A168EA
:1049400020680844281AA0EB090A0AF1010021692D
:104950008847074607B976E0009761E030785C2821
:1049600007D016F8010B009908700098401C0090C1
:1049700056E04FF00209A81B012800DA63E07078C6
:10498000662819D008DC222832D02F2832D05C28A3
:104990002FD0622840D108E06E2814D0722819D098
:1049A00074281ED0752837D12BE008200099087094
:1049B0000098401C009030E00C200099087000988E
:1049C000401C009029E00A20009908700098401CC3
:1049D000009022E00D20009908700098401C009083
:1049E0001BE00920009908700098401C009014E01A
:1049F00000BF00BF7078009908700098401C0090BC
:104A00000BE06A462946304600F053FD8146B9F175
:104A1000000F00D117E000E015E000BF4E4400BFDA
:104A2000AE429BD30020009908701020C8F80C00FB
:104A3000C8F810702068281AA060A068401CA06008
:104A40000120BDE8F88F17B138466169884716B173
:104A50002068301AA0600020F3E7000070B505461A
:104A60000C460CB1206808B9002070BD9CB1A0684C
:104A7000001D616888420ED8A26821688818042247
:104A80003FA1FBF7D7FB30B90420E860A068001D08
:104A9000A0600120E9E79CB1A068401D61688842E0
:104AA0000ED8A26821688818052237A1FBF7C2FB3F
:104AB00030B90120E860A068401DA0600120D4E763
:104AC000ACB1A068001D6168884210D8A268216856
:104AD000881804222EA1FBF7ADFB40B90220E86044
:104AE00001206861A068001DA0600120BDE76CB1D5
:104AF000D4E90110884209D2A1682068405C2228CC
:104B000004D121462846FFF7E2FEAEE7BCB1D4E966
:104B10000110884213D2A1682068405C2D2809D07A
:104B2000A1682068405C302809DBA1682068405CEF
:104B3000392804DC21462846FFF78EFD95E76CB145
:104B4000D4E90110884209D2A1682068405C5B2842
:104B500004D121462846FFF7D5FC86E76CB1D4E99D
:104B60000110884209D2A1682068405C7B2804D1EA
:104B700021462846FFF70CFE77E7002075E7000086
:104B80006E756C6C0000000066616C73650000005F
:104B90007472756500000000F0B589B007460E46D6
:104BA0001446002524216846FBF7FFFA4FF4807075
:104BB0002168884700904FF480700190059694E832
:104BC000070006AB07C3009800B933E069463846D2
:104BD00000F0BAFA00B92DE0684600F03BFCA0688E
:104BE00050B1029B591C0098A2689047054605B930
:104BF00020E0002000901AE0029A501C21688847AB
:104C0000054605B916E0DDE90130401C834201D2BA
:104C1000019801E00298401C024628460099FBF7E3
:104C2000ABFA0020029968540098616888472846CA
:104C300009B0F0BD009810B100986168884715B1BF
:104C40002846616888470020F2E72DE9F0410746D1
:104C50000C460025A846BE6814B90020BDE8F081C6
:104C600001212046FFF7C5FA05460DB90020F5E7FA
:104C70005B202870A068401CA060E068401CE060D9
:104C800028E02146304600F05FFA08B90020E5E749
:104C9000204600F0DFFB3068D8B1606908B102201F
:104CA00000E00120804608F101012046FFF7A1FA4B
:104CB00005460DB90020D1E72C2005F8010B6069ED
:104CC00010B1202005F8010B00202870A068404496
:104CD000A0603668002ED4D102212046FFF789FA61
:104CE00005460DB90020B9E75D2005F8010B00204D
:104CF0002870E068401EE0600120AFE72DE9F04F2A
:104D00008BB081460F464FF0000AD9E90645D046E0
:104D100000261C2104A8FBF748FAFFF7D9FA8346BE
:104D200000200290039017B90BB0BDE8F08FCDE9D9
:104D30000045DDE900210AB1012200E0002241EA3C
:104D4000020020F00041394A511AC90F61B9CDE97A
:104D5000004551000198B1EB400F03D1009808B90C
:104D6000012000E0002028B131A104A8FEF7E0FAFC
:104D700080462EE0D9F81400FBF767FE22462B464A
:104D8000CDE90001FBF79EFE07D12BA104A8D9F8BD
:104D90001420FEF7CDFA80461BE022462B4627A1C1
:104DA00004A8FEF7C5FA804602AA26A104A8FBF7CC
:104DB00051FA012806D122462B46DDE90201FFF710
:104DC000A3F930B922462B461FA104A8FEF7B0FA7A
:104DD0008046B8F1000F02DBB8F1190F01DD0020A9
:104DE000A2E708F101013846FFF703FA8246BAF15B
:104DF000000F01D1002097E700260DE004A8805D98
:104E0000584503D12E200AF8060004E004A8805D6E
:104E10000AF8060000BF761C4645EFD300200AF8CA
:104E20000600B8684044B86001207DE70000F07FCC
:104E30006E756C6C000000002564000025312E3179
:104E400035670000256C670025312E31376700007B
:104E50002DE9F04781460C4600250026D9F8087058
:104E600014B90020BDE8F087606908B1022000E0B5
:104E700001200646711C2046FFF7BBF905460DB917
:104E80000020EFE77B2005F8010BE068401CE060A4
:104E9000606910B10A2005F8010BA0683044A060D9
:104EA00069E06069B8B12046E168FFF7A2F90546FC
:104EB0000DB90020D6E74FF0000804E0092005F8FE
:104EC000010B08F10108E0684045F7D8D4E9020178
:104ED0000844A06000BF2146386A00F07BF808B99A
:104EE0000020BFE7204600F0B5FA606908B1022053
:104EF00000E00120064631462046FFF77AF90546D4
:104F00000DB90020AEE73A2005F8010B606910B139
:104F1000092005F8010BA0683044A06021463846FE
:104F200000F012F908B900209CE7204600F092FA40
:104F3000606908B1012000E00020396809B1012151
:104F400000E000214618711C2046FFF752F9054683
:104F50000DB9002086E7386810B12C2005F8010B48
:104F6000606910B10A2005F8010B00202870A068C4
:104F70003044A0603F68002F93D1606910B1E068B1
:104F8000401C00E0022001462046FFF732F90546AA
:104F90000DB9002066E7606950B1002003E00921E7
:104FA00005F8011B401CE168491E8142F7D800BF8B
:104FB0007D2005F8010B00202870E068401EE060AD
:104FC00001204FE770B504460D462946206900F0E0
:104FD00001F870BD2DE9F04707468A4600240026F7
:104FE0000025A046A146BAF1000F02D10020BDE87D
:104FF000F0876FB903215046FFF7FBF806460EB95C
:105000000020F4E74DA13046FBF70BF90120EEE755
:105010003C4622E020780C2811D006DC08280DD070
:1050200009280FD00A2810D10AE00D2809D022281B
:1050300002D05C2809D100E000BF00BF00BF00BF64
:1050400000BF00BF09F1010905E02078202801DA3E
:1050500009F1050900BF00BF641C20780028D9D1E0
:10506000E01B00EB090808F103015046FFF7C1F807
:1050700006460EB90020BAE7B9F1000F0FD1222081
:10508000307042463946701CFBF776F8222108F151
:10509000010031540021401C31540120A7E7222097
:1050A0003070751C3C463DE020781F2808DD2078D4
:1050B000222805D020785C2802D0207828702FE0A4
:1050C0005C2005F8010B20780C2815D006DC082898
:1050D0000FD0092819D00A281AD110E00D2811D0B4
:1050E000222803D05C2813D1287018E022202870D1
:1050F00015E06220287012E0662028700FE06E2014
:1051000028700CE07220287009E07420287006E0F6
:1051100022780BA12846FEF70BF92D1D00BF00BF1A
:10512000641C6D1C20780028BED1222108F10100EA
:1051300031540021401C3154012058E72222000044
:1051400075253034780000002DE9F04104460E4604
:10515000002504B116B90020BDE8F081207B10289D
:1051600057D008DC01281BD0022827D0042809D0FA
:1051700008285DD130E0202850D0402853D0802826
:1051800056D12EE005213046FFF733F805460DB91C
:105190000020E1E727A12846FBF743F80120DBE7E1
:1051A00006213046FFF725F805460DB90020D3E764
:1051B00022A12846FBF735F80120CDE7052130462E
:1051C000FFF717F805460DB90020C5E71DA12846D1
:1051D000FBF727F80120BFE731462046FFF78EFD99
:1051E000BAE70027206908B90020B5E72069FBF776
:1051F00003F8471C39463046FEF7FBFF05460DB95C
:105200000020A9E73A4628462169FAF7B5FF0120B0
:10521000A2E731462046FFF7D5FE9DE731462046FE
:10522000FFF713FD98E731462046FFF711FE93E79D
:10523000002091E76E756C6C0000000066616C7375
:105240006500000074727565000000002DE9F047EC
:1052500004008A4616D054F8047CD4F800903E1F0F
:10526000564500D956462046FEF776F8054688464C
:10527000324621465046FFF709F940B1C0F8009088
:10528000BDE8F087BDE8F0470846FEF793B844E96B
:10529000017955B129686A18211F8A4202D9611B18
:1052A000091F2960C5F80480EAE7024AC2F80080B5
:1052B000E6E70000F40C002008B501210820FDF706
:1052C00075F90320ADF8000010208DF803000320CD
:1052D0008DF8020069460448FCF7CEFA0321024823
:1052E000FCF75EFB08BD0000000C014010B5044651
:1052F0001CB1206808B1A06808B1002010BD7CB1C5
:10530000A068001D616888420AD2A26821688818D6
:10531000032204A1FAF78EFF10B9A068C01CA06098
:105320002046EBE7EFBBBF0000B583B00A46002183
:10533000CDE9001101466846FBF7C9FCDDE9000133
:1053400003B000BD01604860704710B500F008F878
:1053500000F046F800F014F800F06CF810BD000002
:1053600010B50648406800B110BD0A2003494860E6
:10537000FDF7A0FDFDF7F6FD00BFF5E7FC0C0020F2
:1053800010B51548C06800B110BDFDF7CBF84FF45B
:10539000FA701149C86011480078012807D1FCF75C
:1053A00007F9FCF729FC02200C49087012E00B48B1
:1053B000007802280ED109484078401C07494870FF
:1053C00008464078032805DDFCF7EAF80020034989
:1053D0000870487000BFD7E7FC0C00204C0000208C
:1053E00010B51148806800B110BD4FF4FA700E4935
:1053F00088600E48006810B9FCF7C0FB05E00B4858
:105400000068012801D1FCF7C1FB0948006810B908
:1054100000F0E6F805E006480068012801D100F038
:10542000E7F800BFE0E70000FC0C0020300000209F
:105430003400002010B50648C06900B110BD4FF41B
:105440007A700349C861FCF791F800BFF6E70000E5
:10545000FC0C002070B5044600250CB1206800B992
:1054600070BDA168206845182846FAF7C5FEA168F6
:105470000844A06000BFF3E770B504460D46294616
:105480002046FDF784FE00BF40212046FDF7B2FD17
:105490000028F9D070BD70B506460C46002504E022
:1054A000615D3046FFF7E8FF6D1C605D0028F7D1B5
:1054B00070BD2DE9FF5F8046894615460024002611
:1054C000C24600200390834602900190A9EB0A0097
:1054D000062800DA81E00AF10200FFF78FF806469D
:1054E000B6F55C4F03D3B6F5604F00D275E0B6F564
:1054F000584F29D3B6F55C4F26D20AF10607002093
:1055000000900C200290A9EB0700062800DA64E066
:1055100038785C2802D17878752800D05DE0B81C16
:10552000FFF76CF800900098B0F55C4F03D300983B
:10553000B0F5604F00D350E0C6F30901009861F365
:105540009F2000F5803402E0062002903446802C33
:1055500002D20120039018E0B4F5006F04D20220BB
:105560000390C020019010E0B4F5803F04D20320E6
:105570000390E020019008E0B4F5881F04D20420D5
:105580000390F020019000E027E00398401E00F017
:10559000FF0B0BE004F0BF0040F08000296801F829
:1055A0000B00A409ABF1010000F0FF0BBBF1000FF1
:1055B000F0DC0398012804DD019820432968087075
:1055C00003E004F07F002968087029680398084404
:1055D0002860029804B0BDE8F09F0020FAE70000C0
:1055E00010B502210148FCF7DBF910BD000C0140A9
:1055F00010B502210148FCF7D5F910BD000C01409F
:10560000456C65632D303031000020536C75696343
:10561000652D30303200000000DDDDDDDDDCBBBBA0
:10562000DDDDDDDDDDDDDDDDDD98888888888888ED
:105630008877777777778888888555555666666640
:1056400066666666666668888883333332222222FD
:1056500022222222222228888D000000E590B4E830
:1056600089BAE5BDAC0000008856000800000020A3
:10567000FC0C000044130008AC5F0008FC0C002088
:105680004423000014340008412D01020304048067
:1056900009060708090204060813B5331B08590454
:1056A000134D527914810B105C5614011772F85285
:1056B000331C100C0603912C40C07803112C043FBE
:1056C000040321367088FC0830261820FF211E14A0
:1056D000F008F033E0184D211C031E1133887000D0
:1056E0000C101E2123241927211010160E45E01836
:1056F000040225071820403D020418E0692C2018F8
:105700000707174080F08040403F0202010F01026E
:105710002842F01D0101011F04912B80B066B119D0
:105720001D2901912A30A5592C146018043C6018D9
:10573000061D1EE010080810721F0F102020100F09
:10574000F05310F83620203F20203C700808C21E7D
:105750003028242221441E3008888848082E18202A
:10576000202011CC3BC0203227070424243F241AD8
:10577000F8202308084B19212036E0108888184BA0
:105780000F11101E380808C8382021523F1A702EF9
:1057900029608F1C222121221C90111D31222211EF
:1057A000901961CAC0C26A80C659081C40201050B6
:1057B000170102040810204A4001114A040121196E
:1057C000152A403219251B0402F21B7048D13AF009
:1057D000501A360F1EC030C828E87028080718274E
:1057E0002423140B6F2A387E280D203C2302022725
:1057F000382008F888889F4B203FF01BC0303F1BA3
:10580000083830191019781B08F80F194039201B77
:10581000100F103E8888E8081010AC2320181011D3
:105820002A035E2940223829402C221E024019A456
:105830001809F808203F21010121252A0852298151
:1058400029424149112EC08080807F0E2FF888C0E8
:10585000281808501C0126382F2940292F29801B81
:1058600020301012F81AF81413203F190229204B87
:1058700030C0601A2074123F4BE010B06B0F10B0B4
:1058800029D01AF0301980220179203F18242438B9
:10589000504FC04C888870C0140C30204B7088C1A9
:1058A0001738202121221C3A189F4A188239A04912
:1058B000D0112A1F90121F240878881BC838151C85
:1058C00007380E60191A1AF8201114033C07140740
:1058D0003C034814081868808068180820302C039E
:1058E000032C30200838C82F5950298F29102F2019
:1058F0003826212020681145FE020202257F404003
:10590000401A0CE0611C0106380B191D42FE191DDE
:10591000527F1A04120211045A80011930D91D391C
:105920001621180819242222223F20AB390F115FBB
:105930003F112020110E21311A0E104B2011104B57
:1059400088F8102A10B359401A1F3F2B22130F1644
:10595000F0888888181A20D029D1497A21176B94A9
:10596000949493603960190F4C203F21F354809830
:1059700098793059121AC02719D1193039311F209E
:105980003F24022D30212A0812893069D7294B295A
:1059900003190BC96079A019BF2B201FDD390F9C9B
:1059A00080FFA1E0191229D03BA0FF0C395019410A
:1059B00012208A01C01B3324012A190F3AE0413911
:1059C00052290F392349603C103F202C29053F0103
:1059D0000E3008060170291038080F300C030C3007
:1059E0000F2C49A14E312E0E31200C29621D818EC3
:1059F00070183059D1215721302C22213055807C0C
:105A00000202443F404072FF39083C02027C8F543E
:105A100040403F4E02010202042F4117101010FFB8
:105A2000109010093F484844444442701D04448289
:105A30007F662BFF49011941200F2030AC6310080D
:105A400008F8090E08F80808180E2267221292803A
:105A50004021160816214088200F1010D0FF901406
:105A6000E4AFA4A4A4AFE4041B040377100B894B98
:105A70002A1A0E1A2A4B888019F61808FF202008C7
:105A80000808FF041AF870100F30100F8848211111
:105A90000D030D11214181151060028C16FE02F2DA
:105AA00002FE2AF8B1100B04047E018047300F106B
:105AB000272C47807FB71342CC2A90013EFF10115C
:105AC0001610E6100C1028603F1010010E3040F048
:105AD000172424A4FE23222B3E2201223E1808086C
