:020000040800F2
:1000000060450020450100080D170008051700088D
:100010000917000885120008892500080000000063
:10002000000000000000000000000000C9180008E7
:10003000E91400080000000095170008851D00085D
:100040005F0100085F0100085F0100085F01000810
:100050005F0100085F0100085F0100085F01000800
:100060005F0100085F0100085F0100085F010008F0
:100070005F0100085F0100085F0100085F010008E0
:100080005F0100085F0100085F0100085F010008D0
:100090005F0100085F0100085F0100085F010008C0
:1000A0005F0100085F0100085F0100085F010008B0
:1000B0005F0100085F0100085F0100085F010008A0
:1000C0005F0100085F0100085F0100085F01000890
:1000D0005F01000855210008E92100087D22000881
:1000E0005F0100085F0100085F0100085F01000870
:1000F0005F0100085F0100085F0100085F01000860
:100100005F0100085F0100085F0100085F0100084F
:1001100075200008092100085F0100085F01000840
:100120005F0100085F0100085F0100085F0100082F
:10013000DFF80CD000F0FEFE00480047C938000888
:10014000604500200648804706480047FEE7FEE776
:10015000FEE7FEE7FEE7FEE7FEE7FEE7FEE7FEE777
:10016000B11D000831010008A0F14101192900D892
:100170002030704740EA01039B0703D009E008C91B
:10018000121F08C0042AFAD203E011F8013B00F85C
:10019000013B521EF9D27047D2B201E000F8012BA8
:1001A000491EFBD270470022F6E710B513460A46F7
:1001B00004461946FFF7F0FF204610BD421E12F814
:1001C000013F002BFBD111F8013B02F8013B002B52
:1001D000F9D17047421C10F8011B0029FBD1801A8D
:1001E000704710B5002200E0521C835C8C5CA34277
:1001F00001D1002BF8D1D8B2E1B2401A10BD0346AC
:1002000011F8012B00F8012B002AF9D1184670478C
:1002100030B505460020034600E05B1C934205D242
:10022000EC5CC85C201A01D1002CF6D130BD000076
:100230000FB400B58DB010A909900B9000914FF04C
:10024000FF300A9000200C90054806900548079062
:100250006A4609A80F9900F0C9FC0DB05DF814FBBF
:10026000090C0008270C00082DE9FF4F087881B021
:100270009946FF2805D0491C2D2804D000240023CE
:1002800008E000230BE00124F9E703EB830300EB14
:100290004303491C0878FF28F7D104B15B420020D2
:1002A0000090147801462D2C01D02B2C04D1521C27
:1002B0002D2C12D00024009400251678FF2E0ED08D
:1002C0000A24A0FB04C801FB0481002700FB0711DE
:1002D000521C16EB0C006941EFE70124EBE799444F
:1002E00050EA01020ED00024AA4D2646DFF8A8826B
:1002F00000F0FBFD82468B46B9F1000009DAC9F136
:1003000000071BE001980021C0E9001105B0BDE81D
:10031000F08F074612E0F80707D022462B463046FA
:10032000414600F0ACFA0646884622462B46104667
:10033000194600F0A4FA04460D467F10002FEAD1BA
:10034000B9F1000F324643465046594602DA00F0F2
:100350005DFD01E000F093FA009A0AB181F00041DE
:10036000019AC2E90001D1E72DE9FF4F1F468DB088
:10037000D7E901464FF0FF382E2045464FF00009DF
:100380000B90B9696D1C0E988847396A8246884778
:100390000028F6D1BAF1FF3F0AD024F4D064002E31
:1003A00011DDBAF12B0F08D0BAF12D0F0BD102E0FD
:1003B000404611B0ABE744F48064B9696D1C0E98F7
:1003C00088478246761E6946600501D52D2000E0EB
:1003D0002B208DF8000001F1010B0DF1200809E040
:1003E000B9696D1C0E98884782460F9844F40074D2
:1003F000761E0560002E02DDBAF1300FF0D00B99A9
:100400008A453ED144F0800406E00F99681CA9F1AA
:10041000010944F400740860B9696D1C761E0E98D9
:10042000884782463028F0D02BE00B998A4505D1C9
:10043000200603D444F08004761E18E0504602F0F3
:10044000F5F908B30DF11301761E44F400748B45E1
:1004500008D2AAF130000BF8010B200607D5A9F14C
:10046000010003E0200602D409F101008146A00545
:1004700002D50F99681C0860B9696D1C0E988847F1
:100480008246002ED1DC53E0002E51DDBAF1650F1B
:1004900002D0BAF1450F4BD1A00549D5B9696D1C01
:1004A00024F44074761E0E9888478246002E0CDD98
:1004B0002B2804D0BAF12D0F07D144F48074B96908
:1004C0006D1C0E9888478246761EE00501D52D21C9
:1004D00000E02B2108F8011BCDF82C8021E00DF164
:1004E0002901761E44F4007488450CD2AAF130002C
:1004F00010F0FF0088F8000002D10B99884509D957
:1005000008F1010806E0E00501D5244801E042F2C7
:100510000F708146B9696D1C0E98884782460F9806
:100520000560002E04DD504602F080F90028D6D187
:10053000F9690E988847FF208BF8000088F80000C2
:100540000020069007904B466A4608A906A8FFF7C8
:100550008BFEA00502D46FF001002AE714F0240FEF
:100560000AD0E00714D1DDE906123868031D3B60AC
:100570000068C0E900120BE0DDE9060100F08EFA28
:100580000146E00704D13868021D3A600068016046
:1005900028460EE7000024400000F03FF1D8FFFF9E
:1005A000F0B480EA0102D40F4200B2EB410F02D254
:1005B0000246084611464A0042D0C30DDDB2C1F3DF
:1005C000C752AD1A202D35DAC1F3160141F40002ED
:1005D00004B15242C5F1200602FA06F12A41104444
:1005E000B3EBD05F23D0C4B1012DA0EBC35009DC25
:1005F000F0BC4FF0004202EAC352DBB200F500004B
:1006000000F079BB400000F1807000EBC350A0F116
:10061000807040EAD170490009E0490841EAC071A0
:10062000A0EBC35000F50000400800EBC350F0BC45
:1006300000F058BB6142012202EB4101001BF6E7CA
:10064000F0BC704781F00041AAE780F00040A7E7C6
:1006500080EA010210B502F00043400022D04A00B7
:100660001FD0010E01EB1261C0F35600C2F3560217
:1006700040F4000042F40002A0FB022000047F3995
:10068000140400D0401C50EA124001D44000491E1E
:10069000C2B20C0604EBD010401C4008802A02D0E5
:1006A00003E0002010BD20F00100002900DA002046
:1006B000184310BD30B480EA010202F0004530F06A
:1006C000004221F0004013D090B1C30DD40DC2F30D
:1006D0001601C0F31600E41A41F4000140F40002D0
:1006E0007D34914201D3641C00E04900002C02DA01
:1006F00030BC002070474FF400000023914201D32A
:10070000891A034340084FEA4101F7D151B19142A0
:1007100002D14FF0004105E002D24FF0010101E0AB
:100720006FF0010103EBC450284430BC00F0DABA8A
:100730002DE9FE4F804681EA0300C00F0C46009071
:1007400021F0004123F00045B8EB0200A94105D299
:100750004046214690461C460B46024623F0004088
:10076000104347D0270DC7F30A00C3F30A51029084
:10077000401A019040286BDAC3F3130040F4801B49
:100780000098924620B10023D2EB030A63EB0B0BD7
:1007900001985946C0F14002504600F0E2F9064681
:1007A0000D4650465946019A00F0FAF910EB080040
:1007B0006141002487EA115284EAE7731A4340D06A
:1007C000009A62B3019A012A4FEA075215DC001B16
:1007D00061EB02014FF0004202EA0752CDE900420C
:1007E000001C41F5801132462B4600F0C1FA03B0DF
:1007F000BDE8F08F40462146F9E7001B61EB02019E
:10080000001C41F5801300185B412018A2F5001769
:1008100047EB030140EAD570B6196D4111E06D0850
:100820004FEA360645EAC0754FEA0752001B61EBF6
:100830000201001C41F5801149084FEA30000019FF
:10084000514132462B4603B0BDE8F04F00F081BA6B
:100850000098012240000023D0EB020263EBE0731A
:10086000009821464FEAE074B8EB000061EB040108
:10087000E9E783F000435BE781F0004158E72DE9A9
:10088000FE4F81EA030404F0004421F0004100948B
:100890004FF0000B23F0004350EA01045ED052EA0F
:1008A00003045BD0C3F30A54C1F30A552C44A4F2E9
:1008B000F3340194A0FB0254C1F3130141F48011FD
:1008C000C3F3130343F4801301FB024400FB034E04
:1008D000840A970A44EA815447EA8357A4FB0768CD
:1008E00002958D0A05FB07854FEA932C04FB0C54F7
:1008F0002705029D4FEA065847EA1637B5EB08056B
:100900006EEB070C870E920E47EA811742EA8312BC
:10091000A7FB0201B6EB0B0164EB00042B0D43EACD
:100920000C335E1844EB1C50DA465146E7FB0201DB
:10093000C5F313044FEA0B3343EA14534FEA04326E
:10094000019C43EA0603A4F10C040294009CCDE947
:1009500000B400F00DFA03B0BDE8F08F00200146AE
:10096000F9E7C10F80EAE0700844CA079623002126
:1009700000F0C1B90EB5C10F80EAE0700844CA07A3
:10098000002140F233438DE80E000A460B4600F08A
:10099000EFF903B000BD0EB540F2334102910021E2
:1009A000CDE900110A460B4600F0E2F903B000BDA4
:1009B00020F00040C10DC0F3160040F400007F2974
:1009C00001DA00207047962903DCC1F19601C84086
:1009D000704796398840704770B5C1F30A5201F0EC
:1009E00000450024C1F3130140F2FF3341F48011AC
:1009F0009A4201DA002070BD40F233439A42A2F2DB
:100A0000334203DC524200F0BBF800E090402C433C
:100A1000F1D0404270BD00F0004230F000400AD0FA
:100A2000C10D01F56071C0F3160042EA0151C20820
:100A300040071143704700200146704730B5041E3F
:100A400071F1000404DB4FF00044404264EB01010B
:100A5000141E73F1000405DB1C464FF000435242A4
:100A600063EB04038B4208BF824230BD30B5041EE5
:100A700071F1000404DB4FF00044404264EB0101DB
:100A8000141E73F1000405DB1C464FF00043524274
:100A900063EB0403994208BF904230BD01F000436C
:100AA00030B421F0004150EA010206D00A0DA2F54F
:100AB0006072C1F31301002A02DC30BC00207047D1
:100AC000440F44EAC104C100E01830BC00EBC2503E
:100AD00000F008B930B50B46014600202022012461
:100AE00009E021FA02F59D4205D303FA02F5491BFC
:100AF00004FA02F52844151EA2F10102F1DC30BD12
:100B00002DE9F05F0546002092469B468846064642
:100B1000814640241BE0284641464746224600F0D5
:100B20002FF853465A46C01A914110D31146184621
:100B3000224600F016F82D1A67EB01084F462246B0
:100B40000120002100F00DF817EB00094E41201E96
:100B5000A4F10104DFDC484631462A464346BDE89D
:100B6000F09F202A04DB203A00FA02F100207047AF
:100B70009140C2F1200320FA03F3194390407047DB
:100B8000202A04DB203A21FA02F00021704721FAE2
:100B900002F3D040C2F12002914008431946704749
:100BA000202A06DBCB17203A41FA02F043EAE07331
:100BB00006E041FA02F3D040C2F12002914008431E
:100BC0001946704700487047044D000810B50446A8
:100BD000FFF7F8FF0068005D00F0010010BD0000A5
:100BE000026811441378016018467047D1600449C7
:100BF00051610449116200211161114600F0ACB944
:100C0000E10B0008CD0B0008426842B1016811F801
:100C1000013B23B1521EC0E9001218467047012162
:100C2000C160881E704742685AB1C368016843B901
:100C300083688B4205D0491E521CC0E90012002077
:100C400070474FF0FF3070470FB4002300B589B0F4
:100C50000CA900910B996FF00042CB601E4B0693DC
:100C60001E4B07930423CDE901321D4A0892024628
:100C70006B460020FFF778FB09B05DF814FB70B5F8
:100C800086B006464FF0FF300091CDE9010100200B
:100C900015460C4604903246694604A8FFF7D4FF77
:100CA00003460498211825B108B10A4600E02246FF
:100CB0002A6000280DD0002B02DD0098884208D061
:100CC000081B0094CDE901043246694604A8FFF7E9
:100CD000BBFF06B070BD0000090C0008270C00081F
:100CE000CD0B00080029A8BF7047401C490008BF71
:100CF00020F00100704710B4B0FA80FC00FA0CF04C
:100D000050EA010404BF10BC704749B1CCF1200483
:100D100021FA04F411FA0CF118BF01212143084310
:100D2000A3EB0C01CB1D4FEA00614FEA102042BF3C
:100D3000002010BC704700EBC35010440029A4BF32
:100D400010BC7047401C490008BF20F0010010BCD7
:100D5000704710B5141E73F1000408DA401C41F10D
:100D6000000192185B411A4301D120F0010010BD2F
:100D70002DE9F04D92469B4611B1B1FA81F202E0A5
:100D8000B0FA80F220329046FFF7EBFE04460F46A1
:100D900040EA0A0041EA0B0153465A46084313D081
:100DA000114653EA010019D0C8F140025046FFF73E
:100DB000E7FE05460E46504659464246FFF7D1FE2D
:100DC000084305D0012004E020463946BDE8F08DF7
:100DD0000020054346EAE0762C4337430A98630532
:100DE000E40AA0EB08000022FD0A44EA47540A3056
:100DF00002D500200146E9E7010510196941DDE946
:100E0000084500196941BDE8F04DA2E72DE9F04D14
:100E100081EA030404F0004B21F0004514464FF032
:100E2000000A23F0004150EA050220D054EA0102F2
:100E30001DD0C5F30A570246C5F31303C1F31300CF
:100E4000C1F30A5640F4801543F48013A7EB06085B
:100E5000101BD64608F2FD3873EB050002D308F1EB
:100E6000010801E092185B41B8F1000F03DA00209D
:100E70000146BDE8F08D00204FF4801106468446FF
:100E80000EE0171B73EB050705D3121B63EB05037D
:100E900006434CEA010C49084FEA300092185B41C6
:100EA00050EA0107EDD152EA030012D082EA0400B1
:100EB00083EA0501084305D0101BAB4106D201228D
:100EC000002306E000224FF0004302E06FF0010231
:100ED00053101AEB06004CEB085110EB0A0041EBE3
:100EE0000B01BDE8F04DFFF734BF0EB540F23342C1
:100EF00002920022CDE900221346FFF739FF03B02A
:100F000000BDC1F30A52C1F3130140F2FF3341F4B3
:100F100080119A4202DA00200146704740F23343C2
:100F20009A42A2F2334202DC5242FFF729BEFFF797
:100F300018BE0000064C074D06E0E06840F00103D3
:100F400094E8070098471034AC42F6D3FFF7F4F862
:100F5000084D0008284D00082DE9F34F8BB04FF0E5
:100F6000000801F10C000C464FF0010B46460DF154
:100F7000080A0190626901210198904705002DD06F
:100F8000252D2CD0216A8847C0B1626901210198C2
:100F90009047216A88470028F7D1411E626901986D
:100FA000904700E0761CA1690B988847216A884722
:100FB0000028F7D1E1690B988847DBE7A1690B9816
:100FC00088470746A84201D1761CD3E7E1690B9810
:100FD00088477F1C02D1B8F1000F6FD046E100278F
:100FE00062693D463946019890472A2804D16269D2
:100FF0000121019890470125DFF88492626901215F
:1010000001989047A0F130010A290AD24F45E5DC4A
:1010100007EB870100EB4107303FDFD445F01005B7
:10102000ECE7E90601D46FF000476C280AD04C28A1
:1010300014D0682815D06A280DD074281CD07A28BE
:101040001AD01DE062690121019890476C2802D0F6
:1010500045F0040514E045F002050DE045F02005DB
:101060000AE06269012101989047682802D045F0A2
:10107000080505E045F40065626901210198904783
:10108000C4E9015765283DD019DC58287AD00CDC1A
:10109000452837D004DC252826D0412831D131E03D
:1010A00046282FD047282CD12CE05B2877D0612808
:1010B00028D063287CD0642823D15AE0D0E06F2860
:1010C00048D008DC66281DD067281BD0692821D0AD
:1010D0006E2816D127E0702845D0732868D075286F
:1010E00047D078280DD14DE0A1690B988847054677
:1010F00025283FF469AFE1690B9888476D1C3FF4E0
:101100006AAFB3E023466A466FF001000B99FFF720
:101110002BF99EE045F040006060A80723464FF0A1
:10112000000236D43EE0E8077FF447AF2068011D97
:1011300021600068290501D506701BE7290701D544
:10114000068017E7A90703D5F117C0E9006111E789
:1011500006600FE745F040006060A80723464FF0A7
:10116000080216D41EE040F60E0125EA0100606078
:1011700016E045F040006060A80723464FF00A02E1
:1011800007D40FE045F040006060A80708D523466B
:1011900010226FF001000B99AFF3008059E007E0D7
:1011A000234610226FF001000B99AFF3008050E04E
:1011B0004FF000094F464B46632802D05B2806D00B
:1011C00040E0E80601D40120A06001273AE062690E
:1011D0000121019890475E2805D14FF0010962690D
:1011E000494601989047216939B900210A4653467A
:1011F00043F82120491C0829FADBB0B3216969B9F9
:10120000C11700EBD16253110AEB830122F01F02D8
:10121000821A01200B68904003430B606269012130
:10122000019890475D28E8D1B9F1000F09D000205E
:10123000514651F82020D24341F82020401C082874
:10124000F7DB02AB224600976FF001000B99AFF37A
:10125000008000280CDA401C08D1BBF1000F05D03B
:101260004FF0FF300DB0BDE8F08FFFE74046F9E7E3
:10127000E90701D108F1010806444FF0000B79E6B7
:10128000CCCCCC0C00BFFEE730B5ADF50F7D02F045
:101290000DFB002853D000254AE0654901EB85117C
:1012A000081D6449FEF79DFF002840D1002400BFBF
:1012B00018E004EBC402604901EBC201081D5D495E
:1012C000FEF78FFF68B904EBC4015B4800EBC10077
:1012D000006C401C04EBC402574901EBC2010864D6
:1012E00005E0641C5548D0F8240CA042E1DC00BFA6
:1012F0005248D0F8240CA04218D14D4A02EB851177
:1013000004EBC4034C4A02EBC3004022FEF732FF59
:10131000012104EBC402484800EBC20001644748C5
:10132000D0F8240C401C4549C1F8240C00BF6D1CAA
:10133000434800688542B0D301F0E0F874E03F48CC
:10134000D0F8240C00903C48001F3EA24FF40071DE
:1013500003680FA801F02AF9002418E004EBC40187
:10136000354850F8313045A208210DA801F01EF98A
:101370000DA90FA8FEF722FF3048D0F8240C401E1C
:10138000A04203D03EA10FA8FEF718FF641C2B4813
:10139000D0F8240CA042E1DC3AA10FA8FEF70EFF22
:1013A000002419E004EBC401234800EBC10033A280
:1013B0000821036C0BA801F0F9F80BA90FA8FEF7A0
:1013C000FDFE1E48D0F8240C401EA04203D02CA1E4
:1013D0000FA8FEF7F3FE641C1848D0F8240CA042B6
:1013E000E0DC1649D1F82C0CFFF715FB2AA2CDE959
:1013F0000001202103A801F0D9F803A90FA8FEF7E6
:10140000DDFE0FA92C4803F08EFB2CA12CA001F0CF
:10141000BDF801202E49087000202E49087027A130
:101420002DA001F0B3F800BF0DF50F7D30BD000019
:1014300098050020A81500202C1600202826002042
:10144000340000203C696E64656E742E73746172A2
:10145000743E5B757365725F69645D25645B64618E
:1014600074615F6E756D5D25645B476F6F64734972
:10147000644C6973742D3E5D00000000256400001B
:101480002C0000005B476F6F64734E756D62657270
:101490004C6973742D3E5D005B646973636F756E98
:1014A000745D252E32663C696E64656E742E656EC1
:1014B000643E0D0A00000000004C0040FFFFFF00EA
:1014C00070616765207061676533257300000000F7
:1014D000410000203F000020706167652070616757
:1014E0006530257300000000704700000349086064
:1014F00000BF024909680029FBD170475000002055
:1015000010B50446204603F04BFA10BD10B5044652
:1015100021A12046FEF765FE002831D11F49087041
:1015200003F080FA0EE000F0CFFE4FF48071204609
:10153000FEF739FE00201A49088000F031FEC8206D
:10154000FFF7D4FF154800780028ECD01548007844
:10155000B0B915A115A001F019F813A114A001F05C
:1015600015F84FF47A70FFF7C1FF0FA113A001F037
:101570000DF8012003F00EFA1449087800F0D8FBAA
:1015800013A12046FEF72DFE20B901200349087063
:101590000449087010BD0000AA0000003D000020B2
:1015A000280000203E000020FFFFFF002573000000
:1015B0007669732074302C31257300007061676583
:1015C00020706167653225730000000088150020D7
:1015D000BB00000010B5024800F016FB10BD000073
:1015E0000000B44210B5002000F00EFB10BD2DE944
:1015F000F041024600250026002000230024002799
:1016000091F803C00CF00F0591F803C00CF0100C1A
:10161000BCF1000F03D091F802C04CEA050591F827
:1016200000C0BCF1000F31D0146800202BE04FF057
:10163000010C0CFA00F3B1F800C00CEA03069E425C
:1016400020D183004FF00F0C0CFA03F7BC4305FACE
:1016500003FC4CEA040491F803C0BCF1280F06D146
:101660004FF0010C0CFA00FCC2F814C00AE091F82B
:1016700003C0BCF1480F05D14FF0010C0CFA00FC7F
:10168000C2F810C0401C0828D1D31460B1F800C0C3
:10169000BCF1FF0F34DD546800202EE000F1080C8F
:1016A0004FF0010808FA0CF3B1F800C00CEA030689
:1016B0009E4221D183004FF00F0C0CFA03F7BC437C
:1016C00005FA03FC4CEA040491F803C0BCF1280FAE
:1016D00005D100F1080C08FA0CF8C2F8148091F852
:1016E00003C0BCF1480F07D100F1080C4FF001080E
:1016F00008FA0CF8C2F81080401C0828CED35460B9
:10170000BDE8F08100BFFEE700BFFEE770470000C4
:1017100070B5002100230F22C47804B3154C24684F
:1017200004F4E064C4F5E064210AC1F10403CA4092
:10173000447804FA03F184781440214309010E4CE3
:101740000678A155047804F01F050124AC40057803
:101750006D11AD0005F1E025C5F8004109E0047800
:1017600004F01F050124AC40044D0678761145F8BD
:10177000264070BD0CED00E000E400E080E100E0F8
:1017800002490143024A1160704700000000FA0557
:101790000CED00E07047000029B1064AD26902430F
:1017A000044BDA6104E0034AD2698243014BDA61F7
:1017B000704700000010024029B1064A92690243B6
:1017C000044B9A6104E0034A92698243014B9A6197
:1017D000704700000010024030B5002100220024B4
:1017E00000232D4D6D6805F00C0121B1042905D0B1
:1017F000082923D105E0294D056022E0274D056029
:101800001FE0254D6D6805F47012234D6D6805F4D9
:101810008034022505EB92421CB9214D55430560E9
:101820000BE01D4D6D6805F400351DB11C4D554391
:10183000056002E0194D5543056002E0174D056053
:1018400000BF00BF144D6D6805F0F0010909154D8A
:101850006B5C0568DD4045600F4D6D6805F4E06127
:10186000090A104D6B5C4568DD4085600A4D6D6866
:1018700005F46051C90A0B4D6B5C4568DD40C560DD
:10188000054D6D6805F44041890B074D6B5CC568DB
:10189000B5FBF3F5056130BD0010024000127A007F
:1018A00000093D00000000201000002010B500F0ED
:1018B00077FC00F0BFFC00F007FD00F001FC00F039
:1018C000A1FB00F0C1FB10BD7047000010B5012066
:1018D0004E4908608007C8634DA251A14B48001DC6
:1018E00000F078FE4FA24EA14848183000F072FE7A
:1018F0000220464908644E494448C1674DA248A1A8
:10190000443000F067FE4FA245A14048583000F037
:1019100061FE03203D49C1F880004E493B48C0F8B4
:10192000BC104DA23EA1843000F054FE4EA23CA15A
:101930003648983000F04EFE04203449C1F8C0000B
:101940004FF081413148C0F8FC104AA234A1C430A4
:1019500000F040FE4BA232A12C48D83000F03AFEF5
:1019600005202A49C1F800014FF081412748C0F8FD
:101970003C1147A22AA100F5827000F02BFE48A27C
:1019800027A14D4800F026FE06202049C1F840015D
:101990004FF081411D48C0F87C1148A220A100F5FC
:1019A000A27000F017FE49A21DA14348403000F08C
:1019B00011FE07201549C1F880014A491348C0F8B3
:1019C000BC1149A216A100F5C27000F003FE4AA2A4
:1019D00013A13948803000F0FDFD08200B49C1F803
:1019E000C0014FF081410948C0F8FC1145A20CA18B
:1019F00000F5E27000F0EEFD46A209A12E48C030CD
:101A000000F0E8FD08204749086010BD9805002057
:101A10003639313738373830303038373900000010
:101A200025730000E88486E88486E9B2A8000000F7
:101A30000000704136393534343332373130323288
:101A400035000000E782ABE8BF88E58FA3E9A699DF
:101A5000E7B3960000004040363932323235353433
:101A60003437383333000000E799BEE5B281E5B181
:101A7000B100000036393735363832343830303539
:101A800038000000E69E9CE7B292E6A999000000AB
:101A900036393235333033373330353734000000A0
:101AA000E998BFE890A8E5A786E58E9FE591B3E5A4
:101AB000A5B6E88CB6000000B006002036393235F5
:101AC000333033373839313833000000E998BFE814
:101AD00090A8E5A786E88C89E88E89E5A5B6E88C0C
:101AE000B60000000000A0403639303230383339BB
:101AF00032323635380000004144E99299E5A5B606
:101B0000000000003639323638393235313530335D
:101B100030000000E88AB1E7949FE7899BE5A5B60D
:101B2000000000003400002010B5012008490860C2
:101B300008A20BA10648001D00F04CFD09A208A157
:101B40000348183000F046FD01200849086010BD28
:101B500018120020E590B4E889BAE5BDAC00000099
:101B60002573000031323334353600003800002050
:101B700000B589B001210846FFF70EFE01210420BF
:101B8000FFF71AFE18208DF823000220ADF8200080
:101B900003208DF8220008A91A48FFF728FD4FF00E
:101BA000804000F079F90020ADF81A00ADF8160079
:101BB00044F61F60ADF818004720ADF8140000206F
:101BC0008DF81C0005A94FF0804000F0C9F901A86C
:101BD00000F0BAF96020ADF804000020ADF80C0068
:101BE0000120ADF806000020ADF80A0001A94FF071
:101BF000804000F057F90121880700F041F909B051
:101C000000BD0000000801402DE9F04104460B49E9
:101C10002046FEF74FFD80460949FEF719FD0746AD
:101C20000849FEF7BDFC0646FEF7C2FE85B229460E
:101C30004FF0804000F092F9BDE8F081000034439D
:101C40000000FA440000FA4310B500F001F810BD9E
:101C50000CB50020019000903348006840F48030BB
:101C60003149086000BF3048006800F4003000903F
:101C70000198401C0190009818B90198B0F5A06F28
:101C8000F1D12948006800F4003010B10120009023
:101C900001E0002000900098012843D1234800680B
:101CA00040F01000214908600846006820F0030059
:101CB00008600846006840F0020008601A48406862
:101CC000194948600846406848600846406840F442
:101CD000806048600846406820F47C1048600846F0
:101CE000406840F4E81048600846006840F08070A2
:101CF000086000BF0C48006800F000700028F9D0B0
:101D00000948406820F003000749486008464068D9
:101D100040F00200486000BF0348406800F00C003B
:101D20000828F9D10CBD000000100240002002403C
:101D300010B50446204601F013FC00F0DFFB034819
:101D400003A2016803A000F021FC10BD28160020AA
:101D5000FFFFFF0070616765322E74322E74787455
:101D60002B3D2225642225730000000010B50020C1
:101D700080F3108800BF4FF4A060FFF701FD00F072
:101D800047F810BD002000BF0CE0084951F82010B2
:101D900031B1064951F82010491E044A42F820107A
:101DA000411CC8B21228F0DB704700005000002030
:101DB00010B51348006840F001001149086008465A
:101DC0004068104908400E494860084600680E49BE
:101DD00008400B4908600846006820F4802008602D
:101DE0000846406820F4FE0048604FF41F008860F9
:101DF000FFF72AFF4FF000600449086010BD0000A3
:101E0000001002400000FFF8FFFFF6FE08ED00E0C2
:101E100070B5002100BF05E00020154A42F82100FE
:101E2000481CC1B21229F7DB124AB2F1807F00D3FD
:101E30001DE022F07F40401E4FF0E023586158170C
:101E40000F23002807DA1C07260E0B4C00F00F05A5
:101E50002D1F665503E01C07250E084C255400BFB6
:101E600000204FF0E02398610720186100BF70BD8B
:101E7000500000204019010018ED00E000E400E0EF
:101E800021B1028842F00102028004E002884FF68C
:101E9000FE731A400280704701894FF6F8721140B4
:101EA0000181704770B5002400220023058C4FF695
:101EB000EF7635400584028C8388048B48F6FF75E5
:101EC0002C404FF6FF452C400D884FF6FF7606EA72
:101ED00005252C434FF6DF752A400D8906EA0515C6
:101EE0002A434D8806EA05152A43154DA84202D01B
:101EF000144DA8421DD14FF67F752A404D894FF6EB
:101F0000FF7606EA05152A434FF6BF752A408D88ED
:101F100006EA05152A434FF6FF352B404FF2FF75B1
:101F20002B408D8906EA85052B43CD8906EA850578
:101F30002B4383800483CD880587028470BD000015
:101F4000002C01400034014000210180418081804B
:101F5000C180018141818181C181704701877047C2
:101F6000002202881D4B98420ED01D4B98420BD088
:101F7000B0F1804F08D01B4B984205D01A4B9842C5
:101F800002D01A4B984204D14FF68F731A404B88F7
:101F90001A43174B984207D0164B984204D04FF67D
:101FA000FF431A40CB881A4302808B8883850B88B5
:101FB00003850A4B98420BD0094B984208D00E4B30
:101FC000984205D00D4B984202D00D4B984201D15A
:101FD0000B7A03860123838270470000002C0140A6
:101FE000003401400004004000080040000C0040A4
:101FF0000010004000140040004001400044014037
:102000000048014010B50C48C06A00B110BD0B4833
:1020100000680949C8620A48007850B10948007848
:1020200028B1FFF7DFFA00200649087001E0FFF74A
:10203000D1FA00BFEAE7000050000020704C000811
:10204000400000204100002010B50748006B00B19F
:1020500010BD064840680449086302F0FFFC04A074
:1020600000F094FA00BFF3E750000020704C000825
:102070003131000010B540F225510D4800F079F9DA
:1020800001280ED10A200B490861094800F02CFAFA
:10209000C4B2094801880088401C074A10800748DC
:1020A000445440F22551024800F03BF910BD0000B5
:1020B000004C0040500000202E000020980300201B
:1020C00010B50E48006908B1002010BD0C4800880A
:1020D00008B90020F9E700200A49094A1288885403
:1020E000084602F0D3FA4FF480710648FEF75BF819
:1020F0000020034908800120E7E70000500000208D
:102100002E0000209803002010B540F225510D4804
:1021100000F02FF901280ED10A200B494861094827
:1021200000F0E2F9C4B2094801880088401C074A5F
:1021300010800748445440F22551024800F0F1F85D
:1021400010BD000000500040500000203000002072
:102150009804002010B540F225510D4800F009F90F
:1021600001280ED10A200B494860094800F0BCF94B
:10217000C4B2094801880088401C074A10800748FB
:10218000445440F22551024800F0CBF810BD000045
:102190000038014050000020280000209800002056
:1021A00010B50E48406808B1002010BD0C480088EA
:1021B00008B90020F9E700200A49094A1288885422
:1021C0000846FFF7A3F94FF480710648FDF7EBFFCF
:1021D0000020034908800120E7E7000050000020AC
:1021E000280000209800002010B540F225510D482D
:1021F00000F0BFF801280ED10A200B498860094879
:1022000000F072F9C4B2094801880088401C074AEE
:1022100010800748445440F22551024800F081F8EC
:1022200010BD000000440040500000202A000020A3
:102230009801002010B50E48806808B1002010BD3C
:102240000C48008808B90020F9E700200A49094A2B
:1022500012888854084602F0B7FB4FF48071064894
:10226000FDF7A1FF0020034908800120E7E70000F7
:10227000500000202A0000209801002010B540F2F4
:1022800025510D4800F075F801280ED10A200B49A0
:10229000C860094800F028F9C4B2094801880088DC
:1022A000401C074A10800748445440F22551024818
:1022B00000F037F810BD000000480040500000203A
:1022C0002C0000209802002010B50E48C06808B10C
:1022D000002010BD0C48008808B90020F9E7002054
:1022E0000A49094A128888540846FFF709F94FF449
:1022F00080710648FDF757FF002003490880012040
:10230000E7E70000500000202C0000209802002089
:1023100001F40072B2F5007F00D100BFCA43028011
:10232000704710B50022002340F66A14A14200D184
:1023300000BF0A1201249440A3B2DC43048010BD04
:1023400021B1828942F40052828104E082894DF6F3
:10235000FF731A408281704702460020B1F5007F6A
:1023600000D100BF13880B400BB1012000E000201A
:10237000704770B50246002400230025002040F677
:102380006A16B14200D100BFC1F3421501F01F032C
:10239000012606FA03F3012D02D19689334006E0A7
:1023A000022D02D1168A334001E0968A33400C1286
:1023B000012606FA04F41688344013B10CB101204A
:1023C00000E0002070BDF0B5034600240026002583
:1023D000002040F66A17B94200D100BF1846C1F389
:1023E000421401F01F06012707FA06F5012C01D15E
:1023F0000C3004E0022C01D1103000E014301AB18E
:1024000007682F43076002E00768AF430760F0BD2D
:102410002DE9F04786B005460E460024A24600BFCF
:10242000A1460027B08900B100BF2F462C8A4CF688
:10243000FF700440F08804432C82AC894EF6F31000
:102440000440B08831890843718908430443AC8152
:10245000AC8A4FF6FF400440B0890443AC8201A827
:10246000FFF7BAF91F48874202D1DDF810A001E05A
:10247000DDF80CA0A88900F4004040B10AEBCA00C6
:1024800000EB0A1031684900B0FBF1F807E00AEBF5
:10249000CA0000EB0A1031688900B0FBF1F8642033
:1024A000B8FBF0F004012009642101FB1089A88920
:1024B00000F4004040B1322000EBC900B0FBF1F065
:1024C00000F00700044308E0322000EB091064210B
:1024D000B0FBF1F000F00F0004432C8106B0BDE822
:1024E000F08700000038014001468888C0F30800EA
:1024F0007047C1F3080282807047000070B5002168
:102500001F48C0F8281C002426E004EBC4021D4923
:1025100001EBC201086CFEF724FA054604EBC40285
:10252000184800EBC200C16B2846FEF791F804EB97
:10253000C402144901EBC201486404EBC403114A0C
:1025400002EBC302516C0E4AD2F8280CFEF728F8B1
:102550000B49C1F8280C641C0948D0F8240CA0428F
:10256000D3DC074AD2F8281CD2F82C0CFEF770F8FE
:102570000349C1F8300CA1F5805002F051F970BD4B
:10258000282600202C16002000BFFEE70FB4054BC4
:1025900010B503A9044A029800F050F910BC5DF888
:1025A00014FB0000B1340008440000200FB41CB537
:1025B0000A46521ECDE9000207A9054B6A46069855
:1025C00000F03CF9009A002111701CBC5DF814FB6E
:1025D0006B2F00080FB4084B10B504A902AA03988A
:1025E00000F02CF9044602A9002000F0C9FC2046A6
:1025F00010BC5DF814FB0000812F000830B528B135
:10260000144C031F002021680A4605E0084630BD2F
:102610009A4203D810465268002AF9D1002800D007
:1026200041680BD00468A3EB0005A54204D11B68E8
:102630001C440346046002E0436000E023603AB1BA
:102640001C68D51AA54203D115682C441C60526839
:102650005A6030BD480000202DE9F04782460F4CFB
:1026600010480D4E0E4F001B4FF0000820F00705DC
:102670004FF0010900221146504601F0EFF8002802
:1026800002D1306810B10020BDE8F0873C60C4E999
:102690000058C6F80090EDE74C000020643200209E
:1026A000480000206041002002E008C8121F08C155
:1026B000002AFAD170477047002001E001C1121FC3
:1026C000002AFBD1704700002DE9FF5FDDE9022001
:1026D000010DDDF838B0024318D044F61050A1F2D5
:1026E000FF3141430D140F98012820D0A5EB0B00BA
:1026F000401C5FEA000A4FF00004474EDFF81C91CF
:10270000A046504616D5CAF1000728E00F980124CC
:1027100043A2012808D0002100980F9BC0E90021A6
:10272000C0E90243BDE8FF9F6FEA0B01F4E7CBF17C
:102730000000DEE7074612E0F80707D022463346DE
:1027400040464946FEF79BF8804689462246334676
:1027500010461946FEF793F804460E467F10002FE8
:10276000EAD1DDE90201BAF1000F42464B4602DA36
:10277000FEF785F801E0FEF749FB04460E4600220D
:10278000284BFEF773F903D84FF0FF30014607E0FE
:102790000022254B20463146FDF7CAFFFEF7B1FB6C
:1027A000102409E0002C0ADB0A220023FEF7A8F916
:1027B000019B30321A55641E50EA0102F2D1641CAA
:1027C000019AC4F1110314440F9A012A03D0012283
:1027D00008430DD10AE0084304D000204FF0110B4C
:1027E0000F9080E7A3EB0B056D1E0DE05B4504DD4C
:1027F0004FF0000205F1010504E003DA4FF000029A
:10280000A5F10105002AECD000980F99C0E902312A
:10281000C0E9004586E70000000024400000F03FCA
:10282000300000000000F0430000E03F30380A288C
:1028300001D2012070470020704700002DE9FF4FB2
:1028400095B09B468946064600250FE2252877D19C
:1028500000242746F84A0121059400E0044316F8B5
:10286000013F203B01FA03F01042F7D130782A28CB
:1028700011D06FF02F033078A0F13002092A16D85A
:10288000059A44F0020402EB820203EB4202104478
:10289000761C0590EFE759F8042B0592002A03DA1D
:1028A000504244F40054059044F00204761C307801
:1028B0002E2816D116F8010F44F004042A280DD052
:1028C0006FF02F023078A0F13003092B09D807EB05
:1028D000870302EB4303C718761CF3E759F8047B20
:1028E000761C30786C280FD006DC4C2817D068286E
:1028F0000DD06A2814D104E0742810D07A280FD1A2
:102900000DE044F400140AE044F4801401E044F4BF
:1029100040147278824202D104F58014761C761C31
:10292000307866280BD013DC582877D009DC0028D3
:1029300075D04528F6D04628F4D047281AD19DE115
:1029400018E0632835D0642879D0652812D195E144
:10295000702873D008DC6728F1D069286FD06E2802
:102960000DD06F2806D1B5E073282CD0752875D00E
:10297000782874D05A46179990476D1C75E1C4F3B6
:102980000250022809D003280DD0D9F800100428DD
:102990000DD00D6009F1040967E1D9F80010EA17BC
:1029A000C1E90052F6E7D9F800100D80F2E70D708A
:1029B000F0E719F8041B8DF8001000208DF80100D5
:1029C000EA46012003E059F804AB4FF0FF306107FD
:1029D0004FF0000102D40DE008F101018846B94230
:1029E0000FDA8045F8DB1AF808100029F4D108E066
:1029F00008F1010188468142FADB1AF80810002923
:102A0000F6D105985B46A0EB080721463846179A91
:102A100000F094FA284400EB080507E04DE029E1B6
:102A20000DE01AF8010B5A4617999047B8F10108C2
:102A3000F7D25B4621463846179A13E142E00A2254
:102A40000092C4F302524FF0000A022A08D059F84B
:102A500004CB032A4FEAEC710AD00DE029E02AE00A
:102A600009F1070121F00702F2E802C1914609E0ED
:102A70000FFA8CFC4FEAEC71042A03D14FFA8CFC5C
:102A80004FEAEC71002907DA0A460021DCF1000C5C
:102A900061EB02012D2202E0220504D52B228DF8E4
:102AA0000420012203E0E20701D02022F7E790464C
:102AB00059E00A2102E010220DE010214FF0000A37
:102AC00000910BE010224FF0000A44F004040827A4
:102AD000009203E008224FF0000A0092C4F3025271
:102AE000022A05D059F804CB0021032A08D009E0B6
:102AF00009F1070121F00702F2E802C1914605E061
:102B00001FFA8CFC042A01D10CF0FF0C4FF00008D6
:102B1000220728D5702806D0009B83F0100353EAC3
:102B20000A0305D00EE040228DF80420012208E0BF
:102B30005CEA010206D030228DF804208DF80500F1
:102B400002229046009B83F0080353EA0A030AD14D
:102B50005CEA010201D1620705D530228DF804201C
:102B60004FF001087F1E582804D034A003900EA80F
:102B700002900DE036A0F9E753466046009AFDF753
:102B8000BFFF84460398825C0298401E0290027048
:102B90005CEA0100F0D1029806A9081A00F1200AA7
:102BA000600702D524F4803400E00127574502DD98
:102BB000A7EB0A0000E0002000EB0A010090059856
:102BC0004144401A0590E00306D45B462146179A1B
:102BD000059800F0B3F90544002706E001A85A461D
:102BE000C05D179990476D1C7F1C4745F6DBE003DD
:102BF0000CD55B462146179A059800F09FF90544CD
:102C000004E030205A46179990476D1C0099481EE1
:102C100000900029F5DC08E0029802995A460078F5
:102C2000491C0291179990476D1CBAF10001AAF155
:102C3000010AF1DC65E1000009280100303132337E
:102C400034353637383961626364656600000000E8
:102C500030313233343536373839414243444546D2
:102C60000000000000F058F90544761C3078002878
:102C70007FF4ECAD19B02846BDE8F08F620700D4B0
:102C8000062709F1070222F0070CFCE80223E146BF
:102C900003F000485FEA080C02D00FF2702C0DE040
:102CA0005FEA045C02D50FF2682C07E05FEAC47C9F
:102CB00002D00FF2602C01E0AFF2700C4FF0FF3841
:102CC00023F00043CDF850C065280CD006DC452821
:102CD00009D046281DD047283DD13DE0662818D0B0
:102CE00067287ED138E00021112F01DB112000E0A0
:102CF000781CCDE9000106A90EA8FFF7E5FCDDE987
:102D00000F010E9A03910021009207F1010A04912C
:102D10004DE04FF000400097CDE9011006A90EA844
:102D2000FFF7D2FCDDE90F0203920E9B11990022FE
:102D3000DDF80CA00093049211B9791C00EB010A94
:102D4000B7EB0A0004D4C0F1FF3007F1010A049088
:102D5000AAEB0700019044E0012F00DA01270021CF
:102D6000112F01DD112000E03846CDE9000106A950
:102D70000EA8FFF7A9FCDDE90F010E9A03910021CF
:102D800004910092BA4621070CD40399514500DA08
:102D90008A46BAF1010F05DD009AAAF10101515CE2
:102DA000302908D0B84202DA10F1040F06DA012106
:102DB000CDE9011015E0AAF10101E9E7002805DCE1
:102DC000049901440491AAEB000102E0411C514521
:102DD00000DD8A460499401A401C01904FF00040E3
:102DE0000290200704D40198504501DBCDF80480FF
:102DF00000208DF84F0002980DF14F07B0F1004F01
:102E000025D02B200E9002984FF0020800280CDAF3
:102E1000404202902D200E9007E00A210298FDF713
:102E200059FE3031029007F8011DB8F10001A8F1F8
:102E30000108F2DC02980028EFD1791E0E98087084
:102E4000307800F0200040F0450007F8020D12A88D
:102E5000C01B00F107081498007800B1012000EBB6
:102E60000A01019801EBE07105984144401A401EA7
:102E70000590E00306D45B462146179A059800F0BA
:102E80005DF805441498007818B15A461799904790
:102E90006D1CE00324D55B462146179A059800F087
:102EA0004DF805441CE00498002807DBDDE9030128
:102EB000884203DD0098405C179901E017993020A3
:102EC0005A469047049805F10105401C049001986A
:102ED000401E019004D12E205A46179990476D1C30
:102EE000BAF10001AAF1010ADDDC05E017F8010BD7
:102EF0005A46179990476D1CB8F10001A8F10108D6
:102F0000F4DC5B462146179A0598ABE62D000000DD
:102F10002B000000200000002DE9F04104460025B0
:102F20001E461746880404D405E039462020B047E1
:102F30006D1C641EF9D52846BDE8F0812DE9F041ED
:102F4000044600251E469046C80301D5302700E000
:102F50002027880404D505E041463846B0476D1C5B
:102F6000641EF9D52846BDE8F0814A68002A06D0DB
:102F70000A68531C0B6010704868401E4860704718
:102F80000A68531C0B601070704770B505460C46FC
:102F9000002614B10DB1A54201D1002070BDAE686C
:102FA00026B9AC6064600020206007E0706828B13A
:102FB0002146706801F04EFDA86844600120EDE7ED
:102FC0002DE9F04705460E4614461F46DDF82090D1
:102FD0004FF00008C2461DB116B10CB1A54202D196
:102FE0000020BDE8F087B9F1000F07D0304600F0AF
:102FF000C1F98046E06840F4007A0CE0394630467A
:1030000000F078F98046B8F1000F01D10020E8E720
:10301000E06820F4007AA08900F4007020B9206AEA
:1030200010B1206A79688847C4F82080C4F80CA0E1
:1030300021462846FFF7A9FFD3E7014609B10868F2
:1030400008B90020704719B1D1E90120904201D39D
:103050000846F7E702E08868401C886041B1D1E982
:103060000120904204D28A680868805C2028F2DD42
:10307000D1E90120904202D18868401E886008464C
:10308000E0E700002DE9F84306460F4614461D46CA
:103090002046294600F014F880460020074B42469F
:1030A000394600903046FFF78BFF10B14046BDE82F
:1030B000F883404600F042F80020F8E71C000020AA
:1030C00070B505460E46134800F06DF80446F4B19D
:1030D0000820E060C4E906560F4A104B28463146E6
:1030E000FDF7C4FC03D86FF0004060610FE00022E0
:1030F0000B4B28463146FDF7A1FC03D84FF00040AA
:10310000606104E028463146FDF766FC60612046B8
:1031100070BD00001C0000200000C0FFFFFFDF4169
:103120000000E0C110B5044800F03DF804460CB1C1
:103130004020E060204610BD1C00002070B5044611
:10314000002522E02568A08900F4807020B9A068DD
:1031500010B1A068FFF7F2FFA08900F4807028B9D1
:10316000206918B10A4A206951688847A08900F48B
:10317000007028B9206A18B1054A206A516888474A
:1031800003484168204688472C46002CDAD170BDA0
:103190001C00002070B504460D460022294620463A
:1031A00000F09AF970BD70B5044628202168884760
:1031B00005461DB128212846FCF7F5FF284670BDBD
:1031C00010B5044600221146204600F06BF810BDF1
:1031D0002DE9F0478AB004460E46154698461C2154
:1031E00003A8FCF7E0FF002700202C490860486096
:1031F00004B106B932E00394049600200590284AF1
:1032000007CA07AB07C32648FFF7CDFF074607B934
:1032100024E003A801F0E8FB8246FFF70EFF814699
:103220004946384600F004FE00B917E0B8F1000F37
:103230000BD003A8FFF701FFDDE90410884203D299
:1032400005990398405C00B108E01DB10599039809
:103250000844286038460AB0BDE8F08717B1384600
:10326000FFF76CFFC4B1019400200290DDE9041067
:10327000884202D20598029004E0049810B10498A4
:10328000401E02901DB1DDE9010108442860034899
:10329000DDE9011206C000BF0020DCE714000020B9
:1032A0001C0000202DE9F04104460D46164614B9D5
:1032B0000020BDE8F0812046FCF78CFF471C334618
:1032C0002A4639462046FFF783FFF2E710B5044649
:1032D000024A0121204600F049FE10BD1C000020DA
:1032E00010B50446024841682046884710BD0000DA
:1032F0001C0000202DE9F04104460D460026002761
:1033000014B90020BDE8F0812046FCF763FF461C9D
:1033100030462968884707460FB90020F2E7324651
:1033200021463846FCF726FF3846EBE770B50446E1
:103330000D4604B10DB9012070BDAC4201D1002091
:10334000FAE705E0207808B90020F5E7641C6D1C59
:103350002078FCF709FF06462878FCF705FF86422F
:10336000F0D02078FCF700FF06462878FCF7FCFE3A
:10337000301AE1E7704700000149C1F82C0C704792
:10338000282600202DE9FC5F04460D4616461F4600
:1033900027F00043B24625F000405246CDE90040F8
:1033A00020460199FDF762FB03D225F0004120463B
:1033B00002E027F0004130468046894600220D4B4E
:1033C00040464946FDF75BFA82468B4632463B460D
:1033D00020462946FDF74DFA21F0004152465B4652
:1033E000CDE90001FDF72AFB02D80120BDE8FC9FD2
:1033F0000020FBE70000B03C2DE9F04104460D46FB
:10340000002600270CB1206810B90020BDE8F0812B
:10341000606828B1D4E90110884201D30020F5E7A3
:10342000B5F1004F01D30020F0E7A068401C05442F
:103430006068A84203D3A16820680844E6E72069D1
:1034400008B10020E2E7B5F1804F07D3B5F1004F96
:1034500002D26FF0004702E00020D7E76F00206A39
:1034600060B13946226A206890470646DEB9E169B4
:1034700020688847002060602060C7E73846A1695F
:103480008847064636B9E1692068884700206060B1
:103490002060BBE7A068421C30462168FCF76AFE4A
:1034A000E1692068884767602660A0683044ADE71E
:1034B00070B504460D46A1B20548FFF71AF800BFE3
:1034C00040210348FEF748FF0028F9D0204670BD90
:1034D000003801402E2070472DE9F04105460E4688
:1034E0001746002405B116B90020BDE8F081AC688C
:1034F0005FB100E024688CB1206A78B13046216A5F
:10350000FCF76FFE0028F5D108E000E024682CB13C
:103510003046216AFFF70AFF0028F7D10CB1206A74
:1035200008B90020E1E72046DFE710B5FEF71EFCF2
:103530004FF4E13000F084F84FF4E13000F0D8F8B7
:103540004FF4E13000F02EF94FF4E13000F01CF8B8
:10355000FEF7BCF9FEF7E8FAFEF70AFB10BD000023
:1035600007490860002201F58051C1F8282CC1F8F4
:10357000302C044AC1F82C2C0022C1F8242C7047AE
:10358000281600203333733F10B588B0044601215C
:103590001020FEF711F90121C804FEF7FDF84FF4E1
:1035A0008060ADF81C0003208DF81E0018208DF8F7
:1035B0001F0007A92048FEF71AF84FF40060ADF885
:1035C000180003208DF81A0048208DF81B0006A96A
:1035D0001948FEF70CF802940020ADF814000C20F6
:1035E000ADF812000020ADF81000ADF80E00ADF8F7
:1035F0000C0002A91148FEF70BFF34208DF80400DF
:1036000001208DF807008DF8050002208DF80600D6
:1036100001A8FEF77DF8012240F225510748FEF788
:10362000D2FE01210548FEF78BFE40210348FEF73C
:103630006FFE08B010BD000000100140004C0040BB
:1036400010B588B00446012144F20400FEF7B4F836
:1036500018208DF81F004FF40070ADF81C000320F7
:103660008DF81E0007A92048FDF7C1FF48208DF8FE
:103670001B004FF48060ADF8180003208DF81A008D
:1036800006A91948FDF7B3FF02940020ADF80C001D
:10369000ADF80E00ADF810000C20ADF812000020BF
:1036A000ADF8140002A91148FEF7B2FE25208DF8EE
:1036B000040001208DF807008DF8050002208DF828
:1036C000060001A8FEF724F8012240F22551074820
:1036D000FEF779FE01210548FEF732FE402103483E
:1036E000FEF716FE08B010BD00080140003801408A
:1036F00010B588B0044601210420FEF75DF80121D1
:103700004804FEF749F80420ADF81C0003208DF8AA
:103710001E0018208DF81F0007A92048FDF767FF3D
:103720000820ADF8180003208DF81A0048208DF805
:103730001B0006A91948FDF75AFF02940020ADF8B6
:1037400014000C20ADF812000020ADF81000ADF808
:103750000E00ADF80C0002A91148FEF759FE262014
:103760008DF8040001208DF807008DF80500022077
:103770008DF8060001A8FDF7CBFF012240F225518C
:103780000748FEF720FE01210548FEF7D9FD40213C
:103790000348FEF7BDFD08B010BD00000008014061
:1037A0000044004010B588B0044601210820FEF70F
:1037B00003F801218804FDF7EFFF4FF48060ADF8B6
:1037C0001C0003208DF81E0018208DF81F0007A98B
:1037D0002048FDF70CFF4FF40060ADF818000320FF
:1037E0008DF81A0048208DF81B0006A91948FDF72E
:1037F000FEFE02940020ADF814000C20ADF812007B
:103800000020ADF81000ADF80E00ADF80C0002A9D4
:103810001148FEF7FDFD27208DF8040001208DF8EA
:1038200007008DF8050002208DF8060001A8FDF7BD
:103830006FFF012240F225510748FEF7C4FD012128
:103840000548FEF77DFD40210348FEF761FD08B005
:1038500010BD0000000C0140004800402DE9F0417F
:103860000B3020F00706104D19E02068B04215D348
:10387000B0420AD9871B201DD4F80480FCF77AFCDB
:10388000A019C0E90078286004E060682860201D65
:10389000FCF770FC201D2660BDE8F081251D2C681A
:1038A000002CE2D10020F7E74800002010B50548C1
:1038B000FCF790FC04460F2C01DD002010BD012018
:1038C000FCE70000A8150020FFF72FFEFDF78AFE99
:1038D00001E0FDF7EBFFFCE72DE9F04180460C46E7
:1038E00000250027E068B0F57A7F02D30020BDE80C
:1038F000F081E068401CE060A1682068405C5B28C3
:1039000000D05FE0A068401CA0602046FFF795FB58
:103910004CB1D4E90110884205D2A1682068405C0E
:103920005D2800D13FE01CB1D4E90110884203D3E7
:10393000A068401EA06045E0A068401EA06000BFD7
:1039400004F11000FFF72FFC064606B93AE015B95E
:103950003546374602E03E6077603746A068401C37
:10396000A0602046FFF769FB2146384600F060FA68
:1039700000B927E02046FFF760FB44B1D4E901100D
:10398000884204D2A1682068405C2C28D8D044B179
:10399000D4E90110884204D2A1682068405C5D2807
:1039A00000D00FE000BFE068401EE06005B16F602E
:1039B0002020C8F80C00C8F80850A068401CA0607F
:1039C000012094E715B12846FFF7B8FB00208EE7E9
:1039D00002460023002100BF23E0505C302806DBB4
:1039E000505C392803DC505C3038034415E0505CEF
:1039F000412806DB505C462803DC505C3738034422
:103A00000BE0505C612806DB505C662803DC505CF0
:103A10005738034401E000207047032900D21B01FE
:103A2000491C0429D9D31846F6E700002DE9F043D4
:103A300091B080460C4600BF00201090FFF74AFD71
:103A4000814600250CB1206818B9002011B0BDE8EE
:103A5000F08300253CE0A16820680844405D3428DC
:103A600020D00ADCA0F12B0009282ED2DFE800F0DC
:103A7000202D212A2D1617181900382816D006DCFB
:103A8000352810D036280FD037281ED10DE0392820
:103A90000DD045280FD0652817D10BE000BF00BF1F
:103AA00000BF00BF00BF00BF00BF00BF00BF00BF1E
:103AB00000BF00BF00BFA16820680844405D0DF84A
:103AC000050003E00DF8059000E00AE000BF6D1C62
:103AD0003F2D05D224B1A068284461688842BAD33A
:103AE00000BF00200DF8050010A9684600F0A4FFF3
:103AF00006460F4668461099884201D10020A5E786
:103B0000C8E90667144A154B30463946FCF7AEFF44
:103B100004D86FF00040C8F8140011E00022104BE8
:103B200030463946FCF78AFF04D84FF00040C8F809
:103B3000140005E030463946FCF74EFFC8F8140083
:103B40000820C8F80C00A0686A461099891A084431
:103B5000A06001207AE700000000C0FFFFFFDF4106
:103B60000000E0C12DE9F04180460C46002600250A
:103B7000E068B0F57A7F02D30020BDE8F081E0680C
:103B8000401CE06044B1D4E90110884204D2A1682D
:103B90002068405C7B2800D07DE0A068401CA060CD
:103BA0002046FFF74AFA4CB1D4E90110884205D209
:103BB000A1682068405C7D2800D15DE01CB1D4E99B
:103BC0000110884203D3A068401EA06063E0A06893
:103BD000401EA06000BF04F11000FFF7E4FA0746A2
:103BE00007B958E016B93E463D4602E02F607D60B9
:103BF0003D46A068401CA0602046FFF71EFA214603
:103C0000284600F04EF800B945E02046FFF715FAC7
:103C1000286928620020286144B1D4E90110884253
:103C200004D2A1682068405C3A2800D033E0A06844
:103C3000401CA0602046FFF700FA2146284600F00D
:103C4000F7F800B927E02046FFF7F7F944B1D4E9C7
:103C50000110884204D2A1682068405C2C28BAD0A8
:103C600044B1D4E90110884204D2A1682068405CC4
:103C70007D2800D00FE000BFE068401EE06006B184
:103C800075604020C8F80C00C8F80860A068401CA7
:103C9000A060012071E716B13046FFF74FFA00200F
:103CA0006BE72DE9F84F80460C46A1682068084470
:103CB000461CA16820680844451C0020009000278D
:103CC000A1682068405C222800D0A6E04FF0000ADE
:103CD000D1460DE028785C2809D1681C2168401A7B
:103CE0006168884200D398E009F101096D1C6D1CE0
:103CF0002068281A6168884202D228782228E9D1EF
:103D00002068281A6168884202D22878222800D0C8
:103D100083E0A16820680844281AA0EB090A0AF188
:103D2000010021698847074607B976E0009761E0FE
:103D300030785C2807D016F8010B009908700098BD
:103D4000401C009056E04FF00209A81B012800DA41
:103D500063E07078662819D008DC222832D02F283A
:103D600032D05C282FD0622840D108E06E2814D0D1
:103D7000722819D074281ED0752837D12BE008205E
:103D8000009908700098401C009030E00C200099C9
:103D900008700098401C009029E00A2000990870E3
:103DA0000098401C009022E00D20009908700098B7
:103DB000401C00901BE00920009908700098401CEE
:103DC000009014E000BF00BF707800990870009860
:103DD000401C00900BE06A462946304600F0B1FED8
:103DE0008146B9F1000F00D117E000E015E000BFF7
:103DF0004E4400BFAE429BD30020009908701020B3
:103E0000C8F80C00C8F810702068281AA060A068D4
:103E1000401CA0600120BDE8F88F17B138466169E9
:103E2000884716B12068301AA0600020F3E7000030
:103E300070B505460C460CB1206808B9002070BD6D
:103E40009CB1A068001D616888420ED8A2682168F4
:103E5000881804223FA1FCF7DBF930B90420E860A0
:103E6000A068001DA0600120E9E79CB1A068401D8A
:103E7000616888420ED8A26821688818052237A197
:103E8000FCF7C6F930B90120E860A068401DA060C9
:103E90000120D4E7ACB1A068001D6168884210D849
:103EA000A2682168881804222EA1FCF7B1F940B954
:103EB0000220E86001206861A068001DA060012068
:103EC000BDE76CB1D4E90110884209D2A16820682D
:103ED000405C222804D121462846FFF7E2FEAEE7E7
:103EE000BCB1D4E90110884213D2A1682068405CBB
:103EF0002D2809D0A1682068405C302809DBA16822
:103F00002068405C392804DC21462846FFF78EFDF6
:103F100095E76CB1D4E90110884209D2A168206804
:103F2000405C5B2804D121462846FFF7D5FC86E794
:103F30006CB1D4E90110884209D2A1682068405CC4
:103F40007B2804D121462846FFF70CFE77E70020A6
:103F500075E700006E756C6C0000000066616C73A4
:103F6000650000007472756500000000F0B589B04E
:103F700007460E461446002524216846FCF713F92F
:103F80004FF480702168884700904FF48070019052
:103F9000059694E8070006AB07C3009800B933E024
:103FA0006946384600F0BAFA00B92DE0684600F0DC
:103FB00099FDA06850B1029B591C0098A2689047D7
:103FC000054605B920E0002000901AE0029A501C36
:103FD00021688847054605B916E0DDE90130401C37
:103FE000834201D2019801E00298401C0246284613
:103FF0000099FCF7BFF800200299685400986168A6
:104000008847284609B0F0BD009810B10098616853
:10401000884715B12846616888470020F2E72DE9F6
:10402000F04107460C460025A846BE6814B900209A
:10403000BDE8F08101212046FFF7DEF905460DB904
:104040000020F5E75B202870A068401CA060E068B5
:10405000401CE06028E02146304600F05FFA08B9D5
:104060000020E5E7204600F03DFD3068D8B16069EA
:1040700008B1022000E00120804608F1010120463D
:10408000FFF7BAF905460DB90020D1E72C2005F855
:10409000010B606910B1202005F8010B0020287089
:1040A000A0684044A0603668002ED4D1022120468A
:1040B000FFF7A2F905460DB90020B9E75D2005F824
:1040C000010B00202870E068401EE0600120AFE78F
:1040D0002DE9F04F8BB081460F464FF0000AD9E929
:1040E0000645D04600261C2104A8FCF75CF8FFF723
:1040F000F1F9834600200290039017B90BB0BDE898
:10410000F08FCDE90045DDE900210AB1012200E090
:10411000002241EA020020F00041394A511AC90F39
:1041200061B9CDE9004551000198B1EB400F03D1D1
:10413000009808B9012000E0002028B131A104A8AE
:10414000FEF748FA80462EE0D9F81400FCF712FC7E
:1041500022462B46CDE90001FCF770FC07D12BA1CC
:1041600004A8D9F81420FEF735FA80461BE0224651
:104170002B4627A104A8FEF72DFA804602AA26A105
:1041800004A8FCF755F8012806D122462B46DDE9A4
:104190000201FFF7F7F830B922462B461FA104A809
:1041A000FEF718FA8046B8F1000F02DBB8F1190FDC
:1041B00001DD0020A2E708F101013846FFF71CF9F4
:1041C0008246BAF1000F01D1002097E700260DE0EA
:1041D00004A8805D584503D12E200AF8060004E0AB
:1041E00004A8805D0AF8060000BF761C4645EFD3A0
:1041F00000200AF80600B8684044B86001207DE756
:104200000000F07F6E756C6C0000000025640000FB
:1042100025312E3135670000256C670025312E31A0
:10422000376700002DE9F04781460C46002500263F
:10423000D9F8087014B90020BDE8F087606908B1AA
:10424000022000E001200646711C2046FFF7D4F84A
:1042500005460DB90020EFE77B2005F8010BE0686B
:10426000401CE060606910B10A2005F8010BA068ED
:104270003044A06069E06069B8B12046E168FFF7AA
:10428000BBF805460DB90020D6E74FF0000804E062
:10429000092005F8010B08F10108E0684045F7D84E
:1042A000D4E902010844A06000BF2146386A00F04A
:1042B0007BF808B90020BFE7204600F013FC6069D6
:1042C00008B1022000E00120064631462046FFF7F3
:1042D00093F805460DB90020AEE73A2005F8010B2A
:1042E000606910B1092005F8010BA0683044A06096
:1042F0002146384600F012F908B900209CE7204614
:1043000000F0F0FB606908B1012000E0002039688E
:1043100009B1012100E000214618711C2046FFF779
:104320006BF805460DB9002086E7386810B12C20DF
:1043300005F8010B606910B10A2005F8010B002097
:104340002870A0683044A0603F68002F93D1606956
:1043500010B1E068401C00E0022001462046FFF753
:104360004BF805460DB9002066E7606950B10020A2
:1043700003E0092105F8011B401CE168491E814248
:10438000F7D800BF7D2005F8010B00202870E068F9
:10439000401EE06001204FE770B504460D462946F7
:1043A000206900F001F870BD2DE9F04707468A4604
:1043B000002400260025A046A146BAF1000F02D134
:1043C0000020BDE8F0876FB903215046FFF714F8CD
:1043D00006460EB90020F4E74DA13046FBF70FFF6B
:1043E0000120EEE73C4622E020780C2811D006DCC4
:1043F00008280DD009280FD00A2810D10AE00D286E
:1044000009D0222802D05C2809D100E000BF00BFFB
:1044100000BF00BF00BF00BF09F1010905E020781F
:10442000202801DA09F1050900BF00BF641C2078CB
:104430000028D9D1E01B00EB090808F10301504620
:10444000FEF7DAFF06460EB90020BAE7B9F1000F11
:104450000FD12220307042463946701CFBF78AFE8D
:10446000222108F1010031540021401C3154012067
:10447000A7E722203070751C3C463DE020781F28BD
:1044800008DD2078222805D020785C2802D020780A
:1044900028702FE05C2005F8010B20780C2815D03F
:1044A00006DC08280FD0092819D00A281AD110E0F4
:1044B0000D2811D0222803D05C2813D1287018E0D1
:1044C0002220287015E06220287012E066202870F3
:1044D0000FE06E2028700CE07220287009E0742034
:1044E000287006E022780BA12846FEF773F82D1DF0
:1044F00000BF00BF641C6D1C20780028BED12221A3
:1045000008F1010031540021401C3154012058E7CA
:104510002222000075253034780000002DE9F0419A
:1045200004460E46002504B116B90020BDE8F0810E
:10453000207B102857D008DC01281BD0022827D068
:10454000042809D008285DD130E0202850D0402828
:1045500053D0802856D12EE005213046FEF74CFF7F
:1045600005460DB90020E1E727A12846FBF747FEE5
:104570000120DBE706213046FEF73EFF05460DB978
:104580000020D3E722A12846FBF739FE0120CDE722
:1045900005213046FEF730FF05460DB90020C5E77E
:1045A0001DA12846FBF72BFE0120BFE73146204620
:1045B000FFF78EFDBAE70027206908B90020B5E7AC
:1045C0002069FBF707FE471C39463046FEF714FF0B
:1045D00005460DB90020A9E73A4628462169FBF7B0
:1045E000C9FD0120A2E731462046FFF7D5FE9DE731
:1045F00031462046FFF713FD98E731462046FFF786
:1046000011FE93E7002091E76E756C6C00000000CE
:1046100066616C73650000007472756500000000CF
:104620002DE9F04704008A4616D054F8047CD4F8EB
:1046300000903E1F564500D956462046FDF7DEFF46
:1046400005468846324621465046FFF707F940B1F5
:10465000C0F80090BDE8F087BDE8F0470846FDF7D8
:10466000FBBF44E9017955B129686A18211F8A42C4
:1046700002D9611B091F2960C5F80480EAE7024AD4
:10468000C2F80080E6E70000480000202DE9FC5F4A
:1046900083465846FEF794FD0546002D7DD042A185
:1046A0002846FEF777FD064643A12846FEF772FD31
:1046B000074645A12846FEF76DFD044645A128465C
:1046C000FEF768FD814646A12846FEF763FD01908E
:1046D00047A12846FEF75EFD824648A12846FEF720
:1046E00059FD804616B30FB3B8F1000F1ED07069A4
:1046F00008B1012000E0002045490870786908B140
:10470000012000E0002043490870D8E90621104646
:10471000FCF7C4F90090FEF72FFE3E48007810B178
:10472000FCF760FF37E0FCF755FF34E09CB3B9F1CC
:10473000000F30D0019870B3BAF1000F2BD036497A
:10474000364A6069126801EB82110860D4E90621DB
:104750001046FCF7A3F93049304A126801EB821188
:10476000C8632D4A2D4B21691B6802EB831202F1AD
:104770001800FBF744FD284A284B21691B6802EB0F
:104780008312101DFBF73BFD24480068401C2349A1
:104790000860FDF79BF8284600E002E0FEF7CEFC3B
:1047A00000BFBDE8FC9F00007363616E636F6465CA
:1047B0005F454943000000007363616E636F646589
:1047C0005F646F6F72000000676F6F64735F69648E
:1047D00000000000676F6F64735F6E616D650000BD
:1047E000676F6F64735F626172636F64650000007E
:1047F000676F6F64735F7072696365007363616E86
:10480000636F64655F646973636F756E7400000045
:1048100040000020410000209805002034000020C6
:104820002DE9F04387B0044634A234A134A0FDF74B
:10483000ADFE4FF000092EE009EBC902211D01EB8E
:10484000C201486CFCF7E7F805460E4609EBC902C1
:10485000211D01EBC201C86BFCF7DDF80746884655
:1048600026A009EBC901CDE904560690201D00EBF6
:10487000C100006C09EBC901CDE900780290201D50
:1048800000EBC10000F1180209F1010122A0FDF7BF
:104890007DFE09F1010941F6244000594845CBDC71
:1048A00041F62C4001592848FBF7D2FE0746FCF799
:1048B000B2F8054611A02A460B46009023A0FDF74A
:1048C00065FE41F630410859FCF7A5F805460BA0F6
:1048D0002A460B46009023A0FDF758FE41F62841DA
:1048E0000859FCF798F8054604A02A460B460090A4
:1048F00022A0FDF74BFE07B0BDE8F083FFFFFF00ED
:10490000257370616765322E736C74302E74787401
:104910003D2222257300000070616765322E736CA2
:1049200074302E7478742B3D222025642538732032
:10493000202531322E32662025642020252E326635
:104940000D0A2225730000000000C84270616765EF
:10495000322E74332E7478743D22252E326625252E
:104960002225730070616765322E74312E7478745D
:104970003D22252E32662225730000007061676596
:10498000322E74302E7478743D22252E3266222504
:104990007300000001490870704700003F000020CC
:1049A00010B5044621460548FBF729FC01200449BF
:1049B000087000200349087010BD00008815002011
:1049C0003D0000203E00002010B50446214604486A
:1049D000FBF715FC0348007808B1FCF755FC10BD47
:1049E000A81500203F00002010B504461CB1206827
:1049F00008B1A06808B1002010BD7CB1A068001DFE
:104A0000616888420AD2A26821688818032204A13A
:104A1000FBF7FEFB10B9A068C01CA0602046EBE7C6
:104A2000EFBBBF0010B502A1024800F07CF810BD3A
:104A3000410000000048004000B583B00A46002154
:104A4000CDE9001101466846FCF719F9DDE90001DE
:104A500003B000BD01604860704700002DE9F041DF
:104A6000FEF760FB04460CB313480078FBF793FF96
:104A700005462A460B4611A12046FEF703FB1348C4
:104A80000078FBF788FF05462A460B4610A1204612
:104A9000FEF7F8FA2046FEF719FC0746394610489B
:104AA00000F041F83846FEF71BFC00BF2046FEF739
:104AB00045FBBDE8F0810000400000207363616E9B
:104AC000636F64655F4549430000000041000020BA
:104AD0007363616E636F64655F646F6F7200000083
:104AE000004C004070B5044600250CB1206800B9A8
:104AF00070BDA168206845182846FBF76BFBA168CC
:104B00000844A06000BFF3E770B504460D4629468F
:104B10002046FDF7EEFC00BF40212046FDF71CFCBF
:104B20000028F9D070BD70B506460C46002504E09B
:104B3000615D3046FFF7E8FF6D1C605D0028F7D12E
:104B400070BD2DE9FF5F804689461546002400268A
:104B5000C24600200390834602900190A9EB0A0010
:104B6000062800DA81E00AF10200FEF731FF06466E
:104B7000B6F55C4F03D3B6F5604F00D275E0B6F5DD
:104B8000584F29D3B6F55C4F26D20AF1060700200C
:104B900000900C200290A9EB0700062800DA64E0E0
:104BA00038785C2802D17878752800D05DE0B81C90
:104BB000FEF70EFF00900098B0F55C4F03D300980D
:104BC000B0F5604F00D350E0C6F30901009861F3DF
:104BD0009F2000F5803402E0062002903446802CAD
:104BE00002D20120039018E0B4F5006F04D2022035
:104BF0000390C020019010E0B4F5803F04D2032060
:104C00000390E020019008E0B4F5881F04D204204E
:104C10000390F020019000E027E00398401E00F090
:104C2000FF0B0BE004F0BF0040F08000296801F8A2
:104C30000B00A409ABF1010000F0FF0BBBF1000F6A
:104C4000F0DC0398012804DD0198204329680870EE
:104C500003E004F07F00296808702968039808447D
:104C60002860029804B0BDE8F09F0020FAE7000039
:104C7000B80B0000C8000000C8000000C800000019
:104C8000004040404040404040404141414141405F
:104C90004040404040404040404040404040404014
:104CA00040050202020202020202020202020202A3
:104CB00002202020202020202020200202020202A8
:104CC0000202909090909090101010101010101000
:104CD000101010101010101010101010020202020C
:104CE0000202888888888888080808080808080850
:104CF000080808080808080808080808020202024C
:104D000040000000814C0008284D000800000020F1
:104D100050000000A8260008784D00085000002030
:104D200010450000B826000800000000010203043E
:104D30000102030406070809020406080000000037
:104D40000000000059260008FD2500082146000843
:104D50000000000000000000000000000000000053
:104D60000000000000010000010000000000000041
:084D700000000000000000003B
:0400000508000131BD
:00000001FF
