:020000040800F2
:10000000580600204901000865160008451600083A
:1000100061160008E91100086726000800000000CA
:10002000000000000000000000000000E9180008C7
:10003000211300080000000031170008211A0008F1
:100040006301000863010008630100086301000800
:1000500063010008630100086301000863010008F0
:1000600063010008630100086301000863010008E0
:1000700063010008630100086301000863010008D0
:1000800063010008630100086301000863010008C0
:1000900063010008630100086301000863010008B0
:1000A00063010008630100086301000863010008A0
:1000B0006301000863010008630100086301000890
:1000C0006301000863010008630100086301000880
:1000D00063010008092300089D230008630100084C
:1000E0006301000863010008630100086301000860
:1000F0006301000863010008630100086301000850
:10010000630100086301000863010008630100083F
:10011000630100086301000863010008630100082F
:10012000630100086301000863010008630100081F
:10013000DFF810D000F084FE0048004715310008B9
:10014000AFF3008058060020064880470648004765
:10015000FEE7FEE7FEE7FEE7FEE7FEE7FEE7FEE777
:10016000FEE7FEE7491A000831010008D2B201E0BB
:1001700000F8012B491EFBD270470022F6E710B5AC
:1001800013460A4604461946FFF7F0FF204610BD05
:100190000FB400B58DB010A909900B9000914FF0ED
:1001A000FF300A9000200C90054806900548079003
:1001B0006A4609A80F9900F045FD0DB05DF814FBE3
:1001C000610C00087F0C00082DE9FF5FD2E901A750
:1001D0004FF00008916999461446DDF838B046465C
:1001E00001988847054659EA0B0005D009E0A16946
:1001F000761C019888470546216A284688470028CA
:10020000F5D1681C03D05FEACA7005D015E04FF045
:10021000FF3004B0BDE8F09F2068011D2160D0F8D8
:1002200000800AE05FEACA7001D108F8015BA169A9
:10023000761C7F1E019888470546002F1ADD681C32
:1002400018D0B9F1000F0DD0E81705EBD0604211BE
:1002500020F01F0059F822102A1A01209040014274
:10026000E0D107E0BBF1000FDCD1216A28468847C6
:100270000028D7D0E16901988847BBF1000F07D16A
:10028000002E05DD5FEACA7002D1002188F8001057
:10029000A068B84203DDBBF1000F03D017B16FF0C7
:1002A0000100B6E73046B4E72DE9FF4F087883B088
:1002B0009946FF2805D0491C2D2804D00024002091
:1002C00008E000200BE00124F9E700EB800003EBDD
:1002D0004000491C0B78FF2BF7D104B140420023AA
:1002E0000293147819461D462D2C01D02B2C04D1D5
:1002F000521C2D2C13D000240294AA461478FF2CF3
:100300000FD00A25A3FB057801FB05814FF0000CF7
:1003100003FB0C11521CE3194AEB0101EEE7012427
:10032000EAE7814453EA010002D019F5C87F06DAF2
:1003300003980021C0E9001107B0BDE8F08F002547
:10034000AE4E2F46DFF8B882184600F03DFDCDE9ED
:100350000001B9F1000002DAC9F1000400E004462E
:100360000023A74A1AEB030B42EB045A12E0E00702
:1003700007D02A4633463846414600F0B4FA0746CD
:1003800088462A4633461046194600F0ACFA054620
:100390000E466410002CEAD1DDE90001B9F1000F2E
:1003A0005A46534606DA00F010FB3A46434600F040
:1003B0000CFB05E000F097FA3A46434600F093FA4A
:1003C000029A0AB181F00041039AC2E90001B3E741
:1003D0002DE9FF4F1F468DB0D7E901464FF0FF389A
:1003E0002E2045464FF000090B90B9696D1C0E9800
:1003F0008847396A824688470028F6D1BAF1FF3F1C
:100400000AD024F4D064002E11DDBAF12B0F08D0ED
:10041000BAF12D0F0BD102E0404611B08DE744F444
:100420008064B9696D1C0E9888478246761E6946BD
:10043000600501D52D2000E02B208DF8000001F192
:10044000010B0DF1200809E0B9696D1C0E98884771
:1004500082460F9844F40074761E0560002E02DD7B
:10046000BAF1300FF0D00B998A453ED144F08004A8
:1004700006E00F99681CA9F1010944F400740860B2
:10048000B9696D1C761E0E98884782463028F0D0D8
:100490002BE00B998A4505D1200603D444F0800453
:1004A000761E18E0504602F0C3F908B30DF11301AF
:1004B000761E44F400748B4508D2AAF130000BF884
:1004C000010B200607D5A9F1010003E0200602D4A4
:1004D00009F101008146A00502D50F99681C08604A
:1004E000B9696D1C0E9888478246002ED1DC53E016
:1004F000002E51DDBAF1650F02D0BAF1450F4BD194
:10050000A00549D5B9696D1C24F44074761E0E9877
:1005100088478246002E0CDD2B2804D0BAF12D0F1F
:1005200007D144F48074B9696D1C0E9888478246DF
:10053000761EE00501D52D2100E02B2108F8011BD6
:10054000CDF82C8021E00DF12901761E44F40074D1
:1005500088450CD2AAF1300010F0FF0088F80000A6
:1005600002D10B99884509D908F1010806E0E00598
:1005700001D5244801E042F20F708146B9696D1C33
:100580000E98884782460F980560002E04DD50467D
:1005900002F04EF90028D6D1F9690E988847FF205D
:1005A0008BF8000088F800000020069007904B466A
:1005B0006A4608A906A8FFF777FEA00502D46FF0E7
:1005C00001002AE714F0240F0AD0E00714D1DDE976
:1005D00006123868031D3B600068C0E900120BE09A
:1005E000DDE9060100F090FA0146E00704D1386821
:1005F000021D3A600068016028460EE700001440C2
:100600000000F03FF1D8FFFFF0B480EA0102D40F00
:100610004200B2EB410F02D20246084611464A00A0
:1006200042D0C30DDDB2C1F3C752AD1A202D35DA69
:10063000C1F3160141F4000204B15242C5F1200693
:1006400002FA06F12A411044B3EBD05F23D0C4B1C3
:10065000012DA0EBC35009DCF0BC4FF0004202EAD0
:10066000C352DBB200F5000000F023BB400000F1F4
:10067000807000EBC350A0F1807040EAD170490057
:1006800009E0490841EAC071A0EBC35000F5000041
:10069000400800EBC350F0BC00F002BB61420122F5
:1006A00002EB4101001BF6E7F0BC704781F000410E
:1006B000AAE780F00040A7E780EA010210B502F047
:1006C0000043400022D04A001FD0010E01EB12610E
:1006D000C0F35600C2F3560240F4000042F4000298
:1006E000A0FB022000047F39140400D0401C50EA13
:1006F000124001D44000491EC2B20C0604EBD010D7
:10070000401C4008802A02D003E0002010BD20F0E9
:100710000100002900DA0020184310BD30B480EA3F
:10072000010202F0004530F0004221F0004013D0F9
:1007300090B1C30DD40DC2F31601C0F31600E41A34
:1007400041F4000140F400027D34914201D3641C65
:1007500000E04900002C02DA30BC002070474FF462
:1007600000000023914201D3891A034340084FEA55
:100770004101F7D151B1914202D14FF0004105E062
:1007800002D24FF0010101E06FF0010103EBC45010
:10079000284430BC00F084BA2DE9FE4F804681EA3F
:1007A0000300C00F0C46009021F0004123F00045EB
:1007B000B8EB0200A94105D24046214690461C46AE
:1007C0000B46024623F00040104347D0270DC7F3E5
:1007D0000A00C3F30A510290401A019040286BDAD4
:1007E000C3F3130040F4801B0098924620B100230D
:1007F000D2EB030A63EB0B0B01985946C0F14002A0
:10080000504600F0F8F906460D4650465946019A02
:1008100000F000FA10EB08006141002487EA115251
:1008200084EAE7731A4340D0009A62B3019A012A1E
:100830004FEA075215DC001B61EB02014FF000424A
:1008400002EA0752CDE90042001C41F58011324610
:100850002B4600F06BFA03B0BDE8F08F404621460E
:10086000F9E7001B61EB0201001C41F58013001841
:100870005B412018A2F5001747EB030140EAD57051
:10088000B6196D4111E06D084FEA360645EAC075AC
:100890004FEA0752001B61EB0201001C41F5801179
:1008A00049084FEA30000019514132462B4603B047
:1008B000BDE8F04F00F02BBA009801224000002361
:1008C000D0EB020263EBE073009821464FEAE0743C
:1008D000B8EB000061EB0401E9E783F000435BE75C
:1008E00081F0004158E72DE9FE4F81EA030404F04E
:1008F000004421F0004100944FF0000B23F000432E
:1009000050EA01045ED052EA03045BD0C3F30A54F8
:10091000C1F30A552C44A4F2F3340194A0FB025411
:10092000C1F3130141F48011C3F3130343F48013A3
:1009300001FB024400FB034E840A970A44EA8154F7
:1009400047EA8357A4FB076802958D0A05FB0785D4
:100950004FEA932C04FB0C542705029D4FEA0658DE
:1009600047EA1637B5EB08056EEB070C870E920EBB
:1009700047EA811742EA8312A7FB0201B6EB0B019B
:1009800064EB00042B0D43EA0C335E1844EB1C505F
:10099000DA465146E7FB0201C5F313044FEA0B3375
:1009A00043EA14534FEA0432019C43EA0603A4F1DC
:1009B0000C040294009CCDE900B400F0B7F903B038
:1009C000BDE8F08F00200146F9E72DE9F04D81EAFE
:1009D000030404F0004B21F0004514464FF0000AD8
:1009E00023F0004150EA050220D054EA01021DD054
:1009F000C5F30A570246C5F31303C1F31300C1F34D
:100A00000A5640F4801543F48013A7EB0608101B28
:100A1000D64608F2FD3873EB050002D308F1010851
:100A200001E092185B41B8F1000F03DA00200146A3
:100A3000BDE8F08D00204FF48011064684460EE09C
:100A4000171B73EB050705D3121B63EB0503064366
:100A50004CEA010C49084FEA300092185B4150EA19
:100A60000107EDD152EA030012D082EA040083EAC2
:100A70000501084305D0101BAB4106D2012200231B
:100A800006E000224FF0004302E06FF00102531035
:100A90001AEB06004CEB085110EB0A0041EB0B017E
:100AA000BDE8F04D00F033B9C10F80EAE0700844B2
:100AB000CA079623002100F0FCB820F00040C10DC9
:100AC000C0F3160040F400007F2901DA00207047CF
:100AD000962903DCC1F19601C840704796398840D9
:100AE000704700F0004230F000400AD0C10D01F51F
:100AF0006071C0F3160042EA0151C2084007114379
:100B0000704700200146704701F0004330B421F0E7
:100B1000004150EA010206D00A0DA2F56072C1F34D
:100B20001301002A02DC30BC00207047440F44EA65
:100B3000C104C100E01830BC00EBC25000F0B0B8F6
:100B4000002801DBC0F10040002901DBC1F10041B8
:100B500081427047002801DBC0F10040002901DB21
:100B6000C1F100418842704730B50B460146002074
:100B70002022012409E021FA02F59D4205D303FA5F
:100B800002F5491B04FA02F52844151EA2F10102E0
:100B9000F1DC30BD2DE9F05F0546002092469B4612
:100BA00088460646814640241BE028464146474683
:100BB000224600F057F953465A46C01A914110D3C5
:100BC00011461846224600F016F82D1A67EB010868
:100BD0004F4622460120002100F00DF817EB0009D6
:100BE0004E41201EA4F10104DFDC484631462A466E
:100BF0004346BDE8F09F202A04DB203A00FA02F1C8
:100C0000002070479140C2F1200320FA03F31943FA
:100C100090407047202A06DBCB17203A41FA02F0B9
:100C200043EAE07306E041FA02F3D040C2F1200249
:100C300091400843194670470268114413780160D7
:100C400018467047D160044951610449116200217E
:100C50001161114600F01CB9390C0008850E00081E
:100C6000426842B1016811F8013B23B1521EC0E94C
:100C70000012184670470121C160881E7047426803
:100C80005AB1C368016843B983688B4205D0491ED5
:100C9000521CC0E90012002070474FF0FF3070472F
:100CA0000029A8BF7047401C490008BF20F0010080
:100CB000704710B4B0FA80FC00FA0CF050EA01045E
:100CC00004BF10BC704749B1CCF1200421FA04F4F0
:100CD00011FA0CF118BF012121430843A3EB0C01C9
:100CE000CB1D4FEA00614FEA102042BF002010BC2C
:100CF000704700EBC35010440029A4BF10BC7047DC
:100D0000401C490008BF20F0010010BC704710B51E
:100D1000141E73F1000408DA401C41F1000192181E
:100D20005B411A4301D120F0010010BD2DE9F04DC7
:100D300092469B4611B1B1FA81F202E0B0FA80F21C
:100D400020329046FFF757FF04460F4640EA0A005C
:100D500041EA0B0153465A46084313D0114653EA61
:100D6000010019D0C8F14002504600F07BF805465A
:100D70000E46504659464246FFF73DFF084305D010
:100D8000012004E020463946BDE8F08D00200543EF
:100D900046EAE0762C4337430A986305E40AA0EB61
:100DA00008000022FD0A44EA47540A3002D5002018
:100DB0000146E9E7010510196941DDE90845001917
:100DC0006941BDE8F04DA2E70EB540F23342029210
:100DD0000022CDE900221346FFF7A8FF03B000BDB3
:100DE000C1F30A52C1F3130140F2FF3341F4801101
:100DF0009A4202DA00200146704740F233439A4299
:100E0000A2F2334202DC524200F02CB8FFF7F3BEEC
:100E100030B5041E71F1000404DB4FF00044404281
:100E200064EB0101141E73F1000405DB1C464FF056
:100E30000043524263EB0403994208BF904230BD25
:100E4000064C074D06E0E06840F0010394E8070017
:100E500098471034AC42F6D3FFF76EF94C330008D4
:100E60006C330008202A04DB203A21FA02F000212A
:100E7000704721FA02F3D040C2F1200291400843AA
:100E800019467047C0B24FF4F05100F099B9000014
:100E90002DE9F34F8BB04FF0000801F10C000C4628
:100EA0004FF0010B46460DF1080A019062690121DD
:100EB00001989047051E2DD0252D2CD0216A8847FA
:100EC000C0B16269012101989047216A88470028D2
:100ED000F7D1411E62690198904700E0761CA16934
:100EE0000B988847216A88470028F7D1E1690B9859
:100EF0008847DBE7A1690B9888470746A84201D1DC
:100F0000761CD3E7E1690B9888477F1C02D1B8F1C2
:100F1000000F6FD047E1002762693D4639460198CE
:100F200090472A2804D16269012101989047012540
:100F3000DFF888926269012101989047A0F13001A1
:100F40000A290AD24F45E5DC07EB870100EB410790
:100F5000303FDFD445F01005ECE7E90601D46FF02F
:100F600000476C280AD04C2814D0682815D06A286D
:100F70000DD074281CD07A281AD01DE06269012196
:100F8000019890476C2802D045F0040514E045F024
:100F900002050DE045F020050AE062690121019893
:100FA0009047682802D045F0080505E045F4006543
:100FB0006269012101989047C4E9015765283DD035
:100FC00019DC58287AD00CDC452837D004DC2528D9
:100FD00026D0412831D131E046282FD047282CD1C6
:100FE0002CE05B2877D0612828D063287CD0642847
:100FF00023D15AE0D1E06F2848D008DC66281DD004
:1010000067281BD0692821D06E2816D127E07028C8
:1010100045D0732868D0752847D078280DD14DE089
:10102000A1690B988847054625283FF469AFE16917
:101030000B9888476D1C3FF46AAFB4E023466A46BC
:101040006FF001000B99FFF7C3F99FE045F04000F6
:101050006060A80723464FF0000236D43EE0E80760
:101060007FF447AF2068011D21600068290501D584
:1010700006701BE7290701D5068017E7A90703D5E6
:10108000F117C0E9006111E706600FE745F0400085
:101090006060A80723464FF0080216D41EE040F611
:1010A0000E0125EA0100606016E045F04000606036
:1010B000A80723464FF00A0207D40FE045F040008E
:1010C0006060A80708D5234610226FF001000B9935
:1010D000AFF300805AE007E0234610226FF00100D2
:1010E0000B99AFF3008051E04FF000094F464B469B
:1010F000632802D05B2807D041E02079C00601D4E4
:101100000120A06001273AE062690121019890471F
:101110005E2805D14FF00109626949460198904760
:10112000216939B900210A46534643F82120491C58
:101130000829FADBB0B3216969B9C11700EBD162A4
:1011400053110AEB830122F01F02821A01200B685F
:10115000904003430B6062690121019890475D282C
:10116000E8D1B9F1000F09D00020514651F82020F4
:10117000D24341F82020401C0828F7DB02AB22466E
:1011800000976FF001000B99FFF71EF800280CDAAA
:10119000401C08D1BBF1000F05D04FF0FF300DB05F
:1011A000BDE8F08FFFE74046F9E7E90701D108F114
:1011B000010806444FF0000B78E60000CCCCCC0CC4
:1011C0007F2801D9002208E0064A02EB5002C0073E
:1011D000127800D1120902F00F020120904008405D
:1011E000704700000C33000800BFFEE708B501217E
:1011F000802000F0D1FA10208DF8030003208DF834
:101200000200C002ADF800006946104800F042F943
:101210004FF4C040ADF8000069460C4800F03AF9C0
:101220004FF40061094800F009FA4FF48051074873
:1012300000F004FA4FF40051044800F0FFF94FF4B5
:101240008041024800F0FAF908BD0000001C01408E
:1012500010B54FF40061094800F0F0F94FF48051E7
:10126000064800F0EDF94FF40051044800F0E6F9AB
:101270004FF48041014800F0E3F910BD001C01402B
:1012800000B589B00121082000F086FA0121042070
:1012900000F062FAC020ADF8200018208DF823007D
:1012A00003208DF8220008A91B4800F0F3F840F253
:1012B000E730ADF818004720ADF814000020ADF875
:1012C0001A00ADF8160005A9144800F0B5FF60201B
:1012D000ADF804000120ADF806000020ADF80A00CA
:1012E000ADF80C0001A90D4800F0C4FE01A90B489F
:1012F00000F016FF0821094800F008FF0821074800
:1013000000F060FF0121054800F026FD012103489F
:1013100000F02EFD09B000BD000C014000080040A7
:10132000704710B50A468368591CCB1701EBD3638D
:101330005B11A1EB43134468A34200D110BD836845
:101340000168CA548368591CCB1701EBD3635B1146
:10135000A1EB4313836000BFF0E7000000B587B046
:101360000121022000F0F8F90121082000F014FA10
:101370000121084600F010FA01211E4800F016F97C
:101380003020ADF8180004208DF81B0006A91A487B
:1013900000F080F8194800F0F7FC03A800F09EFF69
:1013A0004EF66020ADF810000020ADF80C00ADF84E
:1013B0001200ADF80E0003A9104800F03DFF002315
:1013C0001A4603210D4800F0D3FD684600F048FEA0
:1013D0000320ADF808006946084800F0EBFD47F22D
:1013E00030500649243108800121044800F0C0FC37
:1013F00007B000BD00081A00000C014000040040C6
:1014000000B587B00121084600F0A6F901210420AB
:1014100000F0C2F90320ADF8180004208DF81B007D
:1014200006A91B4800F036F84FF0804000F0ACFCF5
:1014300003A800F053FF4EF66020ADF81000002026
:10144000ADF80C00ADF81200ADF80E0003A94FF096
:10145000804000F0F1FE00231A4603214FF0804047
:1014600000F086FD684600F0FBFD0320ADF80800A3
:1014700069464FF0804000F09DFD47F230504FF03C
:10148000804188840121880700F072FC07B000BD0C
:10149000000801402DE9F041024600250026002009
:1014A00000230024002791F803C00CF00F0591F8E9
:1014B00003C00CF0100CBCF1000F03D091F802C077
:1014C0004CEA050591F800C0BCF1000F31D014685A
:1014D00000202BE04FF0010C0CFA00F3B1F800C033
:1014E0000CEA03069E4220D183004FF00F0C0CFA49
:1014F00003F7BC4305FA03FC4CEA040491F803C06B
:10150000BCF1280F06D14FF0010C0CFA00FCC2F818
:1015100014C00AE091F803C0BCF1480F05D14FF0A8
:10152000010C0CFA00FCC2F810C0401C0828D1D3F2
:101530001460B1F800C0BCF1FF0F34DD5468002026
:101540002EE000F1080C4FF0010808FA0CF3B1F896
:1015500000C00CEA03069E4221D183004FF00F0C1D
:101560000CFA03F7BC4305FA03FC4CEA040491F8B7
:1015700003C0BCF1280F05D100F1080C08FA0CF8E3
:10158000C2F8148091F803C0BCF1480F07D100F1F4
:10159000080C4FF0010808FA0CF8C2F81080401C43
:1015A0000828CED35460BDE8F0810000F0B50A46AB
:1015B000002300240021002500F00046B6F1004F72
:1015C00002D11D4EF16901E01B4E7168C0F3034565
:1015D00083B200F44016B6F5401F08D121F07061C7
:1015E000154E766826F07066134F7E6012E000F4A8
:1015F0008016B6F5801F06D1032606FA05F4A1432E
:1016000041F0706106E0460D360103FA06F6B1437B
:1016100041F0706122B1460D360103FA06F63143FE
:1016200000F00046B6F1004F02D1034EF16101E037
:10163000014E7160F0BD0000000001404161704743
:101640000161704700BFFEE710B5FFF7D9FEFFF755
:1016500085FE10BD10B5FFF7C9FDFFF711FE10BDE7
:1016600000BFFEE77047000070B5002100230F2285
:10167000C47804B3154C246804F4E064C4F5E06451
:10168000210AC1F10403CA40447804FA03F18478C2
:101690001440214309010E4C0678A155047804F04A
:1016A0001F050124AC4005786D11AD0005F1E02562
:1016B000C5F8004109E0047804F01F050124AC409E
:1016C000044D0678761145F8264070BD0CED00E01B
:1016D00000E400E080E100E002490143024A1160B9
:1016E000704700000000FA050CED00E00C480D49C1
:1016F000C8600D4808610020486148608861C86181
:101700000860886006480949C860074808610020E9
:10171000486148608861C86108608860704700005F
:101720000000E842E80100200080E14308020020B8
:10173000704700000648074908600846006800B97D
:101740007047002003498860486000BFF8E7000048
:10175000340200202802002029B1064AD26902433F
:10176000044BDA6104E0034AD2698243014BDA6137
:10177000704700000010024029B1064A1269024376
:10178000044B1A6104E0034A12698243014B1A6157
:10179000704700000010024029B1064A92690243D6
:1017A000044B9A6104E0034A92698243014B9A61B7
:1017B000704700000010024029B1064AD268024377
:1017C000044BDA6004E0034AD2688243014BDA60DA
:1017D000704700000010024030B5002100220024B4
:1017E00000232D4D6D6805F00C0121B1042905D0B1
:1017F000082923D105E0294D056022E0274D056029
:101800001FE0254D6D6805F47012234D6D6805F4D9
:101810008034022505EB92421CB9214D55430560E9
:101820000BE01D4D6D6805F400351DB11C4D554391
:10183000056002E0194D5543056002E0174D056053
:1018400000BF00BF144D6D6805F0F0010909154D8A
:101850006B5C0568DD4045600F4D6D6805F4E06127
:10186000090A104D6B5C4568DD4085600A4D6D6866
:1018700005F46051C90A0B4D6B5C4568DD40C560DD
:10188000054D6D6805F44041890B074D6B5CC568DB
:10189000B5FBF3F5056130BD0010024000127A007F
:1018A00000093D0000000020100000200146022930
:1018B00002D0032912D109E04FF08042928C10B27D
:1018C00047F230524FF080439A8409E0054A12886B
:1018D00010B247F23052034B1A8001E0002000BFE3
:1018E00000BF704724040040704710B500F002F8B4
:1018F00010BD00000CB50020019000903348006836
:1019000040F480303149086000BF3048006800F47E
:10191000003000900198401C0190009818B901987F
:10192000B0F5A06FF1D12948006800F4003010B183
:101930000120009001E0002000900098012843D190
:101940002348006840F010002149086008460068FC
:1019500020F0030008600846006840F002000860BC
:101960001A48406819494860084640684860084677
:10197000406840F4806048600846406820F47C106D
:1019800048600846406840F4E8104860084600682F
:1019900040F08070086000BF0C48006800F00070E4
:1019A0000028F9D00948406820F003000749486042
:1019B0000846406840F00200486000BF03484068A5
:1019C00000F00C000828F9D10CBD00000010024006
:1019D000002002400149088070470000380800409C
:1019E00001490880704700003408004010B500200D
:1019F00080F3108800BF4FF4A060FFF76DFE00F089
:101A000053F800F075FCFFF725FE00F0E1FCFFF74E
:101A10001BFEFFF76BFEFFF71BFCFFF78BFE10BDF5
:101A200000200CE0074951F8201031B1054951F868
:101A30002010491E034A42F82010411CC8B2072852
:101A4000F0DB70474000002010B51348006840F0FC
:101A500001001149086008464068104908400E49D5
:101A60004860084600680E4908400B49086008466F
:101A7000006820F4802008600846406820F4FE00DA
:101A800048604FF41F008860FFF72FFF4FF00060A1
:101A90000449086010BD0000001002400000FFF87B
:101AA000FFFFF6FE08ED00E030B5002005E0002164
:101AB000154A42F82010411CC8B20728F7DB134929
:101AC000B1F1807F00D31DE021F07F40401E4FF038
:101AD000E022506150170F22002807DA13071D0E6D
:101AE0000B4B00F00F04241F1D5503E013071C0EC1
:101AF000084B1C5400BF00204FF0E02290610720EB
:101B0000106100BF30BD00004000002040190100FE
:101B100018ED00E000E400E0F0B50C4615460022A8
:101B20000021068C4FF6FE773E400684028B018C26
:101B30004FF60C7632407E1C06EA03162E433243E3
:101B4000104EB0420ED0104EB0420BD0B0F1804FCC
:101B500008D00E4EB04205D00D4EB04202D00D4E10
:101B6000B04206D14FF6FD76314044F001063143D4
:101B700005E04FF6F576314044F00106314302832B
:101B80000184F0BD002C01400034014000040040FD
:101B900000080040000C0040F0B50C46154600223D
:101BA00000210026078C4FF6EF7C07EA0C0707841C
:101BB000028B018C4FF6FF7707EA041640F6FF47C9
:101BC0003A404FF6FF7707EA03373A434FF6FF777D
:101BD00007EA05273A43114FB8420ED0104FB842DA
:101BE0000BD0B0F1804F08D00E4FB84205D00E4F49
:101BF000B84202D00D4FB84206D14FF6DF773940D8
:101C000046F01007394305E04FF65F77394044F05E
:101C10001007394302830184F0BD0000002C01400D
:101C2000003401400004004000080040000C004067
:101C3000F0B50C461546002200210026078C4FF611
:101C4000FF6C07EA0C070784828B018C4FF6FF7745
:101C500007EA04264FF60C773A404FF6FF7707EA7B
:101C600003172F433A43114FB8420ED0104FB842DA
:101C70000BD0B0F1804F08D00E4FB84205D00E4FB8
:101C8000B84202D00D4FB84206D14FF6FF57394047
:101C900046F48077394305E04FF2FF57394044F46A
:101CA0008077394382830184F0BD0000002C01401D
:101CB000003401400004004000080040000C0040D7
:101CC000F0B50C461546002200210026078C4EF682
:101CD000FF7C07EA0C070784828B018C4FF6FF77A5
:101CE00007EA043640F6FF473A404FF6FF7707EA27
:101CF00005273A434FF6FF7707EA03373A43114F78
:101D0000B8420ED0104FB8420BD0B0F1804F08D07F
:101D10000E4FB84205D00E4FB84202D00D4FB84218
:101D200006D14DF6FF77394046F48057394305E038
:101D300047F6FF57394044F4805739438283018482
:101D4000F0BD0000002C01400034014000040040C0
:101D500000080040000C004021B1028842F08002DF
:101D6000028004E002884FF67F731A4002807047B9
:101D700021B1028842F00102028004E002884FF69D
:101D8000FE731A400280704710B5044668488442CA
:101D900008D10121C014FFF70FFD0021E014FFF767
:101DA0000BFDC4E0B4F1804F08D101210846FFF7D4
:101DB000E3FC00210120FFF7DFFCB8E05D4884422E
:101DC00008D101210220FFF7D7FC00210220FFF7F4
:101DD000D3FCACE05848844208D101210420FFF72D
:101DE000CBFC00210420FFF7C7FCA0E0534884424D
:101DF00008D101210820FFF7BFFC00210820FFF7D0
:101E0000BBFC94E04E48844208D101211020FFF72A
:101E1000B3FC00211020FFF7AFFC88E04948844262
:101E200008D101212020FFF7A7FC00212020FFF787
:101E3000A3FC7CE04448844208D101214014FFF710
:101E4000BBFC00216014FFF7B7FC70E03F48844200
:101E500009D10121C804FFF7AFFC00214FF4002095
:101E6000FFF7AAFC63E03A48844209D10121080542
:101E7000FFF7A2FC00214FF48010FFF79DFC56E015
:101E80003448844209D101214805FFF795FC00211F
:101E90004FF40010FFF790FC49E02F48844208D12E
:101EA00001214020FFF768FC00214020FFF764FC7F
:101EB0003DE02A48844208D101218020FFF75CFCE4
:101EC00000218020FFF758FC31E02548844208D1EA
:101ED00001218015FFF750FC0021A015FFF74CFCF5
:101EE00025E02048844209D101210804FFF764FC61
:101EF00000214FF48030FFF75FFC18E01A4884425D
:101F000009D101214804FFF757FC00214FF40030AC
:101F1000FFF752FC0BE01548844208D101218804E8
:101F2000FFF74AFC00214FF48020FFF745FC10BD6D
:101F3000002C01400004004000080040000C00405C
:101F4000001000400014004000340140004C0140EB
:101F5000005001400054014000180040001C0040A7
:101F60000020004000400140004401400048014082
:101F7000F0B50C4615461E460021002200230189BB
:101F8000028B038C4FF6F877394021434FF6FC471C
:101F90003A4040F201173A434FF6DD773B404FF6A7
:101FA000FF7707EA06172F433B430181028303842F
:101FB000F0BD000070B505460C46244885420ED0A1
:101FC000234885420BD0B5F1804F08D02148854287
:101FD00005D02148854202D02048854200D100E04A
:101FE00000BF208850B92389A28861882846FFF75E
:101FF00093FDE188284600F0F2F825E020880428C7
:102000000AD12389A28861882846FFF7C5FDE188A7
:10201000284600F0EDF817E0208808280AD1238927
:10202000A28861882846FFF703FEE188284600F071
:10203000ECF809E02389A28861882846FFF740FE72
:10204000E188284600F0EAF870BD0000002C01404D
:10205000003401400004004000080040000C004033
:10206000002101804180012181800021C180018106
:102070007047000070B5002400220023058C4FF645
:10208000FE7635400584028C8388048B4FF68F756D
:102090002C40B51E2C400D882C43751E2A400D89FE
:1020A0002A434D882A43144DA8420BD0134DA84211
:1020B00008D0134DA84205D0124DA84202D0124DAF
:1020C000A84213D14FF6F7752A404D892A434FF69F
:1020D000FB752A408D882A434FF6FF652B404FF64B
:1020E000FF552B408D892B43CD892B43838004835F
:1020F000CD888586028470BD002C014000340140EB
:102100000040014000440140004801400A460021CF
:10211000018B4FF6F773194011430183704700009C
:1021200070B5002400220023058C4FF6EF76354071
:102130000584028C8388048B48F6FF752C404FF68B
:10214000FF452C400D884FF6FF7606EA05252C4307
:102150004FF6DF752A400D8906EA05152A434D889A
:1021600006EA05152A43154DA84202D0144DA8428F
:102170001DD14FF67F752A404D894FF6FF7606EA4E
:1021800005152A434FF6BF752A408D8806EA0515C6
:102190002A434FF6FF352B404FF2FF752B408D89B8
:1021A00006EA85052B43CD8906EA85052B43838006
:1021B0000483CD880587028470BD0000002C014097
:1021C000003401400A460021018B4FF2FF73194091
:1021D0004FF6FF7303EA0223194301837047028B12
:1021E0004FF6F3731A400283028B0A43028370474F
:1021F000028B4FF2FF331A400283028B4FF6FF73BC
:1022000003EA01231A4302837047828B4FF6F3736C
:102210001A408283828B0A4382837047828B4FF2FB
:10222000FF331A408283828B4FF6FF7303EA012348
:102230001A43828370470000002202881D4B984297
:102240000ED01D4B98420BD0B0F1804F08D01B4BE5
:10225000984205D01A4B984202D01A4B984204D1AA
:102260004FF68F731A404B881A43174B984207D08A
:10227000164B984204D04FF6FF431A40CB881A43BE
:1022800002808B8883850B8803850A4B98420BD08C
:10229000094B984208D00E4B984205D00D4B9842FE
:1022A00002D00D4B984201D10B7A03860123838221
:1022B00070470000002C0140003401400004004041
:1022C00000080040000C00400010004000140040D6
:1022D0000040014000440140004801404FF6FF71BA
:1022E000818000210180C18041800172704700001F
:1022F00064200449486096208860C820C8600A208D
:10230000086170474000002010B540F225510D488B
:1023100000F0E5F8012813D10A200B4908610948AB
:1023200000F098F9C1B2094802880088401C074BA8
:1023300018800748815440F22551024800F0A7F860
:1023400010BD0000003801404000002014000020B3
:10235000DC00002010B50E48006908B1002010BD57
:102360000C48008808B90020F9E700200A49094A0A
:1023700012888854084600F0D5FE4FF48071064854
:10238000FDF7FBFE0020034908800120E7E700007D
:102390004000002014000020DC00002010B540F2B6
:1023A0002551094800F09BF8012807D1064800F0A4
:1023B00051F9C4B221460548FEF7B3FF40F225515A
:1023C000014800F064F810BD0044004028020020DD
:1023D00000B587B0012144F20400FFF7DDF91820B1
:1023E0008DF81B004FF40070ADF8180003208DF835
:1023F0001A0006A91F48FFF74DF848208DF81B006A
:102400004FF48060ADF8180006A91A48FFF742F8AB
:102410004FF4E13002900020ADF814000C20ADF82C
:1024200012000020ADF81000ADF80E00ADF80C0061
:1024300002A9114800F0A2F825208DF8040001201F
:102440008DF807008DF8050002208DF8060001A820
:10245000FFF70AF9012240F22551074800F069F818
:102460000121054800F022F84021034800F006F859
:1024700007B000BD000801400038014001F40072BF
:10248000B2F5007F00D100BFCA430280704710B58B
:102490000022002340F66A14A14200D100BF0A12B4
:1024A00001249440A3B2DC43048010BD21B1828991
:1024B00042F40052828104E082894DF6FF731A4093
:1024C0008281704702460020B1F5007F00D100BF35
:1024D00013880B400BB1012000E00020704770B55D
:1024E0000246002400230025002040F66A16B1426F
:1024F00000D100BFC1F3421501F01F03012606FA07
:1025000003F3012D02D19689334006E0022D02D15A
:10251000168A334001E0968A33400C12012606FAEF
:1025200004F41688344013B10CB1012000E00020FF
:1025300070BDF0B50346002400260025002040F6BB
:102540006A17B94200D100BF1846C1F3421401F026
:102550001F06012707FA06F5012C01D10C3004E013
:10256000022C01D1103000E014301AB107682F435B
:10257000076002E00768AF430760F0BD2DE9F04750
:1025800086B005460E460024A24600BFA14600279D
:10259000B08900B100BF2F462C8A4CF6FF70044072
:1025A000F08804432C82AC894EF6F3100440B088C6
:1025B00031890843718908430443AC81AC8A4FF6E2
:1025C000FF400440B0890443AC8201A8FFF704F93E
:1025D0001F48874202D1DDF810A001E0DDF80CA011
:1025E000A88900F4004040B10AEBCA0000EB0A10D1
:1025F00031684900B0FBF1F807E00AEBCA0000EBD4
:102600000A1031688900B0FBF1F86420B8FBF0F0E3
:1026100004012009642101FB1089A88900F400400D
:1026200040B1322000EBC900B0FBF1F000F0070030
:10263000044308E0322000EB09106421B0FBF1F004
:1026400000F00F0004432C8106B0BDE8F0870000C5
:102650000038014001468888C0F308007047C1F384
:1026600008028280704700BFFEE700000FB4054BF0
:1026700010B503A9044A029800F0E2F810BC5DF816
:1026800014FB0000492F00083C00002002E008C8AD
:10269000121F08C1002AFAD170477047002001E0DC
:1026A00001C1121F002AFBD1704700002DE9FF5F16
:1026B00082B00021DDE90430020DDDF840B00343B3
:1026C00018D044F61050A2F2FF324243151411986C
:1026D00001281FD0A5EB0B00401C5FEA000A4FF059
:1026E00000064E4FDFF83891B046504615D5CAF176
:1026F000000413E0119801244AA3012801D16FEAD4
:102700000B010298119AC0E90031C0E9024206B0FB
:10271000BDE8F09FCBF10000DFE704460021404A0E
:10272000491842EB0450CDE9001012E0E00707D051
:1027300032463B4640464946FEF7D5F88046894634
:1027400032463B4610461946FEF7CDF806460F4680
:102750006410002CEAD1DDE90401DDE90023BAF1BF
:10276000000F06DAFEF7BFF842464B46FEF7BBF80D
:1027700005E0FEF72AF942464B46FEF726F90446E5
:102780000E460022284BFEF743FB03D84FF0FF30E4
:10279000014607E00022254B20463146FDF7FCFFAD
:1027A000FEF71EFB102409E0002C0ADB0A2200239E
:1027B000FEF7F0F9039B30321A55641E50EA01020D
:1027C000F2D1641C039AC4F111031444119A012A32
:1027D00003D0012208430DD10AE0084304D00020B1
:1027E0004FF0110B119072E7A3EB0B056D1E0DE07E
:1027F0005B4504DD4FF0000205F1010504E003DA5A
:102800004FF00002A5F10105002AECD002981199C1
:10281000C0E90231C0E9004579E70000000014403A
:102820000000F03F300000000000F0430000E03FF7
:1028300030380A2801D2012070470020704700007C
:102840002DE9FF4F95B09A46884606460025EEE1F1
:10285000252877D100242746F94A0121039400E076
:10286000044316F8013F203B01FA03F01042F7D170
:1028700030782A2811D06FF02F033078A0F1300281
:10288000092A16D8039A44F0020402EB820203EBF1
:1028900042021044761C0390EFE758F8042B039291
:1028A000002A03DA504244F40054039044F0020436
:1028B000761C30782E2816D116F8010F44F0040447
:1028C0002A280DD06FF02F023078A0F13003092BA9
:1028D00009D807EB870302EB4303C718761CF3E71D
:1028E00058F8047B761C30786C280FD006DC4C2816
:1028F00017D068280DD06A2814D104E0742810D0AD
:102900007A280FD10DE044F400140AE044F4801456
:1029100001E044F440147278824202D104F580143C
:10292000761C761C307866280BD013DC582877D0BC
:1029300009DC002875D04528F6D04628F4D0472871
:102940001AD193E118E0632835D0642879D065283E
:1029500012D18BE1702873D008DC6728F1D0692888
:102960006FD06E280DD06F2806D1ACE073282CD024
:10297000752874D0782853D05246179990476D1C0B
:1029800054E1C4F30250022809D003280DD0D8F82E
:10299000001004280DD00D6008F1040846E1D8F8B5
:1029A0000010EA17C1E90052F6E7D8F800100D80D0
:1029B000F2E70D70F0E718F8041B8DF80010002006
:1029C0008DF80100EB46012003E058F804BB4FF0FE
:1029D000FF3061074FF0000102D40DE009F1010161
:1029E0008946B9420FDA8145F8DB1BF80910002946
:1029F000F4D108E009F1010189468142FADB1BF8B4
:102A000009100029F6D103985346A0EB0907214687
:102A10003846179A00F080FA284400EB090507E0D1
:102A200044E008E10DE01BF8010B5246179990476E
:102A3000B9F10109F7D2534621463846179AF2E018
:102A400039E00A21C4F302524FF0000B0091022A30
:102A500006D058F8040BC117032A09D00AE023E076
:102A600008F1070020F00702F2E80201904605E0B5
:102A700000B2C117042A01D140B2C117002906DAF9
:102A80000A460021404261EB02012D2202E02205AC
:102A900004D52B228DF80420012203E0E20701D0A7
:102AA0002022F7E7914657E00A2100E010214FF07D
:102AB000000B00910BE010214FF0000B44F00404D8
:102AC0000827009103E008204FF0000B0090C4F3AA
:102AD0000252022A05D058F8040B0021032A08D01C
:102AE00008E008F1070020F00702F2E80201904632
:102AF00003E080B2042A00D1C0B24FF000092207DF
:102B00002AD53278702A07D0DDF800C08CF0100C7E
:102B10005CEA0B0C05D00EE040228DF80420012267
:102B200008E050EA010306D030238DF804308DF818
:102B3000052002229146009B83F0080353EA0B0311
:102B40000AD150EA010201D1620705D530228DF881
:102B500004204FF001097F1E3278582A04D039A290
:102B60000C920CAA02920BE03BA2F9E75B46009A9A
:102B7000FEF710F80C9B9B5C029A521E0292137097
:102B800050EA0102F2D1029804A9081A00F1200BC0
:102B9000600702D524F4803400E001275F4502DDA0
:102BA000A7EB0B0000E0002000EB0B010090039866
:102BB0004944401A0390E00306D453462146179A2D
:102BC000039800F0A9F90544002706E001A8524641
:102BD000C05D179990476D1C7F1C4F45F6DBE003E5
:102BE0000CD553462146179A039800F095F90544F1
:102BF00004E030205246179990476D1C0099481EFA
:102C000000900029F5DC08E002980299524600780D
:102C1000491C0291179990476D1CBBF10001ABF163
:102C2000010BF1DC5BE100F065F90544761C3078BE
:102C300000287FF40DAE19B02846BDE8F08F0000E3
:102C40000928010030313233343536373839616282
:102C50006364656600000000303132333435363746
:102C6000383941424344454600000000600700D423
:102C7000062708F1070020F00700F0E8022380464D
:102C800003F0004C5FEA0C0001D097A009E020059A
:102C900001D596A005E0E00701D095A001E0AFF2D4
:102CA0004C001390307823F0004365280CD006DCEC
:102CB000452809D046281DD047287FD13BE066280B
:102CC00018D067287AD136E00021112F01DB1120BE
:102CD00000E0781CCDE9000104A90CA8FFF7E6FC90
:102CE000DDE90D010C9A4FF0000B07F1010910927C
:102CF00000914EE04FF000400097CDE9011004A98B
:102D00000CA8FFF7D3FCDDE90D020C9B0F994FF0E7
:102D1000000B91461093009211B9791C00EB010948
:102D2000B7EB090003D4C0F1FF3B07F10109A9EBA0
:102D30000700019042E0012F00DA01270021112F46
:102D400001DD112000E03846CDE9000104A90CA8FE
:102D5000FFF7ACFCDDE90D010C9A00914FF0000B80
:102D6000B946109221070FD4009A4A4503DA9146DA
:102D700001E0A9F10109B9F1010F05DD109AA9F1EE
:102D80000101515C3029F4D0B84202DA10F1040F8D
:102D900003DA0121CDE9011010E0002803DC8344AF
:102DA000A9EB000102E0411C494500DD8946A0EB8A
:102DB0000B00401C01904FF000400290200705D40A
:102DC0000198484502DB4FF0FF30019000208DF85C
:102DD0004B0002980DF14B07B0F1004F25D00220B7
:102DE0000C902B200D90029800280CDA40420290A3
:102DF0002D200D9007E00A210298FDF7B5FE303135
:102E0000029007F8011D0C99481E0C900029F2DC75
:102E100002980028EFD1791E0D980870307800F0E4
:102E2000200040F0450007F8020D11A8C01BC01D8E
:102E300002901398007800B1012000EB090101987D
:102E400001EBE071029801440398401A401E039080
:102E5000E00306D453462146179A039800F05CF825
:102E600005441398007818B15246179990476D1C85
:102E7000E00323D553462146179A039800F04CF8F7
:102E800005441BE0BBF1000F07DB0098584504DD4B
:102E90001098179910F80B0001E01799302052464E
:102EA000904701980BF1010B401E05F101050190BF
:102EB00004D12E205246179990476D1CB9F100019C
:102EC000A9F10109DEDC05E017F8010B524617995C
:102ED00090476D1C0299481E02900029F4DC53466D
:102EE0002146179A03989EE62D0000002B00000053
:102EF000200000002DE9F041044600251E4617463B
:102F0000880404D405E039462020B0476D1C641EB7
:102F1000F9D52846BDE8F0812DE9F04104460025A9
:102F20001E469046C80301D5302700E020278804BC
:102F300004D505E041463846B0476D1C641EF9D5FE
:102F40002846BDE8F081000070B504460D46A1B2E8
:102F50000548FFF784FB00BF40210348FFF7B2FAA2
:102F60000028F9D0204670BD003801402DE9F04717
:102F700005460C4600212846FDF7E2FD01D285F00A
:102F8000004528462168FDF794FB60606168206970
:102F9000FDF792FB8046D4E90101FDF787FB8146EE
:102FA000E168FDF789FB07464146FDF72DFB064624
:102FB000E169FDF729FBE0610C49E069FDF7CAFD15
:102FC00001D20A4800E0E069E0616068A060002189
:102FD000E069FDF7B5FD01D2002000E0E069E061A5
:102FE000E069FDF76AFD80B2BDE8F08700007A4431
:102FF0002DE9F84F00203A4908603A4908608246B6
:1030000052E00AF10201C8B2FEF750FCA0F5EA4016
:1030100030383549086008460068FDF745FD3349FA
:103020000090FDF77BFB8346FDF75BFD0646304ACB
:10303000304BFDF758FC04462F4A304BFDF753FC4C
:103040008046FDF761FD2E49086008460068FDF7DF
:1030500048FD04462B4A2C4BFDF7B7FC0646FDF70E
:1030600053FD2A4941F82A00002125480068FDF750
:1030700071FD02D22248006803E02148006880F018
:1030800000400446174801682046FDF7BDFA15497F
:1030900008601E4850F82A1011480068FDF7B4FA7D
:1030A0000F4908600AF1010ABAF1020FA9DB4FF0DB
:1030B00080410C480068FDF731FB04461448016864
:1030C0002046FDF7A1FA124908604FF080410448FC
:1030D0000068FDF723FB02490860BDE8F88F000097
:1030E000340000202C000020180000200000A5441F
:1030F0006F1283C0CA210940A4703D0AD7A3B03F14
:10310000200000209A9999999999B93F24000020AC
:1031100030000020FEF76AFCFEF79AF801E000F0AC
:103120007BF8FCE710B50446354B364A36A12046FD
:10313000FDF72EF8022800D010BD32480078522842
:103140002CD1304840785F2803D12E48C0783D28E4
:1031500000D0F1E72B488078502804D12848006837
:103160002B49C8604AE027488078492804D1244880
:1031700000682749086141E022488078442804D14A
:103180001F4800682249486138E01E48807854286A
:1031900034D11B4800681E4908602FE019480078A8
:1031A0004C282BD1174840785F2803D11548C078A8
:1031B0003D2800D0C0E713488078502804D110483B
:1031C00000681449C86019E00E488078492804D185
:1031D0000B4800680F49086110E00A4880784428CD
:1031E00004D1074800680B49486107E0054880782A
:1031F000542803D1024800680649086000BF9BE7D5
:1032000038000020DC010020253473256600000012
:10321000E80100200802002010B500F003F8FFF7D5
:1032200099F810BD2DE9F04F93B02E48406810B1C9
:1032300013B0BDE8F08F64202A494860FFF7D8FE3C
:103240002949C869FDF74DFC04460D4626494868E2
:10325000FDF747FC06460F4623494869FDF741FC48
:103260008046894620490869FDF73BFC82468B462B
:103270001D49C868FDF735FCCDE910011B490868F8
:10328000FDF72FFCCDE90E0117490868FDF729FC71
:10329000CDE904ABCDE90689CDE90867CDE90A455A
:1032A000CDE90C01DDE91001CDE90201DDE90E01F6
:1032B000CDE900010EA0DDE90C23FFF7D7F90B499A
:1032C00008680949FFF752FE0446FEF789FB0749E3
:1032D00048680D49FFF74AFE0446FEF77BFB00BF36
:1032E000A6E7000040000020E801002024000020A4
:1032F00025662C25662C25662C25662C25662C2516
:10330000662C25660D0A000008020020DDDDDDDDEB
:10331000DCBBBBDDDDDDDDDDDDDDDDDD9888888866
:10332000888888887777777777888888855555560D
:103330006666666666666666666888888333333264
:1033400022222222222222222228888D6C33000867
:1033500000000020400000008C260008AC3300086C
:1033600040000020180600009C2600080000000015
:103370000102030401020304060708090204060807
:10338000000000000000000000000000000000003D
:10339000000000000000000000000000000000002D
:0C33A00000000000000000000000000021
:0400000508000131BD
:00000001FF
