:020000040800F2
:10000000800900204901000843200008FB13000874
:100010003F200008790D0008292B0008000000008F
:100020000000000000000000000000007D22000829
:100030003110000800000000CF20000859240008FB
:100040006301000863010008630100086301000800
:1000500063010008630100086301000863010008F0
:1000600063010008630100086301000863010008E0
:1000700063010008630100086301000863010008D0
:1000800063010008630100086301000863010008C0
:1000900063010008630100086301000863010008B0
:1000A00063010008630100086301000863010008A0
:1000B0006301000863010008630100086301000890
:1000C0006301000863010008630100086301000880
:1000D00063010008B527000819280008DB2800087C
:1000E0006301000863010008630100086301000860
:1000F0006301000863010008630100086301000850
:10010000630100086301000863010008630100083F
:10011000630100086301000863010008630100082F
:10012000630100086301000863010008630100081F
:10013000DFF810D000F0EAFC00480047253D000839
:10014000AFF300808009002006488047064800473A
:10015000FEE7FEE7FEE7FEE7FEE7FEE7FEE7FEE777
:10016000FEE7FEE79124000831010008D2B201E069
:1001700000F8012B491EFBD270470022F6E710B5AC
:1001800013460A4604461946FFF7F0FF204610BD05
:1001900030B505462A460B4612F8010B13F8014B01
:1001A00008B1A042F8D01CB1002802D06D1CF1E7C4
:1001B000284630BD10B5044604E00B7800F8013B3A
:1001C00003B1491C521EF8D2204610BD70B50F4D28
:1001D00000B92868002412E00A4602E09E4203D0DB
:1001E000521C1378002BF9D1DAB2224305D02BB17F
:1001F00024B1002100F8011B04E00446401C0678ED
:10020000002EE9D12860204670BD000020000020AB
:100210002DE9F04791460F4680460446002614F823
:10022000015B2DB100F032FB0068405DC007F6D1E4
:100230002B2D02D02D2D18D0641E4A46394620465B
:1002400000F028FB27B13968A14201D1C7F800802E
:1002500071054FF002040BD54042002803DD02F087
:1002600093FC0460A007BDE8F08746F48066E4E7ED
:100270000028F8DA02F088FC04606FF00040F2E732
:10028000F0B480EA0102D40F4200B2EB410F02D277
:100290000246084611464A0042D0C30DDDB2C1F302
:1002A000C752AD1A202D35DAC1F3160141F4000210
:1002B00004B15242C5F1200602FA06F12A41104467
:1002C000B3EBD05F23D0C4B1012DA0EBC35009DC48
:1002D000F0BC4FF0004202EAC352DBB200F500006E
:1002E00000F030BB400000F1807000EBC350A0F183
:1002F000807040EAD170490009E0490841EAC071C4
:10030000A0EBC35000F50000400800EBC350F0BC68
:1003100000F00FBB6142012202EB4101001BF6E736
:10032000F0BC704781F00041AAE780F00040A7E7E9
:1003300030B480EA010202F0004530F0004221F0C2
:10034000004013D090B1C30DD40DC2F31601C0F319
:100350001600E41A41F4000140F400027D34914299
:1003600001D3641C00E04900002C02DA30BC0020FC
:1003700070474FF400000023914201D3891A0343D0
:1003800040084FEA4101F7D151B1914202D14FF0FB
:10039000004105E002D24FF0010101E06FF00101E0
:1003A00003EBC450284430BC00F0C3BA2DE9FE4F23
:1003B000804681EA0300C00F0C46009021F0004106
:1003C00023F00045B8EB0200A94105D24046214682
:1003D00090461C460B46024623F00040104347D08F
:1003E000270DC7F30A00C3F30A510290401A019087
:1003F00040286BDAC3F3130040F4801B0098924648
:1004000020B10023D2EB030A63EB0B0B0198594692
:10041000C0F14002504600F008FA06460D4650462C
:100420005946019A00F020FA10EB080061410024BF
:1004300087EA115284EAE7731A4340D0009A62B304
:10044000019A012A4FEA075215DC001B61EB0201F9
:100450004FF0004202EA0752CDE90042001C41F58C
:10046000801132462B4600F0AAFA03B0BDE8F08FA7
:1004700040462146F9E7001B61EB0201001C41F5F3
:10048000801300185B412018A2F5001747EB030109
:1004900040EAD570B6196D4111E06D084FEA360695
:1004A00045EAC0754FEA0752001B61EB0201001CD0
:1004B00041F5801149084FEA300000195141324698
:1004C0002B4603B0BDE8F04F00F06ABA0098012255
:1004D00040000023D0EB020263EBE073009821465A
:1004E0004FEAE074B8EB000061EB0401E9E783F048
:1004F00000435BE781F0004158E72DE9FE4F81EAB8
:10050000030404F0004421F0004100944FF0000B7C
:1005100023F0004350EA01045ED052EA03045BD0AA
:10052000C3F30A54C1F30A552C44A4F2F3340194E2
:10053000A0FB0254C1F3130141F48011C3F3130370
:1005400043F4801301FB024400FB034E840A970A24
:1005500044EA815447EA8357A4FB076802958D0A51
:1005600005FB07854FEA932C04FB0C542705029DDD
:100570004FEA065847EA1637B5EB08056EEB070C4D
:10058000870E920E47EA811742EA8312A7FB020107
:10059000B6EB0B0164EB00042B0D43EA0C335E1841
:1005A00044EB1C50DA465146E7FB0201C5F3130445
:1005B0004FEA0B3343EA14534FEA0432019C43EAF7
:1005C0000603A4F10C040294009CCDE900B400F0F1
:1005D000F6F903B0BDE8F08F00200146F9E72DE9F8
:1005E000F04D81EA030404F0004B21F0004514466D
:1005F0004FF0000A23F0004150EA050220D054EAEF
:1006000001021DD0C5F30A570246C5F31303C1F317
:100610001300C1F30A5640F4801543F48013A7EB8E
:100620000608101BD64608F2FD3873EB050002D30E
:1006300008F1010801E092185B41B8F1000F03DAFC
:1006400000200146BDE8F08D00204FF480110646E1
:1006500084460EE0171B73EB050705D3121B63EBF3
:10066000050306434CEA010C49084FEA3000921892
:100670005B4150EA0107EDD152EA030012D082EA51
:10068000040083EA0501084305D0101BAB4106D2E4
:100690000122002306E000224FF0004302E06FF049
:1006A000010253101AEB06004CEB085110EB0A0044
:1006B00041EB0B01BDE8F04D00F072B9962300222A
:1006C000114600F03FB900F0004220F00040C10D9B
:1006D000C0F3160040F400007F2901DA00207047C3
:1006E000962903DCC1F19601C84001E096398840A3
:1006F000002AF4D040427047C1F30A5210B5C1F34A
:10070000130140F2FF3341F480119A4201DA0020D4
:1007100010BD40F233439A42A2F2334203DC52420C
:1007200000F092F810BD904010BD00F0004230F093
:1007300000400AD0C10D01F56071C0F3160042EA15
:100740000151C2084007114370470020014670471D
:1007500001F0004330B421F0004150EA010206D01C
:100760000A0DA2F56072C1F31301002A02DC30BC4D
:1007700000207047440F44EAC104C100E01830BCB7
:1007800000EBC25000F0D5B8002801DBC0F10040FA
:10079000002901DBC1F100418842704730B50B46AA
:1007A000014600202022012409E021FA02F59D42A1
:1007B00005D303FA02F5491B04FA02F52844151E75
:1007C000A2F10102F1DC30BD2DE9F05F0546002009
:1007D00092469B4688460646814640241BE02846B2
:1007E00041464746224600F02FF853465A46C01A63
:1007F000914110D311461846224600F016F82D1AE2
:1008000067EB01084F4622460120002100F00DF859
:1008100017EB00094E41201EA4F10104DFDC48461D
:1008200031462A464346BDE8F09F202A04DB203AA1
:1008300000FA02F1002070479140C2F1200320FA33
:1008400003F3194390407047202A04DB203A21FA31
:1008500002F00021704721FA02F3D040C2F12002D9
:100860009140084319467047202A06DBCB17203AEF
:1008700041FA02F043EAE07306E041FA02F3D040A5
:10088000C2F1200291400843194670470048704762
:10089000549100082DE9F05F824600780027154644
:1008A0008B460AF10104B946302801D09DB113E00E
:1008B00014F8010B0127782803D0582801D045B13E
:1008C0000AE00DB1102D07D10027102514F8010BF7
:1008D00002E0082500E00A250026B0460EE005FBF0
:1008E000080005FB06F1012701EB10461FFA80F80E
:1008F000B6F5803F00D3B94614F8010B294600F045
:1009000017F90028EBDABBF1000F05D00FB1641E18
:1009100000E05446CBF80040B9F1000F06D002F0D9
:1009200033F902210160C81EBDE8F09F48EA064085
:10093000FAE70029A8BF7047401C490008BF20F013
:100940000100704710B4B0FA80FC00FA0CF050EAD5
:10095000010404BF10BC704749B1CCF1200421FA56
:1009600004F411FA0CF118BF012121430843A3EB51
:100970000C01CB1D4FEA00614FEA102042BF00205E
:1009800010BC704700EBC35010440029A4BF10BC3A
:100990007047401C490008BF20F0010010BC7047A0
:1009A00010B5141E73F1000408DA401C41F1000177
:1009B00092185B411A4301D120F0010010BD2DE9CE
:1009C000F04D92469B4611B1B1FA81F202E0B0FAC5
:1009D00080F220329046FFF728FF04460F4640EA97
:1009E0000A0041EA0B0153465A46084313D0114608
:1009F00053EA010019D0C8F140025046FFF724FF26
:100A000005460E46504659464246FFF70EFF08433C
:100A100005D0012004E020463946BDE8F08D0020D5
:100A2000054346EAE0762C4337430A986305E40A17
:100A3000A0EB08000022FD0A44EA47540A3002D520
:100A400000200146E9E7010510196941DDE9084583
:100A500000196941BDE8F04DA2E770B521F00043EF
:100A600003430CD0C1F30A550024D5EB040564EB15
:100A70000403D617AD1AB34102DB0020014670BD56
:100A8000201841EB025170BD0EB5C10F80EAE07035
:100A90000844CA07002140F233438DE80E000A469D
:100AA0000B46FFF78CFF03B000BDC1F30A52C1F340
:100AB000130140F2FF3341F480119A4202DA002020
:100AC0000146704740F233439A42A2F2334202DCBD
:100AD0005242FFF7B9BEFFF7A8BE000030B5041EB2
:100AE00071F1000404DB4FF00044404264EB01016B
:100AF000141E73F1000405DB1C464FF00043524204
:100B000063EB0403994208BF904230BD064C074D89
:100B100006E0E06840F0010394E8070098471034CD
:100B2000AC42F6D3FFF708FBC0920008E092000841
:100B30003A2800D2303820F02002412A01D3A2F115
:100B40003700884201D34FF0FF3070472DE9F04D58
:100B500000231A461B1A8A4103DB00200146BDE828
:100B6000F08DC1F30A52C1F3130141F480154FF027
:100B7000000BD10702D100186D41521E0027044618
:100B800040F2FF11384601EB620A3E4680460246BB
:100B900000204FF48011FFF757FEC2197141BB18B6
:100BA00046EB0100B4EB030C75EB000C04D3E41A24
:100BB00065EB000517460E46241908F101006D414A
:100BC00080463428E3DDF91946EB0600091BA841ED
:100BD00003D24FF0FF32134601E0002213461BEB15
:100BE000070046EB0A51BDE8F04DFFF7D9BE21B131
:100BF000826842F00102826003E0826822F0010212
:100C000082607047014600208A6802F004020AB13F
:100C1000012000E0002070470146C86C80B2704798
:100C20000246002013680B400BB1012000E00020B9
:100C30007047014600208A6802F008020AB10120CC
:100C400000E00020704730B50246002000235068C5
:100C500020F4807020F470200D790C6844EA05249B
:100C60002043506090684FF2FD74CFF6F17420403D
:100C7000D1E902542C434D7944EA45042043906065
:100C8000D06A20F470000C7C641EE4B2234340EA76
:100C90000350D06230BDF0B504460D46002000215F
:100CA000092D11DDE068A5F10A0606EB46070726C7
:100CB00006FA07F18843A5F10A0606EB460603FA91
:100CC00006F10843E0600CE0206905EB45070726C4
:100CD00006FA07F1884305EB450603FA06F10843D7
:100CE0002061072A0FDA606B561E06EB86071F2667
:100CF00006FA07F18843561E06EB860605FA06F14A
:100D00000843606322E00D2A0FDA206BD61F06EB42
:100D100086071F2606FA07F18843D61F06EB8606CC
:100D200005FA06F10843206310E0E06AA2F10D061F
:100D300006EB86071F2606FA07F18843A2F10D0687
:100D400006EB860605FA06F10843E062F0BD81680D
:100D500041F008018160704721B1826842F4A0022D
:100D6000826003E0826822F4A0028260704781689A
:100D700041F004018160704700BFFEE710B5002418
:100D800000F02DF804E0601CC4B2012000F05FF90F
:100D90004FF480714FF44060C4F2010000F004FA97
:100DA00008B1642CEFDB642C01DB012010BD0024B2
:100DB00004E0601CC4B2012000F049F94FF48071D6
:100DC0004FF44060C4F2010000F0EEF908B9642C61
:100DD000EFDB642C01DB0120E8E70020E6E708B543
:100DE0000121082001F08DF94FF48070ADF800006A
:100DF00004208DF8030069464FF44060C4F20100FE
:100E000000F047F908BD08B50121082001F079F983
:100E10004FF48070ADF8000010208DF8030003201F
:100E20008DF8020069464FF44060C4F2010000F002
:100E300030F908BD10B500F073F8FFF79FFF10BD43
:100E400010B5002404E0601CC4B2012000F0FFF8DB
:100E50004FF480714FF44060C4F2010000F0A4F937
:100E600008B1642CEFDB002404E0601CC4B2012054
:100E700000F0EDF84FF480714FF44060C4F20100CF
:100E800000F092F908B9642CEFDB282000F0DFF8BD
:100E90004FF480714FF44060C4F2010000F084F917
:100EA00008B1012010BD0020FCE770B5002400252A
:100EB00006E06006040EFFF7C3FF0443681CC5B2DA
:100EC000082DF6DB204670BD7CB505460E4600F0C9
:100ED00027F8FFF753FFF8B9002405E0FFF7E5FF17
:100EE0000DF80400601CC4B2052CF7DB9DF800006F
:100EF0009DF8011008449DF8021008449DF8031065
:100F000008449DF80410884208D19DF80000307014
:100F10009DF80200287001E001207CBD0020FCE764
:100F200010B5FFF770FF4FF480714FF44060C4F2CA
:100F3000010000F042F9142000F07BF84FF48071BA
:100F40004FF44060C4F2010000F039F91E2000F0B7
:100F50007EF810BD2DE9F04F85B0824649F2302170
:100F6000C0F600015046FFF713F9044649F240214C
:100F7000C0F600015046FFF70BF90746002C54D08D
:100F8000002F52D00F343D1B05F1010B584602F0E3
:100F9000CFFE06462A4621463046FFF70BF90020D1
:100FA000705549F25021C0F600013046FFF70EF9A6
:100FB00080464FF0000911E00A2200214046FFF769
:100FC00027F9494609F101094DF8210049F250215C
:100FD000C0F600010020FFF7F9F88046B8F1000FD5
:100FE00002D0B9F1040FE7DB002008E05DF8201023
:100FF00009B1012100E0002104AA1154401C042879
:10100000F4DB9DF8100001F06AF99DF8110001F081
:101010004EF99DF8120001F032F99DF8130001F02D
:1010200064F9304602F0A4FB00BF05B0BDE8F08FC4
:10103000704740F23001C2F20001086000BF40F288
:101040003001C2F2000109680029F8D1704710B5DB
:101050004FF0E0235B694FF47A74B3FBF4F3584329
:101060004FF0E023996900BF4FF0E0239B698B426A
:1010700004D24FF0E0239B69CA1A07E04FF0E02347
:101080005B690B444FF0E024A4691A1B8242EBD346
:1010900010BD2DE9F0410246002500260020002366
:1010A0000024002791F803C00CF00F0591F803C04D
:1010B0000CF0100CBCF1000F03D091F802C04CEA08
:1010C000050591F800C0BCF1000F31D01468002074
:1010D0002BE04FF0010C0CFA00F3B1F800C00CEA61
:1010E00003069E4220D183004FF00F0C0CFA03F749
:1010F000BC4305FA03FC4CEA040491F803C0BCF1BC
:10110000280F06D14FF0010C0CFA00FCC2F814C0F5
:101110000AE091F803C0BCF1480F05D14FF0010C73
:101120000CFA00FCC2F810C0401C0828D1D314608F
:10113000B1F800C0BCF1FF0F34DD546800202EE090
:1011400000F1080C4FF0010808FA0CF3B1F800C0E8
:101150000CEA03069E4221D183004FF00F0C0CFADB
:1011600003F7BC4305FA03FC4CEA040491F803C0FE
:10117000BCF1280F05D100F1080C08FA0CF8C2F8F0
:10118000148091F803C0BCF1480F07D100F1080C9E
:101190004FF0010808FA0CF8C2F81080401C08282B
:1011A000CED35460BDE8F0810246002093680B4026
:1011B0000BB1012000E000207047416170470161E0
:1011C000704740F21C00C2F200000078704740F205
:1011D0001D00C2F200000078704740F21400C2F215
:1011E00000000078704740F21E00C2F20000007854
:1011F000704710B520214FF40060C4F20100FFF7E2
:10120000D3FF08B9012010BD0020FCE72DE9F04F05
:1012100089B00521002000F0B6F80446FFF74EFA29
:1012200008900898FFF781FA804600224FF448435F
:10123000C4F2A903FFF761F9064600220023C4F2B5
:10124000B003FFF7CCF90446FFF782FA07904FF49A
:101250008040C4F24E500799FFF764F80646FFF746
:1012600064FA04460D464FF48040C4F24E5007998C
:10127000FFF758F80190FFF758FA064600224FF0A2
:101280008043FFF7ACF9804600220023C4F2240318
:10129000FFF7A5F922462B46CDE90201FFF72DF90C
:1012A00000224FF48043C4F28F03CDE90401FFF71D
:1012B00096F98246FFF720FA80B20690069809B0A8
:1012C000BDE8F08F2DE9F04F87B00521012000F037
:1012D0005AF80446FFF7F2F906900698FFF725FA48
:1012E00006464FF0663246F26663C3F64A73FFF76E
:1012F00004F90446FFF72CFA0590002003900290B1
:101300000598FFF712FA064632460B464FF0663054
:1013100046F26661C4F20A01FFF761F90446002251
:101320000023C3F6F073FFF7E2F8804600224FF483
:101330000843C4F2C303FFF7E0F88246FFF708FA58
:1013400003904FF48050C4F256600290DDE9021021
:10135000FEF7EEFF01900198FFF7E7F980460022C3
:101360004FF0404302F026FD064600220023C4F25F
:101370002403FFF7C2F80446FFF7EAF90490049843
:1013800007B0BDE8F08F2DE9F04107460C46002577
:10139000002608E0384600F00DF805440520FFF768
:1013A00048FE701CC6B2A642F4DBB5FBF4F080B276
:1013B000BDE8F08110B504460723012221464FF411
:1013C0001050C4F20100FFF766FC01214FF41050E9
:1013D000C4F20100FFF7C0FC00BF02214FF410501F
:1013E000C4F20100FFF71CFC0028F6D04FF41050A7
:1013F000C4F20100FFF710FC10BD00BFFEE708B506
:101400000121102000F07DFE0121102000F079FE66
:101410000121102000F075FE0121102000F071FE66
:1014200010208DF8030003208DF802004FF40050C7
:10143000ADF8000069464FF48050C4F20100FFF798
:1014400028FE4FF40050ADF8000069464FF480507C
:10145000C4F20100FFF71DFE4FF40050ADF800008C
:1014600069464FF48050C4F20100FFF712FE4FF4BA
:101470000050ADF8000069464FF48050C4F20100FE
:10148000FFF707FE08BD2DE9F04104460D4616465C
:101490001F462A2000F08EFD04F1500188B200F0B2
:1014A0007AFD06F1500188B200F075FD2B2000F0A6
:1014B00081FD284600F06FFD384600F06CFD2C20C1
:1014C00000F078FDBDE8F08170B504460D46164683
:1014D0002B46224629462046FFF7D5FF304600F02E
:1014E0005AFD70BD2DE9F04706460F4614461D46CD
:1014F000DDF820A0681E83B2601E82B239463046F5
:10150000FFF7C1FFB8460EE0B14606E0504600F0D6
:1015100042FD09F101001FFA80F9A145F6DB08F14F
:1015200001001FFA80F8A845EEDBBDE8F0871CB586
:101530000121042000F0E5FD0121082000F0E1FD7B
:101540004FF47040ADF8040010208DF80700032020
:101550008DF806004FF48070ADF8000010208DF873
:10156000030003208DF8020001A94FF44060C4F28B
:101570000100FFF78EFD69464FF40060C4F20100E0
:10158000FFF787FD4FF470414FF44060C4F2010053
:10159000FFF715FE4FF480714FF40060C4F20100B4
:1015A000FFF70DFE1CBD10B5FFF7C1FF4FF48041E2
:1015B0004FF44060C4F20100FFF7FFFD6420FFF725
:1015C00038FD4FF480414FF44060C4F20100FFF752
:1015D000F6FD6420FFF72DFD4FF480714FF440605D
:1015E000C4F20100FFF7EBFD6420FFF722FD11209C
:1015F00000F0E0FC7820FFF71CFD362000F0DAFC5C
:10160000A02000F0D1FC3A2000F0D4FC052000F02E
:10161000CBFCB22000F0CEFC1F2000F0C5FC1F2048
:1016200000F0C2FC002000F0BFFC332000F0BCFC46
:10163000332000F0B9FCB72000F0BCFC352000F0EE
:10164000B3FCBB2000F0B6FC202000F0ADFCC020B5
:1016500000F0B0FC2C2000F0A7FCC22000F0AAFC97
:10166000012000F0A1FCC32000F0A4FC012000F048
:101670009BFCC42000F09EFC182000F095FCC620C6
:1016800000F098FC132000F08FFCD02000F092FCBA
:10169000A42000F089FCA12000F086FCD62000F0F8
:1016A00089FCA12000F080FCE02000F083FCF02009
:1016B00000F07AFC042000F077FC072000F074FCB6
:1016C000042000F071FC042000F06EFC042000F007
:1016D0006BFC252000F068FC332000F065FC3C200A
:1016E00000F062FC362000F05FFC142000F05CFC8F
:1016F000122000F059FC292000F056FC302000F0A8
:1017000053FCE12000F056FCF02000F04DFC0220DC
:1017100000F04AFC042000F047FC052000F044FCE7
:10172000052000F041FC212000F03EFC252000F0C7
:101730003BFC322000F038FC3B2000F035FC382028
:1017400000F032FC122000F02FFC142000F02CFCE2
:10175000272000F029FC312000F026FCE42000F0D6
:1017600029FC1D2000F020FC002000F01DFC0020C2
:1017700000F01AFC212000F01DFC292000F01AFCCA
:1017800010BD2DE9FF5F80468A4617469B460F9D98
:1017900000200290CDF80080284605EBD071C1F3FF
:1017A00047042046E21704EB5272D2102146E31799
:1017B00004EB5373DB10A4EBC3030BB1012300E074
:1017C00000231A446A4392B20192A7F12000C7B2E3
:1017D0000AEB0500401E83B208EB0400401E82B2F3
:1017E00051464046FFF74FFE002675E00C2D0AD10A
:1017F00007EB470044F6E801C0F6000101EB80006A
:10180000805D039024E0102D08D144F65C50C0F6B2
:10181000000000EB0710805D039019E0182D0AD13D
:1018200007EB470045F24C31C0F6000101EB001018
:10183000805D03900CE0202D08D146F21C50C0F6CC
:10184000000000EB8710805D039001E0BDE8FF9F82
:101850004FF000093AE01098C8B9012000FA09F0E9
:101860000399084018B1584600F095FB02E00E9825
:1018700000F091FB0298401CC0B20290029890FBCD
:10188000F4F104FB1100E8B90020029021E00120EE
:1018900000FA09F00399084020B15A4651464046E3
:1018A000FFF712FE08F101001FFA80F80098A8EB7C
:1018B0000000A04206D1DDF800800AF101001FFA05
:1018C00080FA06E009F1010000F0FF09B9F1080F04
:1018D000C1DB00BF701C86B20198864286DB00BF68
:1018E000B4E72DE9FE4F8046894617469A46DDE962
:1018F0000D460C9D36E00C2C09D153463A4649461C
:101900004046CDE90146009500F031F825E0102C65
:1019100009D153463A4649464046CDE9014600952D
:1019200000F0D3F819E0182C09D153463A4649463D
:101930004046CDE90146009500F06DF90DE0202C00
:1019400009D153463A4649464046CDE901460095FD
:1019500000F00FFA01E0BDE8FE8FBF1C08EB0400A9
:101960001FFA80F838780028C5D100BFF3E72DE9C9
:10197000FF5F0646894692469B460F9C00200390D7
:1019800000962046E21704EB5272D2102146E3176C
:1019900004EB5373DB10A4EBC3030BB1012300E092
:1019A00000231A44624392B201920520029000255E
:1019B00085E005EB850000EBC50047F6DC41C0F68D
:1019C000000111F810009AF80010884274D105EB5C
:1019D000850000EBC50047F6DC41C0F6000101EBD5
:1019E000400040789AF80110884265D109EB040064
:1019F000401E83B23019401E82B249463046FFF77E
:101A000042FD002755E04FF000084CE0109820BB45
:101A100005EB850000EBC50047F6DC41C0F6000190
:101A200001EB4000801CC05D012101FA08F1084073
:101A300018B1584600F0AFFA02E00E9800F0ABFA89
:101A40000398401CC0B20390039890FBF4F104FB90
:101A5000110020BB0020039028E005EB850000EB7F
:101A6000C50047F6DC41C0F6000101EB4000801CD8
:101A7000C05D012101FA08F1084020B15A464946EB
:101A80003046FFF721FD701C86B20098301AA04244
:101A900005D1009E09F101001FFA80F906E008F166
:101AA000010000F0FF08B8F1080FAFDB00BF781CA1
:101AB000C7B201988742A6DB00BF681C85B20298B6
:101AC0008542FFF676AFBDE8FF9F2DE9FF5F064632
:101AD000894692469B460F9C002003900096204624
:101AE000E21704EB5272D2102146E31704EB537352
:101AF000DB10A4EBC3030BB1012300E000231A4465
:101B0000624392B201920520029000257DE005EB30
:101B1000051047F65E51C0F6000111F810009AF862
:101B2000001088426ED105EB051047F65E51C0F6F5
:101B3000000101EB400040789AF80110884261D121
:101B400009EB0400401E83B23019401E82B24946A0
:101B50003046FFF798FC002751E04FF0000848E0BE
:101B6000109810BB05EB051047F65E51C0F600015A
:101B700001EB4000801CC05D012101FA08F1084022
:101B800018B1584600F007FA02E00E9800F003FA88
:101B90000398401CC0B20390039890FBF4F104FB3F
:101BA000110010BB0020039026E005EB051047F65E
:101BB0005E51C0F6000101EB4000801CC05D0121B8
:101BC00001FA08F1084020B15A4649463046FFF76D
:101BD0007BFC701C86B20098301AA04205D1009E92
:101BE00009F101001FFA80F906E008F1010000F098
:101BF000FF08B8F1080FB3DB00BF781CC7B201982B
:101C00008742AADB00BF681C85B202988542FFF6B6
:101C10007EAFBDE8FF9F2DE9FF5F064689469246ED
:101C20009B460F9C0020039000962046E21704EB91
:101C30005272D2102146E31704EB5373DB10A4EB6E
:101C4000C3030BB1012300E000231A44624392B2A4
:101C5000019205200290002585E005EB850000EB50
:101C6000451047F60861C0F6000111F810009AF817
:101C70000010884274D105EB850000EB451047F653
:101C80000861C0F6000101EB400040789AF80110AD
:101C9000884265D109EB0400401E83B23019401E12
:101CA00082B249463046FFF7EEFB002755E04FF081
:101CB00000084CE0109820BB05EB850000EB4510B8
:101CC00047F60861C0F6000101EB4000801CC05DD2
:101CD000012101FA08F1084018B1584600F05BF9FB
:101CE00002E00E9800F057F90398401CC0B2039030
:101CF000039890FBF4F104FB110020BB002003903B
:101D000028E005EB850000EB451047F60861C0F6BA
:101D1000000101EB4000801CC05D012101FA08F1C7
:101D2000084020B15A4649463046FFF7CDFB701CAB
:101D300086B20098301AA04205D1009E09F1010038
:101D40001FFA80F906E008F1010000F0FF08B8F181
:101D5000080FAFDB00BF781CC7B201988742A6DB33
:101D600000BF681C85B202988542FFF676AFBDE8D9
:101D7000FF9F2DE9FF5F0646894692469B460F9CD2
:101D80000020039000962046E21704EB5272D21016
:101D90002146E31704EB5373DB10A4EBC3030BB131
:101DA000012300E000231A44624392B201922120F1
:101DB000029000257DE005EB851047F67A71C0F6AC
:101DC000000111F810009AF8001088426ED105EB5E
:101DD000851047F67A71C0F6000101EB40004078AB
:101DE0009AF80110884261D109EB0400401E83B2C9
:101DF0003019401E82B249463046FFF744FB0027A7
:101E000051E04FF0000848E0109810BB05EB85103A
:101E100047F67A71C0F6000101EB4000801CC05DFE
:101E2000012101FA08F1084018B1584600F0B3F852
:101E300002E00E9800F0AFF80398401CC0B2039087
:101E4000039890FBF4F104FB110010BB00200390F9
:101E500026E005EB851047F67A71C0F6000101EB2C
:101E60004000801CC05D012101FA08F1084020B14A
:101E70005A4649463046FFF727FB701C86B2009849
:101E8000301AA04205D1009E09F101001FFA80F925
:101E900006E008F1010000F0FF08B8F1080FB3DB1D
:101EA00000BF781CC7B201988742AADB00BF681C3C
:101EB00085B202988542FFF67EAFBDE8FF9F2DE90F
:101EC000FF4F85B0074691461D46DDE913A6002069
:101ED0000490304606EBD071C1F3470B002434E088
:101EE000281B401EC1B20A2001F058FFB9FBF0F0D8
:101EF0000A21B0FBF1F201FB12080498A0B9681E98
:101F0000A04211DDB8F1000F0CD1002004FB0B71D1
:101F1000CDE900A6029088B22022129B0699FFF715
:101F200030FC10E001200490002008F13001CAB21A
:101F300004FB0B71CDE900A6029088B2129B0699B2
:101F4000FFF71FFC00BF601CC4B2AC42C8DB09B085
:101F5000BDE8F08F2DE9FE4F06460F461446984621
:101F6000DDE90D5ADDF8309010E0CDE9015ACDF8E9
:101F700000902278434639463046FFF702FC284657
:101F800005EBD07106EB61018EB2641C207800284D
:101F9000EBD1BDE8FE8F10B50446201200F020F80A
:101FA000E0B200F01DF810BD10B50446204600F068
:101FB00017F810BD10B504464FF400414FF44060CF
:101FC000C4F20100FFF7F9F8204600F009F84FF4D9
:101FD00000414FF44060C4F20100FFF7F0F810BD7B
:101FE00070B50446002527E04FF480514FF440605F
:101FF000C4F20100FFF7E1F804F0800040B14FF4B3
:1020000000514FF44060C4F20100FFF7D8F807E038
:102010004FF400514FF44060C4F20100FFF7CDF8D7
:102020004FF480514FF44060C4F20100FFF7C7F84D
:102030006006040E681CC5B2082DD5DB70BD00BF5C
:10204000FEE7704770B5002100230F22C47834B337
:102050004EF60C54CEF20004246804F4E064C4F597
:10206000E064210AC1F10403CA40447804FA03F190
:1020700084781440214309014FF46444CEF20004F3
:102080000678A155047804F01F050124AC400578BA
:102090006D11AD0005F1E025C5F800410CE00478B4
:1020A00004F01F050124AC404EF28015CEF200056D
:1020B0000678761145F8264070BD40F0FD7141F07C
:1020C00080614EF60C52CEF20002116070477047EC
:1020D00059B14FF48052C4F20202D26902434FF464
:1020E0008053C4F20203DA610AE04FF48052C4F272
:1020F0000202D26982434FF48053C4F20203DA61D0
:10210000704759B14FF48052C4F2020292690243FF
:102110004FF48053C4F202039A610AE04FF48052F4
:10212000C4F20202926982434FF48053C4F2020364
:102130009A61704730B500210022002400234FF43B
:102140008055C4F202056D6805F00C0121B1042927
:1021500008D008293BD10BE04FF49055C0F27A0526
:1021600005603AE04FF49055C0F27A05056034E01E
:102170004FF48055C4F202056D6805F470124FF4F7
:102180008055C4F202056D6805F48034022505EB24
:10219000924234B94FF41065C0F23D0555430560D5
:1021A00014E04FF48055C4F202056D6805F4003563
:1021B00035B14FF41065C0F23D055543056005E0AB
:1021C0004FF49055C0F27A055543056005E04FF491
:1021D0009055C0F27A05056000BF00BF4FF48055EE
:1021E000C4F202056D6805F0F001090940F200052E
:1021F000C2F200056B5C0568DD4045604FF4805518
:10220000C4F202056D6805F4E061090A40F20005B8
:10221000C2F200056B5C4568DD4085604FF4805577
:10222000C4F202056D6805F46051C90A40F2000568
:10223000C2F200056B5C4568DD40C5604FF4805517
:10224000C4F202056D6805F44041890B40F21005A7
:10225000C2F200056B5CC568B5FBF3F5056130BDE6
:1022600010B500F087F900F0D1F900F039FA00F06C
:1022700075FA00F089FA00F001FB10BD704710B547
:1022800004463CB140214FF40060C4F20100FEF767
:1022900096FF06E040214FF40060C4F20100FEF713
:1022A0008CFF40F21C00C2F20000047010BD10B59B
:1022B00004463CB110214FF40060C4F20100FEF767
:1022C0007EFF06E010214FF40060C4F20100FEF72B
:1022D00074FF40F21D00C2F20000047010BD40F215
:1022E0001401C2F200010870704710B504463CB1F9
:1022F00080214FF40060C4F20100FEF760FF06E0A9
:1023000080214FF40060C4F20100FEF756FF40F256
:102310001E00C2F20000047010BD10B500F001F8FC
:1023200010BD0CB50020019000904FF48050C4F215
:102330000200006840F480304FF48051C4F2020182
:10234000086000BF4FF48050C4F20200006800F43F
:10235000003000900198401C0190009818B9019835
:10236000B0F5A06FEED14FF48050C4F202000068C7
:1023700000F4003010B10120009001E00020009036
:10238000009801285BD14FF40050C4F202000068AD
:1023900040F010004FF40051C4F2020108600846FA
:1023A000006820F0030008600846006840F0020062
:1023B00008604FF48050C4F2020040684FF480512E
:1023C000C4F2020148600846406848600846406818
:1023D00040F4806048600846406820F47C10486003
:1023E0000846406840F4E81048600846006840F03D
:1023F0008070086000BF4FF48050C4F20200006893
:1024000000F000700028F6D04FF48050C4F20200B3
:10241000406820F003004FF48051C4F2020148608C
:102420000846406840F00200486000BF4FF480500A
:10243000C4F20200406800F00C000828F6D10CBD80
:1024400010B5002080F3108800BF4FF4A060FFF7A4
:1024500034FE00F053F810BD002000BF15E040F23C
:102460003001C2F2000151F8201061B140F2300198
:10247000C2F2000151F82010491E40F23002C2F2AF
:10248000000242F82010411CC8B20F28E7DB704759
:1024900010B54FF48050C4F20200006840F0010013
:1024A0004FF48051C4F202010860084640680021E0
:1024B000CFF6FF0108404FF48051C4F2020148609A
:1024C0000846006820F4102020F08070086008465C
:1024D000006820F4802008600846406820F4FE0070
:1024E00048604FF41F008860FFF717FF4FF000604F
:1024F0004EF60851CEF20001086010BD70B5002103
:1025000000BF08E0002040F23002C2F2000242F8B0
:102510002100481CC1B20F29F4DB4FF4CA52C0F2AB
:102520000102B2F1807F00D323E022F07F40401E01
:102530004FF0E023586158170F2300280ADA1C07D0
:10254000260E4EF61854CEF2000400F00F052D1F93
:10255000665506E01C07250E4FF46444CEF20004D5
:10256000255400BF00204FF0E02398610720186138
:1025700000BF70BD10B540F23000C2F20000C0696B
:1025800000B110BD44F6D400C0F60000006840F26F
:102590003001C2F20001C86140F26D31C2F20001A7
:1025A000481EFEF791FCFEF731FE40F26C31C2F29C
:1025B00000018860FEF786FE40F26C31C2F2000135
:1025C0004860FEF716FE40F26C31C2F2000108735B
:1025D000FEF709FE40F26C31C2F20001C873FEF74B
:1025E000F0FD40F26C31C2F200018873FEF7EFFD9E
:1025F00040F26C31C2F200014873FEF7EEFD40F28A
:102600006C31C2F20001087400BFBAE730B5C9B03E
:1026100040F23000C2F20000006A08B149B030BD9B
:1026200044F6D400C0F60000406840F23001C2F227
:102630000001086240F26C31C2F200014868FEF706
:1026400074F804460D4640F26C30C2F20000407B44
:1026500008B1312000E0302040F26C31C2F20001BC
:10266000897B09B1312100E0302140F26C32C2F2A5
:102670000002D27B0AB1312200E0302240F26C33FA
:10268000C2F200031B7B0BB1312300E03023CDE904
:102690000245CDE90432CDE9061040F26C30C2F2B9
:1026A0000000806840F26C31C2F200014978CDE947
:1026B000001040F26C30C2F20000037849F2581268
:1026C000C0F600024FF4807109A800F02FFA09A9A2
:1026D0004FF46050C4F2010002F0EEF800BF9DE735
:1026E00010B540F23000C2F20000406A00B110BDE7
:1026F00044F6D400C0F60000806840F23001C2F217
:102700000001486240F21400C2F20000007818B3E1
:1027100040F26C30C2F20000007B50B940F26C31E4
:10272000C2F2000148680021C4F2A021FEF72CF893
:1027300001D2012000E000200446FFF7A0FD40F296
:102740006C31C2F200018968642901D2012100E0E4
:1027500000210846FFF7ABFD00BFC8E710B540F207
:102760003000C2F20000806A00B110BD44F6D4000F
:10277000C0F60000C06840F23001C2F20001886279
:1027800000F057FF00BFF0E710B540F23000C2F292
:102790000000C06A00B110BD44F6D400C0F60000CD
:1027A000006940F23001C2F20001C86201F0EEFFA0
:1027B00000BFF0E710B540F225514FF46050C4F26D
:1027C000010000F0EDF801281DD10A2040F230018F
:1027D000C2F2000148604FF46050C4F2010000F002
:1027E0009AF9C4B240F21600C2F2000001880088D3
:1027F000401C40F21602C2F20002108040F26C004F
:10280000C2F20000445440F225514FF46050C4F22B
:10281000010000F09DF810BD10B540F225514FF4B5
:102820008840C4F2000000F0BBF801281DD10A2046
:1028300040F23001C2F2000188604FF48840C4F2D7
:10284000000000F068F9C4B240F21800C2F20000C3
:1028500001880088401C40F21802C2F20002108079
:1028600040F26C10C2F20000445440F225514FF483
:102870008840C4F2000000F06BF810BD10B540F2C3
:102880003000C2F20000806808B1002010BD40F2A4
:102890001800C2F20000008808B90020F6E7002006
:1028A00040F26C11C2F2000140F21802C2F20002C2
:1028B000128888540846FEF74DFB4FF4807140F2B1
:1028C0006C10C2F20000FDF758FC002040F2180125
:1028D000C2F2000108800120D8E710B540F225516E
:1028E0004FF49040C4F2000000F05AF801281DD1C6
:1028F0000A2040F23001C2F20001C8604FF490405B
:10290000C4F2000000F007F9C4B240F21A00C2F2AB
:10291000000001880088401C40F21A02C2F2000246
:10292000108040F26C20C2F20000445440F2255165
:102930004FF49040C4F2000000F00AF810BD01F41A
:102940000072B2F5007F00D100BFCA430280704719
:1029500010B50022002340F66A14A14200D100BF46
:102960000A1201249440A3B2DC43048010BD21B1BB
:10297000828942F40052828104E082894DF6FF731D
:102980001A408281704702460020B1F5007F00D1D5
:1029900000BF13880B400BB1012000E000207047FE
:1029A00070B50246002400230025002040F66A1678
:1029B000B14200D100BFC1F3421501F01F0301264F
:1029C00006FA03F3012D02D19689334006E0022D69
:1029D00002D1168A334001E0968A33400C12012658
:1029E00006FA04F41688344013B10CB1012000E05B
:1029F000002070BDF0B5034600240026002500200D
:102A000040F66A17B94200D100BF1846C1F342141C
:102A100001F01F06012707FA06F5012C01D10C3041
:102A200004E0022C01D1103000E014301AB1076824
:102A30002F43076002E00768AF430760F0BD2DE950
:102A4000F04786B005460E460024A24600BFA146C8
:102A50000027B08900B100BF2F462C8A4CF6FF70CA
:102A60000440F08804432C82AC894EF6F3100440F5
:102A7000B08831890843718908430443AC81AC8A2A
:102A80004FF6FF400440B0890443AC8201A8FFF731
:102A900051FB4FF46050C4F20100874202D1DDF8CF
:102AA00010A001E0DDF80CA0A88900F4004040B1BE
:102AB0000AEBCA0000EB0A1031684900B0FBF1F8DC
:102AC00007E00AEBCA0000EB0A1031688900B0FB8E
:102AD000F1F86420B8FBF0F004012009642101FB47
:102AE0001089A88900F4004040B1322000EBC900F1
:102AF000B0FBF1F000F00700044308E0322000EBE7
:102B000009106421B0FBF1F000F00F0004432C81A8
:102B100006B0BDE8F08701468888C0F3080070471A
:102B2000C1F308028280704700BFFEE70FB47CB596
:102B30000C0009AD01D0611E00E00021CDE90001CB
:102B4000064B6A462946089800F070F9002C02D01E
:102B5000009A002111707CBC5DF814FB333500082D
:102B6000490050EAC12018BF04204A0D18BF40F0A8
:102B7000010040F2FF72B2EB515F08BF40F002006B
:102B8000012808BF05207047004870472C0000202E
:102B90002DE9F0414F1E00EBC7010446D1E90001C9
:102BA00015461E4637F006020DD02A463346FDF77D
:102BB000A4FC7F1E04EBC703D3E90023FDF7F6FB5B
:102BC00037F00602F1D1022F25D0042F13D0062FA3
:102BD00018BFBDE8F0812A463346FDF78EFCD4E9E4
:102BE0000A23FDF7E3FB2A463346FDF786FCD4E9CA
:102BF0000823FDF7DBFB2A463346FDF77EFCD4E9CC
:102C00000623FDF7D3FB2A463346FDF776FCD4E9CD
:102C10000423FDF7CBFB2A463346FDF76EFCD4E9CF
:102C20000223FDF7C3FB2A463346FDF766FCD4E9D1
:102C30000023BDE8F041FDF7B9BB000000221346B8
:102C400010460149FDF7CBBC0000F03FFDF7AEBBDD
:102C50000022134610461146FDF7C1BC40F2013276
:102C600000204FF0E041FDF7F8BE0000024A0020CE
:102C70001107FDF7F2BE000001FDFFFF02E008C8EA
:102C8000121F08C1002AFAD170477047002001E0E6
:102C900001C1121F002AFBD17047000001490860E2
:102CA000704700002C0000202DE9FF5F82B000215A
:102CB000DDE90430020DDDF840B0034318D044F6DE
:102CC0001050A2F2FF3242431514119801281FD070
:102CD000A5EB0B00401C5FEA000A4FF000064E4FC8
:102CE000DFF83891B046504615D5CAF1000413E01C
:102CF000119801244AA3012801D16FEA0B0102981F
:102D0000119AC0E90031C0E9024206B0BDE8F09F67
:102D1000CBF10000DFE704460021404A491842EBAE
:102D20000450CDE9001012E0E00707D032463B46E0
:102D300040464946FDF7E1FB8046894632463B4620
:102D400010461946FDF7D9FB06460F466410002CC5
:102D5000EAD1DDE90401DDE90023BAF1000F06DA6A
:102D6000FDF7CBFB42464B46FDF7C7FB05E0FDF701
:102D700036FC42464B46FDF732FC04460E46002226
:102D8000284BFDF7ABFE03D84FF0FF30014607E0BC
:102D90000022254B20463146FDF708FBFDF785FE56
:102DA000102409E0002C0ADB0A220023FDF70CFDA9
:102DB000039B30321A55641E50EA0102F2D1641CA2
:102DC000039AC4F111031444119A012A03D0012279
:102DD00008430DD10AE0084304D000204FF0110B46
:102DE000119072E7A3EB0B056D1E0DE05B4504DD52
:102DF0004FF0000205F1010504E003DA4FF0000294
:102E0000A5F10105002AECD002981199C0E9023120
:102E1000C0E9004579E70000000014400000F03FE1
:102E2000300000000000F0430000E03F2DE9FF4FBC
:102E300095B09A46884606460025EEE1252877D1CA
:102E400000242746F94A0121039400E0044316F8C0
:102E5000013F203B01FA03F01042F7D130782A28D5
:102E600011D06FF02F033078A0F13002092A16D864
:102E7000039A44F0020402EB820203EB4202104484
:102E8000761C0390EFE758F8042B0392002A03DA2C
:102E9000504244F40054039044F00204761C30780D
:102EA0002E2816D116F8010F44F004042A280DD05C
:102EB0006FF02F023078A0F13003092B09D807EB0F
:102EC000870302EB4303C718761CF3E758F8047B2B
:102ED000761C30786C280FD006DC4C2817D0682878
:102EE0000DD06A2814D104E0742810D07A280FD1AC
:102EF0000DE044F400140AE044F4801401E044F4CA
:102F000040147278824202D104F58014761C761C3B
:102F1000307866280BD013DC582877D009DC0028DD
:102F200075D04528F6D04628F4D047281AD193E129
:102F300018E0632835D0642879D0652812D18BE158
:102F4000702873D008DC6728F1D069286FD06E280C
:102F50000DD06F2806D1ACE073282CD0752874D022
:102F6000782853D05246179990476D1C54E1C4F30A
:102F70000250022809D003280DD0D8F800100428E8
:102F80000DD00D6008F1040846E1D8F80010EA17EA
:102F9000C1E90052F6E7D8F800100D80F2E70D7095
:102FA000F0E718F8041B8DF8001000208DF80100E0
:102FB000EB46012003E058F804BB4FF0FF306107F7
:102FC0004FF0000102D40DE009F101018946B94238
:102FD0000FDA8145F8DB1BF809100029F4D108E06D
:102FE00009F1010189468142FADB1BF80910002929
:102FF000F6D103985346A0EB090721463846179AA5
:1030000000F080FA284400EB090507E044E008E1FD
:103010000DE01BF8010B524617999047B9F10109D1
:10302000F7D2534621463846179AF2E039E00A2192
:10303000C4F302524FF0000B0091022A06D058F858
:10304000040BC117032A09D00AE023E008F10700A6
:1030500020F00702F2E80201904605E000B2C11735
:10306000042A01D140B2C117002906DA0A4600211C
:10307000404261EB02012D2202E0220504D52B2201
:103080008DF80420012203E0E20701D02022F7E7B7
:10309000914657E00A2100E010214FF0000B00910B
:1030A0000BE010214FF0000B44F0040408270091BE
:1030B00003E008204FF0000B0090C4F30252022AF4
:1030C00005D058F8040B0021032A08D008E008F1C5
:1030D000070020F00702F2E80201904603E080B208
:1030E000042A00D1C0B24FF0000922072AD5327855
:1030F000702A07D0DDF800C08CF0100C5CEA0B0CD5
:1031000005D00EE040228DF80420012208E050EAAC
:10311000010306D030238DF804308DF805200222FB
:103120009146009B83F0080353EA0B030AD150EA4F
:10313000010201D1620705D530228DF804204FF03D
:1031400001097F1E3278582A04D039A20C920CAAA9
:1031500002920BE03BA2F9E75B46009AFDF734FBD5
:103160000C9B9B5C029A521E0292137050EA010261
:10317000F2D1029804A9081A00F1200B600702D5C9
:1031800024F4803400E001275F4502DDA7EB0B004B
:1031900000E0002000EB0B01009003984944401A26
:1031A0000390E00306D453462146179A039800F093
:1031B000A9F90544002706E001A85246C05D179909
:1031C00090476D1C7F1C4F45F6DBE0030CD5534642
:1031D0002146179A039800F095F9054404E0302041
:1031E0005246179990476D1C0099481E009000297F
:1031F000F5DC08E00298029952460078491C0291D9
:10320000179990476D1CBBF10001ABF1010BF1DC8C
:103210005BE100F065F90544761C307800287FF406
:103220000DAE19B02846BDE8F08F00000928010056
:10323000303132333435363738396162636465662C
:1032400000000000303132333435363738394142EE
:103250004344454600000000600700D4062708F1FB
:10326000070020F00700F0E80223804603F0004C3E
:103270005FEA0C0001D097A009E0200501D596A0D7
:1032800005E0E00701D095A001E0AFF24C001390FB
:10329000307823F0004365280CD006DC452809D09F
:1032A00046281DD047287FD13BE0662818D06728E4
:1032B0007AD136E00021112F01DB112000E0781CCB
:1032C000CDE9000104A90CA8FFF7EEFCDDE90D0132
:1032D0000C9A4FF0000B07F10109109200914EE09B
:1032E0004FF000400097CDE9011004A90CA8FFF7AA
:1032F000DBFCDDE90D020C9B0F994FF0000B9146B2
:103300001093009211B9791C00EB0109B7EB090089
:1033100003D4C0F1FF3B07F10109A9EB07000190BD
:1033200042E0012F00DA01270021112F01DD1120D9
:1033300000E03846CDE9000104A90CA8FFF7B4FC71
:10334000DDE90D010C9A00914FF0000BB946109287
:1033500021070FD4009A4A4503DA914601E0A9F10A
:103360000109B9F1010F05DD109AA9F10101515CC4
:103370003029F4D0B84202DA10F1040F03DA012147
:10338000CDE9011010E0002803DC8344A9EB000123
:1033900002E0411C494500DD8946A0EB0B00401CC2
:1033A00001904FF000400290200705D40198484555
:1033B00002DB4FF0FF30019000208DF84B000298A7
:1033C0000DF14B07B0F1004F25D002200C902B20BF
:1033D0000D90029800280CDA404202902D200D90AA
:1033E00007E00A210298FDF7D9F93031029007F879
:1033F000011D0C99481E0C900029F2DC029800284F
:10340000EFD1791E0D980870307800F0200040F060
:10341000450007F8020D11A8C01BC01D02901398AB
:10342000007800B1012000EB0901019801EBE07187
:10343000029801440398401A401E0390E00306D40A
:1034400053462146179A039800F05CF805441398F8
:10345000007818B15246179990476D1CE00323D5A8
:1034600053462146179A039800F04CF805441BE098
:10347000BBF1000F07DB0098584504DD1098179941
:1034800010F80B0001E01799302052469047019840
:103490000BF1010B401E05F10105019004D12E2016
:1034A0005246179990476D1CB9F10001A9F1010925
:1034B000DEDC05E017F8010B5246179990476D1CAA
:1034C0000299481E02900029F4DC53462146179ABF
:1034D00003989EE62D0000002B0000002000000055
:1034E0002DE9F041044600251E461746880404D401
:1034F00005E039462020B0476D1C641EF9D52846EA
:10350000BDE8F0812DE9F041044600251E469046B5
:10351000C80301D5302700E02027880404D505E042
:1035200041463846B0476D1C641EF9D52846BDE8B3
:10353000F0814A68002A06D00A68531C0B6010709C
:103540004868401E4860704700B587B001214FF4BD
:103550000170FEF7D6FD0120ADF8180000208DF8AF
:103560001B0003208DF81A0006A94FF40060C4F276
:103570000100FDF78EFD0220ADF8180000208DF847
:103580001B0003208DF81A0006A94FF40060C4F256
:103590000100FDF77EFD002001908DF808008DF8F8
:1035A00009004FF4602003900020049002208DF861
:1035B000140001A94FF41050C4F20100FDF743FBC1
:1035C0000723012200214FF41050C4F20100FDF73F
:1035D00062FB0723022201214FF41050C4F20100C4
:1035E000FDF759FB01214FF41050C4F20100FDF723
:1035F000FEFA4FF41050C4F20100FDF7A8FB00BF23
:103600004FF41050C4F20100FDF713FB0128F7D06E
:103610004FF41050C4F20100FDF7A9FB00BF4FF4B6
:103620001050C4F20100FDF7EDFA0128F7D007B001
:1036300000BD3EB52021002040F26C32C2F20002F3
:1036400012781C2A02DC47F6FD5201E04FF62052A8
:10365000CDE90020029140F26C30C2F20000027805
:10366000022300219820FEF72AFC202000214FF69B
:10367000B042CDE90021029040F26C30C2F200006D
:103680004278022320219820FEF719FC18200021FF
:103690004FF61F02CDE90021029040F26C30C2F2D9
:1036A0000000008982B2032340219620FEF707FC28
:1036B00040F26C31C2F200014868FDF704F884B2B0
:1036C000182000214CF218620323CDE9002102905A
:1036D000224660219620FEF7F2FB00202021CDE952
:1036E0000001029040F26C30C2F20000007B10B981
:1036F0004FF6FF7001E04FF47840034640F26C3023
:10370000C2F20000007B20B949F29C20C0F6000004
:1037100003E049F2B420C0F6000002468021A02058
:10372000FEF7DFF800202021CDE90001029040F2F1
:103730006C30C2F20000807B10B94FF4FC6001E0F5
:103740004FF47840034640F26C30C2F20000807BB8
:1037500020B949F2AC20C0F6000003E049F2B820DD
:10376000C0F600000246B021A020FEF7BAF83EBD28
:1037700010B5002821D0114B0022001F196803E06A
:10378000814203D80A4649680029F9D152B1136829
:10379000841A9C4204D1006818441060104602E06C
:1037A000506000E0186039B102680B1A934203D1EF
:1037B0000B681A4402604968416010BD2400002073
:1037C00010B5FEF73DFEFDF71AFE4FF4E13000F0B4
:1037D000DCF94FF4E13000F03EFAFDF7E4FE00F0D2
:1037E00049F800F0A2F8FDF725FBFFF7ADFE00F069
:1037F00086F800F022F800F065F800F001F810BD3E
:1038000008B501210420FEF77CFC4020ADF8000043
:1038100003208DF8020010208DF8030069464FF454
:103820000060C4F20100FDF734FC40F21C00C2F25B
:1038300000000078FEF723FD08BD08B50121042033
:10384000FEF75FFC1020ADF8000003208DF80200A9
:1038500010208DF8030069464FF40060C4F20100A7
:10386000FDF717FC40F21D00C2F200000078FEF7E1
:103870001EFD08BD10B5002040F26C31C2F20001FF
:1038800008704870886048600873FDF7A0FC40F23B
:103890006C31C2F200014873FDF793FC40F26C31C9
:1038A000C2F200018873FDF79EFC40F26C31C2F257
:1038B0000001C873FDF791FC40F26C31C2F20001C7
:1038C000087410BD08B501210420FEF71AFC802001
:1038D000ADF8000003208DF8020010208DF80300E1
:1038E00069464FF40060C4F20100FDF7D2FB40F2DC
:1038F0001E00C2F200000078FEF7F7FC08BD08B514
:1039000001210420FEF7FDFB2020ADF8000003207C
:103910008DF8020004208DF8030069464FF4006022
:10392000C4F20100FDF7B5FB08BD0EB50020F02381
:103930001A4601460090FDF7D5FD00202021CDE973
:1039400000014FF6E07349F25422C0F6000201462E
:103950000290FDF7C6FF00202021CDE900014FF6BF
:10396000E0733A22014602908020FDF70AFF2020F2
:1039700000211F220223CDE9002102900A4698204F
:10398000FEF79DFA00202021CDE900014FF6E073FB
:1039900049F26022C0F6000201460290C020FDF705
:1039A000A0FF00202021CDE900014FF6E07349F28D
:1039B0006422C0F600020290FDF793FF0020202150
:1039C000CDE900014FF6E0733A2202908020FDF726
:1039D000D8FE202000211F220223CDE900210290E1
:1039E0000A4601469820FEF76AFA00202021CDE918
:1039F00000014FF6E07325220290C820FDF7C1FEBA
:103A000000202021CDE900014FF6E07349F2702239
:103A1000C0F6000240210290FDF763FF0020202144
:103A2000CDE900014FF6E0733A2240210290802058
:103A3000FDF7A7FE182000211F220323CDE9002156
:103A400002900A4640219620FEF739FA00201821FC
:103A5000CDE900014FF6E07349F27C22C0F6000286
:103A600040210290C020FEF775FA00202021CDE908
:103A700000014FF6E07349F28022C0F60002602197
:103A80000290FDF72EFF00202021CDE900014FF626
:103A9000E0733A22602102908020FDF772FE002040
:103AA000C4F2CC2040F26C31C2F200014860182010
:103AB00000211F220323CDE9002102900A46602144
:103AC0009620FEF7FCF900201821CDE900014FF601
:103AD000E07349F28C22C0F6000260210290C020FF
:103AE000FEF738FA00202021CDE900014FF6E073FF
:103AF00049F29022C0F6000280210290FDF7F1FE0B
:103B000000201821CDE900014FF6E0733A22802110
:103B100002900846FDF735FE00202021CDE9000186
:103B20004FF6FF7349F29C22C0F6000280210290FA
:103B3000A020FDF7D6FE00202021CDE900014EF2A5
:103B4000FF6349F2A022C0F60002B0210290FDF707
:103B5000C8FE00201821CDE900014EF2FF633A2291
:103B6000B02102908020FDF70CFE00202021CDE93D
:103B700000014FF4FC6349F2AC22C0F60002B02110
:103B80000290A020FDF7ADFE0EBD10B588B0044632
:103B9000012144F20400FEF7B4FA18208DF81F004A
:103BA0004FF40070ADF81C0003208DF81E0007A92B
:103BB0004FF40060C4F20100FDF76BFA48208DF865
:103BC0001B004FF48060ADF8180003208DF81A0038
:103BD00006A94FF40060C4F20100FDF75AFA0294FE
:103BE0000020ADF80C00ADF80E00ADF810000C2070
:103BF000ADF812000020ADF8140002A94FF4605097
:103C0000C4F20100FEF71BFF25208DF804000120FF
:103C10008DF807008DF8050002208DF8060001A838
:103C2000FEF710FA012240F225514FF46050C4F221
:103C30000100FEF7DFFE01214FF46050C4F20100E5
:103C4000FEF795FE40214FF46050C4F20100FEF7EC
:103C500076FE08B010BD10B588B0044601210420DE
:103C6000FEF74FFA01214804FEF732FA0420ADF8BE
:103C70001C0003208DF81E0018208DF81F0007A9D6
:103C80004FF40060C4F20100FDF703FA0820ADF81C
:103C9000180003208DF81A0048208DF81B0006A993
:103CA0004FF40060C4F20100FDF7F3F90294002024
:103CB000ADF814000C20ADF812000020ADF8100093
:103CC000ADF80E00ADF80C0002A94FF48840C4F224
:103CD0000000FEF7B4FE26208DF8040001208DF8C8
:103CE00007008DF8050002208DF8060001A8FEF7F8
:103CF000A9F9012240F225514FF48840C4F2000096
:103D0000FEF778FE01214FF48840C4F20000FEF770
:103D10002EFE40214FF48840C4F20000FEF70FFE53
:103D200008B010BDFFF74CFD01E0FEF799FAFCE783
:103D3000F0B50B30154D20F007010024144A0FE0B8
:103D400003688B420BD38B4205D95E1A4318476830
:103D5000C3E9006700E04368136002C004E0021D8D
:103D600010680028ECD12046002802D1286808B14C
:103D70000020F0BD064A07481060074A121A22F0D8
:103D80000702C0E9002401202860D7E728000020AE
:103D900024000020840300208005002010B5024686
:103DA000012000E050430B1EA1F10104E1B2F9D162
:103DB00010BD00002DE9F04D1D460C4698B0174689
:103DC00021F0004123F00043002814BF4FF0010C04
:103DD0004FF0000C0CEB440CFE4A0CEB02064FEAD1
:103DE000620C66452BD33E0018BF012606EB450644
:103DF0001644F94A964222D3F84A53EA070C02D0F5
:103E0000944205D148B918B000201146BDE8F08DA4
:103E1000002808BF4FF0000C01D04FF0010C0CEB54
:103E2000440212F5001F0AD8002F14BF4FF0010CF6
:103E30004FF0000C0CEB450212F5001F07D918B02B
:103E40003A462B462146BDE8F04DFEF7FFBE002264
:103E5000DFF88CA3002CB8BF534526DADFF884C303
:103E60006345A8BF022220DADFF870C39C451CDC42
:103E7000DFF874C30CEB235CBCF1140F08DDCCF14C
:103E8000340627FA06FC0CFA06F6BE420DD108E00D
:103E90005FB9CCF1140623FA06FC0CFA06F69E4232
:103EA00003D10CF00102C2F1020251EA000C19D157
:103EB000002D17DA002C18BF022A01D0012A07D0E2
:103EC0000220FEF7EBFE18B0BDE8F04DFEF7B6BEDF
:103ED0000220FEF7E3FEFEF7B1FE18B081F00041CC
:103EE000BDE8F08DB7F1000C6CD1534525D104F13C
:103EF000804212F5801201BF00280020B74918B097
:103F000008BFBDE8F08DB548884207DC002DA1BF91
:103F10006046294618B0BDE8F08D07E0281E05DA96
:103F200080F0004118B06046BDE8F08DAF4979449B
:103F3000D1E9000118B0BDE8F08DDFF8A0C26345FB
:103F400025D1002D1FDA19B1514512D1D8B909E098
:103F5000002840F0EC82A24A214618B062F31E010C
:103F6000BDE8F08D0020214618B060F31E01BDE8C9
:103F7000F08D08DA18B02346BDE8F04D0246002067
:103F80006146FCF72CBB18B02146BDE8F08D5145C9
:103F900018DAB5F1804F0DD0A5F1005CBCF1FF5CE3
:103FA00010D1B4F1000C0DDB18B06146BDE8F04D46
:103FB00000F04DBC234618B00246BDE8F04D19464E
:103FC000FCF79BBA060024F0004C3BD1D9B1514517
:103FD00033D1002C06DD002DA1BF0020514618B0C2
:103FE000BDE8F08D002C01DD002D1BDB002C13DA69
:103FF000002D11DB012A4FF0000014BF78497C49E5
:1040000018B0BDE8F08D022A18BF002C0AD0012A92
:1040100008D1002C06DA0AE0002CB8BF002D11DA16
:10402000012A04D0002018B00146BDE8F08D18B078
:1040300000204FF00041BDE8F08DA1F14050B0F1FB
:104040007F601AD0012000EBE47050EA020421D016
:10405000624C521E4FF0000B104304BF4FF0000B98
:10406000644C654883427CDD644A654893421FDDA9
:10407000884217DB002D25DB37E0002C00DA4AB13F
:10408000022A0CBF01204FF0FF3018B0BDE8F04D00
:10409000FCF7FABC0120FEF701FE18B0BDE8F04DB8
:1040A000FEF7D6BD4D4A8A4202DC002D0ADC1CE038
:1040B000814202DA002D18DA04E0484B994220DDF3
:1040C000002D12DD0220FEF7E9FDFEF7C7FD0546D3
:1040D0000E460022534658462146FCF70EFA18B009
:1040E00066F31E012846BDE8F08D0220FEF7D6FDDE
:1040F000FEF7BCFD0A46214618B062F31E01BDE87A
:10410000F08D002230466146FCF7F1F980460E46FC
:104110006FF00102FCF7A1FC4FF05532394BFCF770
:10412000E9F942463346FCF7E8F90022364BFCF742
:10413000E1F9824642463346049110461946FCF79F
:10414000DCF95246049BFCF7D8F98A4600904FF000
:10415000C0422E4B40463146FCF7CFF92C4A2B4B40
:1041600000E027E0CDE9060151460098FCF7C5F9CB
:1041700082460191274A284B40463146FCF7BDF95B
:104180005246019BFCF7B3F982460B460246059165
:10419000DDE90601FCF70AF9DDE906230026884679
:1041A0003046FCF7A4F95246059BFCF7A3F90246FA
:1041B00000F07EB90020B1F5801F07DA35223046C5
:1041C0006146FCF74AFC06466FF0340000EB2150D4
:1041D00024E00000FFFF1F00FFFF0F000000F03F82
:1041E0000000F07F0000404301FCFFFF96510000FB
:1041F0000000F0FF0000F0BF0000E0410000F043CD
:10420000FFFFEF3F5555D53F0000E03F4715F73F13
:10421000FE822B6544DF5DF80BAE543EA0F2FF300A
:104220000190C1F3130040F07F6141F040510291D1
:10423000FE498842D8BF002004DDFD498142C8BF45
:10424000012001DD0D9008E000200D900198401C38
:1042500001900298A0F5801002900299F5487844E8
:104260000B910D9900EBC100D0E900230F9330466C
:104270000A920B99FCF73BF9CDE90601DDE90A2129
:1042800030460F9BFCF792F802460B460020EA49A5
:10429000FCF7A5F9059102460B460090DDE9060101
:1042A000FCF72BF91490E5488A464FF00008784453
:1042B0000299006812904FF0005040EA61010D9899
:1042C0000F9B01EB804000F5002109910A9A12989A
:1042D000FCF70DF932460B9BFCF70CF942465346AE
:1042E000FCF70BF90646029140465146099B129A8B
:1042F000FCF703F9DDE90623FCF7FCF83246029BE4
:10430000FCF7F5F8059B009AFCF7F7F80091149A72
:104310000490534610461946FCF7EFF8064602464D
:10432000C7480B46029106217844FEF731FCCDE9DF
:104330000510029B324610461946FCF7DEF8DDE90F
:104340000532FCF7DAF80591064653464046194611
:10435000149AFCF72BF8009B049AFCF7CEF832462F
:10436000059BFCF723F8CDE905104246534610465D
:104370001946FCF7C2F80022B24B02910A90FCF7F2
:1043800015F8DDE90532FCF711F80E464246AD4B53
:104390004046FCF7ACF8029B0A9AFCF7A8F8DDE966
:1043A0000532FCF7A7F8424602910A9033461046C0
:1043B0005146FCF7A2F8CDE906015346149A02993A
:1043C0000A98FCF79AF88A460290334642460099CA
:1043D0000498FCF792F85346029AFBF7E7FF8246EF
:1043E0000B4602460591DDE90601FBF7DFFFDDE93B
:1043F0000623002088460646FCF779F85246059BBE
:10440000FCF778F8824609914FF060428E4B3046B7
:104410004146FCF772F8049006918C4A8A4B50464C
:104420000999FCF76AF882460291894A894B30461D
:104430004146FCF762F85246029BFBF7B7FF864BFA
:104440007B440D9A03EBC203D3E90023FBF7AEFFD5
:104450000E9007910198FCF717FB0591DDE9061313
:1044600082460E9A0498FBF7A1FF7C4A7A440D9B82
:1044700002EBC303D3E9002300930292FBF796FFFC
:104480005246059BFBF792FF00268846524630466F
:10449000059BFCF72CF8009B029AFCF728F8069B7A
:1044A000049AFCF724F8079B0E9AFCF723F80246BF
:1044B00000200B46029038462946FCF71EF882463B
:1044C00001912B4638461946029AFCF710F83246FD
:1044D0004346FCF712F85246019BFBF767FF07467D
:1044E0008A463246434629460298FCF706F80546B6
:1044F0000E463A465346FBF759FF594A88469142C1
:1045000021DBA8EB020353EA000210D12A4633460E
:10451000FBF7EDFFCDE90401524A534B38465146B3
:10452000FBF744FFDDE90423FCF7D8FA21D202208F
:10453000FEF7B4FBFEF792FB0A46214618B062F381
:104540001E01BDE8F08D494B28F000429A4210D37D
:10455000474A08EB020353EA00027FF4C6AD2A463D
:104560003346FBF7C4FF3A465346FCF7B7FA7FF6EB
:10457000BCAD0022019228F000403E493E4A01EBCA
:104580002051824223DA481C4FF4801121FA00F0B6
:1045900040443A4AC0F30A517A44394BA1F2FF3100
:1045A000CB4020EA0303C0F3130040F48010C1F1B4
:1045B0001401C84012680190B8F1000FBCBF40421E
:1045C000019028463146FBF792FF05460E462A46E3
:1045D000334638465146FBF7E9FE4FF000084246A5
:1045E000284B40460591FBF788FFCDE90601264A96
:1045F000264B40460599FBF780FF009102902A4622
:10460000334640460599FBF772FF3A465346FBF79F
:1046100071FF1F4A1F4BFBF770FF009B029AFBF7CD
:10462000C5FE0746884602460B4635E08E980300D5
:104630007AB60B00DE4D00000000F03F164E000081
:10464000444D00000000084009C7EE3FFD033ADC7E
:10465000F5015B14E02F3EBE1C4C0000E04B000057
:1046600000009040FE822B654715973C00CC90409F
:1046700000346F3F01FCFFFF0000E03F2C4B0000C7
:10468000FFFF0F00432EE63F396CA80C615C20BE93
:10469000EF39FAFE422EE63FDDE90601FBF786FE22
:1046A000DDE9062305460E46FBF721FF3A46434661
:1046B000FBF720FF0F462A46334600901046194666
:1046C000FBF71BFF824602462E4888460B46052113
:1046D0007844FEF75DFA52464346FBF70EFF2A4642
:1046E0003346FBF707FF80468A463B46284631465D
:1046F000009AFBF702FF3B46009AFBF757FE069134
:10470000009000224FF0804340465146FBF7EFFEF9
:104710000F460C904246534628463146FBF7EDFEC5
:104720003B460C9AFBF75BFF069B009AFBF7DFFE0C
:104730002A463346FBF7DBFE0022134BFBF7DAFE7B
:10474000054601980E4601EB00510815002810DCC3
:1047500028463146019AFCF780F9FEF701FA042851
:1047600008BFFEF783FA28463146019AFCF775F92F
:1047700005460B4618B02A4658462146BDE8F04D7E
:10478000FBF7BBBECC4900000000F03F30B5ABB03A
:1047900040F26C31C2F200014868FBF7C6FF0446E4
:1047A0000D4640F26C30C2F20000007C08B10120DE
:1047B00000E0002040F26C31C2F20001C97B09B177
:1047C000012100E0002140F26C32C2F20002927B33
:1047D0000AB1012200E0002240F26C33C2F2000371
:1047E0005B7B0BB1012300E00023CDE90632CDE96C
:1047F000081040F26C30C2F20000007B08B10121C9
:1048000000E0002140F26C30C2F200008068CDE987
:104810000245CDE9040140F26C30C2F2000040785C
:10482000009040F26C30C2F20000037849F2F812B6
:10483000C0F6000280210BA8FEF778F90BA94FF40F
:104840008840C4F2000000F037F82BB030BD2DE9ED
:10485000F04106460F46FCF779F9041E0D4618BFD5
:104860000120284320F00040C0F17F6000F1E040CB
:10487000C00F0ED0301C18BF0120384320F000407C
:10488000C0F17F6000F1E040C00F04BF0120FEF7DF
:1048900005FA20462946BDE8F08170B504460D466C
:1048A00029462046FEF73CF900BF40212046FEF78E
:1048B0006AF80028F9D070BD70B506460C46002590
:1048C00004E0615D3046FFF7E8FF6D1C605D002885
:1048D000F7D170BD32000000FA0000006400000053
:1048E000FA000000FA0000000000000000000000D4
:1048F00000000000000004040404040000040000A0
:1049000014140A00000000000000000000000A0A61
:104910001F0A0A1F0A0A000000040E1505060C14DF
:10492000150E0400000012150D152E2C2A12000081
:104930000000040A0A3615152916000002020100BB
:104940000000000000000000100808040404040433
:1049500008081000020404080808080804040200FB
:1049600000000004150E0E150400000000000008F1
:10497000083E0808000000000000000000000000E1
:104980000202010000000000003F000000000000E3
:1049900000000000000000000002000000201010D5
:1049A000080804040202010000000E111111111187
:1049B000110E00000000040604040404040E0000AC
:1049C00000000E1111080402011F000000000E116A
:1049D000100C1010110E00000000080C0C0A091F2A
:1049E000081C000000001F01010F1110110E000033
:1049F00000000C12010D1311110E000000001E101A
:104A0000080804040404000000000E11110E111126
:104A1000110E000000000E111119161009060000F9
:104A2000000000000400000000040000000000007E
:104A30000004000000040400000010080402020446
:104A400008100000000000003F003F0000000000D0
:104A500000000204081010080402000000000E11FB
:104A6000110804040004000000001C22292D2D1D43
:104A7000221C0000000004040C0A0A1E123300006D
:104A800000000F12120E1212120F000000001E1171
:104A900001010101110E000000000F12121212128A
:104AA000120F000000001F120A0E0A02121F00005F
:104AB00000001F120A0E0A020207000000001C126A
:104AC00001013911120C000000003312121E1212E3
:104AD0001233000000001F0404040404041F00003B
:104AE00000003E08080808080808090700003712F7
:104AF0000A060A1212370000000007020202020230
:104B0000223F000000003B1B1B1B15151535000044
:104B100000003B1216161A1A1217000000000E11A0
:104B200011111111110E000000000F12120E0202DD
:104B30000207000000000E1111111117190E1800C4
:104B400000000F12120E0A121237000000001E1190
:104B500001060810110F000000001F1504040404D2
:104B6000040E00000000331212121212120C000088
:104B700000003312120A0A0C04040000000015158C
:104B800015150E0A0A0A000000001B0A0A04040A8E
:104B90000A1B000000001B0A0A0A0404040E00009D
:104BA00000001F0908040402121F00001C04040472
:104BB0000404040404041C000002020404040808A1
:104BC000081010000E0808080808080808080E0059
:104BD000040A0000000000000000000000000000C7
:104BE000000000000000003F020400000000000080
:104BF0000000000000000000000C121C123C00002D
:104C000000030202020E1212120E00000000000049
:104C1000001C1202120C000000181010101C1212BE
:104C2000123C000000000000000C121E021C0000DC
:104C300000182404041E0404041E000000000000E8
:104C4000003C120C021C221C00030202020E121273
:104C5000123700000004040000060404040E0000E3
:104C600000080800000C08080808080700030202F2
:104C7000021A0A060A1300000007040404040404CC
:104C8000041F000000000000000F1515151500009E
:104C900000000000000F1212123700000000000098
:104CA000000C1212120C000000000000000F121283
:104CB000120E020700000000001C1212121C103815
:104CC00000000000001B06020207000000000000B8
:104CD000001E020C101E000000000004041E04044C
:104CE000041C000000000000001B1212123C000017
:104CF00000000000001B0A0A04040000000000007D
:104D00000015150E0A0A000000000000001B0A042E
:104D10000A1B000000000000003312120C080403FC
:104D200000000000001E0804041E00001808080807
:104D3000080C0808080818000808080808080808E7
:104D4000080808080604040404080404040406000F
:104D50001609000000000000000000000000000034
:104D6000000000000000000000000000000000083B
:104D700008080808080800001818000000486C24FB
:104D800012000000000000000000000000000024ED
:104D900024247F1212127F12121200000000081C3D
:104DA0002A2A0A0C1828282A2A1C0808000000228F
:104DB000251515152A585454542200000000000CE3
:104DC0001212120A76252911916E000000060604BF
:104DD0000300000000000000000000000040201060
:104DE00010080808080808101020400000020408F5
:104DF0000810101010101008080402000000000035
:104E000008086B1C1C6B0808000000000000000074
:104E1000080808087F0808080800000000000000D3
:104E2000000000000000000006060403000000006F
:104E300000000000FE000000000000000000000074
:104E40000000000000000000060600000000804096
:104E5000402020101008080404020200000000187E
:104E6000244242424242424224180000000000080C
:104E70000E08080808080808083E00000000003C6A
:104E80004242422020100804427E00000000003C04
:104E90004242201820404042221C00000000002016
:104EA0003028242422227E20207800000000007E6A
:104EB0000202021A26404042221C00000000003874
:104EC0002402021A26424242241800000000007EFA
:104ED0002222101008080808080800000000003C02
:104EE0004242422418244242423C00000000001882
:104EF0002442424264584040241C0000000000004C
:104F00000000181800000000181800000000000041
:104F10000000000800000000000808040000004035
:104F200020100804020408102040000000000000C7
:104F300000007F0000007F00000000000000000271
:104F40000408102040201008040200000000003C6B
:104F50004242464020101000181800000000001CBB
:104F6000225A555555552D42221C000000000008BC
:104F700008181414243C224242E700000000001FDD
:104F80002222221E22424242221F00000000007CF8
:104F90004242010101010142221C00000000001FE9
:104FA0002242424242424242221F00000000003F91
:104FB0004212121E12120242423F00000000003F45
:104FC0004212121E12120202020700000000003CF0
:104FD0002222010101712122221C0000000000E7B1
:104FE000424242427E42424242E700000000003E0E
:104FF0000808080808080808083E00000000007CAF
:1050000010101010101010101010110F0000007769
:1050100022120A0E0A121222227700000000000754
:105020000202020202020202427F00000000007738
:10503000363636362A2A2A2A2A6B0000000000E378
:1050400046464A4A52525262624700000000001C23
:105050002241414141414141221C00000000003FEA
:10506000424242423E020202020700000000001CCF
:105070002241414141414D53321C60000000003F3C
:105080004242423E1212222242C700000000007C2F
:105090004242020418204042423E00000000007FCD
:1050A0004908080808080808081C0000000000E774
:1050B0004242424242424242423C0000000000E77B
:1050C0004242222424141418080800000000006B37
:1050D000494949495555362222220000000000E77F
:1050E000422424181818242442E700000000007706
:1050F0002222141408080808081C00000000007E82
:105100002120101008040442423F000000780808E3
:1051100008080808080808080808780000000202C3
:10512000040408080810102020204040001E101021
:10513000101010101010101010101E000038440035
:10514000000000000000000000000000000000005F
:105150000000000000000000000000FF0006080042
:10516000000000000000000000000000000000003F
:105170000000003C4278444242FC00000000000372
:105180000202021A26424242261A000000000000D3
:1051900000000038440202024438000000000060B1
:1051A000404040784442424264D800000000000081
:1051B0000000003C427E0202423C0000000000F081
:1051C0008808087E08080808083E00000000000063
:1051D0000000007C22221C023C42423C00000003F2
:1051E0000202023A4642424242E700000000000C3E
:1051F0000C00000E08080808083E000000000030FF
:1052000030000038202020202020221E0000000333
:1052100002020272120A1612227700000000000E2B
:105220000808080808080808083E000000000000F8
:105230000000007F9292929292B70000000000005E
:105240000000003B4642424242E7000000000000EE
:105250000000003C42424242423C0000000000008C
:105260000000001B26424242221E020700000000EE
:105270000000007844424242447840E000000000D0
:10528000000000774C040404041F0000000000002C
:105290000000007C42023C40423E00000000000052
:1052A0000008083E08080808083000000000000058
:1052B000000000634242424262DC00000000000045
:1052C000000000E742242414080800000000000049
:1052D000000000EB49495555222200000000000063
:1052E0000000007624181818246E0000000000004A
:1052F000000000E7422424141808080700000000FA
:105300000000007E22100808447E000000C020201B
:1053100020202010202020202020C000101010105D
:1053200010101010101010101010101000060808A7
:105330000808081008080808080806000C32C2000F
:10534000000000000000000000000000000000005D
:10535000000000000000000000000000000000004D
:10536000000000000000000000000000000000003D
:10537000000000000000000000000000000000002D
:1053800000000000600060006000600060006000DD
:10539000600040002000200020000000000000000D
:1053A00060006000600000000000000000000000DD
:1053B0006006600630039801880044000000000089
:1053C00000000000000000000000000000000000DD
:1053D00000000000000000000000000000000000CD
:1053E000000000001002100210021002FE07FE076B
:1053F00008020801080108010801FE07FE07040170
:10540000040104010401000000000000000000008D
:10541000000040004000F00158034C03CC034C0056
:1054200058007000E000C001C00140034C035C0361
:105430004C034801F0004000400000000000000064
:10544000000000000E010A0191009100910051003E
:1054500051003A00AE03A00250045004480448042E
:1054600048048402840300000000000000000000E3
:105470000000000038006C006C006C006C006C00D8
:105480002C0098071C011A01330133016301E3006A
:10549000C308C6093C07000000000000000000002F
:1054A0000C001C00100010000800040000000000A8
:1054B00000000000000000000000000000000000EC
:1054C00000000000000000000000000000000000DC
:1054D0000004000200018000800040004000200025
:1054E000200020002000200020002000400040007C
:1054F00080008000000100020004000000000000A5
:1055000002000400080010001000200020004000ED
:1055100040004000400040004000400020002000CB
:10552000100010000800040002000000000000004D
:1055300000000000000000004000C0004000460CD9
:105540004E0FD001F0015E0F460C400040004000BD
:10555000000000000000000000000000000000004B
:10556000000000000000000000004000400040007B
:1055700040004000FE0F400040004000400040005E
:10558000000000000000000000000000000000001B
:10559000000000000000000000000000000000000B
:1055A00000000000000000000000000000000000FB
:1055B0000C001C0010001000080004000000000097
:1055C00000000000000000000000000000000000DB
:1055D00000000000FE0700000000000000000000C6
:1055E00000000000000000000000000000000000BB
:1055F00000000000000000000000000000000000AB
:10560000000000000000000000000000000000009A
:105610001C001C001C000000000000000000000036
:105620000004000600020003000100018000800069
:105630004000400060002000200010001000080022
:1056400008000C000400060002000000000000003A
:10565000000000000000F00098010C030C03060697
:1056600006060606060606060606060606060C03D7
:105670000C039801F0000000000000000000000092
:1056800000000000000040007C006000600060003E
:10569000600060006000600060006000600060000A
:1056A00060006000FC03000000000000000000003B
:1056B000000000000000F800840102030603060356
:1056C000000300018001C0006000200010000802FB
:1056D00004020602FE0300000000000000000000BB
:1056E0000000000000007800C600860186018001ED
:1056F0008001C00070008001000100030003060368
:1057000006038601F8000000000000000000000011
:1057100000000000000080018001C001A001A00184
:1057200090018801880184018201FE0F80018001BF
:1057300080018001E0070000000000000000000080
:10574000000000000000FC0304000400040004004A
:105750000400F4008C0104030003000306030603A5
:1057600082018401F8000000000000000000000039
:10577000000000000000E00118030C030C0004000E
:105780000600E60116030E060606060606060406D1
:105790000C021803F00000000000000000000000F0
:1057A000000000000000F8070C06040204010001DC
:1057B0000001800080004000400040006000600068
:1057C00060006000600000000000000000000000B9
:1057D000000000000000F8010C030606060606069D
:1057E0000C021C03F000C8010C03060606060606A0
:1057F00006060C03F001000000000000000000009D
:10580000000000000000F0000C010C030602060678
:105810000606060606078C06780600060003000347
:105820000C018C0178000000000000000000000066
:105830000000000000000000000000000000000068
:10584000E000E000E00000000000000000000000B8
:10585000E000E000E00000000000000000000000A8
:105860000000000000000000000000000000000038
:105870006000600000000000000000000000000068
:1058800000006000600040002000200000000000D8
:105890000000000000040002000180004000200021
:1058A00010000800040008001000200040008000E4
:1058B00000010002000400000000000000000000E1
:1058C00000000000000000000000000000000000D8
:1058D000FE07000000000000FE07000000000000BE
:1058E00000000000000000000000000000000000B8
:1058F00000000000040008001000200040008000AC
:1059000000010002000400020001800040002000AD
:10591000100008000400000000000000000000006B
:10592000000000000000E0031806040C040C0C0C3E
:105930000C0C000780014000400040000000000007
:10594000E000E000E00000000000000000000000B7
:1059500000000000E00018030C02CC056405660599
:10596000A605B604B604B604B604B602E4010C04F7
:105970000C021803F000000000000000000000000E
:10598000000000000000600060005000D0009000A7
:105990009000880088010801F80104030403040250
:1059A000020202060F0F00000000000000000000CD
:1059B000000000000000FE008C030C030C030C032D
:1059C0000C038C01FC000C030C020C060C060C06EC
:1059D0000C060C03FE0100000000000000000000A7
:1059E000000000000000E00318030C060C0404048F
:1059F00006000600060006000600060006040C0469
:105A00000C021803F000000000000000000000007D
:105A10000000000000007F008C010C030C030C064A
:105A20000C060C060C060C060C060C060C060C03E9
:105A30000C038C017F00000000000000000000004B
:105A4000000000000000FF03060306040604060031
:105A500086008600FE00860086008600060006049A
:105A600006040602FF030000000000000000000022
:105A7000000000000000FF03060306040604060001
:105A800086008600FE00860086008600060006006E
:105A9000060006001F0000000000000000000000DB
:105AA000000000000000F00018010C020C020402CB
:105AB0000600060006000600C60F060306030C03D8
:105AC0000C031803F00000000000000000000000BC
:105AD0000000000000000F0F060606060606060678
