:020000040800F2
:10000000400700204501000877030008EB020008C4
:10001000730300088D0100082B0800080000000091
:10002000000000000000000000000000C103000804
:1000300091010008000000008D030008670500081A
:100040005F0100085F0100085F0100085F01000810
:100050005F0100085F0100085F0100085F01000800
:100060005F0100085F0100085F0100085F010008F0
:100070005F0100085F0100085F0100085F010008E0
:100080005F0100085F0100085F0100085F010008D0
:100090005F0100085F0100085F0100085F010008C0
:1000A0005F0100085F0100085F0100085F010008B0
:1000B0005F0100085F0100085F0100085F010008A0
:1000C0005F0100085F0100085F0100085F01000890
:1000D0005F01000883060008E70600084B070008D8
:1000E0005F0100085F0100085F0100085F01000870
:1000F0005F0100085F0100085F0100085F01000860
:100100005F0100085F0100085F0100085F0100084F
:100110005F0100085F0100085F0100085F0100083F
:100120005F0100085F0100085F0100085F0100082F
:10013000DFF80CD000F018F8004800474D08000820
:10014000400700200648804706480047FEE7FEE7D4
:10015000FEE7FEE7FEE7FEE7FEE7FEE7FEE7FEE777
:100160009F05000831010008064C074D06E0E068D5
:1001700040F0010394E8070098471034AC42F6D3EE
:10018000FFF7DAFF780800089808000800BFFEE7CC
:10019000704740F20801C2F20001086000BF40F25F
:1001A0000801C2F2000109680029F8D170472DE961
:1001B000F0410246002500260020002300240027ED
:1001C00091F803C00CF00F0591F803C00CF0100C6F
:1001D000BCF1000F03D091F802C04CEA050591F87C
:1001E00000C0BCF1000F31D0146800202BE04FF0AC
:1001F000010C0CFA00F3B1F800C00CEA03069E42B1
:1002000020D183004FF00F0C0CFA03F7BC4305FA22
:1002100003FC4CEA040491F803C0BCF1280F06D19A
:100220004FF0010C0CFA00FCC2F814C00AE091F87F
:1002300003C0BCF1480F05D14FF0010C0CFA00FCD3
:10024000C2F810C0401C0828D1D31460B1F800C017
:10025000BCF1FF0F34DD546800202EE000F1080CE3
:100260004FF0010808FA0CF3B1F800C00CEA0306DD
:100270009E4221D183004FF00F0C0CFA03F7BC43D0
:1002800005FA03FC4CEA040491F803C0BCF1280F02
:1002900005D100F1080C08FA0CF8C2F8148091F8A6
:1002A00003C0BCF1480F07D100F1080C4FF0010862
:1002B00008FA0CF8C2F81080401C0828CED354600D
:1002C000BDE8F081416170470161704770B5054636
:1002D0000E46144624B131462846FFF7F5FF03E0E9
:1002E00031462846FFF7EEFF70BD00BFFEE708B5B8
:1002F0000121080200F04BF80121080200F047F844
:100300000121102000F043F80121102000F03FF8F7
:1003100010208DF8030003208DF802004020ADF876
:10032000000069464FF40050C4F20100FFF73FFFA0
:100330008020ADF8000069464FF40050C4F201007F
:10034000FFF735FF4FF40050ADF8000069464FF459
:100350008050C4F20100FFF72AFF4FF40050ADF8BF
:10036000000069464FF48050C4F20100FFF71FFF00
:1003700008BD00BFFEE7704740F0FD7141F08061AD
:100380004EF60C52CEF2000211607047704759B120
:100390004FF48052C4F20202926902434FF4805338
:1003A000C4F202039A610AE04FF48052C4F20202DE
:1003B000926982434FF48053C4F202039A617047FA
:1003C000704770B504460D46012C09D185F0010235
:1003D00040214FF40050C4F20100FFF777FF22E004
:1003E000022C09D185F0010280214FF40050C4F2A3
:1003F0000100FFF76BFF16E0032C0AD185F0010224
:100400004FF400514FF48050C4F20100FFF75EFF3B
:1004100009E0042C07D12A46E1024FF48050C4F2CF
:100420000100FFF753FF70BD10B500F001F810BDDB
:100430000CB50020019000904FF48050C4F20200EF
:10044000006840F480304FF48051C4F2020108602B
:1004500000BF4FF48050C4F20200006800F4003086
:1004600000900198401C0190009818B90198B0F5CF
:10047000A06FEED14FF48050C4F20200006800F487
:10048000003010B10120009001E0002000900098A1
:1004900001285BD14FF40050C4F20200006840F024
:1004A00010004FF40051C4F20201086008460068D1
:1004B00020F0030008600846006840F00200086071
:1004C0004FF48050C4F2020040684FF48051C4F2EF
:1004D000020148600846406848600846406840F4A9
:1004E000806048600846406820F47C1048600846F8
:1004F000406840F4E81048600846006840F08070AA
:10050000086000BF4FF48050C4F20200006800F0A1
:1005100000700028F6D04FF48050C4F2020040680A
:1005200020F003004FF48051C4F2020148600846F5
:10053000406840F00200486000BF4FF48050C4F2B1
:100540000200406800F00C000828F6D10CBD10B580
:10055000002080F3108800BF4FF4A060FFF70CFF6D
:1005600000F053F810BD002000BF15E040F2080174
:10057000C2F2000151F8201061B140F20801C2F24C
:10058000000151F82010491E40F20802C2F2000298
:1005900042F82010411CC8B20E28E7DB704710B5A6
:1005A0004FF48050C4F20200006840F001004FF4A4
:1005B0008051C4F202010860084640680021CFF66D
:1005C000FF0108404FF48051C4F202014860084620
:1005D000006820F4102020F0807008600846006851
:1005E00020F4802008600846406820F4FE0048603F
:1005F0004FF41F008860FFF717FF4FF000604EF6C2
:100600000851CEF20001086010BD70B5002100BF96
:1006100008E0002040F20802C2F2000242F8210085
:10062000481CC1B20E29F4DB4FF4CA52C0F20102D9
:10063000B2F1807F00D323E022F07F40401E4FF0D4
:10064000E023586158170F2300280ADA1C07260EEA
:100650004EF61854CEF2000400F00F052D1F66551B
:1006600006E01C07250E4FF46444CEF20004255426
:1006700000BF00204FF0E02398610720186100BF01
:1006800070BD10B540F225514FF46050C4F2010026
:1006900000F09CF801281DD10A2040F20801C2F2A6
:1006A000000148604FF46050C4F2010000F0B8F857
:1006B000C4B240F20000C2F2000001880088401C71
:1006C00040F20002C2F20002108040F24000C2F28A
:1006D0000000445440F225514FF46050C4F2010030
:1006E00000F065F810BD10B540F225514FF4884078
:1006F000C4F2000000F06AF801281DD10A2040F27F
:100700000801C2F2000188604FF48840C4F2000082
:1007100000F086F8C4B240F20200C2F20000018884
:100720000088401C40F20202C2F20002108040F237
:100730004010C2F20000445440F225514FF488406A
:10074000C4F2000000F033F810BD10B540F225519E
:100750004FF49040C4F2000000F038F801281DD199
:100760000A2040F20801C2F20001C8604FF4904034
:10077000C4F2000000F054F8C4B240F20400C2F227
:10078000000001880088401C40F20402C2F200020E
:10079000108040F24020C2F20000445440F2255143
:1007A0004FF49040C4F2000000F001F810BD10B505
:1007B0000022002340F66A14A14200D100BF0A12B1
:1007C00001249440A3B2DC43048010BD70B50246FE
:1007D000002400230025002040F66A16B14200D113
:1007E00000BFC1F3421501F01F03012606FA03F30F
:1007F000012D02D19689334006E0022D02D1168ADE
:10080000334001E0968A33400C12012606FA04F4C4
:100810001688344013B10CB1012000E0002070BDF7
:1008200001468888C0F30800704700BFFEE702E079
:1008300008C8121F08C1002AFAD17047704700206B
:1008400001E001C1121F002AFBD17047FFF77FFEB4
:10085000FFF74DFD0FE001210320FFF7B2FD4FF43C
:10086000FA60FFF796FC00210320FFF7AAFD4FF482
:10087000FA60FFF78EFCEEE7980800080000002001
:10088000080000002E080008A0080008080000204A
:10089000380700003E0800080000000000000000CB
:0400000508000131BD
:00000001FF
