:020000040800F2
:10000000A825002045010008BD160008511400086D
:10001000B9160008A50E0008192E000800000000FF
:10002000000000000000000000000000551A000859
:100030000D100008000000007D1800086D1C00086D
:100040005F0100085F0100085F0100085F01000810
:100050005F0100085F0100085F0100085F01000800
:100060005F0100085F0100085F0100085F010008F0
:100070005F0100085F0100085F0100085F010008E0
:100080005F0100085F0100085F0100085F010008D0
:100090005F0100085F0100085F0100085F010008C0
:1000A0005F0100085F0100085F0100085F010008B0
:1000B0005F0100085F0100085F0100085F010008A0
:1000C0005F0100085F0100085F0100085F01000890
:1000D0005F010008312A0008C92A0008612B0008C6
:1000E0005F0100085F0100085F0100085F01000870
:1000F0005F0100085F0100085F0100085F01000860
:100100005F0100085F0100085F0100085F0100084F
:10011000252800085D2900085F0100085F0100082C
:100120005F0100085F0100085F0100085F0100082F
:10013000DFF80CD000F0D6FC00480047353200084C
:10014000A82500200648804706480047FEE7FEE74E
:10015000FEE7FEE7FEE7FEE7FEE7FEE7FEE7FEE777
:10016000991C00083101000840EA01039B0703D0F5
:1001700009E008C9121F08C0042AFAD203E011F8E6
:10018000013B00F8013B521EF9D27047D2B201E0A8
:1001900000F8012B491EFBD270470022F6E710B58C
:1001A00013460A4604461946FFF7F0FF204610BDE5
:1001B00030B505462A460B4612F8010B13F8014BE1
:1001C00008B1A042F8D01CB1002802D06D1CF1E7A4
:1001D000284630BD0FB400B58DB010A909900B9022
:1001E00000914FF0FF300A9000200C9005480690D7
:1001F000054807906A4609A80F9900F0A5FB0DB0C5
:100200005DF814FB65090008830900082DE9FF4F1C
:10021000087881B09946FF2805D0491C2D2804D0C4
:100220000024002308E000230BE00124F9E703EB9E
:10023000830300EB4303491C0878FF28F7D104B17E
:100240005B4200200090147801462D2C01D02B2C0D
:1002500004D1521C2D2C12D00024009400251678B5
:10026000FF2E0ED00A24A0FB04C801FB0481002746
:1002700000FB0711521C16EB0C006941EFE701244B
:10028000EBE7994450EA01020ED00024AA4D26461D
:10029000DFF8A88200F01AFC82468B46B9F1000014
:1002A00009DAC9F100071BE001980021C0E900113B
:1002B00005B0BDE8F08F074612E0F80707D02246E8
:1002C0002B463046414600F005FA0646884622464F
:1002D0002B461046194600F0FDF904460D467F10E6
:1002E000002FEAD1B9F1000F324643465046594635
:1002F00002DA00F061FA01E000F0ECF9009A0AB1CC
:1003000081F00041019AC2E90001D1E72DE9FF4FD8
:100310001F468DB0D7E901464FF0FF382E204546E5
:100320004FF000090B90B9696D1C0E988847396A27
:10033000824688470028F6D1BAF1FF3F0AD024F45C
:10034000D064002E11DDBAF12B0F08D0BAF12D0FB9
:100350000BD102E0404611B0ABE744F48064B969C8
:100360006D1C0E9888478246761E6946600501D549
:100370002D2000E02B208DF8000001F1010B0DF184
:10038000200809E0B9696D1C0E98884782460F98CD
:1003900044F40074761E0560002E02DDBAF1300FC1
:1003A000F0D00B998A453ED144F0800406E00F99C5
:1003B000681CA9F1010944F400740860B9696D1C56
:1003C000761E0E98884782463028F0D02BE00B9995
:1003D0008A4505D1200603D444F08004761E18E037
:1003E000504602F02AFD08B30DF11301761E44F4C5
:1003F00000748B4508D2AAF130000BF8010B2006DF
:1004000007D5A9F1010003E0200602D409F101009B
:100410008146A00502D50F99681C0860B9696D1C5A
:100420000E9888478246002ED1DC53E0002E51DD25
:10043000BAF1650F02D0BAF1450F4BD1A00549D5ED
:10044000B9696D1C24F44074761E0E988847824664
:10045000002E0CDD2B2804D0BAF12D0F07D144F467
:100460008074B9696D1C0E9888478246761EE00537
:1004700001D52D2100E02B2108F8011BCDF82C809F
:1004800021E00DF12901761E44F4007488450CD258
:10049000AAF1300010F0FF0088F8000002D10B999B
:1004A000884509D908F1010806E0E00501D524488E
:1004B00001E042F20F708146B9696D1C0E988847C1
:1004C00082460F980560002E04DD504602F0B5FC10
:1004D0000028D6D1F9690E988847FF208BF80000D4
:1004E00088F800000020069007904B466A4608A94D
:1004F00006A8FFF78BFEA00502D46FF001002AE7E3
:1005000014F0240F0AD0E00714D1DDE90612386890
:10051000031D3B600068C0E900120BE0DDE9060145
:1005200000F0DBF90146E00704D13868021D3A60AB
:100530000068016028460EE7000024400000F03FFC
:10054000F1D8FFFFF0B480EA0102D40F4200B2EB11
:10055000410F02D20246084611464A0042D0C30D5E
:10056000DDB2C1F3C752AD1A202D35DAC1F3160141
:1005700041F4000204B15242C5F1200602FA06F12C
:100580002A411044B3EBD05F23D0C4B1012DA0EBBE
:10059000C35009DCF0BC4FF0004202EAC352DBB2A8
:1005A00000F5000000F007BA400000F1807000EB99
:1005B000C350A0F1807040EAD170490009E04908B9
:1005C00041EAC071A0EBC35000F50000400800EB09
:1005D000C350F0BC00F0E6B96142012202EB4101D8
:1005E000001BF6E7F0BC704781F00041AAE780F0FD
:1005F0000040A7E780EA010210B502F00043400086
:1006000022D04A001FD0010E01EB1261C0F3560048
:10061000C2F3560240F4000042F40002A0FB0220A4
:1006200000047F39140400D0401C50EA124001D469
:100630004000491EC2B20C0604EBD010401C40081A
:10064000802A02D003E0002010BD20F00100002924
:1006500000DA0020184310BD30B480EA010202F035
:10066000004530F0004221F0004013D090B1C30D9E
:10067000D40DC2F31601C0F31600E41A41F40001D0
:1006800040F400027D34914201D3641C00E0490033
:10069000002C02DA30BC002070474FF40000002329
:1006A000914201D3891A034340084FEA4101F7D12F
:1006B00051B1914202D14FF0004105E002D24FF01A
:1006C000010101E06FF0010103EBC450284430BC8C
:1006D00000F068B92DE9FE4F81EA030404F00044FC
:1006E00021F0004100944FF0000B23F0004350EA4A
:1006F00001045ED052EA03045BD0C3F30A54C1F391
:100700000A552C44A4F2F3340194A0FB0254C1F323
:10071000130141F48011C3F3130343F4801301FB6D
:10072000024400FB034E840A970A44EA815447EAD4
:100730008357A4FB076802958D0A05FB07854FEADE
:10074000932C04FB0C542705029D4FEA065847EAF8
:100750001637B5EB08056EEB070C870E920E47EACD
:10076000811742EA8312A7FB0201B6EB0B0164EB8F
:1007700000042B0D43EA0C335E1844EB1C50DA46A0
:100780005146E7FB0201C5F313044FEA0B3343EA7A
:1007900014534FEA0432019C43EA0603A4F10C040B
:1007A0000294009CCDE900B400F042F903B0BDE82A
:1007B000F08F00200146F9E72DE9F04D81EA0304AE
:1007C00004F0004B21F0004514464FF0000A23F0DE
:1007D000004150EA050220D054EA01021DD0C5F3C1
:1007E0000A570246C5F31303C1F31300C1F30A56B7
:1007F00040F4801543F48013A7EB0608101BD6467F
:1008000008F2FD3873EB050002D308F1010801E09E
:1008100092185B41B8F1000F03DA00200146BDE8F1
:10082000F08D00204FF48011064684460EE0171B21
:1008300073EB050705D3121B63EB050306434CEA74
:10084000010C49084FEA300092185B4150EA010759
:10085000EDD152EA030012D082EA040083EA0501D6
:10086000084305D0101BAB4106D20122002306E04D
:1008700000224FF0004302E06FF0010253101AEB28
:1008800006004CEB085110EB0A0041EB0B01BDE8F0
:10089000F04D00F0BEB8C10F80EAE0700844CA070E
:1008A0009623002100F087B800F0004220F00040BD
:1008B000C10DC0F3160040F400007F2901DA0020CA
:1008C0007047962903DCC1F19601C84001E09639D2
:1008D0008840002AF4D04042704701F0004330B411
:1008E00021F0004150EA010206D00A0DA2F5607223
:1008F000C1F31301002A02DC30BC00207047440F12
:1009000044EAC104C100E01830BC00EBC25000F062
:1009100049B80000002801DBC0F10040002901DBDC
:10092000C1F1004181427047002801DBC0F1004065
:10093000002901DBC1F1004188427047026811447F
:100940001378016018467047D16004495161044929
:10095000116200211161114600F0FAB83D0900084A
:10096000470B0008426842B1016811F8013B23B10E
:10097000521EC0E90012184670470121C160881E4E
:10098000704742685AB1C368016843B983688B42B3
:1009900005D0491E521CC0E90012002070474FF0DC
:1009A000FF3070470029A8BF7047401C490008BFAE
:1009B00020F00100704710B4B0FA80FC00FA0CF08F
:1009C00050EA010404BF10BC704749B1CCF12004C7
:1009D00021FA04F411FA0CF118BF01212143084354
:1009E000A3EB0C01CB1D4FEA00614FEA102042BF80
:1009F000002010BC704700EBC35010440029A4BF76
:100A000010BC7047401C490008BF20F0010010BC1A
:100A1000704710B5141E73F1000408DA401C41F150
:100A2000000192185B411A4301D120F0010010BD72
:100A30002DE9F04D92469B4611B1B1FA81F202E0E8
:100A4000B0FA80F22032904600F05EF804460F467D
:100A500040EA0A0041EA0B0153465A46084313D0C4
:100A6000114653EA010019D0C8F14002504600F087
:100A70005AF805460E4650465946424600F044F89C
:100A8000084305D0012004E020463946BDE8F08D3A
:100A90000020054346EAE0762C4337430A98630575
:100AA000E40AA0EB08000022FD0A44EA47540A3099
:100AB00002D500200146E9E7010510196941DDE989
:100AC000084500196941BDE8F04DA2E70EB540F2B6
:100AD000334202920022CDE900221346FFF7A8FF1D
:100AE00003B000BD064C074D06E0E06840F001038E
:100AF00094E8070098471034AC42F6D3FFF71CFB8C
:100B0000AC340008CC340008202A04DB203A00FA78
:100B100002F1002070479140C2F1200320FA03F354
:100B2000194390407047202A04DB203A21FA02F052
:100B30000021704721FA02F3D040C2F12002914017
:100B4000084319467047C0B24FF4F05100F096B90F
:100B50002DE9F34F8BB04FF0000801F10C000C466B
:100B60004FF0010B46460DF1080A01906269012120
:100B70000198904705002DD0252D2CD0216A88475B
:100B8000C0B16269012101989047216A8847002815
:100B9000F7D1411E62690198904700E0761CA16977
:100BA0000B988847216A88470028F7D1E1690B989C
:100BB0008847DBE7A1690B9888470746A84201D11F
:100BC000761CD3E7E1690B9888477F1C02D1B8F106
:100BD000000F6FD046E1002762693D463946019813
:100BE00090472A2804D16269012101989047012584
:100BF000DFF884926269012101989047A0F13001E9
:100C00000A290AD24F45E5DC07EB870100EB4107D3
:100C1000303FDFD445F01005ECE7E90601D46FF072
:100C200000476C280AD04C2814D0682815D06A28B0
:100C30000DD074281CD07A281AD01DE062690121D9
:100C4000019890476C2802D045F0040514E045F067
:100C500002050DE045F020050AE0626901210198D6
:100C60009047682802D045F0080505E045F4006586
:100C70006269012101989047C4E9015765283DD078
:100C800019DC58287AD00CDC452837D004DC25281C
:100C900026D0412831D131E046282FD047282CD109
:100CA0002CE05B2877D0612828D063287CD064288A
:100CB00023D15AE0D0E06F2848D008DC66281DD048
:100CC00067281BD0692821D06E2816D127E070280C
:100CD00045D0732868D0752847D078280DD14DE0CD
:100CE000A1690B988847054625283FF469AFE1695B
:100CF0000B9888476D1C3FF46AAFB3E023466A4601
:100D00006FF001000B99FFF701FB9EE045F04000FA
:100D10006060A80723464FF0000236D43EE0E807A3
:100D20007FF447AF2068011D21600068290501D5C7
:100D300006701BE7290701D5068017E7A90703D529
:100D4000F117C0E9006111E706600FE745F04000C8
:100D50006060A80723464FF0080216D41EE040F654
:100D60000E0125EA0100606016E045F04000606079
:100D7000A80723464FF00A0207D40FE045F04000D1
:100D80006060A80708D5234610226FF001000B9978
:100D9000AFF3008059E007E0234610226FF0010016
:100DA0000B99AFF3008050E04FF000094F464B46DF
:100DB000632802D05B2806D040E0E80601D4012079
:100DC000A06001273AE062690121019890475E28FE
:100DD00005D14FF0010962694946019890472169A0
:100DE00039B900210A46534643F82120491C0829F5
:100DF000FADBB0B3216969B9C11700EBD1625311B5
:100E00000AEB830122F01F02821A01200B68904036
:100E100003430B6062690121019890475D28E8D186
:100E2000B9F1000F09D00020514651F82020D243DB
:100E300041F82020401C0828F7DB02AB224600972F
:100E40006FF001000B99AFF3008000280CDA401C12
:100E500008D1BBF1000F05D04FF0FF300DB0BDE859
:100E6000F08FFFE74046F9E7E90701D108F10108F3
:100E700006444FF0000B79E6CCCCCC0C7F2801D98E
:100E8000002208E0064A02EB5002C007127800D1A7
:100E9000120902F00F020120904008407047000044
:100EA0006C34000800BFFEE708B50121102000F0F7
:100EB00007FD10208DF8030003208DF80200ADF827
:100EC000000069461C4800F0EDF90C20ADF8000068
:100ED0006946194800F0E6F91020ADF800006946AF
:100EE000154800F0DFF9C020ADF80000694612484F
:100EF00000F0D8F90121104800F0A8FA02210E48AC
:100F000000F0A4FA04210C4800F0A0FA08210A48D5
:100F100000F09CFA1021084800F098FA20210648B9
:100F200000F094FA4021044800F090FA8021024831
:100F300000F08CFA08BD00000010014000B589B037
:100F4000012140F6410000F0BBFC01212C4800F0DB
:100F500035FA4FF4D440ADF8200018208DF8230066
:100F600003208DF8220008A9264800F09BF940F2E2
:100F7000E730ADF818004720ADF814000020ADF8B8
:100F80001A00ADF8160005A91F4801F03BFB6020D0
:100F9000ADF804000120ADF806000020ADF80A000D
:100FA000ADF80C0001A9184801F09CF901A91648F8
:100FB00001F0EEF901A9144801F04AFA01A912481A
:100FC00001F0A0FA0821104801F0D8F908210E48D4
:100FD00001F030FA08210C4801F08AFA08210A4889
:100FE00001F0CEFA0121084800F0DEFF0121064899
:100FF00000F0E6FF0121044800F0EEFF09B000BD5B
:10100000C000160000180140002C0140704700008D
:1010100000B587B00121022000F032FC0121082038
:1010200000F04EFC0121084600F04AFC01211E4858
:1010300000F0C4F93020ADF8180004208DF81B0032
:1010400006A91A4800F02EF9194800F0D5FF03A8A8
:1010500001F02AFB4EF66020ADF810000020ADF83C
:101060000C00ADF81200ADF80E0003A9104801F015
:10107000C9FA00231A4603210D4801F0B1F8684669
:1010800001F026F90320ADF808006946084801F090
:10109000C9F847F23050064924310880012104483C
:1010A00000F08EFF07B000BD00081A00000C0140E0
:1010B0000004004000B587B00121084600F0E0FBC5
:1010C0000121042000F0FCFB0121082000F0F8FBC6
:1010D0000121084600F0F4FB0121264800F06EF9DA
:1010E0000121254800F06AF94FF40040ADF81800DE
:1010F00004208DF81B0006A9204800F0D3F8082032
:10110000ADF8180006A91E4800F0CCF84FF080405A
:1011100000F072FF03A801F0C7FA4EF66020ADF8A8
:1011200010000020ADF80C00ADF81200ADF80E0074
:1011300003A94FF0804001F065FA00231A4603210D
:101140004FF0804001F04CF8684601F0C1F80320F0
:10115000ADF8080069464FF0804001F063F847F2AF
:1011600030504FF0804188840121880700F028FF2B
:1011700007B000BD00023000000118000008014067
:10118000000C014000B587B00121082000F078FB79
:101190000121042000F094FB0320ADF81800042086
:1011A0008DF81B0006A9194800F07CF8184800F0DB
:1011B00023FF03A801F078FA4EF66020ADF8100086
:1011C0000020ADF80C00ADF81200ADF80E0003A938
:1011D0000F4801F017FA00231A4603210C4800F0CB
:1011E000FFFF684601F074F80320ADF80800694677
:1011F000074801F017F847F23050054924310880BC
:101200000121034800F0DCFE07B000BD00080140EA
:10121000000C004000B587B00121042000F030FB35
:101220000121082000F04CFBC020ADF8180004207C
:101230008DF81B0006A9194800F034F8184800F092
:10124000DBFE03A801F030FA4EF66020ADF8100086
:101250000020ADF80C00ADF81200ADF80E0003A9A7
:101260000F4801F0CFF900231A4603210C4800F083
:10127000B7FF684601F02CF80320ADF80800694676
:10128000074800F0CFFF47F230500549243108806D
:101290000121034800F094FE07B000BD000C01409E
:1012A000000800402DE9F0410246002500260020FC
:1012B00000230024002791F803C00CF00F0591F8DB
:1012C00003C00CF0100CBCF1000F03D091F802C069
:1012D0004CEA050591F800C0BCF1000F31D014684C
:1012E00000202BE04FF0010C0CFA00F3B1F800C025
:1012F0000CEA03069E4220D183004FF00F0C0CFA3B
:1013000003F7BC4305FA03FC4CEA040491F803C05C
:10131000BCF1280F06D14FF0010C0CFA00FCC2F80A
:1013200014C00AE091F803C0BCF1480F05D14FF09A
:10133000010C0CFA00FCC2F810C0401C0828D1D3E4
:101340001460B1F800C0BCF1FF0F34DD5468002018
:101350002EE000F1080C4FF0010808FA0CF3B1F888
:1013600000C00CEA03069E4221D183004FF00F0C0F
:101370000CFA03F7BC4305FA03FC4CEA040491F8A9
:1013800003C0BCF1280F05D100F1080C08FA0CF8D5
:10139000C2F8148091F803C0BCF1480F07D100F1E6
:1013A000080C4FF0010808FA0CF8C2F81080401C35
:1013B0000828CED35460BDE8F0810000F0B50A469D
:1013C000002300240021002500F00046B6F1004F64
:1013D00002D11D4EF16901E01B4E7168C0F3034557
:1013E00083B200F44016B6F5401F08D121F07061B9
:1013F000154E766826F07066134F7E6012E000F49A
:101400008016B6F5801F06D1032606FA05F4A1431F
:1014100041F0706106E0460D360103FA06F6B1436D
:1014200041F0706122B1460D360103FA06F63143F0
:1014300000F00046B6F1004F02D1034EF16101E029
:10144000014E7160F0BD0000000001404161704735
:1014500000BFFEE721B1028842F48062028004E00E
:1014600002884FF6FF331A400280704770B502467B
:101470000024002500230020958A138B1B0445EAD5
:10148000030626F07F4404EA01068E4201D10120C2
:1014900000E0002070BD21B1028842F0010202800C
:1014A00004E002884FF6FE731A400280704721B1B3
:1014B000028842F48072028004E002884FF6FF63E3
:1014C0001A400280704721B1028842F40072028003
:1014D00004E002884FF6FF531A4002807047000074
:1014E0002DE9F04385B004460D460026B146042799
:1014F000DFF8CC80A6884FF6C0700640684600F042
:10150000FFF9DDF808802F48B8FBF0F01FFA80F9EA
:1015100046EA0906A68020884FF6FE710840208022
:1015200000262949286888420CD828684000B8FB62
:10153000F0F087B2042F00DA04273E4309F10100DE
:10154000208427E0E8884BF6FF71884206D128689E
:1015500000EB4000B8FBF0F087B209E0286800EB30
:10156000C00101EB0010B8FBF0F087B247F48047F0
:10157000C7F30B0008B947F0010747F400400643E2
:101580004FF4967009FB00F04FF47A7190FBF1F084
:10159000401C2084A683208840F0010020802688FB
:1015A0004FF6F5300640A88869890843064326802F
:1015B000A88929890843208105B0BDE8F08300008F
:1015C00000127A0040420F00A08601000146088AFE
:1015D000C0B2704712B141F0010102E04FF6FE7354
:1015E0001940018270470182704710B5FFF762FD14
:1015F000FFF70EFDFFF70EFEFFF7C4FD10BD000064
:1016000010B5002003E00121084A1154401C0828AD
:10161000F9DB00F0DFF9DD229821054801F0EEFE4C
:10162000044A9821024801F073FE10BD20000020FA
:10163000005400402800002010B5FFF735FCFFF7EC
:101640007DFC10BD08B54FF07C50044B044A0021CE
:101650000090044800F0E6F808BD00000AD7233CDB
:10166000CDCCCC3D7805002010B5002080F310884B
:1016700000BF4FF4A06000F05BF800F03DFB4FF4BA
:10168000E13001F0C9FC4FF4E13001F01DFD4FF4F1
:10169000E13001F073FD4FF4E13001F005FC4FF44F
:1016A000E13001F05DFCFFF7C7FFFFF79EFFFFF79A
:1016B000A7FFFFF7C7FF10BD00BFFEE770470000A0
:1016C00070B5002100230F22C47804B3154C2468A0
:1016D00004F4E064C4F5E064210AC1F10403CA40E3
:1016E000447804FA03F184781440214309010E4C34
:1016F0000678A155047804F01F050124AC40057854
:101700006D11AD0005F1E025C5F8004109E0047850
:1017100004F01F050124AC40044D0678761145F80D
:10172000264070BD0CED00E000E400E080E100E048
:1017300002490143024A1160704700000000FA05A7
:101740000CED00E02DE9F04104460D4616461F461B
:1017500000212846FFF7DEF802D285F0004000E0C5
:101760002846606000213046FFF7D4F802D286F0A8
:10177000004000E03046A06000213846FFF7CAF87C
:1017800002D287F0004000E03846E060BDE8F0811A
:1017900070B505460C4600212046FFF7BBF802D283
:1017A00084F0004000E02046A86070BD70B505469A
:1017B0000C4600212046FFF7ADF802D284F000402D
:1017C00000E02046686070BD2DE9F84F04460E46E3
:1017D00031462068FEF708FF054629466069FEF796
:1017E000B1FE606128462169FEF7FEFE009025618A
:1017F000E0680099FEF7FEFE81466169A068FEF789
:10180000F9FE824629466068FEF7F4FE834651469B
:10181000FEF798FE80464946FEF794FE0746384696
:10182000BDE8F88F2DE9F0410446884615461E466E
:10183000069FC4F8008000212846FFF76BF802D20B
:1018400085F0004000E02846606000213046FFF748
:1018500061F802D286F0004000E03046A06000212E
:101860003846FFF757F802D287F0004000E03846CC
:10187000E060002020616061BDE8F08170470000F9
:1018800029B1064AD2690243044BDA6104E0034AF3
:10189000D2698243014BDA617047000000100240B8
:1018A00029B1064A12690243044B1A6104E0034A53
:1018B00012698243014B1A61704700000010024018
:1018C00029B1064A92690243044B9A6104E0034A33
:1018D00092698243014B9A617047000000100240F8
:1018E00029B1064AD2680243044BDA6004E0034A95
:1018F000D2688243014BDA6070470000001002405A
:1019000030B500210022002400232D4D6D6805F024
:101910000C0121B1042905D0082923D105E0294D66
:10192000056022E0274D05601FE0254D6D6805F438
:101930007012234D6D6805F48034022505EB924248
:101940001CB9214D554305600BE01D4D6D6805F434
:1019500000351DB11C4D5543056002E0194D55433E
:10196000056002E0174D056000BF00BF144D6D68B3
:1019700005F0F0010909154D6B5C0568DD40456017
:101980000F4D6D6805F4E061090A104D6B5C456808
:10199000DD4085600A4D6D6805F46051C90A0B4D44
:1019A0006B5C4568DD40C560054D6D6805F44041E0
:1019B000890B074D6B5CC568B5FBF3F5056130BD60
:1019C0000010024000127A0000093D0000000020D3
:1019D0001000002000B585B001214805FFF750FF39
:1019E00001210920FFF76CFF01210220FFF7E6FC2F
:1019F0001C208DF813004FF44070ADF81000032048
:101A00008DF8120004A91048FFF74CFC0020ADF837
:101A100004000E4800904FF48040ADF80C00001117
:101A2000ADF80A004BF6FF70ADF806000020ADF8E7
:101A3000080069460648FFF753FD01210448FFF7F7
:101A40002AFD05B000BD0000000C0140A086010089
:101A5000005400407047000030B591B004460D4678
:101A60001FA003C8CDE90F011FA103C9CDE90D01D6
:101A70001FA103C9CDE90B011FA103C9CDE90901CC
:101A8000002D2AD120221EA101A8FEF76DFB2449BA
:101A900060680860A0684860E068886006220FA956
:101AA000204801F0B5FC1C2201A91E4801F0B0FC41
:101AB00006220DA91B4801F0ABFC06220BA9194810
:101AC00001F0A6FC14221649164801F0A1FC0622DA
:101AD00009A9144801F09CFC00BF11B030BD000002
:101AE00041414242434300004343424241410000DE
:101AF00044444545464600004646454544440000AA
:101B0000502C492C442C5049445F4572726F722C02
:101B100050756C73655F4F666673657400000000F6
:101B2000900500200050004010B500F001F810BDF5
:101B30000CB50020019000903348006840F48030DC
:101B40003149086000BF3048006800F40030009060
:101B50000198401C0190009818B90198B0F5A06F49
:101B6000F1D12948006800F4003010B10120009044
:101B700001E0002000900098012843D1234800682C
:101B800040F01000214908600846006820F003007A
:101B900008600846006840F0020008601A48406883
:101BA000194948600846406848600846406840F463
:101BB000806048600846406820F47C104860084611
:101BC000406840F4E81048600846006840F08070C3
:101BD000086000BF0C48006800F000700028F9D0D1
:101BE0000948406820F003000749486008464068FB
:101BF00040F00200486000BF0348406800F00C005D
:101C00000828F9D10CBD000000100240002002405D
:101C100010B504462146024800F0BFFC10BD00008C
:101C2000002C014010B504462146024800F0B7FCE4
:101C300010BD0000002C014010B5044621460248AA
:101C400000F0AFFC10BD0000002C014010B50446B0
:101C50002146024800F0A7FC10BD0000002C014006
:101C6000014AD0601161704790050020002000BF3C
:101C70000CE0084951F8201031B1064951F8201004
:101C8000491E044A42F82010411CC8B21228F0DB59
:101C9000704700003000002010B51348006840F085
:101CA00001001149086008464068104908400E4983
:101CB0004860084600680E4908400B49086008461D
:101CC000006820F4802008600846406820F4FE0088
:101CD00048604FF41F008860FFF726FF4FF0006058
:101CE0000449086010BD0000001002400000FFF829
:101CF000FFFFF6FE08ED00E070B5002100BF05E033
:101D00000020154A42F82100481CC1B21229F7DB15
:101D1000124AB2F1807F00D31DE022F07F40401EC6
:101D20004FF0E023586158170F23002807DA1C07EB
:101D3000260E0B4C00F00F052D1F665503E01C0707
:101D4000250E084C255400BF00204FF0E023986179
:101D50000720186100BF70BD30000020401901004D
:101D600018ED00E000E400E0F0B50C461546002256
:101D70000021068C4FF6FE773E400684028B018CD4
:101D80004FF60C7632407E1C06EA03162E43324391
:101D9000104EB0420ED0104EB0420BD0B0F1804F7A
:101DA00008D00E4EB04205D00D4EB04202D00D4EBE
:101DB000B04206D14FF6FD76314044F00106314382
:101DC00005E04FF6F576314044F0010631430283D9
:101DD0000184F0BD002C01400034014000040040AB
:101DE00000080040000C0040F0B50C4615460022EB
:101DF00000210026078C4FF6EF7C07EA0C070784CA
:101E0000028B018C4FF6FF7707EA041640F6FF4776
:101E10003A404FF6FF7707EA03373A434FF6FF772A
:101E200007EA05273A43114FB8420ED0104FB84287
:101E30000BD0B0F1804F08D00E4FB84205D00E4FF6
:101E4000B84202D00D4FB84206D14FF6DF77394085
:101E500046F01007394305E04FF65F77394044F00C
:101E60001007394302830184F0BD0000002C0140BB
:101E7000003401400004004000080040000C004015
:101E8000F0B50C461546002200210026078C4FF6BF
:101E9000FF6C07EA0C070784828B018C4FF6FF77F3
:101EA00007EA04264FF60C773A404FF6FF7707EA29
:101EB00003172F433A43114FB8420ED0104FB84288
:101EC0000BD0B0F1804F08D00E4FB84205D00E4F66
:101ED000B84202D00D4FB84206D14FF6FF573940F5
:101EE00046F48077394305E04FF2FF57394044F418
:101EF0008077394382830184F0BD0000002C0140CB
:101F0000003401400004004000080040000C004084
:101F1000F0B50C461546002200210026078C4EF62F
:101F2000FF7C07EA0C070784828B018C4FF6FF7752
:101F300007EA043640F6FF473A404FF6FF7707EAD4
:101F400005273A434FF6FF7707EA03373A43114F25
:101F5000B8420ED0104FB8420BD0B0F1804F08D02D
:101F60000E4FB84205D00E4FB84202D00D4FB842C6
:101F700006D14DF6FF77394046F48057394305E0E6
:101F800047F6FF57394044F4805739438283018430
:101F9000F0BD0000002C014000340140000400406E
:101FA00000080040000C004021B1028842F080028D
:101FB000028004E002884FF67F731A400280704767
:101FC00021B1028842F00102028004E002884FF64B
:101FD000FE731A400280704731B1B0F8442042F4D9
:101FE0000042A0F8442005E0B0F84420C2F30E02FD
:101FF000A0F844207047000010B5044668488442A9
:1020000008D10121C014FFF76BFC0021E014FFF799
:1020100067FCC4E0B4F1804F08D101210846FFF706
:102020003FFC00210120FFF73BFCB8E05D48844203
:1020300008D101210220FFF733FC00210220FFF725
:102040002FFCACE05848844208D101210420FFF75E
:1020500027FC00210420FFF723FCA0E05348844222
:1020600008D101210820FFF71BFC00210820FFF701
:1020700017FC94E04E48844208D101211020FFF75C
:102080000FFC00211020FFF70BFC88E04948844238
:1020900008D101212020FFF703FC00212020FFF7B9
:1020A000FFFB7CE04448844208D101214014FFF743
:1020B00017FC00216014FFF713FC70E03F488442D6
:1020C00009D10121C804FFF70BFC00214FF40020C7
:1020D000FFF706FC63E03A48844209D10121080574
:1020E000FFF7FEFB00214FF48010FFF7F9FB56E0ED
:1020F0003448844209D101214805FFF7F1FB002152
:102100004FF40010FFF7ECFB49E02F48844208D160
:1021100001214020FFF7C4FB00214020FFF7C0FB56
:102120003DE02A48844208D101218020FFF7B8FB16
:1021300000218020FFF7B4FB31E02548844208D11C
:1021400001218015FFF7ACFB0021A015FFF7A8FBCC
:1021500025E02048844209D101210804FFF7C0FB93
:1021600000214FF48030FFF7BBFB18E01A4884428F
:1021700009D101214804FFF7B3FB00214FF40030DF
:10218000FFF7AEFB0BE01548844208D1012188041B
:10219000FFF7A6FB00214FF48020FFF7A1FB10BD45
:1021A000002C01400004004000080040000C0040EA
:1021B000001000400014004000340140004C014079
:1021C000005001400054014000180040001C004035
:1021D0000020004000400140004401400048014010
:1021E000F0B50C4615461E46002100220023018949
:1021F000028B038C4FF6F877394021434FF6FC47AA
:102200003A4040F201173A434FF6DD773B404FF634
:10221000FF7707EA06172F433B43018102830384BC
:10222000F0BD000070B505460C46244885420ED02E
:10223000234885420BD0B5F1804F08D02148854214
:1022400005D02148854202D02048854200D100E0D7
:1022500000BF208850B92389A28861882846FFF7EB
:1022600083FDE188284600F0A1F925E020880428B4
:102270000AD12389A28861882846FFF7B5FDE18845
:10228000284600F09CF917E0208808280AD1238905
:10229000A28861882846FFF7F3FDE188284600F010
:1022A0009BF909E02389A28861882846FFF730FE60
:1022B000E188284600F099F970BD0000002C01402B
:1022C000003401400004004000080040000C0040C1
:1022D000002101804180012181800021C180018194
:1022E0007047000070B5002400220023058C4FF6D3
:1022F000FE7635400584028C8388048B4FF68F75FB
:102300002C40B51E2C400D882C43751E2A400D898B
:102310002A434D882A43144DA8420BD0134DA8429E
:1023200008D0134DA84205D0124DA84202D0124D3C
:10233000A84213D14FF6F7752A404D892A434FF62C
:10234000FB752A408D882A434FF6FF652B404FF6D8
:10235000FF552B408D892B43CD892B4383800483EC
:10236000CD888586028470BD002C01400034014078
:102370000040014000440140004801400A4600215D
:10238000018B4FF6F773194011430183704700002A
:1023900070B5002400220023058C4FF6EF763540FF
:1023A0000584028C8388048B48F6FF752C404FF619
:1023B000FF452C400D884FF6FF7606EA05252C4395
:1023C0004FF6DF752A400D8906EA05152A434D8828
:1023D00006EA05152A43154DA84202D0144DA8421D
:1023E0001DD14FF67F752A404D894FF6FF7606EADC
:1023F00005152A434FF6BF752A408D8806EA051554
:102400002A434FF6FF352B404FF2FF752B408D8945
:1024100006EA85052B43CD8906EA85052B43838093
:102420000483CD880587028470BD0000002C014024
:10243000003401400A460021018B4FF2FF7319401E
:102440004FF6FF7303EA022319430183704700002C
:1024500070B5002400220023058C4FF6FF6635403E
:102460000584028C8388848B4FF68F752C404FF641
:10247000FC752C400D882C434FF6FF552A400D89E2
:102480004FF6FF7606EA05252A434D8806EA05251C
:102490002A43154DA84202D0144DA8421DD14FF237
:1024A000FF752A404D894FF6FF7606EA05252A4337
:1024B0004FF6FF352A408D8806EA05252A434EF659
:1024C000FF752B404DF6FF752B408D8906EA0515EB
:1024D0002B43CD8906EA05152B4383808483CD8861
:1024E0008587028470BD0000002C0140003401404B
:1024F0000A460021818B4FF6F773194011438183FF
:102500007047000070B5002200230024058C4EF6B1
:10251000FF7635400584038C8488828B48F6FF75EE
:102520002A404FF6FF452A400D884FF6FF7606EA0F
:1025300005252A434DF6FF752B400D8906EA053522
:102540002B434D8806EA05352B430B4DA84202D09C
:102550000A4DA84208D14BF6FF752C408D894FF6E5
:10256000FF7606EA85152C4384808283CD88A0F807
:102570004050038470BD0000002C01400034014035
:102580000A460021818B4FF2FF7319404FF6FF730B
:1025900003EA0223194381837047818670470187CC
:1025A000704781877047A0F840107047028B4FF644
:1025B000F3731A400283028B0A4302837047028B33
:1025C0004FF2FF331A400283028B4FF6FF7303EA88
:1025D00001231A4302837047828B4FF6F3731A402C
:1025E0008283828B0A4382837047828B4FF2FF3350
:1025F0001A408283828B4FF6FF7303EA01231A434A
:1026000082837047002202881D4B98420ED01D4BDA
:1026100098420BD0B0F1804F08D01B4B984205D0A8
:102620001A4B984202D01A4B984204D14FF68F733E
:102630001A404B881A43174B984207D0164B9842C2
:1026400004D04FF6FF431A40CB881A4302808B8890
:1026500083850B8803850A4B98420BD0094B98421F
:1026600008D00E4B984205D00D4B984202D00D4B2E
:10267000984201D10B7A03860123838270470000C0
:10268000002C0140003401400004004000080040DC
:10269000000C0040001000400014004000400140C9
:1026A00000440140004801404FF6FF718180002145
:1026B0000180C180418001727047000010B506485A
:1026C000C06A00B110BD054800680349C86200F047
:1026D0003DF800BFF6E70000300000203C34000861
:1026E0000448006B00B17047034840680149086323
:1026F00000BFF8E7300000203C3400080448406B7D
:1027000000B17047034840680149486300BFF8E7DB
:10271000300000203C34000810B50A48806B00B13E
:1027200010BD094840680749886300F0A7F900F028
:10273000F1F900F03BFA00F09BF800F035F900BF2A
:10274000EEE70000300000203C3400082DE9F04F97
:102750008BB0314F4FF000082022304903A8FDF71D
:1027600003FD00F03FFB8146002600250EE019F82E
:10277000050050B903A951F82500FEF78CF8414631
:102780000190FDF7DFFE8046761C6D1C082DEEDB08
:10279000002E09DD3046FEF77EF805462946404604
:1027A000FDF75AFF804600E0B84641463846FDF73F
:1027B0001BFF824651461A48FFF706F883465846E3
:1027C00000F042FB0290584600F03EFBA0F5FA7480
:1027D00004F5FA7188B2FFF71BFA04F5FA7188B2B2
:1027E000FFF720FAC4F5FA7188B2FFF725FAC4F5AD
:1027F000FA7188B2FFF72AFA2046FEF74CF8054630
:1028000029465046FFF72CFA00210548FFF724F926
:102810000BB0BDE8F08F0000000060404C340008B1
:102820007805002010B540F225510D4800F014FA4B
:1028300001280ED10A200B490861094800F0C8FAA6
:10284000C4B2094801880088401C074A1080074824
:10285000445440F22551024800F0D6F910BD000062
:10286000004C0040300000201A00002078030020B7
:1028700010B50E48006908B1002010BD0C48008852
:1028800008B90020F9E700200A49094A128888544B
:10289000084600F011F84FF480710648FDF77DFC02
:1028A0000020034908800120E7E7000030000020F5
:1028B0001A0000207803002038B5044617A12046EE
:1028C000FDF776FC48B16A4616A12046FDF782FC6A
:1028D00017480099FEF76AFF38BD16A12046FDF79C
:1028E00067FC48B16A4615A12046FDF773FC104805
:1028F0000099FEF74DFFEFE713A12046FDF758FCC6
:1029000048B16A4612A12046FDF764FC08480099C8
:10291000FEF74CFFE0E700BFDEE700002A50494425
:102920005F502C002A5049445F502C25660000005F
:10293000780500202A5049445F492C002A50494418
:102940005F492C25660000002A5049445F442C0052
:102950002A5049445F442C256600000010B540F21F
:1029600025510D4800F078F901280ED10A200B49B5
:102970004861094800F02CFAC4B20948018800886F
:10298000401C074A10800748445440F22551024831
:1029900000F03AF910BD0000005000403000002067
:1029A0001C0000207804002010B50E48406908B1D2
:1029B000002010BD0C48008808B90020F9E700206D
:1029C0000A49094A12888854084600F011F84FF461
:1029D00080710648FDF7E1FB0020034908800120D3
:1029E000E7E70000300000201C00002078040020F1
:1029F0001FB50446002003900290019001A802AB8D
:102A000003AA06A100902046FDF7E4FB0748DDE994
:102A100001320399FEF796FE1FBD00002350494482
:102A20002325662C25662C256623000078050020CA
:102A300010B540F225510D4800F00EF9012813D1D0
:102A40000A200B494860094800F0C2F9C4B209489D
:102A500001880088401C074A10800748445440F20F
:102A60002551024800F0D0F810BD000000380140A8
:102A700030000020140000207800002010B50E481F
:102A8000406808B1002010BD0C48008808B900203B
:102A9000F9E700200A49094A12888854084600F0DC
:102AA00011F84FF480710648FDF777FB00200349C9
:102AB00008800120E7E7000030000020140000201B
:102AC000780000207047000010B540F225510D48F5
:102AD00000F0C2F8012813D10A200B498860094888
:102AE00000F076F9C4B2094801880088401C074A02
:102AF00010800748445440F22551024800F084F801
:102B000010BD0000004400403000002016000020EE
:102B10007801002010B50E48806808B1002010BD73
:102B20000C48008808B90020F9E700200A49094A42
:102B300012888854084600F011F84FF48071064856
:102B4000FDF72BFB0020034908800120E7E7000088
:102B5000300000201600002078010020704700009F
:102B600010B540F225510D4800F076F8012813D138
:102B70000A200B49C860094800F02AF9C4B2094884
:102B800001880088401C074A10800748445440F2DE
:102B90002551024800F038F810BD00000048004000
:102BA00030000020180000207802002010B50E48E8
:102BB000C06808B1002010BD0C48008808B900208A
:102BC000F9E700200A49094A12888854084600F0AB
:102BD00011F84FF480710648FDF7DFFA0020034931
:102BE00008800120E7E700003000002018000020E6
:102BF00078020020704701F40072B2F5007F00D126
:102C000000BFCA430280704710B50022002340F67F
:102C10006A14A14200D100BF0A1201249440A3B259
:102C2000DC43048010BD21B1828942F400528281CC
:102C300004E082894DF6FF731A4082817047024694
:102C40000020B1F5007F00D100BF13880B400BB10D
:102C5000012000E00020704770B5024600240023E8
:102C60000025002040F66A16B14200D100BFC1F332
:102C7000421501F01F03012606FA03F3012D02D1CC
:102C80009689334006E0022D02D1168A334001E0D6
:102C9000968A33400C12012606FA04F41688344052
:102CA00013B10CB1012000E0002070BDF0B5034667
:102CB000002400260025002040F66A17B94200D102
:102CC00000BF1846C1F3421401F01F06012707FA9E
:102CD00006F5012C01D10C3004E0022C01D110309A
:102CE00000E014301AB107682F43076002E007685C
:102CF000AF430760F0BD00002DE9F04786B0054600
:102D00000E460024A24600BFA1460027B08900B1AC
:102D100000BF2F462C8A4CF6FF700440F088044315
:102D20002C82AC894EF6F3100440B08831890843F8
:102D3000718908430443AC81AC8A4FF6FF400440DC
:102D4000B0890443AC8201A8FEF7DAFD1F48874230
:102D500002D1DDF810A001E0DDF80CA0A88900F494
:102D6000004040B10AEBCA0000EB0A10316849008C
:102D7000B0FBF1F807E00AEBCA0000EB0A1031687B
:102D80008900B0FBF1F86420B8FBF0F004012009E1
:102D9000642101FB1089A88900F4004040B1322071
:102DA00000EBC900B0FBF1F000F00700044308E0BD
:102DB000322000EB09106421B0FBF1F000F00F00AD
:102DC00004432C8106B0BDE8F087000000380140C4
:102DD00001468888C0F308007047C1F3080282806A
:102DE0007047000010B5094A9821094800F090FA90
:102DF000002007E005490978014101F00101054A79
:102E00001154401C0828F5DB024810BD28000020A2
:102E1000005400402000002000BFFEE702E008C888
:102E2000121F08C1002AFAD170477047002001E044
:102E300001C1121F002AFBD1704730380A2801D285
:102E400001207047002070472DE9F04106461249E5
:102E50003046FDF75FFD00D20F4E10493046FDF7BA
:102E600063FD00D20D4E0C493046FDF7BDFB074611
:102E70000B49FDF7F1FB04460A492046FDF7BAFB72
:102E800080460021FDF75EFB0746FDF70DFD054678
:102E90002846BDE8F08100000000C8C20000C8421A
:102EA0000000484300C0794410B588B004460121B1
:102EB0001020FEF705FD0121C804FEF7E1FC4FF4E8
:102EC0008060ADF81C0003208DF81E0018208DF8DE
:102ED0001F0007A92048FEF7E5F94FF40060ADF8A0
:102EE000180003208DF81A0048208DF81B0006A951
:102EF0001948FEF7D7F902940020ADF814000C2011
:102F0000ADF812000020ADF81000ADF80E00ADF8DD
:102F10000C0002A91148FFF7EFFE34208DF80400E1
:102F200001208DF807008DF8050002208DF80600BD
:102F300001A8FEF7C5FB012240F225510748FFF723
:102F4000B5FE01210548FFF76EFE40210348FFF75B
:102F500052FE08B010BD000000100140004C0040BF
:102F600010B588B0044601213020FEF7A9FC0121EC
:102F70000805FEF785FC4FF48050ADF81C000320D7
:102F80008DF81E0018208DF81F0007A91F48FEF7B6
:102F900089F90420ADF8180003208DF81A004820A4
:102FA0008DF81B0006A91A48FEF77CF90294002050
:102FB000ADF814000C20ADF812000020ADF81000A0
:102FC000ADF80E00ADF80C0002A91248FFF794FE10
:102FD00035208DF8040001208DF807008DF80500DC
:102FE00002208DF8060001A8FEF76AFB012240F2DC
:102FF00025510848FFF75AFE01210648FFF713FE46
:1030000040210448FFF7F7FD08B010BD0010014053
:10301000001401400050004010B588B00446012162
:1030200044F20400FEF74CFC18208DF81F004FF40A
:103030000070ADF81C0003208DF81E0007A9204881
:10304000FEF730F948208DF81B004FF48060ADF892
:10305000180003208DF81A0006A91948FEF722F976
:1030600002940020ADF80C00ADF80E00ADF8100091
:103070000C20ADF812000020ADF8140002A9114890
:10308000FFF73AFE25208DF8040001208DF8070097
:103090008DF8050002208DF8060001A8FEF710FB50
:1030A000012240F225510748FFF700FE01210548A3
:1030B000FFF7B9FD40210348FFF79DFD08B010BDA3
:1030C000000801400038014010B588B004460121D5
:1030D0000420FEF7F5FB01214804FEF7D1FB042094
:1030E000ADF81C0003208DF81E0018208DF81F007D
:1030F00007A92048FEF7D6F80820ADF818000320ED
:103100008DF81A0048208DF81B0006A91948FEF713
:10311000C9F802940020ADF814000C20ADF812009C
:103120000020ADF81000ADF80E00ADF80C0002A9BB
:103130001148FFF7E1FD26208DF8040001208DF8ED
:1031400007008DF8050002208DF8060001A8FEF7A3
:10315000B7FA012240F225510748FFF7A7FD0121E8
:103160000548FFF760FD40210348FFF744FD08B024
:1031700010BD0000000801400044004010B588B0B8
:10318000044601210820FEF79BFB01218804FEF77D
:1031900077FB4FF48060ADF81C0003208DF81E0013
:1031A00018208DF81F0007A92048FEF77BF84FF480
:1031B0000060ADF8180003208DF81A0048208DF843
:1031C0001B0006A91948FEF76DF802940020ADF81F
:1031D00014000C20ADF812000020ADF81000ADF87E
:1031E0000E00ADF80C0002A91148FFF785FD27205D
:1031F0008DF8040001208DF807008DF805000220ED
:103200008DF8060001A8FEF75BFA012240F2255175
:103210000748FFF74BFD01210548FFF704FD40215A
:103220000348FFF7E8FC08B010BD0000000C0140A7
:1032300000480040FEF718FA07E0FFF73FFAFFF7F3
:103240004FFAFFF75BFAFFF767FAF6E72DE9F04769
:103250008046894614461F4601214046FEF727F95D
:1032600029482A490268404600F05DF80546012DCC
:1032700002D00120BDE8F087012249464046FEF712
:10328000A9F921482149491C0268404600F04BF841
:103290000546012D01D00220ECE7002611E01A4876
:1032A0001A493F310268404600F03DF80546012DBD
:1032B00001D00320DEE74046FEF788F904F8010B51
:1032C000761C781EB042EADC00214046FEF7C2F8C8
:1032D00001214046FEF7F7F80B480C493F310268E0
:1032E000404600F020F80546012D01D00320C1E73B
:1032F0004046FEF76BF904F8010B01214046FEF74A
:10330000A9F80020B6E700002C000020010003000F
:1033100070B504460D46164601233246294620461E
:10332000FFF794FF70BDF8B505460E4614460094AD
:1033300009E031462846FEF799F8012800D1F8BD8A
:103340000098401E009000980028F2D100BFF6E7D8
:103350002DE9F0478046894614461F460121404624
:10336000FEF7A5F82248234902684046FFF7DBFF35
:10337000054615B90120BDE8F087002249464046C0
:10338000FEF728F91A481C4902684046FFF7CBFFB0
:1033900005460DB90220EEE7002610E014F8011BE7
:1033A0004046FEF720F912481349891E026840463C
:1033B000FFF7B9FF05460DB90320DCE7761C781E40
:1033C000B042EBDC14F8011B4046FEF70CF908484C
:1033D0000949891C02684046FFF7A5FF05460DB95B
:1033E0000420C8E701214046FEF76DF80020C2E73F
:1033F0002C000020010003008200070037B50446BE
:103400000D46012302AA29462046FFF7A1FF3EBD33
:1034100070B506460C4615460BE000BF402130460D
:10342000FFF70DFC0028F9D021783046FFF7D5FCD6
:10343000641C2800A5F10105EFD170BD000000005B
:10344000C8000000C80000000000000000000000EC
:103450000100000002000000030000000400000062
:10346000050000000600000007000000DDDDDDDDD6
:10347000DCBBBBDDDDDDDDDDDDDDDDDD9888888805
:1034800088888888777777777788888885555556AC
:103490006666666666666666666888888333333203
:1034A00022222222222222222228888DCC340008A5
:1034B00000000020300000001C2E0008FC34000832
:1034C00030000020782500002C2E000800000000AD
:1034D00001020304010203040607080902040608A6
:1034E00000000000000000000000000000000000DC
:0C34F0000000000000000000E8030000E5
:0400000508000131BD
:00000001FF
