:020000040800F2
:100000001024002049010008C12B0008C119000874
:10001000852B000831130008E33D000800000000B4
:100020000000000000000000000000002134000873
:100030006115000800000000252F0008A135000808
:1000400063010008630100086301000845330008EC
:1000500063010008630100086301000863010008F0
:100060006301000885150008A11500086301000858
:1000700063010008630100086301000863010008D0
:1000800063010008630100086301000863010008C0
:10009000630100086301000863010008D11500082E
:1000A00063010008630100086301000863010008A0
:1000B0006301000863010008630100086301000890
:1000C0006301000863010008630100086301000880
:1000D00063010008B53A0008653B000863010008A9
:1000E0006301000863010008630100086301000860
:1000F0006301000863010008630100086301000850
:10010000630100086301000863010008630100083F
:10011000630100086301000863010008630100082F
:10012000630100086301000863010008630100081F
:10013000DFF810D000F000FF00480047E94F00084A
:10014000AFF300801024002006488047064800478F
:10015000FEE7FEE7FEE7FEE7FEE7FEE7FEE7FEE777
:10016000FEE7FEE7C935000831010008A0F14101B2
:10017000192900D82030704740EA01039B0703D0BB
:1001800009E008C9121F08C0042AFAD203E011F8D6
:10019000013B00F8013B521EF9D27047D2B201E098
:1001A00000F8012B491EFBD270470022F6E710B57C
:1001B00013460A4604461946FFF7F0FF204610BDD5
:1001C00030B505462A460B4612F8010B13F8014BD1
:1001D00008B1A042F8D01CB1002802D06D1CF1E794
:1001E000284630BD421C10F8011B0029FBD1801AA3
:1001F000704710B5002200E0521C835C8C5CA34267
:1002000001D1002BF8D1D8B2E1B2401A10BD03469B
:1002100011F8012B00F8012B002AF9D1184670477C
:1002200030B505460020034600E05B1C934205D232
:10023000EC5CC85C201A01D1002CF6D130BD000066
:100240000FB400B58DB010A909900B9000914FF03C
:10025000FF300A9000200C90054806900548079052
:100260006A4609A80F9900F0DFFC0DB05DF814FB99
:10027000450C0008630C00082DE9FF5F1D464FF098
:10028000FF3BD5E9014691465F464FF00008A9695A
:100290007F1C01988847296A824688470028F6D142
:1002A000BAF1FF3F0CD024F4C064002E19DD6006C3
:1002B00014D5BAF12B0F09D0BAF12D0F0ED103E0EE
:1002C000584604B0BDE8F09F44F48064A9697F1CDF
:1002D00001988847761E8246002E02DDBAF1300F63
:1002E00003D0B9F1000F26D032E0A969761E44F49C
:1002F00000747F1C019888478246002E05DDBAF104
:10030000780F06D0BAF1580F03D0B9F1000F10D012
:100310001EE0B9F1000F02D0B9F1100F18D1A96990
:10032000761E24F400747F1C0198884782461020B2
:1003300002E0082000E00A20814609E008FB0908E5
:10034000A969761E44F400747F1C01988847824690
:10035000002E05DD4946504600F052FC0028EDDA3B
:10036000E96901988847A00502D46FF00100A8E769
:10037000E00725D1600613D5600502D5C8F100005D
:1003800000E0404629680A1D2A600968220501D557
:10039000087015E0220701D5088011E008600FE021
:1003A0002868011D29600068210502D580F80080B9
:1003B00006E0210702D5A0F8008001E0C0F8008027
:1003C00038467EE72DE9FF5FD2E901A74FF000082C
:1003D000916999461446DDF838B046460198884739
:1003E000054659EA0B0005D009E0A169761C019881
:1003F00088470546216A284688470028F5D1681CA9
:1004000003D05FEACA7005D015E04FF0FF3004B0AA
:10041000BDE8F09F2068011D2160D0F800800AE04F
:100420005FEACA7001D108F8015BA169761C7F1EE2
:10043000019888470546002F1ADD681C18D0B9F1CD
:10044000000F0DD0E81705EBD060421120F01F001F
:1004500059F822102A1A012090400142E0D107E009
:10046000BBF1000FDCD1216A284688470028D7D08D
:10047000E16901988847BBF1000F07D1002E05DD27
:100480005FEACA7002D1002188F80010A068B84263
:1004900003DDBBF1000F03D017B16FF00100B6E729
:1004A0003046B4E72DE9FF4F087883B09946FF281E
:1004B00005D0491C2D2804D00024002008E000208D
:1004C0000BE00124F9E700EB800003EB4000491C3E
:1004D0000B78FF2BF7D104B140420023029314782C
:1004E00019461D462D2C01D02B2C04D1521C2D2C2D
:1004F00013D000240294AA461478FF2C0FD00A25AA
:10050000A3FB057801FB05814FF0000C03FB0C11E8
:10051000521CE3194AEB0101EEE70124EAE78144AA
:1005200053EA010002D019F5C87F06DA03980021CA
:10053000C0E9001107B0BDE8F08F0025AE4E2F4690
:10054000DFF8B882184600F0B7FCCDE90001B9F138
:10055000000002DAC9F1000400E004460023A74AC3
:100560001AEB030B42EB045A12E0E00707D02A46CD
:1005700033463846414600F0ECF9074688462A469D
:1005800033461046194600F0E4F905460E4664105D
:10059000002CEAD1DDE90001B9F1000F5A465346BB
:1005A00006DA00F01AFC3A46434600F016FC05E075
:1005B00000F0CFF93A46434600F0CBF9029A0AB16F
:1005C00081F00041039AC2E90001B3E72DE9FF4F32
:1005D0001F468DB0D7E901464FF0FF382E20454623
:1005E0004FF000090B90B9696D1C0E988847396A65
:1005F000824688470028F6D1BAF1FF3F0AD024F49A
:10060000D064002E11DDBAF12B0F08D0BAF12D0FF6
:100610000BD102E0404611B08DE744F48064B96923
:100620006D1C0E9888478246761E6946600501D586
:100630002D2000E02B208DF8000001F1010B0DF1C1
:10064000200809E0B9696D1C0E98884782460F980A
:1006500044F40074761E0560002E02DDBAF1300FFE
:10066000F0D00B998A453ED144F0800406E00F9902
:10067000681CA9F1010944F400740860B9696D1C93
:10068000761E0E98884782463028F0D02BE00B99D2
:100690008A4505D1200603D444F08004761E18E074
:1006A000504603F007FD08B30DF11301761E44F424
:1006B00000748B4508D2AAF130000BF8010B20061C
:1006C00007D5A9F1010003E0200602D409F10100D9
:1006D0008146A00502D50F99681C0860B9696D1C98
:1006E0000E9888478246002ED1DC53E0002E51DD63
:1006F000BAF1650F02D0BAF1450F4BD1A00549D52B
:10070000B9696D1C24F44074761E0E9888478246A1
:10071000002E0CDD2B2804D0BAF12D0F07D144F4A4
:100720008074B9696D1C0E9888478246761EE00574
:1007300001D52D2100E02B2108F8011BCDF82C80DC
:1007400021E00DF12901761E44F4007488450CD295
:10075000AAF1300010F0FF0088F8000002D10B99D8
:10076000884509D908F1010806E0E00501D52448CB
:1007700001E042F20F708146B9696D1C0E988847FE
:1007800082460F980560002E04DD504603F092FC6F
:100790000028D6D1F9690E988847FF208BF8000011
:1007A00088F800000020069007904B466A4608A98A
:1007B00006A8FFF777FEA00502D46FF001002AE734
:1007C00014F0240F0AD0E00714D1DDE906123868CE
:1007D000031D3B600068C0E900120BE0DDE9060183
:1007E00000F08EFB0146E00704D13868021D3A6034
:1007F0000068016028460EE7000014400000F03F4A
:10080000F1D8FFFF2DE9FE4F804681EA0300C00FBB
:100810000C46009021F0004123F00045B8EB0200A7
:10082000A94105D24046214690461C460B46024649
:1008300023F00040104347D0270DC7F30A00C3F34D
:100840000A510290401A019040286BDAC3F313005A
:1008500040F4801B0098924620B10023D2EB030A9B
:1008600063EB0B0B01985946C0F14002504600F073
:1008700096F906460D4650465946019A00F0AEF9E3
:1008800010EB08006141002487EA115284EAE77303
:100890001A4340D0009A62B3019A012A4FEA0752E4
:1008A00015DC001B61EB02014FF0004202EA075227
:1008B000CDE90042001C41F5801132462B4600F084
:1008C0003EFA03B0BDE8F08F40462146F9E7001B31
:1008D00061EB0201001C41F5801300185B412018F8
:1008E000A2F5001747EB030140EAD570B6196D4138
:1008F00011E06D084FEA360645EAC0754FEA075227
:10090000001B61EB0201001C41F5801149084FEA10
:1009100030000019514132462B4603B0BDE8F04F7C
:1009200000F0FEB90098012240000023D0EB020243
:1009300063EBE073009821464FEAE074B8EB0000E7
:1009400061EB0401E9E783F000435BE781F00041DC
:1009500058E72DE9FE4F81EA030404F0004421F03A
:10096000004100944FF0000B23F0004350EA0104D3
:100970005ED052EA03045BD0C3F30A54C1F30A55B4
:100980002C44A4F2F3340194A0FB0254C1F31301EC
:1009900041F48011C3F3130343F4801301FB0244B9
:1009A00000FB034E840A970A44EA815447EA8357BE
:1009B000A4FB076802958D0A05FB07854FEA932C77
:1009C00004FB0C542705029D4FEA065847EA1637E8
:1009D000B5EB08056EEB070C870E920E47EA811700
:1009E00042EA8312A7FB0201B6EB0B0164EB0004A1
:1009F0002B0D43EA0C335E1844EB1C50DA4651468B
:100A0000E7FB0201C5F313044FEA0B3343EA145327
:100A10004FEA0432019C43EA0603A4F10C04029459
:100A2000009CCDE900B400F08AF903B0BDE8F08F76
:100A300000200146F9E70EB5C10F80EAE0700844D6
:100A4000CA07002140F233438DE80E000A460B46E8
:100A500000F075F903B000BD0EB540F233410291CC
:100A60000021CDE900110A460B4600F068F903B0F9
:100A700000BD70B5C1F30A5201F000450024C1F376
:100A8000130140F2FF3341F480119A4201DA002051
:100A900070BD40F233439A42A2F2334203DC524229
:100AA00000F08CF800E090402C43F1D0404270BD43
:100AB00030B5041E71F1000404DB4FF000444042E5
:100AC00064EB0101141E73F1000405DB1C464FF0BA
:100AD0000043524263EB04038B4208BF824230BDA5
:100AE00030B5041E71F1000404DB4FF000444042B5
:100AF00064EB0101141E73F1000405DB1C464FF08A
:100B00000043524263EB0403994208BF904230BD58
:100B100030B50B46014600202022012409E021FACD
:100B200002F59D4205D303FA02F5491B04FA02F5CA
:100B30002844151EA2F10102F1DC30BD2DE9F05F61
:100B40000546002092469B4688460646814640243C
:100B50001BE0284641464746224600F02FF8534600
:100B60005A46C01A914110D311461846224600F049
:100B700016F82D1A67EB01084F4622460120002186
:100B800000F00DF817EB00094E41201EA4F10104FE
:100B9000DFDC484631462A464346BDE8F09F202A1E
:100BA00004DB203A00FA02F1002070479140C2F1C4
:100BB000200320FA03F3194390407047202A04DBF6
:100BC000203A21FA02F00021704721FA02F3D040C6
:100BD000C2F120029140084319467047202A06DBE3
:100BE000CB17203A41FA02F043EAE07306E041FAFB
:100BF00002F3D040C2F120029140084319467047E9
:100C00003A2800D2303820F02002412A01D3A2F144
:100C10003700884201D34FF0FF307047026811441B
:100C20001378016018467047D16004495161044946
:100C3000116200211161114600F096B91D0C0008E7
:100C40005D0F0008426842B1016811F8013B23B111
:100C5000521EC0E90012184670470121C160881E6B
:100C6000704742685AB1C368016843B983688B42D0
:100C700005D0491E521CC0E90012002070474FF0F9
:100C8000FF3070470FB4002300B589B00CA9009164
:100C90000B996FF00042CB601E4B06931E4B0793DF
:100CA0000423CDE901321D4A089202466B4600201A
:100CB000FFF78CFC09B05DF814FB70B586B00646F2
:100CC0004FF0FF300091CDE90101002015460C46A0
:100CD00004903246694604A8FFF7D4FF0246049800
:100CE000211825B108B1084600E020462860049884
:100CF00000280DD0002A02DD0098884208D0081B89
:100D00000094CDE901043246694604A8FFF7BAFF12
:100D100006B070BD450C0008630C00085D0F0008AC
:100D200010B5141E73F1000408DA401C41F10001F3
:100D300092185B411A4301D120F0010010BD2DE94A
:100D4000F04D92469B4611B1B1FA81F202E0B0FA41
:100D500080F220329046FFF722FF04460F4640EA19
:100D60000A0041EA0B0153465A46084313D0114684
:100D700053EA010019D0C8F140025046FFF71EFFA8
:100D800005460E46504659464246FFF708FF0843BF
:100D900005D0012004E020463946BDE8F08D002052
:100DA000054346EAE0762C4337430A986305E40A94
:100DB000A0EB08000022FD0A44EA47540A3002D59D
:100DC00000200146E9E7010510196941DDE9084500
:100DD00000196941BDE8F04DA2E72DE9F04D81EA27
:100DE000030404F0004B21F0004514464FF0000AC4
:100DF00023F0004150EA050220D054EA01021DD040
:100E0000C5F30A570246C5F31303C1F31300C1F338
:100E10000A5640F4801543F48013A7EB0608101B14
:100E2000D64608F2FD3873EB050002D308F101083D
:100E300001E092185B41B8F1000F03DA002001468F
:100E4000BDE8F08D00204FF48011064684460EE088
:100E5000171B73EB050705D3121B63EB0503064352
:100E60004CEA010C49084FEA300092185B4150EA05
:100E70000107EDD152EA030012D082EA040083EAAE
:100E80000501084305D0101BAB4106D20122002307
:100E900006E000224FF0004302E06FF00102531021
:100EA0001AEB06004CEB085110EB0A0041EB0B016A
:100EB000BDE8F04DFFF734BF0EB540F23342029269
:100EC0000022CDE900221346FFF739FF03B000BD31
:100ED000C1F30A52C1F3130140F2FF3341F4801110
:100EE0009A4202DA00200146704740F233439A42A8
:100EF000A2F2334202DC5242FFF760BEFFF74FBE60
:100F000001F0004330B421F0004150EA010206D064
:100F10000A0DA2F56072C1F31301002A02DC30BC95
:100F200000207047440F44EAC104C100E01830BCFF
:100F300000EBC25000F0B0B9064C074D06E0E06887
:100F400040F0010394E8070098471034AC42F6D310
:100F5000FFF7F2F814A9000834A90008C0B24FF452
:100F6000F05100F0D1B900002DE9F34F8BB04FF0F4
:100F7000000801F10C000C464FF0010B46460DF144
:100F8000080A01906269012101989047051E2DD041
:100F9000252D2CD0216A8847C0B1626901210198B2
:100FA0009047216A88470028F7D1411E626901985D
:100FB000904700E0761CA1690B988847216A884712
:100FC0000028F7D1E1690B988847DBE7A1690B9806
:100FD00088470746A84201D1761CD3E7E1690B9800
:100FE00088477F1C02D1B8F1000F6FD047E100277E
:100FF00062693D463946019890472A2804D16269C2
:101000000121019890470125DFF88892626901214A
:1010100001989047A0F130010A290AD24F45E5DC3A
:1010200007EB870100EB4107303FDFD445F01005A7
:10103000ECE7E90601D46FF000476C280AD04C2891
:1010400014D0682815D06A280DD074281CD07A28AE
:101050001AD01DE062690121019890476C2802D0E6
:1010600045F0040514E045F002050DE045F02005CB
:101070000AE06269012101989047682802D045F092
:10108000080505E045F40065626901210198904773
:10109000C4E9015765283DD019DC58287AD00CDC0A
:1010A000452837D004DC252826D0412831D131E02D
:1010B00046282FD047282CD12CE05B2877D06128F8
:1010C00028D063287CD0642823D15AE0D1E06F284F
:1010D00048D008DC66281DD067281BD0692821D09D
:1010E0006E2816D127E0702845D0732868D075285F
:1010F00047D078280DD14DE0A1690B988847054667
:1011000025283FF469AFE1690B9888476D1C3FF4CF
:101110006AAFB4E023466A466FF001000B99FFF70F
:1011200055FA9FE045F040006060A80723464FF065
:10113000000236D43EE0E8077FF447AF2068011D87
:1011400021600068290501D506701BE7290701D534
:10115000068017E7A90703D5F117C0E9006111E779
:1011600006600FE745F040006060A80723464FF097
:10117000080216D41EE040F60E0125EA0100606068
:1011800016E045F040006060A80723464FF00A02D1
:1011900007D40FE045F040006060A80708D523465B
:1011A00010226FF001000B99AFF300805AE007E0C6
:1011B000234610226FF001000B99FFF75DF851E014
:1011C0004FF000094F464B46632802D05B2807D0FA
:1011D00041E02079C00601D40120A06001273AE057
:1011E00062690121019890475E2805D14FF00109FD
:1011F0006269494601989047216939B900210A4638
:10120000534643F82120491C0829FADBB0B3216971
:1012100069B9C11700EBD16253110AEB830122F0C7
:101220001F02821A01200B68904003430B60626921
:101230000121019890475D28E8D1B9F1000F09D04C
:101240000020514651F82020D24341F82020401C74
:101250000828F7DB02AB224600976FF001000B99DC
:10126000FFF7B0F800280CDA401C08D1BBF1000FE2
:1012700005D04FF0FF300DB0BDE8F08FFFE74046DE
:10128000F9E7E90701D108F1010806444FF0000B26
:1012900078E60000CCCCCC0C0029A8BF7047401CDD
:1012A000490008BF20F00100704710B4B0FA80FC7C
:1012B00000FA0CF050EA010404BF10BC704749B1B9
:1012C000CCF1200421FA04F411FA0CF118BF012129
:1012D00021430843A3EB0C01CB1D4FEA00614FEA09
:1012E000102042BF002010BC704700EBC3501044D8
:1012F0000029A4BF10BC7047401C490008BF20F063
:10130000010010BC704700007F2801D9002208E0CE
:10131000064A02EB5002C007127800D1120902F00F
:101320000F0201209040084070470000A9A8000863
:1013300000BFFEE770B505460C460026284602F0C1
:1013400019F8064626EA0401284602F04DFD70BD54
:1013500008B50121042001F0B7FE04208DF8030038
:101360004002ADF8000003208DF8020069460248F3
:1013700000F08EFA08BD00000008014008B5012108
:10138000042001F0A1FE10208DF80300C001ADF88B
:10139000000003208DF802006946024800F078FA48
:1013A00008BD0000000801402DE9F84F00F08CF85E
:1013B0004FF400612D4800F001FB4FF400612B4811
:1013C00000F0F1FAC8BB00BF4FF40061274800F0FD
:1013D000EAFA0028F8D000BF4FF40061234800F07B
:1013E000E2FA0128F8D000F045F8044600F042F88F
:1013F000054600F03FF8064600F03CF8074600F0CE
:1014000039F800904FF40061184800F0D5FA372001
:1014100003F053FC4FF40061144800F0CFFA601958
:101420003044C1190098814207D104F0FF0805F04B
:10143000FF0906F0FF0A07F0FF0BB8F1000F02D119
:101440000B48006800E04046094908600846C0F8BB
:101450000490BAF1000F01D1806800E050460449C1
:1014600088600846C0F80CB0BDE8F88F000801405D
:101470000004002070B5002500BF1FE000BF4FF43E
:101480000061104800F08FFA0028F8D01E2003F009
:1014900014FC6006040E4FF400610A4800F083FA61
:1014A000012801D144F0010400BF4FF40061054858
:1014B00000F079FA0128F8D0681CC5B2082DDDDBF0
:1014C000204670BD0008014010B5FFF757FF4FF4EC
:1014D00000610C4800F072FA1E2003F0EEFB4FF49E
:1014E0000061084800F068FA142003F0DAFB4FF4BA
:1014F0000061044800F062FA1E2003F0DEFBFFF7F3
:1015000027FF10BD000801400EB5FFF74DFF20205A
:101510000021124A92681C2A02D847F6FD5201E0C7
:101520004FF62052CDE9002102900C48008982B28A
:1015300002230021982001F09FF8202000214FF67F
:10154000B042CDE9002102900448008882B2022313
:101550002021982001F090F80EBD0000000400202A
:101560007047000010B51621014802F03EFA10BD88
:101570000004004010B50A21014802F036FA10BDFF
:101580000004004010B5082000F040F8012804D104
:1015900002490870082000F033F810BD5000002008
:1015A00010B5102000F032F801280ED1074800785D
:1015B00008B9012000E000200449087008460078BE
:1015C00001F090F9102000F01BF810BD3800002049
:1015D00010B5202000F01AF801280ED10748007835
:1015E00008B9012000E0002004490870084600788E
:1015F00001F0D2F9202000F003F810BD39000020DE
:1016000001490860704700001404014001460020B1
:101610000022074B1B6803EA0102054B14331B68C9
:101620000B4013B10AB1012000E000207047000018
:101630000004014010B54FF4E13003F053FC0DA15C
:10164000104804F0BCFC4FF4FA6003F02AFB0EA132
:101650000C4804F0B4FC4FF4FA6003F022FB16A12E
:10166000084804F0ACFC40F6B83003F01AFB01F077
:1016700055FA10BD41542B43574D4F44453D310D54
:101680000A0000000044004041542B4D5154545571
:101690005345524346473D302C322C2230222C22D7
:1016A00063796673222C22313233343536222C3062
:1016B0002C302C22220D0A0041542B4D51545443FE
:1016C0004F4E4E3D302C2265366464626333312EBA
:1016D000616C612E636E2D68616E677A686F752E1E
:1016E000656D7178736C2E636E222C383838332C0C
:1016F000310D0A00F8B50546294635A002F08EFBEB
:1017000035A12846FEF75CFD00B9F8BD3548364BDB
:10171000364A37A100902846FEF792FD7D213248D7
:101720000068401E2F4A1154002110462E4A1268AC
:10173000815403F09DF904461CB935A002F06EFBFC
:10174000E3E72A4922A002F069FB35A12748FEF70A
:1017500050FDA8B936A1204603F074F9064636A11B
:10176000204603F06FF9074635493069FEF741FD21
:1017700028B934A002F052FB387D3649087022E0C7
:1017800035A11A48FEF735FD00281CD136A002F01D
:1017900045FB3BA1204603F055F9064626A120460D
:1017A00003F050F907460AA0316902F037FB3649C9
:1017B0003069FEF71EFD28B922A002F02FFB387D0C
:1017C0003249087000BF204603F010F900BF9CE7C3
:1017D00025730D0A000000004D51545453554252D8
:1017E00045435600C002002034000020AC02002017
:1017F0002B4D515454535542524543563A302C22A6
:10180000255B5E225D222C25642C255B5E7D5D00C0
:101810004A534F4E204572726F720D0A000000004D
:10182000636F6E74726F6C5F7377697463680000C6
:10183000656C656349640000737461746500000041
:1018400030610008E68EA5E694B6E68890E58A9FAA
:101850000D0A000038000020636F6E74726F6C5FB9
:10186000736C756963650000E5A484E79086206366
:101870006F6E74726F6C5F736C756963650D0A00CF
:1018800077617465724964003A610008390000208C
:101890002DE9F04102460025002600200023002407
:1018A000002791F803C00CF00F0591F803C00CF06D
:1018B000100CBCF1000F03D091F802C04CEA0505F2
:1018C00091F800C0BCF1000F31D0146800202BE06B
:1018D0004FF0010C0CFA00F3B1F800C00CEA03065B
:1018E0009E4220D183004FF00F0C0CFA03F7BC434B
:1018F00005FA03FC4CEA040491F803C0BCF1280F7C
:1019000006D14FF0010C0CFA00FCC2F814C00AE03A
:1019100091F803C0BCF1480F05D14FF0010C0CFA4F
:1019200000FCC2F810C0401C0828D1D31460B1F8E4
:1019300000C0BCF1FF0F34DD546800202EE000F140
:10194000080C4FF0010808FA0CF3B1F800C00CEADB
:1019500003069E4221D183004FF00F0C0CFA03F7CF
:10196000BC4305FA03FC4CEA040491F803C0BCF143
:10197000280F05D100F1080C08FA0CF8C2F8148001
:1019800091F803C0BCF1480F07D100F1080C4FF0EB
:10199000010808FA0CF8C2F81080401C0828CED3C1
:1019A0005460BDE8F0810246002093680B400BB103
:1019B000012000E0002070474161704701617047DD
:1019C00000BFFEE70146CA1701EB92729210A1EB2D
:1019D00082022AB9642291FBF2F302FB131232B99C
:1019E0004FF4C87291FBF2F302FB13120AB9012003
:1019F00070470020FCE72DE9F04104460D461646ED
:101A00001F462A2000F0B4FE04F1500188B200F015
:101A10009FFE06F1500188B200F09AFE2B2000F0E4
:101A2000A7FE284600F094FE384600F091FE2C20D8
:101A300000F09EFEBDE8F08170B504460D461646E6
:101A40002B46224629462046FFF7D5FF304600F0B8
:101A50007FFE70BD2DE9F04706460F4614461D4631
:101A6000DDF820A0681E83B2601E82B2394630467F
:101A7000FFF7C1FFB8460EE0B14606E0504600F061
:101A800067FE09F101001FFA80F9A145F6DB08F1B4
:101A900001001FFA80F8A845EEDBBDE8F0870000E2
:101AA00000B587B001210C2001F00EFB01210803D5
:101AB00001F00AFB10208DF81B000001ADF81800A2
:101AC00003208DF81A0006A92248FFF7E1FEC02086
:101AD000ADF8180006A92048FFF7DAFE18208DF8A7
:101AE0001B00A020ADF8180003208DF81A0006A9ED
:101AF0001848FFF7CDFE4FF48270ADF806004FF4A2
:101B00004040ADF804000020ADF80800ADF8120028
:101B1000ADF810000220ADF80A000020ADF80C006E
:101B20004FF40070ADF80E000720ADF8140001A9C5
:101B30000A4801F057FC0121084801F039FCC02196
:101B40000548FFF73BFF4FF480710248FFF736FF6F
:101B500007B000BD00080140000C0140003001400A
:101B60000EB5FFF79DFF8021F148FFF725FF6420A8
:101B700003F097F88021EE48FFF720FF642003F080
:101B800090F84FF48071EA48FFF718FF642003F0E3
:101B900088F8112000F0ECFD782003F082F8362060
:101BA00000F0E6FDA02000F0DCFD3A2000F0E0FDB2
:101BB000052000F0D6FDB22000F0DAFD1F2000F075
:101BC000D0FD1F2000F0CDFD002000F0CAFD332025
:101BD00000F0C7FD332000F0C4FDB72000F0C8FDC1
:101BE000352000F0BEFDBB2000F0C2FD202000F03B
:101BF000B8FDC02000F0BCFD2C2000F0B2FDC220DA
:101C000000F0B6FD012000F0ACFDC32000F0B0FDF7
:101C1000012000F0A6FDC42000F0AAFD182000F06D
:101C2000A0FDC62000F0A4FD132000F09AFDD020F6
:101C300000F09EFDA42000F094FDA12000F091FD95
:101C4000D62000F095FDA12000F08BFDE02000F0F3
:101C50008FFDF02000F085FD042000F082FD0720BC
:101C600000F07FFD042000F07CFD042000F079FDF1
:101C7000042000F076FD252000F073FD332000F0F5
:101C800070FD3C2000F06DFD362000F06AFD142050
:101C900000F067FD122000F064FD292000F061FDD6
:101CA000302000F05EFDE12000F062FDF02000F049
:101CB00058FD022000F055FD042000F052FD0520E3
:101CC00000F04FFD052000F04CFD212000F049FD03
:101CD000252000F046FD322000F043FD3B2000F0BF
:101CE00040FD382000F03DFD122000F03AFD1420A8
:101CF00000F037FD272000F034FD312000F031FDE9
:101D0000E42000F035FD1D2000F02BFD002000F048
:101D100028FD002000F025FD212000F029FD2920CC
:101D200000F026FD0020F0231A4601460090FFF740
:101D300091FE00202021CDE900014FF6E0737DA245
:101D40000146029000F0D2F900202021CDE90001E7
:101D50004FF6E0733A2201460290802000F01AF913
:101D6000202000211F220223CDE9002102900A46F3
:101D7000982000F081FC00202021CDE900014FF6E1
:101D8000E0736FA201460290C02000F0AFF900207E
:101D90002021CDE900014FF6E0736AA2029000F025
:101DA000A5F900202021CDE900014FF6E0733A2289
:101DB0000290802000F0EEF8202000211F22022354
:101DC000CDE9002102900A460146982000F054FC1B
:101DD00000202021CDE900014FF6E073252202907A
:101DE000C82000F0D7F800202021CDE900014FF6EF
:101DF000E07357A24021029000F078F900202021E2
:101E0000CDE900014FF6E0733A2240210290802094
:101E100000F0C0F8182000211F220323CDE9002183
:101E200002900A464021962000F026FC002018214E
:101E3000CDE900014FF6E07348A240210290C02096
:101E400000F065FC00202021CDE900014FF6E07391
:101E500043A26021029000F049F900202021CDE941
:101E600000014FF6E0733A2260210290802000F0DA
:101E700091F8182000211F220323CDE900210290B0
:101E80000A466021962000F0F7FB00201821CDE9DA
:101E900000014FF6E07335A260210290C02000F0EF
:101EA00036FC00202021CDE900014FF6E07330A27E
:101EB0008021029000F01AF900201821CDE90001DC
:101EC0004FF6E0733A2280210290084600F062F853
:101ED00000202021CDE900014FF6FF7327A28021C9
:101EE0000290A02000F002F900202021CDE900019D
:101EF0004EF2FF6322A2B021029000F0F7F800201A
:101F00001821CDE900014EF2FF633A22B021029080
:101F1000802000F03FF800202021CDE900014FF49F
:101F2000FC631AA2B0210290A02000F0DFF80EBDE1
:101F3000000C014051515252414143430000000006
:101F4000535300005151525242424343000000009B
:101F50005151525246464747000000004C757800E8
:101F600051515252444445450000000070706D00CC
:101F70004B4B4A4A48484949000000004A4A000081
:101F800048484E4E4F4F5050000000005454555595
:101F9000000000002DE9FF5F80468A4617469B46F9
:101FA0000F9D00200290CDF80080284605EBD071EF
:101FB000C1F347042046E21704EB5272D2102146C7
:101FC000E31704EB5373DB10A4EBC3030BB1012342
:101FD00000E000231A446A4392B20192A7F1200064
:101FE000C7B20AEB0500401E83B208EB0400401E96
:101FF00082B251464046FFF7FEFC002669E00C2DF8
:1020000007D107EB4700354901EB8000805D039065
:102010001BE0102D05D1324800EB0710805D0390C6
:1020200013E0182D07D107EB47002E4901EB0010F4
:10203000805D039009E0202D05D12B4800EB87102F
:10204000805D039001E0BDE8FF9F4FF000093AE09A
:102050001098C8B9012000FA09F00399084018B196
:10206000584600F075FB02E00E9800F071FB0298F4
:10207000401CC0B20290029890FBF4F104FB1100E6
:10208000E8B90020029021E0012000FA09F003994C
:10209000084020B15A4651464046FFF7CDFC08F1B2
:1020A00001001FFA80F80098A8EB0000A04206D1BA
:1020B000DDF800800AF101001FFA80FA06E009F15C
:1020C000010000F0FF09B9F1080FC1DB00BF701C6F
:1020D00086B20198864292DB00BFB4E749610008EE
:1020E000BD650008AD6B00087D7D00082DE9FE4F41
:1020F0008046894617469A46DDE90D460C9D36E036
:102100000C2C09D153463A4649464046CDE9014692
:10211000009500F031F825E0102C09D153463A46DD
:1021200049464046CDE90146009500F0C9F819E05E
:10213000182C09D153463A4649464046CDE9014656
:10214000009500F059F90DE0202C09D153463A468C
:1021500049464046CDE90146009500F0F1F901E01D
:10216000BDE8FE8FBF1C08EB04001FFA80F838782A
:102170000028C5D100BFF3E72DE9FF5F0646894679
:1021800092469B460F9C0020039000962046E21743
:1021900004EB5272D2102146E31704EB5373DB10A9
:1021A000A4EBC3030BB1012300E000231A446243F4
:1021B00092B2019205200290002579E005EB85009E
:1021C00000EBC5003D4911F810009AF80010884254
:1021D0006BD105EB850000EBC500384901EB4000F1
:1021E00040789AF8011088425FD109EB0400401E44
:1021F00083B23019401E82B249463046FFF7FBFBDE
:1022000000274FE04FF0000846E0109808BB05EBB0
:10221000850000EBC500294901EB4000801CC05D32
:10222000012101FA08F1084018B1584600F090FA6F
:1022300002E00E9800F08CFA0398401CC0B20390A4
:10224000039890FBF4F104FB110008BB00200390FD
:1022500025E005EB850000EBC500184901EB4000C7
:10226000801CC05D012101FA08F1084020B15A46E6
:1022700049463046FFF7E0FB701C86B20098301AE2
:10228000A04205D1009E09F101001FFA80F906E085
:1022900008F1010000F0FF08B8F1080FB5DB00BF3E
:1022A000781CC7B201988742ACDB00BF681C85B2BE
:1022B0000298854282DBBDE8FF9F00003D95000843
:1022C0002DE9FF5F0646894692469B460F9C0020FB
:1022D000039000962046E21704EB5272D21021467A
:1022E000E31704EB5373DB10A4EBC3030BB101231F
:1022F00000E000231A44624392B20192052002904A
:10230000002571E005EB05103A4911F810009AF824
:102310000010884265D105EB0510364901EB4000FD
:1023200040789AF8011088425BD109EB0400401E06
:1023300083B23019401E82B249463046FFF75BFB3C
:1023400000274BE04FF0000842E01098F8B905EB89
:102350000510284901EB4000801CC05D012101FAF5
:1023600008F1084018B1584600F0F2F902E00E9862
:1023700000F0EEF90398401CC0B20390039890FB64
:10238000F4F104FB1100F8B90020039023E005EB01
:102390000510184901EB4000801CC05D012101FAC5
:1023A00008F1084020B15A4649463046FFF744FB41
:1023B000701C86B20098301AA04205D1009E09F127
:1023C00001001FFA80F906E008F1010000F0FF08A3
:1023D000B8F1080FB9DB00BF781CC7B2019887427B
:1023E000B0DB00BF681C85B2029885428ADBBDE87D
:1023F000FF9F0000BF9500082DE9FF5F0646894654
:1024000092469B460F9C0020039000962046E217C0
:1024100004EB5272D2102146E31704EB5373DB1026
:10242000A4EBC3030BB1012300E000231A44624371
:1024300092B2019205200290002579E005EB85001B
:1024400000EB45103D4911F810009AF80010884241
:102450006BD105EB850000EB4510384901EB4000DE
:1024600040789AF8011088425FD109EB0400401EC1
:1024700083B23019401E82B249463046FFF7BBFA9C
:1024800000274FE04FF0000846E0109808BB05EB2E
:10249000850000EB4510294901EB4000801CC05D20
:1024A000012101FA08F1084018B1584600F050F92E
:1024B00002E00E9800F04CF90398401CC0B2039063
:1024C000039890FBF4F104FB110008BB002003907B
:1024D00025E005EB850000EB4510184901EB4000B5
:1024E000801CC05D012101FA08F1084020B15A4664
:1024F00049463046FFF7A0FA701C86B20098301AA1
:10250000A04205D1009E09F101001FFA80F906E002
:1025100008F1010000F0FF08B8F1080FB5DB00BFBB
:10252000781CC7B201988742ACDB00BF681C85B23B
:102530000298854282DBBDE8FF9F00006996000893
:102540002DE9FF5F0646894692469B460F9C002078
:10255000039000962046E21704EB5272D2102146F7
:10256000E31704EB5373DB10A4EBC3030BB101239C
:1025700000E000231A44624392B2019221200290AB
:10258000002571E005EB85103A4911F810009AF822
:102590000010884265D105EB8510364901EB4000FB
:1025A00040789AF8011088425BD109EB0400401E84
:1025B00083B23019401E82B249463046FFF71BFAFB
:1025C00000274BE04FF0000842E01098F8B905EB07
:1025D0008510284901EB4000801CC05D012101FAF3
:1025E00008F1084018B1584600F0B2F802E00E9821
:1025F00000F0AEF80398401CC0B20390039890FB23
:10260000F4F104FB1100F8B90020039023E005EB7E
:102610008510184901EB4000801CC05D012101FAC2
:1026200008F1084020B15A4649463046FFF704FAFF
:10263000701C86B20098301AA04205D1009E09F1A4
:1026400001001FFA80F906E008F1010000F0FF0820
:10265000B8F1080FB9DB00BF781CC7B201988742F8
:10266000B0DB00BF681C85B2029885428ADBBDE8FA
:10267000FF9F0000DB9700082DE9FF4F85B007465C
:1026800091461D46DDE913A600200490304606EB76
:10269000D071C1F3470B002434E0281B401EC1B2A7
:1026A0000A2002F0A7FCB9FBF0F00A21B0FBF1F21E
:1026B00001FB12080498A0B9681EA04211DDB8F110
:1026C000000F0CD1002004FB0B71CDE900A6029095
:1026D00088B22022129B0699FFF75CFC10E00120D3
:1026E0000490002008F13001CAB204FB0B71CDE95F
:1026F00000A6029088B2129B0699FFF74BFC00BF20
:10270000601CC4B2AC42C8DB09B0BDE8F08F2DE953
:10271000FE4F06460F4614469846DDE90D5ADDF891
:10272000309010E0CDE9015ACDF800902278434670
:1027300039463046FFF72EFC284605EBD07106EBF4
:1027400061018EB2641C20780028EBD1BDE8FE8FB9
:1027500010B50446201200F01BF8E0B200F018F8A3
:1027600010BD10B50446204600F012F810BD000060
:1027700010B5044640210548FFF71EF9204600F039
:1027800007F840210148FFF719F910BD000C01407E
:1027900010B5044600BF0221044800F015FE0028D1
:1027A000F9D02146014800F01BFE10BD0030014069
:1027B00010B54FF400710248FFF7FEF810BD00009D
:1027C000000C014010B54FF400710248FFF7F6F815
:1027D00010BD0000000C014010B50446412C25D16D
:1027E00008210846FEF7A6FD3D21112001F0FCFA64
:1027F0008621172001F0F8FA7F21262001F0F4FA53
:102800001E212D2001F0F0FA00212C2001F0ECFA1D
:102810008D212A2001F0E8FA3E212B2001F0E4FA74
:10282000012002F031FA00F015FA01E0FF2010BD9E
:102830000020FCE770B502F0B3F80546154A16A172
:10284000284602F061F8174817A10268284602F0EE
:102850005BF8284602F092F904462046FDF7C2FCD8
:102860000646324612A11D4801F0E8FA1B491C48F1
:1028700003F0A5FB4FF4FA7002F013FA2146184852
:1028800003F09DFB284602F0B1F8204601F0EAFA79
:1028900070BD00002C000020646F726D69746F724F
:1028A000794964003C0000206E616D650000000005
:1028B00041542B4D5154545055425241573D302CA8
:1028C000226163636573735F636F6E74726F6C22F2
:1028D0002C25642C302C300D0A000000C003002091
:1028E000004400402DE9F041044602F059F88046CA
:1028F000174A18A1404602F007F82046FEF7ACF848
:1029000005462A460B4615A1404601F0DFFF40462A
:1029100002F034F907463846FDF764FC05462A46BE
:1029200010A11B4801F08AFA19491A4803F047FB25
:102930004FF4FA7002F0B5F93946164803F03FFB40
:10294000404602F053F8384601F08CFABDE8F081B9
:1029500030610008656C65634964000073746174DC
:102960006500000041542B4D515454505542524182
:10297000573D302C226163636573735F636F6E74C0
:10298000726F6C222C25642C302C300D0A00000054
:10299000C0030020004400402DE9F041044601F04E
:1029A000FFFF8046174A18A1404601F0ADFF2046C0
:1029B000FEF752F805462A460B4615A1404601F09F
:1029C00085FF404602F0DAF807463846FDF70AFC74
:1029D00005462A4610A11B4801F030FA19491A4849
:1029E00003F0EDFA4FF4FA7002F05BF9394616483D
:1029F00003F0E5FA404601F0F9FF384601F032FAFB
:102A0000BDE8F0813A61000877617465724964003D
:102A1000737461746500000041542B4D515454503F
:102A200055425241573D302C226163636573735F99
:102A3000636F6E74726F6C222C25642C302C300DF9
:102A40000A000000C0030020004400402DE9F047C8
:102A500005460C4601F0A4FF81461D4A1DA14846CB
:102A600001F052FF2846FDF7E6FF064632460B46C8
:102A70001BA1484601F02AFF2046FDF7DCFF064671
:102A800032460B4618A1484601F020FF484602F0A6
:102A900075F880464046FDF7A5FB0646324613A171
:102AA0001C4801F0CBF91B491B4803F088FA4FF48E
:102AB000FA7002F0F6F84146174803F080FA4846EB
:102AC00001F094FF404601F0CDF9BDE8F087000029
:102AD0002C000020646F726D69746F727949640014
:102AE00074656D700000000068756D0041542B4DD9
:102AF0005154545055425241573D302C22726F6F01
:102B00006D5F6D6F6E69746F72222C25642C302C92
:102B1000300D0A00C00300200044004010B506A19B
:102B20000E4803F04CFA4FF4FA6002F0BAF80CA128
:102B30000A4803F044FA10BD41542B4D51545453EC
:102B400055423D302C22636F6E74726F6C5F736CF4
:102B500075696365222C300D0A00000000440040B6
:102B600041542B4D5154545355423D302C22636FE8
:102B70006E74726F6C5F737769746368222C300DAA
:102B80000A00000000BFFEE710B5044600BF0221A6
:102B90000A4800F019FC0128F9D12146074800F045
:102BA0001FFC00BF0121054800F00EFC0128F9D1EF
:102BB000024800F012FCC0B210BD00000038004016
:102BC0007047000070B5002100230F22C47804B3C1
:102BD000154C246804F4E064C4F5E064210AC1F1F2
:102BE0000403CA40447804FA03F184781440214372
:102BF00009010E4C0678A155047804F01F05012444
:102C0000AC4005786D11AD0005F1E025C5F8004137
:102C100009E0047804F01F050124AC40044D067857
:102C2000761145F8264070BD0CED00E000E400E0B0
:102C300080E100E002490143024A11607047000050
:102C40000000FA050CED00E010B503211420FEF79A
:102C500071FB10BD10B5142000F08CFB044604F08D
:102C6000030018B90321142000F0DBFB10BDF0B500
:102C700087B00546002708210846FEF75BFB0021C8
:102C80000D2001F0B1F880210E20FEF753FB9320B8
:102C90008DF8040020208DF8050006A801AB022263
:102CA00001A900900C2000F01AF8064686B900240D
:102CB00007E001A8005D285501A8005D4740601CA1
:102CC000C4B2042CF5DB01A8005DB84200D0FE269A
:102CD00080210E2000F0A5FB304607B0F0BD2DE9A5
:102CE000FE4F0646884691469A46DDF830B0FE20F3
:102CF00002900020019000900C2E06D00E2E09D1DB
:102D0000122001901020009005E0772001903020E3
:102D1000009000E000BF00BF019840F08001022059
:102D200001F062F880210420FEF704FB002101205D
:102D300001F05AF880210A2000F073FB002505E01D
:102D400018F80510092001F04FF86D1C4D45F7D318
:102D50003146012001F048F80C2E03D180210D20CE
:102D600000F05FFB4FF4FA6500BF042000F002FBA7
:102D700004466D1E35B104F0010018B900982040DA
:102D80000028F2D080210D20FEF7D4FA95B306205A
:102D900000F0F0FA00F01B0068BB002002900198E0
:102DA000204000F0010008B1FF2002900C2E24D139
:102DB0000A2000F0DFFA04460C2000F0DBFA00F0F5
:102DC00007072FB1601E07EBC000CBF8000002E040
:102DD000E000CBF8000004B90124122C00DD12241D
:102DE000002505E0092000F0C5FA0AF805006D1C71
:102DF000A542F7D301E0FE20029080210C2000F0D4
:102E000010FB0021012000F0EFFF0298BDE8FE8FCB
:102E100070B588B005460C4608210846FEF78AFAC8
:102E200007210D2000F0E0FF0321142000F0F9FA43
:102E30008DF8085007A802AB012202A900900C20CF
:102E4000FFF74DFF06464EB90798102806D19DF8AA
:102E5000080020709DF80900607000E0FE263046F2
:102E600008B070BD10B54FF480512C48FEF7A6FD98
:102E7000012001F009FF4FF480512848FEF79CFD26
:102E8000012001F001FF4FF480512448FEF796FD28
:102E90000A2001F0F9FE022000F06CFA80281ED111
:102EA00081011F48FEF78AFD0A2001F0EDFE4FF474
:102EB00000511B48FEF780FD0A2001F0E5FE4FF4AB
:102EC00000511748FEF77AFD0A2001F0DDFE4FF4AD
:102ED00000511348FEF770FD0A2001F0D5FE0F21C6
:102EE000012000F081FF3D21112000F07DFF1E2117
:102EF0002D2000F079FF00212C2000F075FF8D219E
:102F00002A2000F071FF3E212B2000F06DFF4021B0
:102F1000152000F069FF002010BD000000080140EE
:102F2000001001407047000010B500F023F806E0E3
:102F300009A000F073FF4FF47A7001F0B2FEFFF7C2
:102F400091FF0028F4D1FFF77FFEFFF783FE4120B9
:102F5000FFF742FC10BD00005243353232E5889D38
:102F6000E5A78BE58C96E69C89E997AEE9A2980DDA
:102F70000A00000000B587B001210C2000F0A4F881
:102F80000121880300F080F810208DF81B0000025A
:102F9000ADF8180003208DF81A0006A92548FEF7A1
:102FA00077FC06A92448FEF773FC18208DF81B0057
:102FB0004FF42040ADF8180003208DF81A0006A940
:102FC0001C48FEF765FC48208DF81B004FF480403C
:102FD000ADF8180003208DF81A0006A91548FEF771
:102FE00057FC4FF48270ADF806000020ADF80400E5
:102FF000ADF80800ADF812003020ADF81000002048
:10300000ADF80A00ADF80C004FF40070ADF80E00FA
:103010000720ADF8140001A9084800F0E3F90121E8
:10302000064800F0C5F94FF480510248FEF7C4FC91
:1030300007B000BD000C014000080140003800400E
:1030400010B509495220FFF7E3FE60B907A000F070
:10305000E5FE0848FFF70BFE28B907A000F0DEFEEA
:1030600001200849087010BD440000206F6B0D0A54
:1030700000000000400000206F70656E20646F6FDC
:10308000720D0A005000002029B1064AD26902439D
:10309000044BDA6104E0034AD2698243014BDA61EE
:1030A000704700000010024029B1064A126902432D
:1030B000044B1A6104E0034A12698243014B1A610E
:1030C000704700000010024029B1064A926902438D
:1030D000044B9A6104E0034A92698243014B9A616E
:1030E000704700000010024029B1064AD26802432E
:1030F000044BDA6004E0034AD2688243014BDA6091
:10310000704700000010024030B50021002200246A
:1031100000232D4D6D6805F00C0121B1042905D067
:10312000082923D105E0294D056022E0274D0560DF
:103130001FE0254D6D6805F47012234D6D6805F490
:103140008034022505EB92421CB9214D55430560A0
:103150000BE01D4D6D6805F400351DB11C4D554348
:10316000056002E0194D5543056002E0174D05600A
:1031700000BF00BF144D6D6805F0F0010909154D41
:103180006B5C0568DD4045600F4D6D6805F4E061DE
:10319000090A104D6B5C4568DD4085600A4D6D681D
:1031A00005F46051C90A0B4D6B5C4568DD40C56094
:1031B000054D6D6805F44041890B074D6B5CC56892
:1031C000B5FBF3F5056130BD0010024000127A0036
:1031D00000093D000000002010000020024909887D
:1031E0008143014A118070470428004070B50026D1
:1031F000002400F079F806463748B6FBF0F437486B
:103200000088A0423FD035490C8040F2B27511E0F1
:103210002846FEF7D7FB012808D1B4F5B77F04D3C1
:10322000A4F5B774681C85B204E006E0A4F26D143E
:10323000681C85B2B4F5B67FEAD800BF284805807F
:10324000002518E02846FEF7BDFB012808D1012D16
:1032500006D11D2C03D31D3C681C85B20BE00CE08D
:103260002048405DA04205D81E48405D241A681CD5
:1032700085B200E001E01C2CE4D200BF681C1849B4
:103280008870601CC8701448B6FBF0F100FB116434
:103290004FF46160B4FBF0F0114908714FF46160C4
:1032A000B4FBF0F100FB11403C21B0FBF1F00C4904
:1032B00048714FF46160B4FBF0F100FB11403C2118
:1032C000B0FBF1F201FB120005498871304600F0B5
:1032D00027F80349886070BD805101007C00002000
:1032E000540000209DA80008002103480188001F09
:1032F000008841EA004070471C2800400146002039
:10330000064A12880A40D0B2044A121F12880A40A4
:1033100012B108B1012000E00020704704280040ED
:1033200001460648B1FBF0F00722B0FBF2F302FBC6
:103330001300034A52F8200070470000805101003A
:103340006000002010B50120FFF7D8FF012806D14A
:10335000FFF74CFF0120FFF741FF00F001F810BD1F
:1033600000BF0348008800F020000028F9D0704713
:103370000428004070B5044600264FF480510B48E5
:10338000FEF71AFB7E2000EA440040F08005284644
:10339000FFF7FAFB0020FFF7F7FB06464FF48051DA
:1033A0000248FEF70BFB304670BD0000000C0140E8
:1033B00021B1028842F04002028004E002884FF608
:1033C000BF731A40028070470246002013890B40E9
:1033D0000BB1012000E0002070470146888970474A
:1033E0008181704710B50022028802F441520B8897
:1033F0004C8823438C882343CC8823430C89234364
:103400004C8923438C892343CC8923431A4302806C
:10341000838B4FF2FF74234083830B8A038210BD9A
:10342000704770B505460C4600262846FFF7A2FFF8
:10343000064646EA0401284600F0D6FC70BD10B5E9
:1034400000F002F810BD00000CB5002001900090C3
:103450003348006840F480303149086000BF30488C
:10346000006800F4003000900198401C0190009822
:1034700018B90198B0F5A06FF1D12948006800F49F
:10348000003010B10120009001E000200090009871
:10349000012843D12348006840F01000214908600A
:1034A0000846006820F0030008600846006840F005
:1034B000020008601A484068194948600846406898
:1034C00048600846406840F48060486008464068AC
:1034D00020F47C1048600846406840F4E8104860DA
:1034E0000846006840F08070086000BF0C48006823
:1034F00000F000700028F9D00948406820F003006F
:10350000074948600846406840F00200486000BF34
:103510000348406800F00C000828F9D10CBD0000F9
:10352000001002400020024010B5002080F31088F7
:1035300000BF4FF4A060FFF77DFB00F075F800F0CE
:10354000A9FA4FF4E13001F075FC40F6B83001F013
:10355000A8FB0BA000F062FCFEF76CF80CA000F0DA
:103560005DFCFEF7FDFAFFF7DFFCC72141F61F40C7
:1035700000F092F802F022FCFDF7A6FF10BD00005B
:10358000696E697420657370383236360000000049
:10359000696E69742065737038323636206F6B003F
:1035A00000200CE0074951F8201031B1054951F8CD
:1035B0002010491E034A42F82010411CC8B20828B6
:1035C000F0DB70478C00002010B51348006840F015
:1035D00001001149086008464068104908400E493A
:1035E0004860084600680E4908400B4908600846D4
:1035F000006820F4802008600846406820F4FE003F
:1036000048604FF41F008860FFF719FF4FF000601B
:103610000449086010BD0000001002400000FFF8DF
:10362000FFFFF6FE08ED00E030B5002005E00021C8
:10363000154A42F82010411CC8B20828F7DB13498C
:10364000B1F1807F00D31DE021F07F40401E4FF09C
:10365000E022506150170F22002807DA13071D0ED1
:103660000B4B00F00F04241F1D5503E013071C0E25
:10367000084B1C5400BF00204FF0E022906107204F
:10368000106100BF30BD00008C0000204019010017
:1036900018ED00E000E400E030B589B005460C46C6
:1036A00001210220FFF7F0FC01210420FFF70CFDAF
:1036B0004020ADF8200003208DF8220018208DF85E
:1036C000230008A91648FEF7E3F8164800F044F86E
:1036D000ADF814500020ADF81600ADF81840ADF864
:1036E0001A0005A90F4800F083F96020ADF8040026
:1036F0000120ADF806000020ADF80C0001A9094832
:1037000000F01EF90121074800F00EF801210548DC
:1037100000F016F80821034800F05EF909B030BD4A
:10372000000801400004004021B1028842F08002FC
:10373000028004E002884FF67F731A4002807047CF
:1037400021B1028842F00102028004E002884FF6B3
:10375000FE731A400280704710B5044668488442E0
:1037600008D10121C014FFF7BFFC0021E014FFF7CE
:10377000BBFCC4E0B4F1804F08D101210846FFF73B
:1037800093FC00210120FFF78FFCB8E05D488442E4
:1037900008D101210220FFF787FC00210220FFF75A
:1037A00083FCACE05848844208D101210420FFF793
:1037B0007BFC00210420FFF777FCA0E05348844203
:1037C00008D101210820FFF76FFC00210820FFF736
:1037D0006BFC94E04E48844208D101211020FFF791
:1037E00063FC00211020FFF75FFC88E04948844219
:1037F00008D101212020FFF757FC00212020FFF7EE
:1038000053FC7CE04448844208D101214014FFF776
:103810006BFC00216014FFF767FC70E03F488442B6
:1038200009D10121C804FFF75FFC00214FF40020FB
:10383000FFF75AFC63E03A48844209D101210805A8
:10384000FFF752FC00214FF48010FFF74DFC56E0CB
:103850003448844209D101214805FFF745FC002185
:103860004FF40010FFF740FC49E02F48844208D194
:1038700001214020FFF718FC00214020FFF714FC35
:103880003DE02A48844208D101218020FFF70CFC4A
:1038900000218020FFF708FC31E02548844208D150
:1038A00001218015FFF700FC0021A015FFF7FCFBAC
:1038B00025E02048844209D101210804FFF714FCC7
:1038C00000214FF48030FFF70FFC18E01A488442C3
:1038D00009D101214804FFF707FC00214FF4003013
:1038E000FFF702FC0BE01548844208D1012188044F
:1038F000FFF7FAFB00214FF48020FFF7F5FB10BD26
:10390000002C01400004004000080040000C004072
:10391000001000400014004000340140004C014001
:10392000005001400054014000180040001C0040BD
:103930000020004000400140004401400048014098
:1039400070B5002400220023058C4FF6FE7635402A
:103950000584028C8388048B4FF68F752C40B51E2E
:103960002C400D882C43751E2A400D892A434D8812
:103970002A43144DA8420BD0134DA84208D0134D32
:10398000A84205D0124DA84202D0124DA84213D130
:103990004FF6F7752A404D892A434FF6FB752A40AA
:1039A0008D882A434FF6FF652B404FF6FF552B407D
:1039B0008D892B43CD892B4383800483CD888586D5
:1039C000028470BD002C01400034014000400140E1
:1039D00000440140004801400A460021018B4FF697
:1039E000F7731940114301837047818670470000C7
:1039F000002202881D4B98420ED01D4B98420BD0DE
:103A0000B0F1804F08D01B4B984205D01A4B98421A
:103A100002D01A4B984204D14FF68F731A404B884C
:103A20001A43174B984207D0164B984204D04FF6D2
:103A3000FF431A40CB881A4302808B8883850B880A
:103A400003850A4B98420BD0094B984208D00E4B85
:103A5000984205D00D4B984202D00D4B984201D1AF
:103A60000B7A03860123838270470000002C0140FB
:103A7000003401400004004000080040000C0040F9
:103A8000001000400014004000400140004401408C
:103A9000004801400A2006494860642088604FF4CD
:103AA000FA70C86041F28830C8610A2048617047E6
:103AB0008C00002010B540F225510D4800F0CDF8E3
:103AC00001280ED10A200B494861094800F080F90D
:103AD000C4B2094801880088401C074A1080074882
:103AE000445440F22551024800F08FF810BD000008
:103AF000003801408C00002028000020AC0000208D
:103B000010B51248406908B1002010BD1048008867
:103B100008B90020F9E700200E490D4A12888854A0
:103B20000DA10C48FCF765FB10B9FEF783FE03E01E
:103B300008490B4802F043FA4FF480710548FCF73E
:103B400034FB0020024908800120DEE78C000020C1
:103B500028000020AC0000206F70656E000000009F
:103B60000044004010B540F225510D4800F075F8B2
:103B700001280ED10A200B498861094800F028F974
:103B8000C4B2094801880088401C074A10800748D1
:103B9000445440F22551024800F037F810BD0000AF
:103BA000004400408C0000202A000020AC010020CE
:103BB00010B50E48806908B1002010BD0C4800887F
:103BC00008B90020F9E700200A49094A12888854F8
:103BD0000846FDF78FFD4FF480710648FCF7E5FAC3
:103BE0000020034908800120E7E700008C00002046
:103BF0002A000020AC01002001F40072B2F5007F21
:103C000000D100BFCA430280704710B500220023D4
:103C100040F66A14A14200D100BF0A120124944068
:103C2000A3B2DC43048010BD21B1828942F400526A
:103C3000828104E082894DF6FF731A4082817047C9
:103C400002460020B1F5007F00D100BF13880B4071
:103C50000BB1012000E00020704770B5024600243F
:103C600000230025002040F66A16B14200D100BFB3
:103C7000C1F3421501F01F03012606FA03F3012DDB
:103C800002D19689334006E0022D02D1168A3340D4
:103C900001E0968A33400C12012606FA04F41688D5
:103CA000344013B10CB1012000E0002070BDF0B52C
:103CB0000346002400260025002040F66A17B9427A
:103CC00000D100BF1846C1F3421401F01F060127BE
:103CD00007FA06F5012C01D10C3004E0022C01D1C9
:103CE000103000E014301AB107682F43076002E07B
:103CF0000768AF430760F0BD2DE9F04786B0054681
:103D00000E460024A24600BFA1460027B08900B19C
:103D100000BF2F462C8A4CF6FF700440F088044305
:103D20002C82AC894EF6F3100440B08831890843E8
:103D3000718908430443AC81AC8A4FF6FF400440CC
:103D4000B0890443AC8201A8FFF7DEF91F4887421F
:103D500002D1DDF810A001E0DDF80CA0A88900F484
:103D6000004040B10AEBCA0000EB0A10316849007C
:103D7000B0FBF1F807E00AEBCA0000EB0A1031686B
:103D80008900B0FBF1F86420B8FBF0F004012009D1
:103D9000642101FB1089A88900F4004040B1322061
:103DA00000EBC900B0FBF1F000F00700044308E0AD
:103DB000322000EB09106421B0FBF1F000F00F009D
:103DC00004432C8106B0BDE8F087000000380140B4
:103DD00001468888C0F308007047C1F3080282805A
:103DE000704700BFFEE7000070B504460D464FF473
:103DF00080510948FDF7E0FD7E2000EA4406304688
:103E0000FEF7C2FE2846FEF7BFFE4FF4805102487F
:103E1000FDF7D4FD70BD0000000C01400FB4054B50
:103E200010B503A9044A029800F04CF910BC5DF8E3
:103E300014FB0000B94D0008800000200FB4084BAF
:103E400010B504A902AA039800F03CF9044602A99F
:103E5000002000F0BAFC204610BC5DF814FB000006
:103E6000CB47000830B528B1144C031F002021684F
:103E70000A4605E0084630BD9A4203D8104652680B
:103E8000002AF9D1002800D041680BD00468A3EBC8
:103E90000005A54204D11B681C440346046002E0EF
:103EA000436000E023603AB11C68D51AA54203D1F3
:103EB00015682C441C6052685A6030BD8400002094
:103EC0002DE9F04782460F4C10480D4E0E4F001B57
:103ED0004FF0000820F007054FF0010900221146BD
:103EE000504601F059F8002802D1306810B1002086
:103EF000BDE8F0873C60C4E90058C6F80090EDE7E3
:103F000088000020140400208400002010140020E9
:103F100002E008C8121F08C1002AFAD17047704792
:103F2000002001E001C1121F002AFBD170470000F0
:103F30002DE9FF5F82B00021DDE90430020DDDF8DC
:103F400040B0034318D044F61050A2F2FF3242436F
:103F50001514119801281FD0A5EB0B00401C5FEA37
:103F6000000A4FF000064E4FDFF83891B046504639
:103F700015D5CAF1000413E0119801244AA30128C1
:103F800001D16FEA0B010298119AC0E90031C0E932
:103F9000024206B0BDE8F09FCBF10000DFE7044627
:103FA0000021404A491842EB0450CDE9001012E0CC
:103FB000E00707D032463B4640464946FCF7C9FC7D
:103FC0008046894632463B4610461946FCF7C1FCFE
:103FD00006460F466410002CEAD1DDE90401DDE954
:103FE0000023BAF1000F06DAFCF7B3FC42464B4659
:103FF000FCF7AFFC05E0FCF7F0FE42464B46FCF751
:10400000ECFE04460E460022284BFCF769FD03D85F
:104010004FF0FF30014607E00022254B2046314695
:10402000FCF7F0FBFCF754FF102409E0002C0ADB3E
:104030000A220023FCF782FD039B30321A55641ECE
:1040400050EA0102F2D1641C039AC4F11103144432
:10405000119A012A03D0012208430DD10AE0084336
:1040600004D000204FF0110B119072E7A3EB0B0569
:104070006D1E0DE05B4504DD4FF0000205F101050A
:1040800004E003DA4FF00002A5F10105002AECD0AC
:1040900002981199C0E90231C0E9004579E70000B2
:1040A000000014400000F03F300000000000F0432A
:1040B0000000E03F30380A2801D20120704700207C
:1040C000704700002DE9FF4F95B09A468846064696
:1040D0000025EEE1252877D100242746F94A012161
:1040E000039400E0044316F8013F203B01FA03F07B
:1040F0001042F7D130782A2811D06FF02F03307892
:10410000A0F13002092A16D8039A44F0020402EB07
:10411000820203EB42021044761C0390EFE758F84A
:10412000042B0392002A03DA504244F40054039013
:1041300044F00204761C30782E2816D116F8010FB0
:1041400044F004042A280DD06FF02F023078A0F13B
:104150003003092B09D807EB870302EB4303C71889
:10416000761CF3E758F8047B761C30786C280FD067
:1041700006DC4C2817D068280DD06A2814D104E03A
:10418000742810D07A280FD10DE044F400140AE00E
:1041900044F4801401E044F440147278824202D165
:1041A00004F58014761C761C307866280BD013DC5E
:1041B000582877D009DC002875D04528F6D0462845
:1041C000F4D047281AD193E118E0632835D0642849
:1041D00079D0652812D18BE1702873D008DC67286C
:1041E000F1D069286FD06E280DD06F2806D1ACE0D1
:1041F00073282CD0752874D0782853D0524617993C
:1042000090476D1C54E1C4F30250022809D00328E2
:104210000DD0D8F8001004280DD00D6008F1040866
:1042200046E1D8F80010EA17C1E90052F6E7D8F8DD
:1042300000100D80F2E70D70F0E718F8041B8DF800
:10424000001000208DF80100EB46012003E058F833
:1042500004BB4FF0FF3061074FF0000102D40DE0C6
:1042600009F101018946B9420FDA8145F8DB1BF8F3
:1042700009100029F4D108E009F1010189468142C1
:10428000FADB1BF809100029F6D103985346A0EB7E
:10429000090721463846179A00F080FA284400EBB7
:1042A000090507E044E008E10DE01BF8010B524668
:1042B00017999047B9F10109F7D25346214638467C
:1042C000179AF2E039E00A21C4F302524FF0000BD2
:1042D0000091022A06D058F8040BC117032A09D00E
:1042E0000AE023E008F1070020F00702F2E80201EB
:1042F000904605E000B2C117042A01D140B2C117AF
:10430000002906DA0A460021404261EB02012D2213
:1043100002E0220504D52B228DF80420012203E0BF
:10432000E20701D02022F7E7914657E00A2100E09A
:1043300010214FF0000B00910BE010214FF0000B0B
:1043400044F004040827009103E008204FF0000B1C
:104350000090C4F30252022A05D058F8040B002141
:10436000032A08D008E008F1070020F00702F2E86D
:104370000201904603E080B2042A00D1C0B24FF09F
:10438000000922072AD53278702A07D0DDF800C04C
:104390008CF0100C5CEA0B0C05D00EE040228DF87E
:1043A0000420012208E050EA010306D030238DF8F2
:1043B00004308DF8052002229146009B83F008030B
:1043C00053EA0B030AD150EA010201D1620705D575
:1043D00030228DF804204FF001097F1E3278582AD0
:1043E00004D039A20C920CAA02920BE03BA2F9E78E
:1043F0005B46009AFCF7A2FB0C9B9B5C029A521E48
:104400000292137050EA0102F2D1029804A9081A2C
:1044100000F1200B600702D524F4803400E001276E
:104420005F4502DDA7EB0B0000E0002000EB0B0175
:10443000009003984944401A0390E00306D4534681
:104440002146179A039800F0A9F90544002706E0D1
:1044500001A85246C05D179990476D1C7F1C4F45BF
:10446000F6DBE0030CD553462146179A039800F07B
:1044700095F9054404E030205246179990476D1C89
:104480000099481E00900029F5DC08E00298029986
:1044900052460078491C0291179990476D1CBBF158
:1044A0000001ABF1010BF1DC5BE100F065F90544C3
:1044B000761C307800287FF40DAE19B02846BDE890
:1044C000F08F00000928010030313233343536379F
:1044D0003839616263646566000000003031323350
:1044E00034353637383941424344454600000000F0
:1044F000600700D4062708F1070020F00700F0E865
:104500000223804603F0004C5FEA0C0001D097A024
:1045100009E0200501D596A005E0E00701D095A0AF
:1045200001E0AFF24C001390307823F0004365288F
:104530000CD006DC452809D046281DD047287FD15D
:104540003BE0662818D067287AD136E00021112F89
:1045500001DB112000E0781CCDE9000104A90CA8C2
:10456000FFF7E6FCDDE90D010C9A4FF0000B07F1B7
:104570000109109200914EE04FF000400097CDE904
:10458000011004A90CA8FFF7D3FCDDE90D020C9B78
:104590000F994FF0000B91461093009211B9791CBE
:1045A00000EB0109B7EB090003D4C0F1FF3B07F1B1
:1045B0000109A9EB0700019042E0012F00DA012771
:1045C0000021112F01DD112000E03846CDE9000166
:1045D00004A90CA8FFF7ACFCDDE90D010C9A0091D1
:1045E0004FF0000BB946109221070FD4009A4A45AC
:1045F00003DA914601E0A9F10109B9F1010F05DDE6
:10460000109AA9F10101515C3029F4D0B84202DAC4
:1046100010F1040F03DA0121CDE9011010E00028A8
:1046200003DC8344A9EB000102E0411C494500DDA5
:104630008946A0EB0B00401C01904FF00040029017
:10464000200705D40198484502DB4FF0FF30019068
:1046500000208DF84B0002980DF14B07B0F1004F90
:1046600025D002200C902B200D90029800280CDA07
:10467000404202902D200D9007E00A210298FCF79D
:1046800047FA3031029007F8011D0C99481E0C9032
:104690000029F2DC02980028EFD1791E0D980870ED
:1046A000307800F0200040F0450007F8020D11A816
:1046B000C01BC01D02901398007800B1012000EBD0
:1046C0000901019801EBE071029801440398401A36
:1046D000401E0390E00306D453462146179A0398E0
:1046E00000F05CF805441398007818B15246179909
:1046F00090476D1CE00323D553462146179A039833
:1047000000F04CF805441BE0BBF1000F07DB0098FC
:10471000584504DD1098179910F80B0001E017991F
:1047200030205246904701980BF1010B401E05F1D5
:104730000105019004D12E205246179990476D1C17
:10474000B9F10001A9F10109DEDC05E017F8010B60
:104750005246179990476D1C0299481E02900029F5
:10476000F4DC53462146179A03989EE62D0000007C
:104770002B000000200000002DE9F0410446002538
:104780001E461746880404D405E039462020B04769
:104790006D1C641EF9D52846BDE8F0812DE9F04175
:1047A000044600251E469046C80301D5302700E088
:1047B0002027880404D505E041463846B0476D1CE3
:1047C000641EF9D52846BDE8F0810A68531C0B60C9
:1047D0001070704770B505460C46002614B10DB137
:1047E000A54201D1002070BDAE6826B9AC606460FE
:1047F0000020206007E0706828B12146706801F051
:1048000025FBA86844600120EDE72DE9F047054647
:104810000E4614461F46DDF820904FF00008C246B1
:104820001DB116B10CB1A54202D10020BDE8F08740
:10483000B9F1000F07D0304600F0EAF98046E06891
:1048400040F4007A0CE03946304600F0A1F9804689
:10485000B8F1000F01D10020E8E7E06820F4007A09
:10486000A08900F4007020B9206A10B1206A79682C
:104870008847C4F82080C4F80CA021462846FFF7DA
:10488000A9FFD3E7014609B1086808B900207047BD
:1048900019B1D1E90120904201D30846F7E702E0BF
:1048A0008868401C886041B1D1E90120904204D25F
:1048B0008A680868805C2028F2DDD1E901209042F6
:1048C00002D18868401E88600846E0E72DE9F84379
:1048D00006460F4614461D462046294600F02EF88F
:1048E00080460020074B4246394600903046FFF78D
:1048F0008CFF10B14046BDE8F883404600F076F8E2
:104900000020F8E71C000020F8B505460E461446C6
:10491000204600F051F807460020074B3A46314642
:1049200000902846FFF771FF08B13846F8BD3846B9
:1049300000F05CF80020F9E71C00002070B5054687
:104940000E46134800F087F80446F4B10820E060F2
:10495000C4E906560F4A104B28463146FCF7C0F80A
:1049600003D86FF0004060610FE000220B4B284637
:104970003146FCF79DF803D84FF00040606104E039
:1049800028463146FCF775F86061204670BD00008E
:104990001C0000200000C0FFFFFFDF410000E0C15D
:1049A00010B5044800F057F804460CB14020E06010
:1049B000204610BD1C00002070B505460A4800F0D6
:1049C0004AF804466CB11020E0600749284600F020
:1049D000DFF82061206920B9204600F007F80020A8
:1049E00070BD2046FCE700001C00002070B50446A6
:1049F000002522E02568A08900F4807020B9A06815
:104A000010B1A068FFF7F2FFA08900F4807028B908
:104A1000206918B10A4A206951688847A08900F4C2
:104A2000007028B9206A18B1054A206A5168884781
:104A300003484168204688472C46002CDAD170BDD7
:104A40001C00002070B504460D4600222946204671
:104A500000F0C6F970BD70B504462820216888476B
:104A600005461DB128212846FBF79FFB284670BD4F
:104A700010B5044600221146204600F06BF810BD28
:104A80002DE9F0478AB004460E46154698461C218B
:104A900003A8FBF78AFB002700202C490860486028
:104AA00004B106B932E00394049600200590284A28
:104AB00007CA07AB07C32648FFF7CDFF074607B96C
:104AC00024E003A801F096F98246FFF7DBFE814659
:104AD0004946384600F044FD00B917E0B8F1000F30
:104AE0000BD003A8FFF7CEFEDDE90410884203D205
:104AF00005990398405C00B108E01DB10599039841
:104B00000844286038460AB0BDE8F08717B1384637
:104B1000FFF76CFFC4B1019400200290DDE904109E
:104B2000884202D20598029004E0049810B10498DB
:104B3000401E02901DB1DDE90101084428600348D0
:104B4000DDE9011206C000BF0020DCE714000020F0
:104B50001C0000202DE9F04104460D46164614B90C
:104B60000020BDE8F0812046FBF73CFB471C3346A4
:104B70002A4639462046FFF783FFF2E710B5044680
:104B8000024A0121204600F089FD10BD1C000020D2
:104B90002DE9F04104460D460026002714B90020F7
:104BA000BDE8F0812046FBF71DFB461C3046296816
:104BB000884707460FB90020F2E7324621463846BB
:104BC000FBF7DAFA3846EBE770B504460D4604B158
:104BD0000DB9012070BDAC4201D10020FAE705E01B
:104BE000207808B90020F5E7641C6D1C2078FBF7DD
:104BF000BDFA06462878FBF7B9FA8642F0D020784D
:104C0000FBF7B4FA06462878FBF7B0FA301AE1E76A
:104C1000704700002DE9FC5F04460D4616461F460E
:104C200027F00043B24625F000405246CDE900404F
:104C300020460199FBF754FF03D225F0004120469E
:104C400002E027F0004130468046894600220D4BA5
:104C500040464946FBF77DFE82468B4632463B4640
:104C600020462946FBF76FFE21F0004152465B4685
:104C7000CDE90001FBF71CFF02D80120BDE8FC9F35
:104C80000020FBE70000B03C002107E0002200E02C
:104C9000521C4EF660239A42FAD3491C8142F5D346
:104CA000704710B5044603E04FF47A7000F005F841
:104CB000201EA4F10104F7D110BD10B54FF0E02380
:104CC0005B694FF47A74B3FBF4F358434FF0E0237D
:104CD000996900BF4FF0E0239B698B4204D24FF0EB
:104CE000E0239B69CA1A07E04FF0E0235B690B449D
:104CF0004FF0E024A4691A1B8242EBD310BD2DE9CA
:104D0000F04104460D46002600270CB1206810B97A
:104D10000020BDE8F081606828B1D4E90110884224
:104D200001D30020F5E7B5F1004F01D30020F0E7F3
:104D3000A068401C05446068A84203D3A1682068AD
:104D40000844E6E7206908B10020E2E7B5F1804FAA
:104D500007D3B5F1004F02D26FF0004702E0002008
:104D6000D7E76F00206A60B13946226A2068904711
:104D70000646DEB9E169206888470020606020604F
:104D8000C7E73846A1698847064636B9E169206811
:104D90008847002060602060BBE7A068421C304666
:104DA0002168FBF7E9F9E1692068884767602660B8
:104DB000A0683044ADE7000070B504460D46A1B2CE
:104DC0000548FFF70AF800BF40210348FEF738FF07
:104DD0000028F9D0204670BD003801402E207047D1
:104DE0002DE9F04105460E461746002405B116B9D7
:104DF0000020BDE8F081AC685FB100E024688CB1B0
:104E0000206A78B13046216AFBF7F3F90028F5D122
:104E100008E000E024682CB13046216AFFF7D4FE98
:104E20000028F7D10CB1206A08B90020E1E720463C
:104E3000DFE7000010B588B00446012144F2040009
:104E4000FEF742F918208DF81F004FF40070ADF8FE
:104E50001C0003208DF81E0007A92048FCF718FD50
:104E600048208DF81B004FF48060ADF81800032037
:104E70008DF81A0006A91948FCF70AFD02940020D3
:104E8000ADF80C00ADF80E00ADF810000C20ADF838
:104E900012000020ADF8140002A91148FEF72CFF03
:104EA00025208DF8040001208DF807008DF80500FD
:104EB00002208DF8060001A8FDF784FE012240F2D1
:104EC00025510748FEF7F3FE01210548FEF7ACFE29
:104ED00040210348FEF790FE08B010BD00080140D5
:104EE0000038014010B588B0044601210420FEF7C7
:104EF000EBF801214804FEF7C7F80420ADF81C00C8
:104F000003208DF81E0018208DF81F0007A92048E7
:104F1000FCF7BEFC0820ADF8180003208DF81A003D
:104F200048208DF81B0006A91948FCF7B1FC029433
:104F30000020ADF814000C20ADF812000020ADF8F0
:104F40001000ADF80E00ADF80C0002A91148FEF7F4
:104F5000D3FE26208DF8040001208DF807008DF87F
:104F6000050002208DF8060001A8FDF72BFE0122A6
:104F700040F225510748FEF79AFE01210548FEF749
:104F800053FE40210348FEF737FE08B010BD000075
:104F900000080140004400402DE9F0410B3020F0B2
:104FA0000706104D19E02068B04215D3B0420AD967
:104FB000871B201DD4F80480FBF7DEF8A019C0E998
:104FC0000078286004E060682860201DFBF7D4F8B2
:104FD000201D2660BDE8F081251D2C68002CE2D143
:104FE0000020F7E784000020FEF79EFA01E000F0C1
:104FF00030FFFCE710B50246012000E050430B1ED5
:10500000A1F10104E1B2F9D110BD2DE9F0418046D2
:105010000C4600250027E068B0F57A7F02D3002017
:10502000BDE8F081E068401CE060A1682068405C59
:105030005B2800D05FE0A068401CA0602046FFF71E
:1050400021FC4CB1D4E90110884205D2A168206846
:10505000405C5D2800D13FE01CB1D4E901108842DA
:1050600003D3A068401EA06045E0A068401EA06079
:1050700000BF04F11000FFF7EEFC064606B93AE067
:1050800015B93546374602E03E6077603746A0687E
:10509000401CA0602046FFF7F5FB2146384600F093
:1050A0005FFA00B927E02046FFF7ECFB44B1D4E9F2
:1050B0000110884204D2A1682068405C2C28D8D016
:1050C00044B1D4E90110884204D2A1682068405C50
:1050D0005D2800D00FE000BFE068401EE06005B131
:1050E0006F602020C8F80C00C8F80850A068401C69
:1050F000A060012094E715B12846FFF777FC002057
:105100008EE702460023002100BF23E0505C3028D8
:1051100006DB505C392803DC505C3038034415E072
:10512000505C412806DB505C462803DC505C373875
:1051300003440BE0505C612806DB505C662803DC0E
:10514000505C5738034401E000207047032900D227
:105150001B01491C0429D9D31846F6E72DE9F04371
:1051600091B080460C4600BF00201090FFF736FE3D
:10517000814600250CB1206818B9002011B0BDE8A7
:10518000F08300253CE0A16820680844405D342895
:1051900020D00ADCA0F12B0009282ED2DFE800F095
:1051A000202D212A2D1617181900382816D006DCB4
:1051B000352810D036280FD037281ED10DE03928D9
:1051C0000DD045280FD0652817D10BE000BF00BFD8
:1051D00000BF00BF00BF00BF00BF00BF00BF00BFD7
:1051E00000BF00BF00BFA16820680844405D0DF803
:1051F000050003E00DF8059000E00AE000BF6D1C1B
:105200003F2D05D224B1A068284461688842BAD3F2
:1052100000BF00200DF8050010A9684600F008FE48
:1052200006460F4668461099884201D10020A5E73E
:10523000C8E90667144A154B30463946FBF750FC5F
:1052400004D86FF00040C8F8140011E00022104BA1
:1052500030463946FBF72CFC04D84FF00040C8F824
:10526000140005E030463946FBF703FCC8F814008B
:105270000820C8F80C00A0686A461099891A0844EA
:10528000A06001207AE700000000C0FFFFFFDF41BF
:105290000000E0C12DE9F04180460C4600260025C3
:1052A000E068B0F57A7F02D30020BDE8F081E068C5
:1052B000401CE06044B1D4E90110884204D2A168E6
:1052C0002068405C7B2800D07DE0A068401CA06086
:1052D0002046FFF7D7FA4CB1D4E90110884205D235
:1052E000A1682068405C7D2800D15DE01CB1D4E954
:1052F0000110884203D3A068401EA06063E0A0684C
:10530000401EA06000BF04F11000FFF7A4FB074699
:1053100007B958E016B93E463D4602E02F607D6071
:105320003D46A068401CA0602046FFF7ABFA21462E
:10533000284600F04EF800B945E02046FFF7A2FAF3
:10534000286928620020286144B1D4E9011088420C
:1053500004D2A1682068405C3A2800D033E0A068FD
:10536000401CA0602046FFF78DFA2146284600F039
:10537000F7F800B927E02046FFF784FA44B1D4E9F2
:105380000110884204D2A1682068405C2C28BAD061
:1053900044B1D4E90110884204D2A1682068405C7D
:1053A0007D2800D00FE000BFE068401EE06006B13D
:1053B00075604020C8F80C00C8F80860A068401C60
:1053C000A060012071E716B13046FFF70FFB002007
:1053D0006BE72DE9F84F80460C46A1682068084429
:1053E000461CA16820680844451C00200090002746
:1053F000A1682068405C222800D0A6E04FF0000A97
:10540000D1460DE028785C2809D1681C2168401A33
:105410006168884200D398E009F101096D1C6D1C98
:105420002068281A6168884202D228782228E9D1A7
:105430002068281A6168884202D22878222800D081
:1054400083E0A16820680844281AA0EB090A0AF141
:10545000010021698847074607B976E0009761E0B7
:1054600030785C2807D016F8010B00990870009876
:10547000401C009056E04FF00209A81B012800DAFA
:1054800063E07078662819D008DC222832D02F28F3
:1054900032D05C282FD0622840D108E06E2814D08A
:1054A000722819D074281ED0752837D12BE0082017
:1054B000009908700098401C009030E00C20009982
:1054C00008700098401C009029E00A20009908709C
:1054D0000098401C009022E00D2000990870009870
:1054E000401C00901BE00920009908700098401CA7
:1054F000009014E000BF00BF707800990870009819
:10550000401C00900BE06A462946304600F065FDDD
:105510008146B9F1000F00D117E000E015E000BFAF
:105520004E4400BFAE429BD300200099087010206B
:10553000C8F80C00C8F810702068281AA060A0688D
:10554000401CA0600120BDE8F88F17B138466169A2
:10555000884716B12068301AA0600020F3E70000E9
:1055600070B505460C460CB1206808B9002070BD26
:105570009CB1A068001D616888420ED8A2682168AD
:10558000881804223FA1FAF74BFE30B90420E860E6
:10559000A068001DA0600120E9E79CB1A068401D43
:1055A000616888420ED8A26821688818052237A150
:1055B000FAF736FE30B90120E860A068401DA0600F
:1055C0000120D4E7ACB1A068001D6168884210D802
:1055D000A2682168881804222EA1FAF721FE40B99A
:1055E0000220E86001206861A068001DA060012021
:1055F000BDE76CB1D4E90110884209D2A1682068E6
:10560000405C222804D121462846FFF7E2FEAEE79F
:10561000BCB1D4E90110884213D2A1682068405C73
:105620002D2809D0A1682068405C302809DBA168DA
:105630002068405C392804DC21462846FFF78EFDAF
:1056400095E76CB1D4E90110884209D2A1682068BD
:10565000405C5B2804D121462846FFF7D6FC86E74C
:105660006CB1D4E90110884209D2A1682068405C7D
:105670007B2804D121462846FFF70CFE77E700205F
:1056800075E700006E756C6C0000000066616C735D
:10569000650000007472756500000000F0B589B007
:1056A00007460E461446002524216846FAF77DFD7C
:1056B0004FF480702168884700904FF4807001900B
:1056C000059694E8070006AB07C3009800B933E0DD
:1056D0006946384600F0BAFA00B92DE0684600F095
:1056E0004DFCA06850B1029B591C0098A2689047DD
:1056F000054605B920E0002000901AE0029A501CEF
:1057000021688847054605B916E0DDE90130401CEF
:10571000834201D2019801E00298401C02462846CB
:105720000099FAF729FD00200299685400986168F1
:105730008847284609B0F0BD009810B1009861680C
:10574000884715B12846616888470020F2E72DE9AF
:10575000F04107460C460025A846BE6814B9002053
:10576000BDE8F08101212046FFF7C9FA05460DB9D1
:105770000020F5E75B202870A068401CA060E0686E
:10578000401CE06028E02146304600F05FFA08B98E
:105790000020E5E7204600F0F1FB3068D8B16069F1
:1057A00008B1022000E00120804608F101012046F6
:1057B000FFF7A5FA05460DB90020D1E72C2005F822
:1057C000010B606910B1202005F8010B0020287042
:1057D000A0684044A0603668002ED4D10221204643
:1057E000FFF78DFA05460DB90020B9E75D2005F8F1
:1057F000010B00202870E068401EE0600120AFE748
:105800002DE9F04F8BB081460F464FF0000AD9E9E1
:105810000645D04600261C2104A8FAF7C6FCFFF76F
:10582000DDFA834600200290039017B90BB0BDE863
:10583000F08FCDE90045DDE900210AB1012200E049
:10584000002241EA020020F00041394A511AC90FF2
:1058500061B9CDE9004551000198B1EB400F03D18A
:10586000009808B9012000E0002028B131A104A867
:10587000FEF7E4FA80462EE0D9F81400FBF7DBF8D7
:1058800022462B46CDE90001FBF712F907D12BA1E7
:1058900004A8D9F81420FEF7D1FA80461BE022466E
:1058A0002B4627A104A8FEF7C9FA804602AA26A122
:1058B00004A8FAF7C5FC012806D122462B46DDE9EB
:1058C0000201FFF7A7F930B922462B461FA104A811
:1058D000FEF7B4FA8046B8F1000F02DBB8F1190FF9
:1058E00001DD0020A2E708F101013846FFF707FAC1
:1058F0008246BAF1000F01D1002097E700260DE0A3
:1059000004A8805D584503D12E200AF8060004E063
:1059100004A8805D0AF8060000BF761C4645EFD358
:1059200000200AF80600B8684044B86001207DE70E
:105930000000F07F6E756C6C0000000025640000B4
:1059400025312E3135670000256C670025312E3159
:10595000376700002DE9F04781460C4600250026F8
:10596000D9F8087014B90020BDE8F087606908B163
:10597000022000E001200646711C2046FFF7BFF917
:1059800005460DB90020EFE77B2005F8010BE06824
:10599000401CE060606910B10A2005F8010BA068A6
:1059A0003044A06069E06069B8B12046E168FFF763
:1059B000A6F905460DB90020D6E74FF0000804E02F
:1059C000092005F8010B08F10108E0684045F7D807
:1059D000D4E902010844A06000BF2146386A00F003
:1059E0007BF808B90020BFE7204600F0C7FA6069DD
:1059F00008B1022000E00120064631462046FFF7AC
:105A00007EF905460DB90020AEE73A2005F8010BF6
:105A1000606910B1092005F8010BA0683044A0604E
:105A20002146384600F012F908B900209CE72046CC
:105A300000F0A4FA606908B1012000E00020396894
:105A400009B1012100E000214618711C2046FFF732
:105A500056F905460DB9002086E7386810B12C20AC
:105A600005F8010B606910B10A2005F8010B002050
:105A70002870A0683044A0603F68002F93D160690F
:105A800010B1E068401C00E0022001462046FFF70C
:105A900036F905460DB9002066E7606950B100206F
:105AA00003E0092105F8011B401CE168491E814201
:105AB000F7D800BF7D2005F8010B00202870E068B2
:105AC000401EE06001204FE770B504460D462946B0
:105AD000206900F001F870BD2DE9F04707468A46BD
