:020000040800F2
:1000000088040020450100089D02000899020008AC
:100010009B020008D5010008AD06000800000000A2
:10002000000000000000000000000000E1030008E4
:10003000D70100080000000019030008A50400080B
:100040005F0100085F0100085F0100085F01000810
:100050005F0100085F0100085F0100085F01000800
:100060005F0100085F0100085F0100085F010008F0
:100070005F0100085F0100085F0100085F010008E0
:100080005F0100085F0100085F0100085F010008D0
:100090005F0100085F0100085F0100085F010008C0
:1000A0005F0100085F0100085F0100085F010008B0
:1000B0005F0100085F0100085F0100085F010008A0
:1000C0005F0100085F0100085F0100085F01000890
:1000D0005F010008F9040008FD0400085905000844
:1000E0005F0100085F0100085F0100085F01000870
:1000F0005F0100085F0100085F0100085F01000860
:100100005F0100085F0100085F0100085F0100084F
:100110005F0100085F0100085F0100085F0100083F
:100120005F0100085F0100085F0100085F0100082F
:10013000DFF80CD000F03CF8004800472109000827
:10014000880400200648804706480047FEE7FEE78F
:10015000FEE7FEE7FEE7FEE7FEE7FEE7FEE7FEE777
:10016000A904000831010008D2B201E000F8012B17
:10017000491EFBD270470022F6E710B513460A4627
:1001800004461946FFF7F0FF204610BD30B505467E
:100190002A460B4612F8010B13F8014B08B1A04296
:1001A000F8D01CB1002802D06D1CF1E7284630BD04
:1001B000064C074D06E0E06840F0010394E80700B4
:1001C00098471034AC42F6D3FFF7B6FFBC0A0008DC
:1001D000DC0A0008FEE770474FF0E02142F22832C7
:1001E0004A6100228A6102E00A69D203FCD5401EFE
:1001F000FAD27047F0B5CC78002204F00F03E40681
:1002000001D58C7823430C784FF00F0C14F0FF0FBE
:100210004FF0010E1BD005680E880EFA02F426403E
:10022000A64210D196000CFA06F725EA070703FA52
:1002300006F5CE783D43282E02D0482E02D002E0AB
:10024000446100E00461521C082AE5D305600A8875
:10025000FF2A1CD94468002202F108060EFA06F5AE
:100260000E882E40AE420ED196000CFA06F7BC4323
:1002700003FA06F7CE783C43282E00D14561CE78AC
:10028000482E00D10561521C082AE5D34460F0BD18
:100290004161704701617047FEE7FEE7704700006B
:1002A00030B50F23C27801780125F2B1144A1268E3
:1002B00001F1E02102F4E062C2F5E062120AC2F14B
:1002C0000404D3404278A24084781C4014432201A5
:1002D00081F80024007800F01F018D404009800063
:1002E00000F1E020C0F8005130BD01F01F00854052
:1002F0004809800000F1E020C0F8805130BD0000C6
:100300000CED00E002490843024908607047000014
:100310000000FA050CED00E070470000044A0029D7
:10032000D16901D0014300E08143D16170470000F1
:1003300000100240044A0029916901D0014300E005
:1003400081439161704700000010024030B5204A9F
:100350005168204B11F00C0103D0042901D0082969
:1003600001D0036012E05168536801F470114FF03E
:10037000020413F4803F04EB914102D053689B03C5
:1003800001D5154B00E0134B5943016051680F2311
:1003900003EA1111114B5C5C0168E1404160546853
:1003A000072505EA14241C5D21FA04F484605468CE
:1003B00005EAD4241B5DD940C1605268032303EAD7
:1003C0009232064B1B1F9A5CB1FBF2F1016130BD0A
:1003D0000010024000127A0000093D0005000020D4
:1003E000704700000CB50022264800920192016877
:1003F00041F4803101604FF4A063016801F40031E1
:1004000001910099491C0091019911B900999942F3
:10041000F3D10168890333D5012101911A490A6892
:1004200042F010020A600A6822F003020A600A68B9
:1004300042F002020A6041684160416841604168DF
:1004400041F480614160416821F47C114160416860
:1004500041F4E8114160016841F080710160016878
:100460008901FCD5416821F003014160416841F0F8
:10047000020141604168C1F381010229FAD10CBD3A
:1004800001920CBD00100240002002404FF0E0211C
:100490000428086903D020F004000861704740F088
:1004A0000400FAE7704700000F4810B5016841F0FA
:1004B0000101016041680D4A1140416001680C4A28
:1004C00011400160016821F480210160416821F43C
:1004D000FE0141604FF41F018160FFF783FF054972
:1004E0004FF00060086010BD001002400000FFF8EF
:1004F000FFFFF6FE08ED00E07047000070B5134DF9
:1005000040F22551284600F03CF8114C60B12846D5
:1005100000F0C4F80F4A21785054491CC9B2217028
:10052000322901D13120207040F22441284600F0C8
:1005300028F8002808D0284600F0B0F800202070E5
:10054000BDE8704000F032BA70BD000000440040C9
:1005500000000020520000207047C943018070470E
:100560000029818902D041F4005101E021F40051B9
:10057000818170470246002012880A4200D0012083
:10058000704770B501F01F0501260024C1F3421326
:1005900006FA05F2012B0FD0022B0FD0838A4FEA07
:1005A00011210088134206FA01F600EA060001D084
:1005B00000B10124204670BD8389F0E7038AEEE78D
:1005C00010B5C1F3421301F01F040121A140012B1A
:1005D00007D0022B07D01430002A026805D00A4346
:1005E00004E00C30F8E71030F6E78A43026010BDF3
:1005F00030B50446008A85B00D464CF6FF710840C0
:10060000E98801432182A0894EF6F3110840A988A8
:100610002A8911436A8902431143A181A08A4FF6B6
:10062000FF410840A9890143A1826846FFF78EFE79
:100630001948844201D1039800E00298A189090475
:1006400000EBC00101EB0010296801D5490000E072
:100650008900B0FBF1F06422B0FBF2F109010B0953
:100660006FF018056B4300EB8300A3891D044FF066
:10067000320306D503EBC000B0FBF2F000F0070038
:1006800005E003EB0010B0FBF2F000F00F000843B0
:10069000208105B030BD0000003801408088C0F3E3
:1006A00008007047C1F3080181807047FEE7000031
:1006B000014A024900F013B8010700081C0000209D
:1006C00002E008C8121F08C1002AFAD1704770471B
:1006D000002001E001C1121F002AFBD170472DE963
:1006E000F04116460F460446002503E03946B04760
:1006F000641C6D1C20780028F8D12846BDE8F081E4
:1007000070B5094C054640212046FFF726FFE9B2A7
:100710002046FFF7C7FF40212046FFF72BFF0028A8
:10072000F9D0284670BD00000038014038B50121DD
:100730000820FFF7FFFD2020ADF8000010208DF805
:1007400003000320054C8DF8020069462046FFF7A0
:1007500051FD20212046FFF79BFD38BD000C0140D4
:1007600010B5FFF7CFFD01230021BDE810401A4668
:10077000262000F095B910B56FF00400FFF786FE53
:100780004FF0E020016941F002010161016941F08F
:10079000010101610921416110BD000010B586B061
:1007A000012144F20400FFF7C5FD4FF40070ADF8DD
:1007B000100018208DF813000320154C8DF812003E
:1007C00004A92046FFF716FD2115ADF810100421ED
:1007D0008DF8131004A92046FFF70CFD4FF4E1300B
:1007E00000900020ADF80400ADF80600ADF8080058
:1007F000ADF80C000C20074CADF80A006946204605
:10080000FFF7F6FE01212046FFF7AAFE06B010BD55
:10081000000801400038014030B585B001210420B6
:10082000FFF788FD01214804FFF778FD0424ADF8A7
:10083000104018208DF8130003201B4D8DF8120076
:1008400004A92846FFF7D6FC0821ADF810108DF852
:10085000134004A92846FFF7CDFC4FF4E130009087
:100860000020ADF80400ADF80600ADF80800ADF8C2
:100870000C000C200D4CADF80A0069462046FFF72D
:10088000B7FE01212046FFF76BFE012240F2255101
:100890002046FFF795FE012240F224412046FFF753
:1008A0008FFE05B030BD000000080140004400404C
:1008B00070B532211248FFF75EFC11483221323800
:1008C000FFF759FC0FA1134800F0DEF8C820FFF72E
:1008D00083FC0B4E10A5C82402E00A20FFF77CFC25
:1008E00029463046FFF752FC20B13CB10B490120AC
:1008F000086070BD641E2404240CEED1002070BD7D
:1009000052000020525F434D445F52455345540D01
:100910000A000000004400404F4B00001800002077
:10092000FFF729FFFFF73AFFFFF776FFFFF7FEFE1D
:100930004FF4A060FFF714FFFFF7BAFF20B1642067
:10094000FFF74AFC04A000E00AA0FFF7B1FE322145
:100950001548FFF710FCFEE75152204D6F64756C8F
:1009600065206E6F772069732072656164792E0D42
:100970000A000000496E697469616C697A696E6782
:10098000205152204D6F64756C65206661696C65FD
:10099000642C636865636B20636F6E6E6563746956
:1009A0006F6E732E0D0A0000520000200F4810B524
:1009B0000068012818D10EA10F48FFF7E7FB0F4A86
:1009C00000284FF02001104603D0FFF763FC0CA075
:1009D00002E0FFF75DFC16A0FFF76AFEBDE81040DD
:1009E00032210548FFF7C7BB10BD000018000020EA
:1009F000313233343536000052000020000C014003
:100A0000556E6C6F636B696E672073756363657396
:100A10007366756C2E205468652070617373776FF0
:100A20007264206973203132333435362E0D0A005A
:100A3000556E6C6F636B696E67206661696C656487
:100A40002E2057726F6E672070617373776F7264B8
:100A50002E0D0A0070B50C46054640210948FFF7E7
:100A60007CFD21462846FFF71DFE40212846FFF762
:100A700081FD0028F9D02846BDE870404021FFF7ED
:100A80006CBD00000044004070B50C46054603E014
:100A90002846641CFFF7DEFF21780029F8D170BDDD
:100AA00008B58DF800008DF801108DF802208DF842
:100AB00003306846FFF7F4FB08BD0000DC0A0008BD
:100AC0000000002020000000C0060008FC0A00080A
:100AD0002000002068040000D00600080002040680
:100AE00008000000000102030401020304060708D5
:0C0AF000090000000000000000000000F1
:0400000508000131BD
:00000001FF
