:020000040800F2
:100000006007002045010008C3190008E90D000839
:10001000BF190008430C0008332500080000000049
:10002000000000000000000000000000F91B0008B4
:10003000470C0008000000004F1A0008D11D0008FE
:100040005F0100085F0100085F0100085F01000810
:100050005F0100085F0100085F0100085F01000800
:100060005F0100085F0100085F0100085F010008F0
:100070005F0100085F0100085F0100085F010008E0
:100080005F0100085F0100085F0100085F010008D0
:100090005F0100085F0100085F0100085F010008C0
:1000A0005F0100085F0100085F0100085F010008B0
:1000B0005F0100085F0100085F0100085F010008A0
:1000C0005F0100085F0100085F0100085F01000890
:1000D0005F0100088121000843220008A7220008D0
:1000E0005F0100085F0100085F0100085F01000870
:1000F0005F0100085F0100085F0100085F01000860
:100100005F0100085F0100085F0100085F0100084F
:100110005F0100085F0100085F0100085F0100083F
:100120005F0100085F0100085F0100085F0100082F
:10013000DFF80CD000F04EFB004800477F2F00088E
:10014000600700200648804706480047FEE7FEE7B4
:10015000FEE7FEE7FEE7FEE7FEE7FEE7FEE7FEE777
:10016000091E000831010008D2B201E000F8012B9D
:10017000491EFBD270470022F6E710B513460A4627
:1001800004461946FFF7F0FF204610BD30B505467E
:100190002A460B4612F8010B13F8014B08B1A04296
:1001A000F8D01CB1002802D06D1CF1E7284630BD04
:1001B0000FB400B58DB010A909900B9000914FF0CD
:1001C000FF300A9000200C900548069005480790E3
:1001D0006A4609A80F9900F017F90DB05DF814FBF5
:1001E00025040008430400082DE9FF5F1D464FF079
:1001F000FF3BD5E9014691465F464FF00008A969EB
:100200007F1C01988847296A824688470028F6D1D2
:10021000BAF1FF3F0CD024F4C064002E19DD600653
:1002200014D5BAF12B0F09D0BAF12D0F0ED103E07E
:10023000584604B0BDE8F09F44F48064A9697F1C6F
:1002400001988847761E8246002E02DDBAF1300FF3
:1002500003D0B9F1000F26D032E0A969761E44F42C
:1002600000747F1C019888478246002E05DDBAF194
:10027000780F06D0BAF1580F03D0B9F1000F10D0A3
:100280001EE0B9F1000F02D0B9F1100F18D1A96921
:10029000761E24F400747F1C019888478246102043
:1002A00002E0082000E00A20814609E008FB090876
:1002B000A969761E44F400747F1C01988847824621
:1002C000002E05DD4946504600F089F80028EDDA99
:1002D000E96901988847A00502D46FF00100A8E7FA
:1002E000E00725D1600613D5600502D5C8F10000EE
:1002F00000E0404629680A1D2A600968220501D5E8
:10030000087015E0220701D5088011E008600FE0B1
:100310002868011D29600068210502D580F8008049
:1003200006E0210702D5A0F8008001E0C0F80080B7
:1003300038467EE730B50B460146002020220124D6
:1003400009E021FA02F59D4205D303FA02F5491BA3
:1003500004FA02F52844151EA2F10102F1DC30BDB9
:100360002DE9F05F0546002092469B4688460646EA
:10037000814640241BE0284641464746224600F07D
:100380004AFA53465A46C01A914110D311461846AC
:10039000224600F031FA2D1A67EB01084F4622463B
:1003A0000120002100F028FA17EB00094E41201E21
:1003B000A4F10104DFDC484631462A464346BDE845
:1003C000F09F0000004870475C78000810B50446B4
:1003D000FFF7F8FF0068005D00F0010010BD3A284B
:1003E00000D2303820F02002412A01D3A2F1370098
:1003F000884201D34FF0FF3070470000026811447B
:100400001378016018467047D1600449516104496E
:10041000116200211161114600F020BAFD030008AD
:10042000CD030008426842B1016811F8013B23B1D5
:10043000521EC0E90012184670470121C160881E93
:10044000704742685AB1C368016843B983688B42F8
:1004500005D0491E521CC0E90012002070474FF021
:10046000FF3070472DE9FE4F804681EA0300C00F40
:100470000C46009021F0004123F00045B8EB02004B
:10048000A94105D24046214690461C460B460246ED
:1004900023F00040104347D0270DC7F30A00C3F3F1
:1004A0000A510290401A019040286BDAC3F31300FE
:1004B00040F4801B0098924620B10023D2EB030A3F
:1004C00063EB0B0B01985946C0F14002504600F017
:1004D00093F906460D4650465946019A00F0ABF98D
:1004E00010EB08006141002487EA115284EAE773A7
:1004F0001A4340D0009A62B3019A012A4FEA075288
:1005000015DC001B61EB02014FF0004202EA0752CA
:10051000CDE90042001C41F5801132462B4600F027
:1005200042FB03B0BDE8F08F40462146F9E7001BCF
:1005300061EB0201001C41F5801300185B4120189B
:10054000A2F5001747EB030140EAD570B6196D41DB
:1005500011E06D084FEA360645EAC0754FEA0752CA
:10056000001B61EB0201001C41F5801149084FEAB4
:1005700030000019514132462B4603B0BDE8F04F20
:1005800000F002BB0098012240000023D0EB0202E1
:1005900063EBE073009821464FEAE074B8EB00008B
:1005A00061EB0401E9E783F000435BE781F0004180
:1005B00058E72DE9FE4F81EA030404F0004421F0DE
:1005C000004100944FF0000B23F0004350EA010477
:1005D0005ED052EA03045BD0C3F30A54C1F30A5558
:1005E0002C44A4F2F3340194A0FB0254C1F3130190
:1005F00041F48011C3F3130343F4801301FB02445D
:1006000000FB034E840A970A44EA815447EA835761
:10061000A4FB076802958D0A05FB07854FEA932C1A
:1006200004FB0C542705029D4FEA065847EA16378B
:10063000B5EB08056EEB070C870E920E47EA8117A3
:1006400042EA8312A7FB0201B6EB0B0164EB000444
:100650002B0D43EA0C335E1844EB1C50DA4651462E
:10066000E7FB0201C5F313044FEA0B3343EA1453CB
:100670004FEA0432019C43EA0603A4F10C040294FD
:10068000009CCDE900B400F08EFA03B0BDE8F08F15
:1006900000200146F9E72DE9F04D81EA030404F05A
:1006A000004B21F0004514464FF0000A23F00041B2
:1006B00050EA050220D054EA01021DD0C5F30A57C2
:1006C0000246C5F31303C1F31300C1F30A5640F405
:1006D000801543F48013A7EB0608101BD64608F2DA
:1006E000FD3873EB050002D308F1010801E0921810
:1006F0005B41B8F1000F03DA00200146BDE8F08D40
:1007000000204FF48011064684460EE0171B73EB61
:10071000050705D3121B63EB050306434CEA010CE6
:1007200049084FEA300092185B4150EA0107EDD1C9
:1007300052EA030012D082EA040083EA050108436A
:1007400005D0101BAB4106D20122002306E0002297
:100750004FF0004302E06FF0010253101AEB060065
:100760004CEB085110EB0A0041EB0B01BDE8F04DDA
:1007700000F00ABAC1F30A52C1F3130140F2FF3389
:1007800041F480119A4202DA00200146704740F29B
:1007900033439A42A2F2334202DC524200F03BB8A9
:1007A00000F02AB830B5041E71F1000404DB4FF0EC
:1007B0000044404264EB0101141E73F1000405DBA8
:1007C0001C464FF00043524263EB0403994208BFBA
:1007D000904230BD064C074D06E0E06840F0010352
:1007E00094E8070098471034AC42F6D3FFF7A4FC16
:1007F000DC780008FC780008202A04DB203A00FAA4
:1008000002F1002070479140C2F1200320FA03F367
:10081000194390407047202A04DB203A21FA02F065
:100820000021704721FA02F3D040C2F1200291402A
:10083000084319467047202A06DBCB17203A41FAB5
:1008400002F043EAE07306E041FA02F3D040C2F15D
:100850002002914008431946704700002DE9F34FEC
:100860008BB04FF0000801F10C000C464FF0010B6B
:1008700046460DF1080A01906269012101989047EE
:1008800005002DD0252D2CD0216A8847C0B1626982
:10089000012101989047216A88470028F7D1411E1D
:1008A00062690198904700E0761CA1690B9888471F
:1008B000216A88470028F7D1E1690B988847DBE770
:1008C000A1690B9888470746A84201D1761CD3E757
:1008D000E1690B9888477F1C02D1B8F1000F6FD0F7
:1008E00046E1002762693D463946019890472A282B
:1008F00004D162690121019890470125DFF88492B3
:100900006269012101989047A0F130010A290AD2B9
:100910004F45E5DC07EB870100EB4107303FDFD4B3
:1009200045F01005ECE7E90601D46FF000476C28AC
:100930000AD04C2814D0682815D06A280DD0742805
:100940001CD07A281AD01DE06269012101989047D5
:100950006C2802D045F0040514E045F002050DE0D6
:1009600045F020050AE06269012101989047682856
:1009700002D045F0080505E045F4006562690121F3
:1009800001989047C4E9015765283DD019DC5828E3
:100990007AD00CDC452837D004DC252826D0412825
:1009A00031D131E046282FD047282CD12CE05B28CC
:1009B00077D0612828D063287CD0642823D15AE0DE
:1009C000D0E06F2848D008DC66281DD067281BD0EF
:1009D000692821D06E2816D127E0702845D07328C9
:1009E00068D0752847D078280DD14DE0A1690B98C3
:1009F0008847054625283FF469AFE1690B98884789
:100A00006D1C3FF46AAFB3E023466A466FF0010005
:100A10000B99AFF300809EE045F040006060A807AE
:100A200023464FF0000236D43EE0E8077FF447AF9C
:100A30002068011D21600068290501D506701BE7AB
:100A4000290701D5068017E7A90703D5F117C0E9E3
:100A5000006111E706600FE745F040006060A807FD
:100A600023464FF0080216D41EE040F60E0125EA98
:100A70000100606016E045F040006060A807234672
:100A80004FF00A0207D40FE045F040006060A8076D
:100A900008D5234610226FF001000B99AFF30080B8
:100AA00059E007E0234610226FF001000B99FFF791
:100AB0009BFB50E04FF000094F464B46632802D0A5
:100AC0005B2806D040E0E80601D40120A0600127A1
:100AD0003AE062690121019890475E2805D14FF004
:100AE00001096269494601989047216939B9002195
:100AF0000A46534643F82120491C0829FADBB0B3C3
:100B0000216969B9C11700EBD16253110AEB830166
:100B100022F01F02821A01200B68904003430B60F1
:100B200062690121019890475D28E8D1B9F1000F71
:100B300009D00020514651F82020D24341F820200E
:100B4000401C0828F7DB02AB224600976FF001003B
:100B50000B99AFF3008000280CDA401C08D1BBF1E0
:100B6000000F05D04FF0FF300DB0BDE8F08FFFE76C
:100B70004046F9E7E90701D108F1010806444FF0C2
:100B8000000B79E6CCCCCC0C10B5141E73F100042C
:100B900008DA401C41F1000192185B411A4301D16F
:100BA00020F0010010BD2DE9F04D92469B4611B199
:100BB000B1FA81F202E0B0FA80F220329046FFF7FB
:100BC0001BFE04460F4640EA0A0041EA0B01534669
:100BD0005A46084313D0114653EA010019D0C8F110
:100BE00040025046FFF717FE05460E46504659464E
:100BF0004246FFF701FE084305D0012004E02046ED
:100C00003946BDE8F08D0020054346EAE0762C43E6
:100C100037430A986305E40AA0EB08000022FD0AA6
:100C200044EA47540A3002D500200146E9E70105AD
:100C300010196941DDE9084500196941BDE8F04D29
:100C4000A2E700BFFEE7704740F22801C2F20001B0
:100C5000086000BF40F22801C2F2000109680029C3
:100C6000F8D170472DE9F04102460025002600200A
:100C700000230024002791F803C00CF00F0591F821
:100C800003C00CF0100CBCF1000F03D091F802C0AF
:100C90004CEA050591F800C0BCF1000F31D0146892
:100CA00000202BE04FF0010C0CFA00F3B1F800C06B
:100CB0000CEA03069E4220D183004FF00F0C0CFA81
:100CC00003F7BC4305FA03FC4CEA040491F803C0A3
:100CD000BCF1280F06D14FF0010C0CFA00FCC2F851
:100CE00014C00AE091F803C0BCF1480F05D14FF0E1
:100CF000010C0CFA00FCC2F810C0401C0828D1D32B
:100D00001460B1F800C0BCF1FF0F34DD546800205E
:100D10002EE000F1080C4FF0010808FA0CF3B1F8CE
:100D200000C00CEA03069E4221D183004FF00F0C55
:100D30000CFA03F7BC4305FA03FC4CEA040491F8EF
:100D400003C0BCF1280F05D100F1080C08FA0CF81B
:100D5000C2F8148091F803C0BCF1480F07D100F12C
:100D6000080C4FF0010808FA0CF8C2F81080401C7B
:100D70000828CED35460BDE8F08102460020936875
:100D80000B400BB1012000E000207047416170472B
:100D9000016170470CB5014647F2C472C0F600020B
:100DA00005CACDE90002032907DD0846CA1701EB91
:100DB00092729210042303FB12113DF811000CBD36
:100DC0000EB5014647F2CC73C0F600030DCB8DE89B
:100DD0000D00052905DD062091FBF0F0062202FB3F
:100DE00010113DF811000EBD00BFFEE708B501214E
:100DF000102000F046FE0121102000F042FE0121EB
:100E0000102000F03EFE0121102000F03AFE1020DC
:100E10008DF8030003208DF802004FF40050ADF868
:100E2000000069464FF48050C4F20100FFF71AFF3A
:100E30004FF40050ADF8000069464FF48050C4F202
:100E40000100FFF70FFF4FF40050ADF800006946B6
:100E50004FF48050C4F20100FFF704FF4FF400503C
:100E6000ADF8000069464FF48050C4F20100FFF76E
:100E7000F9FE08BD2DE9F04107460C4615461E4611
:100E80002A2000F0E8FC384600F0D6FC284600F0A6
:100E9000D3FC2B2000F0DFFC204600F0CDFC3046D8
:100EA00000F0CAFC2C2000F0D6FCBDE8F08170B543
:100EB00004460D4616462B46224629462046FFF795
:100EC000D9FF304600F0B8FC70BD2DE9F04706466A
:100ED0000F4614461D46DDF820A0681E83B2601E32
:100EE00082B239463046FFF7C5FFB8460EE0B1463C
:100EF00006E0504600F0A0FC09F101001FFA80F95D
:100F0000A145F6DB08F101001FFA80F8A845EEDBE9
:100F1000BDE8F0871CB50121042000F0B2FD0121DD
:100F2000082000F0AEFD4FF47040ADF80400102032
:100F30008DF8070003208DF806004FF48070ADF89F
:100F4000000010208DF8030003208DF8020001A995
:100F50004FF44060C4F20100FFF784FE69464FF48D
:100F60000060C4F20100FFF77DFE4FF470414FF4C2
:100F70004060C4F20100FFF70BFF4FF480714FF4A3
:100F80000060C4F20100FFF703FF1CBD10B5FFF7BE
:100F9000C1FF4FF480414FF44060C4F20100FFF7FD
:100FA000F5FE6420FFF750FE4FF480414FF440609F
:100FB000C4F20100FFF7ECFE6420FFF745FE4FF49A
:100FC00080714FF44060C4F20100FFF7E1FE64203D
:100FD000FFF73AFE112000F03EFC7820FFF734FEC8
:100FE000362000F038FC002000F02FFC3A2000F002
:100FF00032FC052000F029FCB22000F02CFC1F2060
:1010000000F023FC1F2000F020FC002000F01DFC5D
:10101000332000F01AFC332000F017FCB72000F05A
:101020001AFC352000F011FCBB2000F014FC20203D
:1010300000F00BFCC02000F00EFC2C2000F005FCA2
:10104000C22000F008FC012000F0FFFBC32000F0EC
:1010500002FC012000F0F9FBC42000F0FCFB18208A
:1010600000F0F3FBC62000F0F6FB132000F0EDFBD0
:10107000D02000F0F0FBA42000F0E7FBA12000F05E
:10108000E4FBD62000F0E7FBA12000F0DEFBE0202F
:1010900000F0E1FBF02000F0D8FB042000F0D5FBCD
:1010A000072000F0D2FB042000F0CFFB042000F06A
:1010B000CCFB042000F0C9FB252000F0C6FB332048
:1010C00000F0C3FB3C2000F0C0FB362000F0BDFB6D
:1010D000142000F0BAFB122000F0B7FB292000F02A
:1010E000B4FB302000F0B1FBE12000F0B4FBF020B5
:1010F00000F0ABFB022000F0A8FB042000F0A5FBF1
:10110000052000F0A2FB052000F09FFB212000F04D
:101110009CFB252000F099FB322000F096FB3B2041
:1011200000F093FB382000F090FB122000F08DFBC4
:10113000142000F08AFB272000F087FB312000F00C
:1011400084FBE42000F087FB1D2000F07EFB0020E4
:1011500000F07BFB002000F078FB212000F07BFBFF
:10116000292000F078FB10BD3EB540F22000C2F20D
:1011700000000068FFF70EFE04460020202147F61D
:10118000EF322346CDE90021029047F6B402C0F6C3
:1011900000024821382000F061F840F22000C2F23D
:1011A00000000068401CFFF7F5FD044600202021E8
:1011B00047F6EF322346CDE90021029047F6B80208
:1011C000C0F600024821582000F048F840F2200004
:1011D000C2F200000068801CFFF7DCFD044600201E
:1011E000202147F6EF322346CDE90021029047F651
:1011F000BC02C0F600024821782000F02FF840F22F
:101200002000C2F200000068C01CFFF7C3FD0446C6
:101210000020202147F6EF322346CDE9002102903D
:1012200047F6C002C0F600024821982000F016F8E8
:1012300040F22000C2F200000068B0F5004F01DB70
:10124000002005E040F22000C2F200000068401CCF
:1012500040F22001C2F2000108603EBD2DE9FE4FC0
:101260008046894617469A46DDE90D460C9D36E0D4
:101270000C2C09D153463A4649464046CDE9014631
:10128000009500F031F825E0102C09D153463A467C
:1012900049464046CDE90146009500F0D3F819E0F3
:1012A000182C09D153463A4649464046CDE90146F5
:1012B000009500F06DF90DE0202C09D153463A4617
:1012C00049464046CDE90146009500F00FFA01E09D
:1012D000BDE8FE8FBF1C08EB04001FFA80F83878C9
:1012E0000028C5D100BFF3E72DE9FF5F0646894618
:1012F00092469B460F9C0020039000962046E217E2
:1013000004EB5272D2102146E31704EB5373DB1047
:10131000A4EBC3030BB1012300E000231A44624392
:1013200092B2019205200290002585E005EB850030
:1013300000EBC50046F26441C0F6000111F8100050
:101340009AF80010884274D105EB850000EBC500C7
:1013500046F26441C0F6000101EB400040789AF883
:101360000110884265D109EB0400401E83B2301998
:10137000401E82B249463046FFF77CFD002755E00B
:101380004FF000084CE0109820BB05EB850000EB07
:10139000C50046F26441C0F6000101EB4000801C2C
:1013A000C05D012101FA08F1084018B1584600F06B
:1013B00043FA02E00E9800F03FFA0398401CC0B2D6
:1013C0000390039890FBF4F104FB110020BB002074
:1013D000039028E005EB850000EBC50046F2644170
:1013E000C0F6000101EB4000801CC05D012101FA44
:1013F00008F1084020B15A4649463046FFF757FDEC
:10140000701C86B20098301AA04205D1009E09F1E6
:1014100001001FFA80F906E008F1010000F0FF0862
:10142000B8F1080FAFDB00BF781CC7B20198874244
:10143000A6DB00BF681C85B202988542FFF676AF36
:10144000BDE8FF9F2DE9FF5F0646894692469B4611
:101450000F9C0020039000962046E21704EB527286
:10146000D2102146E31704EB5373DB10A4EBC30344
:101470000BB1012300E000231A44624392B20192AF
:101480000520029000257DE005EB051046F2E641BF
:10149000C0F6000111F810009AF8001088426ED1D1
:1014A00005EB051046F2E641C0F6000101EB4000F5
:1014B00040789AF80110884261D109EB0400401E7F
:1014C00083B23019401E82B249463046FFF7D2FC43
:1014D000002751E04FF0000848E0109810BB05EBE2
:1014E000051046F2E641C0F6000101EB4000801C09
:1014F000C05D012101FA08F1084018B1584600F01A
:101500009BF902E00E9800F097F90398401CC0B2D6
:101510000390039890FBF4F104FB110010BB002032
:10152000039026E005EB051046F2E641C0F6000107
:1015300001EB4000801CC05D012101FA08F1084068
:1015400020B15A4649463046FFF7B1FC701C86B2BE
:101550000098301AA04205D1009E09F101001FFA3F
:1015600080F906E008F1010000F0FF08B8F1080F6B
:10157000B3DB00BF781CC7B201988742AADB00BF6B
:10158000681C85B202988542FFF67EAFBDE8FF9FDA
:101590002DE9FF5F0646894692469B460F9C002038
:1015A000039000962046E21704EB5272D2102146B7
:1015B000E31704EB5373DB10A4EBC3030BB101235C
:1015C00000E000231A44624392B201920520029087
:1015D000002585E005EB850000EB451046F29051B3
:1015E000C0F6000111F810009AF80010884274D17A
:1015F00005EB850000EB451046F29051C0F6000166
:1016000001EB400040789AF80110884265D109EB5F
:101610000400401E83B23019401E82B24946304653
:10162000FFF728FC002755E04FF000084CE0109829
:1016300020BB05EB850000EB451046F29051C0F64B
:10164000000101EB4000801CC05D012101FA08F19E
:10165000084018B1584600F0EFF802E00E9800F08C
:10166000EBF80398401CC0B20390039890FBF4F190
:1016700004FB110020BB0020039028E005EB85004F
:1016800000EB451046F29051C0F6000101EB40001E
:10169000801CC05D012101FA08F1084020B15A46C2
:1016A00049463046FFF703FC701C86B20098301A9A
:1016B000A04205D1009E09F101001FFA80F906E061
:1016C00008F1010000F0FF08B8F1080FAFDB00BF20
:1016D000781CC7B201988742A6DB00BF681C85B2A0
:1016E00002988542FFF676AFBDE8FF9F2DE9FF5FC8
:1016F0000646894692469B460F9C00200390009622
:101700002046E21704EB5272D2102146E31704EB95
:101710005373DB10A4EBC3030BB1012300E00023E0
:101720001A44624392B201922120029000257DE08A
:1017300005EB851046F20271C0F6000111F81000A9
:101740009AF8001088426ED105EB851046F20271BE
:10175000C0F6000101EB400040789AF80110884281
:1017600061D109EB0400401E83B23019401E82B2E1
:1017700049463046FFF77EFB002751E04FF0000856
:1017800048E0109810BB05EB851046F20271C0F6D8
:10179000000101EB4000801CC05D012101FA08F14D
:1017A000084018B1584600F047F802E00E9800F0E3
:1017B00043F80398401CC0B20390039890FBF4F1E7
:1017C00004FB110010BB0020039026E005EB851000
:1017D00046F20271C0F6000101EB4000801CC05DC2
:1017E000012101FA08F1084020B15A464946304625
:1017F000FFF75DFB701C86B20098301AA04205D13D
:10180000009E09F101001FFA80F906E008F10100CD
:1018100000F0FF08B8F1080FB3DB00BF781CC7B2B7
:1018200001988742AADB00BF681C85B202988542F6
:10183000FFF67EAFBDE8FF9F10B50446201200F012
:1018400020F8E0B200F01DF810BD10B504462046A7
:1018500000F017F810BD10B504464FF400414FF4E6
:101860004060C4F20100FFF791FA204600F009F849
:101870004FF400414FF44060C4F20100FFF788FAD2
:1018800010BD70B5044601214FF44060C4F2010060
:10189000FFF77CFA002527E04FF480514FF44060B9
:1018A000C4F20100FFF772FA04F0800040B14FF477
:1018B00000514FF44060C4F20100FFF769FA07E0FD
:1018C0004FF400514FF44060C4F20100FFF75EFA9C
:1018D0004FF480514FF44060C4F20100FFF758FA12
:1018E0006006040E681CC5B2082DD5DB01214FF43B
:1018F0004060C4F20100FFF74BFA70BD3EB540F204
:101900002400C2F200000068FFF75AFA04460020E3
:10191000202147F6EF322346CDE90021029047F619
:10192000C402C0F6000278211820FFF797FC40F2AD
:101930002400C2F200000068401CFFF741FA044690
:101940000020202147F6EF322346CDE90021029006
:1019500047F6CC02C0F6000278215820FFF77EFC43
:1019600040F22400C2F200000068801CFFF728FA51
:1019700004460020202147F6EF322346CDE900211E
:10198000029047F6D402C0F6000278219820FFF7B3
:1019900065FC40F22400C2F200000068012802DA6F
:1019A00047F6FF7005E040F22400C2F20000006834
:1019B000401E40F22401C2F2000108603EBD00BF9B
:1019C000FEE7704770B5002100230F22C47834B3BE
:1019D0004EF60C54CEF20004246804F4E064C4F51E
:1019E000E064210AC1F10403CA40447804FA03F117
:1019F00084781440214309014FF46444CEF200047A
:101A00000678A155047804F01F050124AC40057840
:101A10006D11AD0005F1E025C5F800410CE004783A
:101A200004F01F050124AC404EF28015CEF20005F3
:101A30000678761145F8264070BD40F0FD7141F002
:101A400080614EF60C52CEF2000211607047704772
:101A500059B14FF48052C4F20202D26902434FF4EA
:101A60008053C4F20203DA610AE04FF48052C4F2F8
:101A70000202D26982434FF48053C4F20203DA6156
:101A8000704759B14FF48052C4F202029269024386
:101A90004FF48053C4F202039A610AE04FF480527B
:101AA000C4F20202926982434FF48053C4F20203EB
:101AB0009A61704730B500210022002400234FF4C2
:101AC0008055C4F202056D6805F00C0121B10429AE
:101AD00008D008293BD10BE04FF49055C0F27A05AD
:101AE00005603AE04FF49055C0F27A05056034E0A5
:101AF0004FF48055C4F202056D6805F470124FF47E
:101B00008055C4F202056D6805F48034022505EBAA
:101B1000924234B94FF41065C0F23D05554305605B
:101B200014E04FF48055C4F202056D6805F40035E9
:101B300035B14FF41065C0F23D055543056005E031
:101B40004FF49055C0F27A055543056005E04FF417
:101B50009055C0F27A05056000BF00BF4FF4805574
:101B6000C4F202056D6805F0F001090940F20005B4
:101B7000C2F200056B5C0568DD4045604FF480559E
:101B8000C4F202056D6805F4E061090A40F200053F
:101B9000C2F200056B5C4568DD4085604FF48055FE
:101BA000C4F202056D6805F46051C90A40F20005EF
:101BB000C2F200056B5C4568DD40C5604FF480559E
:101BC000C4F202056D6805F44041890B40F210052E
:101BD000C2F200056B5CC568B5FBF3F5056130BD6D
:101BE00010B500F055FA00F069FA00F089FA00F03B
:101BF000B4FA00F0F7FA10BD704700B589B00121C2
:101C00000846FFF725FF01210420FFF73AFF1820BF
:101C10008DF823000220ADF8200003208DF822006B
:101C200008A94FF40060C4F20100FFF71BF84FF061
:101C3000804000F067F90020ADF81A00ADF81600FA
:101C400044F61F60ADF818004720ADF814000020DE
:101C50008DF81C0005A94FF0804000F0B8F901A8EC
:101C600000F0A9F96020ADF804000020ADF80C00E8
:101C70000120ADF806000020ADF80A0001A94FF0E0
:101C8000804000F045F90121880700F02FF909B0E4
:101C900000BD10B500F001F810BD0CB5002001909A
:101CA00000904FF48050C4F20200006840F480308D
:101CB0004FF48051C4F20201086000BF4FF480501D
:101CC000C4F20200006800F4003000900198401C4B
:101CD0000190009818B90198B0F5A06FEED14FF4BB
:101CE0008050C4F20200006800F4003010B10120FE
:101CF000009001E000200090009801285BD14FF493
:101D00000050C4F20200006840F010004FF400518F
:101D1000C4F2020108600846006820F00300086071
:101D20000846006840F0020008604FF48050C4F29A
:101D3000020040684FF48051C4F202014860084636
:101D4000406848600846406840F480604860084643
:101D5000406820F47C1048600846406840F4E81071
:101D600048600846006840F08070086000BF4FF48B
:101D70008050C4F20200006800F000700028F6D025
:101D80004FF48050C4F20200406820F003004FF48A
:101D90008051C4F2020148600846406840F00200E9
:101DA000486000BF4FF48050C4F20200406800F069
:101DB0000C000828F6D10CBD10B5002080F3108867
:101DC00000BF4FF4A060FFF738FE00F053F810BDDD
:101DD000002000BF15E040F22801C2F2000151F8D6
:101DE000201061B140F22801C2F2000151F8201028
:101DF000491E40F22802C2F2000242F82010411CA3
:101E0000C8B20E28E7DB704710B54FF48050C4F21B
:101E10000200006840F001004FF48051C4F202015A
:101E20000860084640680021CFF6FF0108404FF4E3
:101E30008051C4F2020148600846006820F4102076
:101E400020F0807008600846006820F48020086058
:101E50000846406820F4FE0048604FF41F00886088
:101E6000FFF717FF4FF000604EF60851CEF2000169
:101E7000086010BD70B5002100BF08E0002040F2EE
:101E80002802C2F2000242F82100481CC1B20E2909
:101E9000F4DB4FF4CA52C0F20102B2F1807F00D3EA
:101EA00023E022F07F40401E4FF0E0235861581796
:101EB0000F2300280ADA1C07260E4EF61854CEF21D
:101EC000000400F00F052D1F665506E01C07250EC7
:101ED0004FF46444CEF20004255400BF00204FF0BC
:101EE000E02398610720186100BF70BD21B102880E
:101EF00042F00102028004E002884FF6FE731A40AD
:101F00000280704701894FF6F872114001817047D5
:101F100070B5002400220023058C4FF6EF76354083
:101F20000584028C8388048B48F6FF752C404FF69D
:101F3000FF452C400D884FF6FF7606EA05252C4319
:101F40004FF6DF752A400D8906EA05152A434D88AC
:101F500006EA05152A434FF43055C4F20105A8429C
:101F600005D04FF45055C4F20105A8421DD14FF6DB
:101F70007F752A404D894FF6FF7606EA05152A43FC
:101F80004FF6BF752A408D8806EA05152A434FF69D
:101F9000FF352B404FF2FF752B408D8906EA8505F2
:101FA0002B43CD8906EA85052B4383800483CD88A6
:101FB0000587028470BD0021018041808180C1803D
:101FC000018141818181C181704701877047002271
:101FD00002884FF43053C4F2010398421AD04FF4F0
:101FE0005053C4F20103984214D0B0F1804F11D085
:101FF0004FF48063C4F2000398420BD04FF40063A7
:10200000C4F20003984205D04FF44063C4F20003C9
:10201000984204D14FF68F731A404B881A434FF4FD
:102020008053C4F2000398420AD04FF4A053C4F284
:102030000003984204D04FF6FF431A40CB881A435E
:1020400002808B8883850B8803854FF43053C4F25C
:102050000103984217D04FF45053C4F20103984241
:1020600011D04FF48043C4F2010398420BD04FF4D7
:102070008843C4F20103984205D04FF49043C4F260
:102080000103984201D10B7A0386012383827047B2
:1020900010B540F22800C2F20000C06900B110BDC6
:1020A00043F26000C0F60000006840F22801C2F26E
:1020B0000001C86100F01EFA00BFF0E710B540F261
:1020C0002800C2F20000006A00B110BD43F26000B7
:1020D000C0F60000406840F22801C2F20001086228
:1020E00040F21400C2F20000007838B100F0AFFEF8
:1020F00010B100F04AFF01E000F096FE00BFE4E7F7
:1021000030B591B040F22800C2F20000406A08B138
:1021100011B030BD43F26000C0F60000806840F2AC
:102120002801C2F20001486200F023FF044600F0DB
:1021300088FE05462B4647F66002C0F600024021A5
:1021400001A8009400F0F8F901A94FF46050C4F21E
:10215000010000F077FF00BFDAE740F22800C2F28A
:102160000000806A00B1704743F26000C0F60000D2
:10217000C06840F22801C2F20001886200BFF2E7A5
:1021800010B540F225514FF46050C4F2010000F048
:10219000EDF801281DD10A2040F22801C2F2000109
:1021A00048604FF46050C4F2010000F09AF9C4B2E4
:1021B00040F21600C2F2000001880088401C40F284
:1021C0001602C2F20002108040F26000C2F200006B
:1021D000445440F225514FF46050C4F2010000F025
:1021E0009DF810BD10B540F22800C2F20000406812
:1021F00008B1002010BD40F21600C2F200000088B5
:1022000008B90020F6E7002040F26001C2F20001A8
:1022100040F21602C2F2000212888854084600F00A
:10222000D8FE4FF4807140F26000C2F20000FDF76A
:10223000A2FF002040F21601C2F200010880012036
:10224000D8E710B540F225514FF48840C4F20000A1
:1022500000F08CF801281DD10A2040F22801C2F2BA
:10226000000188604FF48840C4F2000000F039F9A2
:10227000C4B240F21800C2F2000001880088401C7D
:1022800040F21802C2F20002108040F26010C2F266
:102290000000445440F225514FF48840C4F200003D
:1022A00000F03CF810BD10B540F225514FF49040BD
:1022B000C4F2000000F05AF801281DD10A2040F2B3
:1022C0002801C2F20001C8604FF49040C4F200003F
:1022D00000F007F9C4B240F21A00C2F2000001880F
:1022E0000088401C40F21A02C2F20002108040F244
:1022F0006020C2F20000445440F225514FF4904057
:10230000C4F2000000F00AF810BD01F40072B2F54A
:10231000007F00D100BFCA430280704710B5002281
:10232000002340F66A14A14200D100BF0A12012422
:102330009440A3B2DC43048010BD21B1828942F4F1
:102340000052828104E082894DF6FF731A40828137
:10235000704702460020B1F5007F00D100BF13880E
:102360000B400BB1012000E00020704770B5024621
:10237000002400230025002040F66A16B14200D157
:1023800000BFC1F3421501F01F03012606FA03F353
:10239000012D02D19689334006E0022D02D1168A22
:1023A000334001E0968A33400C12012606FA04F409
:1023B0001688344013B10CB1012000E0002070BD3C
:1023C000F0B50346002400260025002040F66A17D9
:1023D000B94200D100BF1846C1F3421401F01F06F4
:1023E000012707FA06F5012C01D10C3004E0022C7C
:1023F00001D1103000E014301AB107682F43076094
:1024000002E00768AF430760F0BD2DE9F04786B0F2
:1024100005460E460024A24600BFA1460027B0890B
:1024200000B100BF2F462C8A4CF6FF700440F088A4
:1024300004432C82AC894EF6F3100440B0883189F5
:102440000843718908430443AC81AC8A4FF6FF40CE
:102450000440B0890443AC8201A8FFF72BFB4FF482
:102460006050C4F20100874202D1DDF810A001E003
:10247000DDF80CA0A88900F4004040B10AEBCA00C6
:1024800000EB0A1031684900B0FBF1F807E00AEBF5
:10249000CA0000EB0A1031688900B0FBF1F8642033
:1024A000B8FBF0F004012009642101FB1089A88920
:1024B00000F4004040B1322000EBC900B0FBF1F065
:1024C00000F00700044308E0322000EB091064210B
:1024D000B0FBF1F000F00F0004432C8106B0BDE822
:1024E000F08701468888C0F308007047C1F30802EE
:1024F000828070473EB5FEF737FEFFF7FFF940F2E6
:102500002400C2F200000068801CFEF759FC04465B
:102510000020202147F6EF322346CDE9002102902A
:1025200047F6D402C0F6000278219820FEF796FE06
:102530003EBD00BFFEE700000FB41CB50A46521EA8
:10254000CDE9000207A9054B6A46069800F0CAF8D3
:10255000009A002111701CBC5DF814FB132E0008BA
:1025600002E008C8121F08C1002AFAD1704770475C
:10257000002001E001C1121F002AFBD170470000BA
:102580002DE9FF5FDDE90220010DDDF838B00243DF
:1025900018D044F61050A1F2FF3141430D140F98AA
:1025A000012820D0A5EB0B00401C5FEA000A4FF089
:1025B0000004474EDFF81C91A046504616D5CAF1DC
:1025C000000728E00F98012443A2012808D0002129
:1025D00000980F9BC0E90021C0E90243BDE8FF9FBE
:1025E0006FEA0B01F4E7CBF10000DEE7074612E0EB
:1025F000F80707D02246334640464946FDF7D9FF43
:10260000804689462246334610461946FDF7D1FFDB
:1026100004460E467F10002FEAD1DDE90201BAF12F
:10262000000F42464B4602DAFDF7C3FF01E0FEF71A
:1026300032F804460E460022284BFEF7B3F803D8C2
:102640004FF0FF30014607E00022254B204631467F
:10265000FDF708FFFEF78EF8102409E0002C0ADBD6
:102660000A220023FDF77CFE019B30321A55641EBE
:1026700050EA0102F2D1641C019AC4F1110314441E
:102680000F9A012A03D0012208430DD10AE0084322
:1026900004D000204FF0110B0F9080E7A3EB0B0547
:1026A0006D1E0DE05B4504DD4FF0000205F10105F4
:1026B00004E003DA4FF00002A5F10105002AECD096
:1026C00000980F99C0E90231C0E9004586E7000093
:1026D000000024400000F03F300000000000F04304
:1026E0000000E03F2DE9FF4F95B09B468946064626
:1026F00000250FE2252877D100242746F84A01213A
:10270000059400E0044316F8013F203B01FA03F072
:102710001042F7D130782A2811D06FF02F0330788B
:10272000A0F13002092A16D8059A44F0020402EBFF
:10273000820203EB42021044761C0590EFE759F841
:10274000042B0592002A03DA504244F40054059009
:1027500044F00204761C30782E2816D116F8010FAA
:1027600044F004042A280DD06FF02F023078A0F135
:102770003003092B09D807EB870302EB4303C71883
:10278000761CF3E759F8047B761C30786C280FD060
:1027900006DC4C2817D068280DD06A2814D104E034
:1027A000742810D07A280FD10DE044F400140AE008
:1027B00044F4801401E044F440147278824202D15F
:1027C00004F58014761C761C307866280BD013DC58
:1027D000582877D009DC002875D04528F6D046283F
:1027E000F4D047281AD19DE118E0632835D0642839
:1027F00079D0652812D195E1702873D008DC67285C
:10280000F1D069286FD06E280DD06F2806D1B5E0C1
:1028100073282CD0752875D0782874D05A4617990B
:1028200090476D1C75E1C4F30250022809D00328BB
:102830000DD0D9F8001004280DD00D6009F104095D
:1028400067E1D9F80010EA17C1E90052F6E7D9F8B4
:1028500000100D80F2E70D70F0E719F8041B8DF8F9
:10286000001000208DF80100EA46012003E059F82D
:1028700004AB4FF0FF3061074FF0000102D40DE0D0
:1028800008F101018846B9420FDA8045F8DB1AF8F1
:1028900008100029F4D108E008F1010188468142BE
:1028A000FADB1AF808100029F6D105985B46A0EB70
:1028B000080721463846179A00F094FA284400EB9E
:1028C000080507E04DE029E10DE01AF8010B5A4632
:1028D00017999047B8F10108F7D25B462146384670
:1028E000179A13E142E00A220092C4F302524FF019
:1028F000000A022A08D059F804CB032A4FEAEC71E7
:102900000AD00DE029E02AE009F1070121F00702D1
:10291000F2E802C1914609E00FFA8CFC4FEAEC7133
:10292000042A03D14FFA8CFC4FEAEC71002907DA34
:102930000A460021DCF1000C61EB02012D2202E0CD
:10294000220504D52B228DF80420012203E0E207A2
:1029500001D02022F7E7904659E00A2102E0102238
:102960000DE010214FF0000A00910BE010224FF013
:10297000000A44F004040827009203E008224FF004
:10298000000A0092C4F30252022A05D059F804CB7F
:102990000021032A08D009E009F1070121F007020C
:1029A000F2E802C1914605E01FFA8CFC042A01D12D
:1029B0000CF0FF0C4FF00008220728D5702806D035
:1029C000009B83F0100353EA0A0305D00EE0402277
:1029D0008DF80420012208E05CEA010206D03022D2
:1029E0008DF804208DF8050002229046009B83F0AC
:1029F000080353EA0A030AD15CEA010201D1620723
:102A000005D530228DF804204FF001087F1E58288C
:102A100004D034A003900EA802900DE036A0F9E790
:102A200053466046009AFDF79BFC84460398825CFF
:102A30000298401E029002705CEA0100F0D10298F8
:102A400006A9081A00F1200A600702D524F4803490
:102A500000E00127574502DDA7EB0A0000E0002057
:102A600000EB0A01009005984144401A0590E003EC
:102A700006D45B462146179A059800F0B3F9054441
:102A8000002706E001A85A46C05D179990476D1CC3
:102A90007F1C4745F6DBE0030CD55B462146179AC1
:102AA000059800F09FF9054404E030205A46179934
:102AB00090476D1C0099481E00900029F5DC08E045
:102AC000029802995A460078491C0291179990473A
:102AD0006D1CBAF10001AAF1010AF1DC65E1000008
:102AE00009280100303132333435363738396162E4
:102AF00063646566000000003031323334353637A8
:102B000038394142434445460000000000F058F97E
:102B10000544761C307800287FF4ECAD19B02846C7
:102B2000BDE8F08F620700D4062709F1070222F002
:102B3000070CFCE80223E14603F000485FEA080CBA
:102B400002D00FF2702C0DE05FEA045C02D50FF2A8
:102B5000682C07E05FEAC47C02D00FF2602C01E031
:102B6000AFF2700C4FF0FF3823F00043CDF850C0A7
:102B700065280CD006DC452809D046281DD04728FA
:102B80003DD13DE0662818D067287ED138E000218D
:102B9000112F01DB112000E0781CCDE9000106A90E
:102BA0000EA8FFF7EDFCDDE90F010E9A039100215D
:102BB000009207F1010A04914DE04FF000400097A8
:102BC000CDE9011006A90EA8FFF7DAFCDDE90F0236
:102BD00003920E9B11990022DDF80CA00093049241
:102BE00011B9791C00EB010AB7EB0A0004D4C0F15B
:102BF000FF3007F1010A0490AAEB0700019044E0BE
:102C0000012F00DA01270021112F01DD112000E042
:102C10003846CDE9000106A90EA8FFF7B1FCDDE9B1
:102C20000F010E9A0391002104910092BA462107E8
:102C30000CD40399514500DA8A46BAF1010F05DD3B
:102C4000009AAAF10101515C302908D0B84202DA99
:102C500010F1040F06DA0121CDE9011015E0AAF107
:102C60000101E9E7002805DC049901440491AAEB7D
:102C7000000102E0411C514500DD8A460499401ADA
:102C8000401C01904FF000400290200704D40198AE
:102C9000504501DBCDF8048000208DF84F000298EC
:102CA0000DF14F07B0F1004F25D02B200E90029868
:102CB0004FF0020800280CDA404202902D200E90BE
:102CC00007E00A210298FDF735FB3031029007F842
:102CD000011DB8F10001A8F10108F2DC02980028FA
:102CE000EFD1791E0E980870307800F0200040F087
:102CF000450007F8020D12A8C01B00F10708149840
:102D0000007800B1012000EB0A01019801EBE071AD
:102D100005984144401A401E0590E00306D45B46E6
:102D20002146179A059800F05DF80544149800783C
:102D300018B15A46179990476D1CE00324D55B469D
:102D40002146179A059800F04DF805441CE00498B8
:102D5000002807DBDDE90301884203DD0098405CC1
:102D6000179901E0179930205A469047049805F1C9
:102D70000105401C04900198401E019004D12E20B2
:102D80005A46179990476D1CBAF10001AAF1010A41
:102D9000DDDC05E017F8010B5A46179990476D1CCA
:102DA000B8F10001A8F10108F4DC5B462146179A4E
:102DB0000598ABE62D0000002B000000200000006D
:102DC0002DE9F041044600251E461746880404D428
:102DD00005E039462020B0476D1C641EF9D5284611
:102DE000BDE8F0812DE9F041044600251E469046DD
:102DF000C80301D5302700E02027880404D505E06A
:102E000041463846B0476D1C641EF9D52846BDE8DA
:102E1000F0814A68002A06D00A68531C0B601070C3
:102E20004868401E4860704710B54FF4FA710807B3
:102E3000FFF7CBF8002040F21C01C2F2000108703D
:102E400010BD40F21400C2F200000078704710B5C7
:102E500010214FF44060C4F20100FDF78EFF08B16D
:102E6000012010BD0020FCE710B54FF4E13000F068
:102E70001AF8FEF7A1FFFDF7B9FF00F094F8FEF78E
:102E8000BCFE00F003F8FFF7CFFF10BD08B5FEF75A
:102E90007DF847F6EF30F0231A46002100900846EF
:102EA000FEF713F808BD10B588B00446012144F2BE
:102EB0000400FEF7E6FD18208DF81F004FF40070A7
:102EC000ADF81C0003208DF81E0007A94FF4006028
:102ED000C4F20100FDF7C6FE48208DF81B004FF438
:102EE0008060ADF8180003208DF81A0006A94FF491
:102EF0000060C4F20100FDF7B5FE02940020ADF8B9
:102F00000C00ADF80E00ADF810000C20ADF812006A
:102F10000020ADF8140002A94FF46050C4F2010083
:102F2000FFF773FA25208DF8040001208DF80700C3
:102F30008DF8050002208DF8060001A8FEF742FD7D
:102F4000012240F225514FF46050C4F20100FFF716
:102F500037FA01214FF46050C4F20100FFF7EDF998
:102F600040214FF46050C4F20100FFF7CEF908B0E1
:102F700010BD40F21C00C2F2000000787047FFF75D
:102F800073FF01E0FEF72CFEFCE710B540F2DC51C8
:102F90004FF08040FFF719F8012040F21C01C2F207
:102FA0000001087010BD08B501210820FEF769FD79
:102FB00004208DF803001020ADF8000003208DF8E8
:102FC000020069464FF44060C4F20100FDF74AFE7A
:102FD00008BD1CB5044647F68001C0F60001204636
:102FE000FDF7D4F8C0B16B4601AA47F69001C0F6D0
:102FF00000012046FDF7DCF8019909B1012100E04C
:103000000021084600F009F8009810B1FFF7BDFF55
:1030100001E0FFF709FF00BF1CBD40F21401C2F23E
:1030200000010870704770B504460D4629462046D9
:10303000FFF75CFA00BF40212046FFF78AF900281D
:10304000F9D070BD70B506460C46002504E0615D00
:103050003046FFF7E8FF6D1C605D0028F7D170BDBA
:1030600096000000C8000000C8000000C800000072
:103070000000000000000000000000000000040448
:10308000040404000004000014140A0000000000FE
:103090000000000000000A0A1F0A0A1F0A0A0000B6
:1030A00000040E1505060C14150E04000000121580
:1030B0000D152E2C2A1200000000040A0A361515E0
:1030C00029160000020201000000000000000000BC
:1030D000100808040404040408081000020404088A
:1030E000080808080404020000000004150E0E156C
:1030F0000400000000000008083E0808000000006E
:1031000000000000000000000202010000000000BA
:10311000003F000000000000000000000000000070
:103120000002000000201010080804040202010040
:1031300000000E1111111111110E00000000040603
:1031400004040404040E000000000E11110804021F
:10315000011F000000000E11100C1010110E0000D5
:103160000000080C0C0A091F081C000000001F01C9
:10317000010F1110110E000000000C12010D1311AF
:10318000110E000000001E100808040404040000D2
:1031900000000E11110E1111110E000000000E1191
:1031A00011191610090600000000000004000000BC
:1031B00000040000000000000004000000040400FF
:1031C00000001008040202040810000000000000C3
:1031D0003F003F000000000000000204081010083B
:1031E0000402000000000E11110804040004000095
:1031F00000001C22292D2D1D221C000000000404AB
:103200000C0A0A1E1233000000000F12120E1212D6
:10321000120F000000001E1101010101110E00003B
:1032200000000F1212121212120F000000001F12E3
:103230000A0E0A02121F000000001F120A0E0A02E4
:103240000207000000001C1201013911120C0000DD
:1032500000003312121E12121233000000001F046D
:1032600004040404041F000000003E0808080808C5
:1032700008080907000037120A060A121237000070
:103280000000070202020202223F000000003B1B76
:103290001B1B15151535000000003B1216161A1AD7
:1032A0001217000000000E1111111111110E000073
:1032B00000000F12120E02020207000000000E11A1
:1032C00011111117190E180000000F12120E0A1218
:1032D0001237000000001E1101060810110F000037
:1032E00000001F1504040404040E00000000331243
:1032F00012121212120C000000003312120A0A0CF1
:10330000040400000000151515150E0A0A0A000035
:1033100000001B0A0A04040A0A1B000000001B0A22
:103320000A0A0404040E000000001F090804040235
:10333000121F00001C0404040404040404041C0000
:103340000002020404040808081010000E0808080F
:103350000808080808080E00040A00000000000021
:103360000000000000000000000000000000003F1E
:103370000204000000000000000000000000000047
:10338000000C121C123C000000030202020E12127A
:10339000120E000000000000001C1202120C0000BF
:1033A00000181010101C1212123C00000000000047
:1033B000000C121E021C000000182404041E040449
:1033C000041E000000000000003C120C021C221C25
:1033D00000030202020E1212123700000004040061
:1033E00000060404040E000000080800000C080891
:1033F0000808080700030202021A0A060A1300005E
:103400000007040404040404041F0000000000007A
:10341000000F15151515000000000000000F121216
:103420001237000000000000000C1212120C000005
:1034300000000000000F1212120E02070000000030
:10344000001C1212121C103800000000001B0602A3
:103450000207000000000000001E020C101E000009
:1034600000000004041E0404041C0000000000000E
:10347000001B1212123C000000000000001B0A0A90
:1034800004040000000000000015150E0A0A0000E8
:1034900000000000001B0A040A1B000000000000DE
:1034A000003312120C08040300000000001E080480
:1034B000041E000018080808080C0808080818006E
:1034C000080808080808080808080808060404048A
:1034D00004080404040406001609000000000000AB
:1034E00000000000000000000000000000000000DC
:1034F0000000000000000008080808080808000094
:103500001818000000486C241200000000000000A1
:10351000000000000000002424247F1212127F12F9
:10352000121200000000081C2A2A0A0C1828282A57
:103530002A1C080800000022251515152A58545485
:10354000542200000000000C1212120A76252911E4
:10355000916E000000060604030000000000000059
:10356000000000000040201010080808080808109B
:10357000102040000002040808101010101010085D
:10358000080402000000000008086B1C1C6B0808FF
:103590000000000000000000080808087F08080874
:1035A0000800000000000000000000000000000013
:1035B000060604030000000000000000FE000000FA
:1035C00000000000000000000000000000000000FB
:1035D000060600000000804040202010100808046B
:1035E00004020200000000182442424242424242C9
:1035F00024180000000000080E0808080808080841
:10360000083E00000000003C424242202010080416
:10361000427E00000000003C424220182040404210
:10362000221C0000000000203028242422227E20BA
:10363000207800000000007E0202021A264040426C
:10364000221C0000000000382402021A26424242D6
:10365000241800000000007E22221010080808082C
:10366000080800000000003C424242241824424264
:10367000423C00000000001824424242645840408E
:10368000241C0000000000000000181800000000CA
:1036900018180000000000000000000800000000F2
:1036A000000808040000004020100804020408106C
:1036B000204000000000000000007F0000007F00AC
:1036C0000000000000000002040810204020100844
:1036D000040200000000003C42424640201010005E
:1036E000181800000000001C225A555555552D424F
:1036F000221C00000000000808181414243C224278
:1037000042E700000000001F2222221E2242424205
:10371000221F00000000007C424201010101014221
:10372000221C00000000001F22424242424242424C
:10373000221F00000000003F4212121E121202421D
:10374000423F00000000003F4212121E121202020D
:10375000020700000000003C222201010171212229
:10376000221C0000000000E7424242427E424242E8
:1037700042E700000000003E0808080808080808A2
:10378000083E00000000007C1010101010101010F7
:103790001010110F0000007722120A0E0A121222D6
:1037A0002277000000000007020202020202020269
:1037B000427F000000000077363636362A2A2A2A51
:1037C0002A6B0000000000E346464A4A5252526209
:1037D000624700000000001C22414141414141413B
:1037E000221C00000000003F424242423E02020210
:1037F000020700000000001C2241414141414D539D
:10380000321C60000000003F4242423E121222225F
:1038100042C700000000007C4242020418204042DF
:10382000423E00000000007F490808080808080818
:10383000081C0000000000E742424242424242426D
:10384000423C0000000000E74242222424141418E5
:10385000080800000000006B4949494955553622C7
:1038600022220000000000E7422424181818242413
:1038700042E700000000007722221414080808081C
:10388000081C00000000007E2120101008040442E3
:10389000423F0000007808080808080808080808DF
:1038A000080878000000020204040808081010202C
:1038B00020204040001E101010101010101010108A
:1038C00010101E000038440000000000000000003E
:1038D00000000000000000000000000000000000E8
:1038E000000000FF000608000000000000000000CB
:1038F00000000000000000000000003C427844424C
:1039000042FC0000000000030202021A264242426A
:10391000261A0000000000000000003844020202E5
:103920004438000000000060404040784442424279
:1039300064D80000000000000000003C427E02024B
:10394000423C0000000000F08808087E08080808D3
:10395000083E0000000000000000007C22221C0243
:103960003C42423C000000030202023A464242420C
:1039700042E700000000000C0C00000E08080808D8
:10398000083E0000000000303000003820202020D9
:103990002020221E0000000302020272120A1612E8
:1039A000227700000000000E080808080808080830
:1039B000083E0000000000000000007F92929292FA
:1039C00092B70000000000000000003B4642424267
:1039D00042E70000000000000000003C424242427A
:1039E000423C0000000000000000001B2642424252
:1039F000221E0207000000000000007844424242FC
:103A0000447840E000000000000000774C0404040B
:103A1000041F0000000000000000007C42023C4047
:103A2000423E0000000000000008083E08080808A8
:103A300008300000000000000000006342424242E3
:103A400062DC000000000000000000E742242414B3
:103A50000808000000000000000000EB494955552F
:103A60002222000000000000000000762418181830
:103A7000246E000000000000000000E7422424142F
:103A800018080807000000000000007E2210080847
:103A9000447E000000C02020202020102020202074
:103AA0002020C00010101010101010101010101056
:103AB0001010101000060808080808100808080868
:103AC000080806000C32C2000000000000000000E0
:103AD00000000000000000000000000000000000E6
:103AE00000000000000000000000000000000000D6
:103AF00000000000000000000000000000000000C6
:103B000000000000000000000000000060006000F5
:103B10006000600060006000600040002000200045
:103B20002000000000000000600060006000000055
:103B300000000000000000006006600630039801ED
:103B400088004400000000000000000000000000A9
:103B50000000000000000000000000000000000065
:103B60000000000000000000000000001002100231
:103B700010021002FE07FE070802080108010801F2
:103B80000801FE07FE07040104010401040100000E
:103B90000000000000000000000040004000F001B4
:103BA00058034C03CC034C0058007000E000C001E7
:103BB000C00140034C035C034C034801F00040008B
:103BC0004000000000000000000000000E010A019B
:103BD000910091009100510051003A00AE03A00203
:103BE000500450044804480448048402840300003C
:103BF00000000000000000000000000038006C0021
:103C00006C006C006C006C002C0098071C011A0101
:103C1000330133016301E300C308C6093C07000018
:103C200000000000000000000C001C00100010004C
:103C30000800040000000000000000000000000078
:103C40000000000000000000000000000000000074
:103C500000000000000000000004000200018000DD
:103C600080004000400020002000200020002000B4
:103C70002000200040004000800080000001000281
:103C80000004000000000000020004000800100012
:103C90001000200020004000400040004000400094
:103CA0004000400020002000100010000800040028
:103CB0000200000000000000000000000000000002
:103CC0004000C0004000460C4E0FD001F0015E0FD6
:103CD000460C4000400040000000000000000000D2
:103CE00000000000000000000000000000000000D4
:103CF000000040004000400040004000FE0F400037
:103D000040004000400040000000000000000000B3
:103D100000000000000000000000000000000000A3
:103D20000000000000000000000000000000000093
:103D300000000000000000000C001C00100010003B
:103D40000800040000000000000000000000000067
:103D5000000000000000000000000000FE0700005E
:103D60000000000000000000000000000000000053
:103D70000000000000000000000000000000000043
:103D80000000000000000000000000000000000033
:103D900000000000000000001C001C001C000000CF
:103DA0000000000000000000000400060002000304
:103DB0000001000180008000400040006000200001
:103DC000200010001000080008000C00040006008D
:103DD0000200000000000000000000000000F000F1
:103DE00098010C030C0306060606060606060606E0
:103DF0000606060606060C030C039801F0000000F8
:103E00000000000000000000000000000000400072
:103E10007C00600060006000600060006000600086
:103E2000600060006000600060006000FC03000053
:103E30000000000000000000000000000000F8008A
:103E40008401020306030603000300018001C00091
:103E5000600020001000080204020602FE030000B9
:103E600000000000000000000000000000007800DA
:103E7000C6008601860180018001C00070008001BB
:103E8000000100030003060306038601F80000009A
:103E900000000000000000000000000000008001A1
:103EA0008001C001A001A001900188018801840166
:103EB0008201FE0F8001800180018001E007000087
:103EC0000000000000000000000000000000FC03F3
:103ED00004000400040004000400F4008C01040346
:103EE000000300030603060382018401F8000000BA
:103EF0000000000000000000000000000000E001E1
:103F000018030C030C0004000600E60116030E065D
:103F100006060606060604060C021803F00000005A
:103F20000000000000000000000000000000F80792
:103F30000C06040204010001000180008000400022
:103F40004000400060006000600060006000000011
:103F50000000000000000000000000000000F80168
:103F60000C030606060606060C021C03F000C80138
:103F70000C0306060606060606060C03F001000002
:103F80000000000000000000000000000000F00041
:103F90000C010C03060206060606060606078C063A
:103FA00078060006000300030C018C017800000075
:103FB0000000000000000000000000000000000001
:103FC0000000000000000000E000E000E000000051
:103FD0000000000000000000E000E000E000000041
:103FE00000000000000000000000000000000000D1
:103FF0000000000000000000600060000000000001
:1040000000000000000000000000600060004000B0
:10401000200020000000000000000000000400025A
:10402000000180004000200010000800040008008B
:104030001000200040008000000100020004000089
:104040000000000000000000000000000000000070
:104050000000000000000000FE070000000000005B
:10406000FE0700000000000000000000000000004B
:104070000000000000000000000000000400080034
:104080001000200040008000000100020004000237
:104090000001800040002000100008000400000023
:1040A0000000000000000000000000000000E0032D
:1040B0001806040C040C0C0C0C0C000780014000CA
:1040C0004000400000000000E000E000E0000000D0
:1040D000000000000000000000000000E0001803E5
:1040E0000C02CC0564056605A605B604B604B60444
:1040F000B604B602E4010C040C021803F000000040
:10410000000000000000000000000000000060004F
:1041100060005000D00090009000880088010801E5
:10412000F801040304030402020202060F0F000058
:104130000000000000000000000000000000FE0081
:104140008C030C030C030C030C038C01FC000C030C
:104150000C020C060C060C060C060C03FE010000FB
:104160000000000000000000000000000000E0036C
:1041700018030C060C0404040600060006000600E2
:104180000600060006040C040C021803F0000000F0
:1041900000000000000000000000000000007F00A0
:1041A0008C010C030C030C060C060C060C060C060A
:1041B0000C060C060C060C030C038C017F0000009F
:1041C0000000000000000000000000000000FF03ED
:1041D000060306040604060086008600FE0086002C
:1041E000860086000600060406040602FF0300009F
:1041F0000000000000000000000000000000FF03BD
:10420000060306040604060086008600FE008600FB
:104210008600860006000600060006001F0000005B
:104220000000000000000000000000000000F0009E
:1042300018010C020C02040206000600060006002B
:10424000C60F060306030C030C031803F00000005E
:1042500000000000000000000000000000000F0F40
:10426000060606060606060606060606FE070606F5
:104270000606060606060606060606060F0F0000D8
:104280000000000000000000000000000000FC032F
:10429000600060006000600060006000600060001E
:1042A000600060006000600060006000FC030000CF
:1042B0000000000000000000000000000000F807FF
:1042C000C000C000C000C000C000C000C000C000EE
:1042D000C000C000C000C000C000C000C000C600D8
:1042E00066003C0000000000000000000000CF035A
:1042F0008601C60046002600160036002E006E001D
:104300004600C60086008601060106038F070000EE
:1043100000000000000000000000000000001F007E
:10432000060006000600060006000600060006005D
:10433000060006000600060406040602FF0300004D
:10434000000000000000000000000000000007075F
:10435000860386038E038E034E034E034A035A03DD
:104360005A033A0332033203320312038707000071
:1043700000000000000000000000000000008E0FA0
:104380000C021C021C023402340264026402440265
:10439000C402840284038403040304031F02000094
:1043A0000000000000000000000000000000F0001D
:1043B00098010C030C02060606060606060606060B
:1043C0000606060606060C020C039801F000000023
:1043D0000000000000000000000000000000FF00DE
:1043E0000603060606060606060606068603FE0001
:1043F0000600060006000600060006001F0000007A
:104400000000000000000000000000000000F000BC
:1044100098010C030C0206060606060606060606AA
:104420000606060676064C02CC039801F0008007CB
:104430000003000000000000000000000000FF0179
:10444000060306060606060606060603FE004600E6
:10445000C600860086010603060306060F0E00004E
:104460000000000000000000000000000000F80252
:104470000C030602060206000E003C00F800E003F2
:10448000800300070206020606060C03F001000086
:104490000000000000000000000000000000FE0717
:1044A00062046108610860006000600060006000F4
:1044B000600060006000600060006000F8010000C3
:1044C00000000000000000000000000000001E07C7
:1044D0000C020C020C020C020C020C020C020C026C
:1044E0000C020C020C020C020C021801F00000007D
:1044F00000000000000000000000000000000F07A6
:104500000602040104010C010C01880088009800D7
:104510009800500050007000300020002000000083
:104520000000000000000000000000000000F70E86
:10453000620442044604460464026402E402E402A3
:104540009C029C0198019801880188008800000065
:1045500000000000000000000000000000009E07B6
:104560000C01080118019000B000600020006000FC
:104570006000D00090008801080104038E0700004D
:1045800000000000000000000000000000000F0F0D
:10459000060404020C0208011801B800B000700003
:1045A000600060006000600060006000F8010000D2
:1045B0000000000000000000000000000000FC07F8
:1045C0000C02060302018001800040004000200030
:1045D00020001000180008040C040402FE03000070
:1045E0000000000000000000E00320002000200088
:1045F00020002000200020002000200020002000BB
:1046000020002000200020002000200020002000AA
:10461000E0030000000000000000000004000400AF
:1046200008000800100010001000200020004000CA
:104630004000C00080008000000100010002000274
:1046400000020004000000007C0040004000400028
:10465000400040004000400040004000400040005A
:10466000400040004000400040004000400040004A
:104670007C000000000060009000080100000000C5
:10468000000000000000000000000000000000002A
:10469000000000000000000000000000000000001A
:1046A000000000000000000000000000000000000A
:1046B00000000000000000000000000000000000FA
:1046C00000000000000000000000000000000000EA
:1046D0000000FF0F00000000180060000000000054
:1046E00000000000000000000000000000000000CA
:1046F00000000000000000000000000000000000BA
:1047000000000000000000000000000000000000A9
:104710000000000000000000F0010C030C03000387
:10472000E0031C030E03060306038E0B7C0E000041
:1047300000000000000000000000000008000E0063
:104740000C000C000C000C00CC013C031C060C06F9
:104750000C060C060C060C060C021C03E4010000FF
:104760000000000000000000000000000000000049
:104770000000000000000000F0008C018C018601A8
:1047800006000600060006020C020C01F000000004
:104790000000000000000000000000000002C00354
:1047A000000300030003000378038C030C030603DB
:1047B000060306030603060304038C0778010000C2
:1047C00000000000000000000000000000000000E9
:1047D0000000000000000000E001180308020C06C1
:1047E0000C06FC070C000C0018041802E001000085
:1047F0000000000000000000000000000000C003F6
:104800006006300630003000FE013000300030001D
:10481000300030003000300030003000FC0100007B
:104820000000000000000000000000000000000088
:104830000000000000000000F007D8068C018C0189
:104840008C019801F8000C00FC00CC030603060361
:104850008E03F800000000000000000008000E00B9
:104860000C000C000C000C00EC011C030C030C03EE
:104870000C030C030C030C030C030C039E07000039
:1048800000000000000000000000000000006000C8
:1048900060000000000040007C00600060006000DC
:1048A000600060006000600060006000FC030000C9
:1048B0000000000000000000000000000000C00137
:1048C000C001000000000001F001800180018001B2
:1048D00080018001800180018001800180018001D0
:1048E000CC007C00000000000000000008000E006A
:1048F0000C000C000C000C008C038C008C004C0095
:104900006C005C008C008C010C010C039E07000005
:1049100000000000000000000000000040007C00DB
:104920006000600060006000600060006000600087
:10493000600060006000600060006000FC03000038
:104940000000000000000000000000000000000067
:1049500000000000000000003707EE06660666064D
:10496000660666066606660666066606FF0F0000B1
:104970000000000000000000000000000000000037
:104980000000000000000000EE011C030C030C03FB
:104990000C030C030C030C030C030C039E07000018
:1049A0000000000000000000000000000000000007
:1049B0000000000000000000F00098010C03060653
:1049C00006060606060606060C030C03F0000000A9
:1049D00000000000000000000000000000000000D7
:1049E0000000000000000000EE011C030C060C0695
:1049F0000C060C060C060C060C031C03EC010C0048
:104A00000C003E000000000000000000000000005C
:104A1000000000000000000078028C030C03060375
:104A2000060306030603060304038C03780300034E
:104A30000003C007000000000000000000000000AC
:104A400000000000000000009F0358063806180010
:104A5000180018001800180018001800FF000000C7
:104A60000000000000000000000000000000000046
:104A70000000000000000000F0031C030C020C0208
:104A80003800F000C003040304038C03FC010000A1
:104A90000000000000000000000000000000000016
:104AA0002000200030003000FE01300030003000D7
:104AB000300030003000300030023002E0010000F1
:104AC00000000000000000000000000000000000E6
:104AD00000000000000008028E030C030C030C030E
:104AE0000C030C030C030C030C039C07780100005F
:104AF00000000000000000000000000000000000B6
:104B000000000000000000001E070C020801080160
:104B100018019000B000B0006000600020000000AC
:104B20000000000000000000000000000000000085
:104B30000000000000000000F70E6204460464025A
:104B40006402EC029C0198019801980108000000A1
:104B50000000000000000000000000000000000055
:104B60000000000000000000BC0718011001B000A8
:104B700060006000E0009000080108039E0700004C
:104B80000000000000000000000000000000000025
:104B900000000000000000009E0708010801080155
:104BA00090009000B00060006000600020002000D5
:104BB00024001C00000000000000000000000000B5
:104BC0000000000000000000FC018401C40044005B
:104BD000600020003000180208020C03FC010000F5
:104BE0000000000000000000000380008000800042
:104BF0008000800080008000800040002000400095
:104C000080008000800080008000800080008000A4
:104C10000003000040004000400040004000400011
:104C20004000400040004000400040004000400084
:104C30004000400040004000400040004000400074
:104C400040004000000000000C00100010001000A8
:104C50001000100010001000100020004000200084
:104C600010001000100010001000100010001000C4
:104C70000C00000000001C002204C204800300009D
:104C80000000000000000000000000000000000024
:104C90000000000000000000000000000000000014
:104CA0000000000000000000000000000000000004
:104CB00000000000000000000000000000000000F4
:104CC00000000000000000000000000000000000E4
:104CD00000000000000000000000000000000000D4
:104CE0000000000000000000000000000000C00103
:104CF000C001C001C001C001C001C001800080002E
:104D00008000800080008000800000000000000023
:104D100000008001C003C00380010000000000000B
:104D200000000000000000000000E01CE01CF01E7D
:104D3000700E38071803080184000000000000000E
:104D40000000000000000000000000000000000063
:104D50000000000000000000000000000000000053
:104D60000000000000000000000000000000000043
:104D700020102010201020102010FE7FFE7F100831
:104D8000100810081008100810081008FE7FFE7F99
:104D900008040804080408040804000000000000D7
:104DA0000000000000000000000000000001000101
:104DB000C0076019103118311839183938017001DD
:104DC000E001C0038007000F001D003900311C31D5
:104DD0001C310C310C11180DE0070001000100011D
:104DE00000000000000000000000000000000000C3
:104DF0001C1036186308630C6304630463026302C7
:104E00006301361D9C3780228063406340632063CA
:104E10002063306310221836081C000000000000D8
:104E20000000000000000000000000000000000082
:104E3000F00098018C018C018C018C018C00CC005D
:104E40007800183E1C083608320863046304C30463
:104E5000C303834306438E26781C00000000000035
:104E6000000000000000000000001C003C003C00AE
:104E70003000300010000C000600000000000000B0
:104E80000000000000000000000000000000000022
:104E90000000000000000000000000000000000012
:104EA0000000000000000000000000400020001092
:104EB0000008000C0004000600030003000380014A
:104EC0008001800180018001800180018001000358
:104ED0000003000300060006000C0008001000207C
:104EE0000040000000000000000002000400080074
:104EF0001000300020006000C000C000C000800131
:104F00008001800180018001800180018001C0005A
:104F1000C000C00060006000300010000800040005
:104F2000020000000000000000000000000000007F
:104F30000000000000018003800300011C713C7927
:104F4000783DC0070001C007783D3C791C71000125
:104F500080038003800100000000000000000000CA
:104F60000000000000000000000000000000000041
:104F7000000000000000000100010001000100012C
:104F800000010001FC7F000100010001000100019F
:104F9000000100010000000000000000000000000F
:104FA0000000000000000000000000000000000001
:104FB00000000000000000000000000000000000F1
:104FC00000000000000000000000000000000000E1
:104FD000000000001C003C003C00300030001000CD
:104FE0000C000600000000000000000000000000AF
:104FF00000000000000000000000000000000000B1
:1050000000000000FE7F0000000000000000000023
:105010000000000000000000000000000000000090
:105020000000000000000000000000000000000080
:105030000000000000000000000000000000000070
:105040000000000000000000000000000000000060
:10505000000018003C003C001800000000000000A8
:105060000000000000000000000000400060002080
:105070000030001000180008000C000400060002B8
:105080000003000180018000C0004000600020009B
:1050900030001000180008000C0004000600020098
:1050A0000000000000000000000000000000000000
:1050B000C007600C30181830183018200C600C60D5
:1050C0000C600C600C600C600C600C600C601820B4
:1050D000183018303018600CC007000000000000C5
:1050E00000000000000000000000000000000000C0
:1050F00000018001F80180018001800180018001B0
:105100008001800180018001800180018001800197
:10511000800180018001C003F81F00000000000032
:10512000000000000000000000000000000000007F
:10513000E007101C0818043004300C300C3000302C
:105140000018000800040002000180004000202038
:10515000102008200430FC1FFC1F0000000000008D
:10516000000000000000000000000000000000003F
:10517000E003180E0C0C0C180C180C180018000C7E
:105180000006C003000E00180010003000300C3084
:105190000C300C100C18180CE0030000000000008C
:1051A00000000000000000000000000000000000FF
:1051B000000C000E000E000F800E800E400E600EE0
:1051C000200E100E100E080E040E040EFE7F000EB0
:1051D000000E000E000E000E000EC07F000000004A
:1051E00000000000000000000000000000000000BF
:1051F000F03FF03F10001000100008000800C80742
:10520000280C1818081000300030003000300C3026
:105210000C3004180418080CF00300000000000013
:10522000000000000000000000000000000000007E
:10523000800FC010203010301800180008000C003B
:105240008C0F6C183C301C600C600C600C600C60A7
:105250001860182030306018C007000000000000FF
:10526000000000000000000000000000000000003E
:10527000F83FF83F1C100C08040804040004000266
:105280000002000100010001800080008000C000D9
:10529000C000C000C000C000C0000000000000004E
:1052A00000000000000000000000000000000000FE
:1052B000E007300C18180C300C300C301C3038184B
:1052C0007008E007B007180E0C1C063806300630D0
:1052D000063006300C18180CE00300000000000037
:1052E00000000000000000000000000000000000BE
:1052F000E00318040C080C180610063006300630BF
:10530000063006380C3C1836F03100300018001812
:1053100000180C0C0C060C03F0010000000000004B
:10532000000000000000000000000000000000007D
:1053300000000000000000000000000000008001EC
:10534000C003C00380010000000000000000000056
:1053500000008001C003C0038001000000000000C5
:10536000000000000000000000000000000000003D
:105370000000000000000000000000000000C0006D
:10538000C00000000000000000000000000000005D
:10539000000000000000C000C0008000800040004D
:1053A000400000000000000000000000000000209D
:1053B000001000080004000600038001C000600027
:1053C000300018000C00180030006000C0008001A0
:1053D0000003000600040008001000200000000088
:1053E00000000000000000000000000000000000BD
:1053F0000000000000000000000000000000FE7F30
:1054000000000000000000000000FE7F000000001F
:10541000000000000000000000000000000000008C
:105420000000000000000000000000000000040078
:105430000800100020006000C0008001000300068A
:10544000000C001800300018000C0006000380015A
:10545000C0006000200010000800040000000000F0
:105460000000000000000000000000000000C00775
:105470003018083008600C601C601C601C60003034
:10548000001C0006000180008000800080000000F9
:1054900000008001C003C003800100000000000084
:1054A00000000000000000000000000000000000FC
:1054B000C0076018103018200C2F8C4D864CC64C3D
:1054C000C64C664C66446644662666266615CC1C49
:1054D0000C40082018303018C00700000000000001
:1054E00000000000000000000000000000000001BB
:1054F000C001C001C001400160032003200320035C
:105500003006100610061006F80F080C080C080CE0
:105510000C0C0418041806181F7C00000000000082
:10552000000000000000000000000000000000007B
:10553000FE07181C18381830183018301830181892
:10554000180CF80718181830182018601860186020
:105550001860186018301818FE0F000000000000D6
:10556000000000000000000000000000000000003B
:10557000C0276038103018200C400C400400060092
:1055800006000600060006000600060006000C40A5
:105590000C400C2018303018C0070000000000003C
:1055A00000000000000000000000000000000000FB
:1055B000FE03180E181818301830183018601860CC
:1055C000186018601860186018601860186018304B
:1055D000183018101818180EFE0300000000000004
:1055E00000000000000000000000000000000000BB
:1055F000FE3F1830182018601840180018081808C6
:10560000180CF80F180C18081808180018001800C3
:105610001840184018201830FE3F0000000000001D
:10562000000000000000000000000000000000007A
:10563000FE7F1870184018C0188018001810181035
:105640001818F81F1818181018101800180018004B
:1056500018001800180018007E000000000000006C
:10566000000000000000000000000000000000003A
:10567000C013701C101018100C200C200400060021
:10568000060006000600060006FC063006300C3058
:105690000C30183018303008C0070000000000003F
:1056A00000000000000000000000000000000000FA
:1056B0003F7E0C180C180C180C180C180C180C1831
:1056C0000C180C18FC1F0C180C180C180C180C18C3
:1056D0000C180C180C180C183F7E0000000000007D
:1056E00000000000000000000000000000000000BA
:1056F000F81F80018001800180018001800180010C
:105700008001800180018001800180018001800191
:105710008001800180018001F81F0000000000006E
:105720000000000000000000000000000000000079
:10573000E07F0006000600060006000600060006E0
:105740000006000600060006000600060006000629
:105750000006000600060006000600060E060E0300
:105760008E01FC00000000000000000000000000AE
:105770007E7C1818180818041806180218019801D9
:105780009801D801B803380318071806180E180C2A
:10579000181C1818183018307EFC0000000000009B
:1057A00000000000000000000000000000000000F9
:1057B0007E001800180018001800180018001800C3
:1057C0001800180018001800180018001800180019
:1057D0001840184018201830FE3F0000000000005C
:1057E00000000000000000000000000000000000B9
:1057F0001FF81C381C381C381C3C34343434343406
:10580000343674326432643264326431C431C43147
:10581000C431C430C43084309FFC0000000000005C
:105820000000000000000000000000000000000078
:105830001F7C1C103C103410341074106410E410E1
:10584000C410C41184118413041304170416041E15
:10585000041C041C041C04181F1800000000000095
:105860000000000000000000000000000000000038
:10587000C003300C181808100C300C30066006609D
:1058800006600660066006600660066006600C2022
:105890000C3008101818300CC00300000000000085
:1058A00000000000000000000000000000000000F8
:1058B000FE0F18181830186018601860186018600B
:1058C00018301818F80F18001800180018001800E1
:1058D00018001800180018007E00000000000000EA
:1058E00000000000000000000000000000000000B8
:1058F000C003300C18180C100C300C200660066029
:105900000660066006600660066006600660E46188
:105910002C331C321816300EC007004C007C0038A7
:105920000000000000000000000000000000000077
:10593000FE07181C1838183018301830183018188E
:10594000180CF80798031803180718061806180EFD
:10595000180C180C181C18187E78000000000000A5
:105960000000000000000000000000000000000037
:10597000E027303818300C200C200C000C001800E8
:105980007800E003800F001E0038007000600460A3
:105990000460086018303818C80F000000000000CC
:1059A00000000000000000000000000000000000F7
:1059B000FC3F8C2184618241824180018001800111
:1059C00080018001800180018001800180018001CF
:1059D0008001800180018001E007000000000000DC
:1059E00000000000000000000000000000000000B7
:1059F0003F7C0C100C100C100C100C100C100C1028
:105A00000C100C100C100C100C100C100C100C10B6
:105A10000C100C1008083804E0030000000000001F
:105A20000000000000000000000000000000000076
:105A30003EF8182018201820301030103010301088
:105A4000600860086008E00CC004C004C004800363
:105A500080038003800300010001000000000000BB
:105A60000000000000000000000000000000000036
:105A7000DFF38661862186218C210C218C238C13F7
:105A80008C138C134C1358125816580E380E380EAF
:105A9000380E300C10041004100400000000000048
:105AA00000000000000000000000000000000000F6
:105AB0007E3E180838083004300470026002E001AD
:105AC000C001C0018001800340034007200620067A
:105AD000100C100C081808183E7C00000000000094
