:020000040800F2
:10000000E848002045010008071500087914000899
:100010000315000841130008D72400080000000061
:10002000000000000000000000000000631800084D
:100030004513000800000000A9160008651B000811
:100040005F0100085F0100085F0100085F01000810
:100050005F0100085F0100085F0100085F01000800
:100060005F0100085F0100085F0100085F010008F0
:100070005F0100085F0100085F0100085F010008E0
:100080005F0100085F0100085F0100085F010008D0
:100090005F0100085F0100085F0100085F010008C0
:1000A0005F0100085F0100085F0100085F010008B0
:1000B0005F0100085F0100085F0100085F010008A0
:1000C0005F0100085F0100085F0100085F01000890
:1000D0005F010008A31E00085F1F00082120000820
:1000E0005F0100085F0100085F0100085F01000870
:1000F0005F0100085F0100085F0100085F01000860
:100100005F0100085F0100085F0100085F0100084F
:100110001F1D0008E11D00085F0100085F010008C5
:100120005F0100085F0100085F0100085F0100082F
:10013000DFF80CD000F05CFF00480047713A00087F
:10014000E84800200648804706480047FEE7FEE7EB
:10015000FEE7FEE7FEE7FEE7FEE7FEE7FEE7FEE777
:100160009D1B000831010008A0F14101192900D8A8
:100170002030704740EA01039B0703D009E008C91B
:10018000121F08C0042AFAD203E011F8013B00F85C
:10019000013B521EF9D27047D2B201E000F8012BA8
:1001A000491EFBD270470022F6E710B513460A46F7
:1001B00004461946FFF7F0FF204610BD30B505464E
:1001C0002A460B4612F8010B13F8014B08B1A04266
:1001D000F8D01CB1002802D06D1CF1E7284630BDD4
:1001E000421C10F8011B0029FBD1801A704710B582
:1001F000002200E0521C835C8C5CA34201D1002BE6
:10020000F8D1D8B2E1B2401A10BD034611F8012B63
:1002100000F8012B002AF9D11846704730B5054681
:100220000020034600E05B1C934205D2EC5CC85CF6
:10023000201A01D1002CF6D130BD00000FB400B55A
:100240008DB010A909900B9000914FF0FF300A90EB
:1002500000200C9005480690054807906A4609A8BA
:100260000F9900F0D1FC0DB05DF814FB250C0008CF
:10027000430C00082DE9FF5F1D464FF0FF3BD5E919
:10028000014691465F464FF00008A9697F1C01981E
:100290008847296A824688470028F6D1BAF1FF3F8D
:1002A0000CD024F4C064002E19DD600614D5BAF118
:1002B0002B0F09D0BAF12D0F0ED103E0584604B030
:1002C000BDE8F09F44F48064A9697F1C01988847C9
:1002D000761E8246002E02DDBAF1300F03D0B9F14E
:1002E000000F26D032E0A969761E44F400747F1C0A
:1002F000019888478246002E05DDBAF1780F06D0B6
:10030000BAF1580F03D0B9F1000F10D01EE0B9F1C7
:10031000000F02D0B9F1100F18D1A969761E24F48C
:1003200000747F1C019888478246102002E0082054
:1003300000E00A20814609E008FB0908A969761E49
:1003400044F400747F1C019888478246002E05DD26
:100350004946504600F043FC0028EDDAE96901986F
:100360008847A00502D46FF00100A8E7E00725D177
:10037000600613D5600502D5C8F1000000E04046D4
:1003800029680A1D2A600968220501D5087015E050
:10039000220701D5088011E008600FE02868011DE0
:1003A00029600068210502D580F8008006E0210759
:1003B00002D5A0F8008001E0C0F8008038467EE752
:1003C0002DE9FF4F087881B09946FF2805D0491CD8
:1003D0002D2804D00024002308E000230BE0012492
:1003E000F9E703EB830300EB4303491C0878FF287C
:1003F000F7D104B15B4200200090147801462D2C07
:1004000001D02B2C04D1521C2D2C12D0002400948E
:1004100000251678FF2E0ED00A24A0FB04C801FB8D
:100420000481002700FB0711521C16EB0C006941E8
:10043000EFE70124EBE7994450EA01020ED00024D3
:10044000AA4D2646DFF8A88200F0ADFD82468B4615
:10045000B9F1000009DAC9F100071BE00198002199
:10046000C0E9001105B0BDE8F08F074612E0F807BB
:1004700007D022462B463046414600F01DFA06467C
:10048000884622462B461046194600F015FA0446C7
:100490000D467F10002FEAD1B9F1000F32464346D6
:1004A0005046594602DA00F00FFD01E000F004FA70
:1004B000009A0AB181F00041019AC2E90001D1E736
:1004C0002DE9FF4F1F468DB0D7E901464FF0FF38A9
:1004D0002E2045464FF000090B90B9696D1C0E980F
:1004E0008847396A824688470028F6D1BAF1FF3F2B
:1004F0000AD024F4D064002E11DDBAF12B0F08D0FD
:10050000BAF12D0F0BD102E0404611B0ABE744F435
:100510008064B9696D1C0E9888478246761E6946CC
:10052000600501D52D2000E02B208DF8000001F1A1
:10053000010B0DF1200809E0B9696D1C0E98884780
:1005400082460F9844F40074761E0560002E02DD8A
:10055000BAF1300FF0D00B998A453ED144F08004B7
:1005600006E00F99681CA9F1010944F400740860C1
:10057000B9696D1C761E0E98884782463028F0D0E7
:100580002BE00B998A4505D1200603D444F0800462
:10059000761E18E0504602F0E5F808B30DF113019D
:1005A000761E44F400748B4508D2AAF130000BF893
:1005B000010B200607D5A9F1010003E0200602D4B3
:1005C00009F101008146A00502D50F99681C086059
:1005D000B9696D1C0E9888478246002ED1DC53E025
:1005E000002E51DDBAF1650F02D0BAF1450F4BD1A3
:1005F000A00549D5B9696D1C24F44074761E0E9887
:1006000088478246002E0CDD2B2804D0BAF12D0F2E
:1006100007D144F48074B9696D1C0E9888478246EE
:10062000761EE00501D52D2100E02B2108F8011BE5
:10063000CDF82C8021E00DF12901761E44F40074E0
:1006400088450CD2AAF1300010F0FF0088F80000B5
:1006500002D10B99884509D908F1010806E0E005A7
:1006600001D5244801E042F20F708146B9696D1C42
:100670000E98884782460F980560002E04DD50468C
:1006800002F070F80028D6D1F9690E988847FF204B
:100690008BF8000088F800000020069007904B4679
:1006A0006A4608A906A8FFF78BFEA00502D46FF0E2
:1006B00001002AE714F0240F0AD0E00714D1DDE985
:1006C00006123868031D3B600068C0E900120BE0A9
:1006D000DDE9060100F0E2F90146E00704D13868DF
:1006E000021D3A600068016028460EE700002440C1
:1006F0000000F03FF1D8FFFF2DE9F05F93460F4671
:1007000080460446002601F011FFD0F80090824692
:1007100014F8015B2DB100F055FA0068405DC00788
:10072000F6D12B2D02D02D2D1AD0641E0021CAF82F
:1007300000105A463946204600F094FA014627B187
:100740003868A04201D1C7F80080DAF8000002281A
:1007500009D0CAF80090700505D54842BDE8F09F61
:1007600046F48066E2E70846F8E72DE9FE4F80464A
:1007700081EA0300C00F0C46009021F0004123F0F5
:100780000045B8EB0200A94105D2404621469046FB
:100790001C460B46024623F00040104347D0270D6D
:1007A000C7F30A00C3F30A510290401A019040288F
:1007B0006BDAC3F3130040F4801B0098924620B11B
:1007C0000023D2EB030A63EB0B0B01985946C0F1EF
:1007D0004002504600F0C5F906460D4650465946BF
:1007E000019A00F0DDF910EB08006141002487EA6E
:1007F000115284EAE7731A4340D0009A62B3019A17
:10080000012A4FEA075215DC001B61EB02014FF091
:10081000004202EA0752CDE90042001C41F5801176
:1008200032462B4600F002FB03B0BDE8F08F404695
:100830002146F9E7001B61EB0201001C41F5801322
:1008400000185B412018A2F5001747EB030140EAAE
:10085000D570B6196D4111E06D084FEA360645EACC
:10086000C0754FEA0752001B61EB0201001C41F505
:10087000801149084FEA30000019514132462B4699
:1008800003B0BDE8F04F00F0C2BA0098012240006A
:100890000023D0EB020263EBE073009821464FEA9D
:1008A000E074B8EB000061EB0401E9E783F000437A
:1008B0005BE781F0004158E72DE9FE4F81EA030430
:1008C00004F0004421F0004100944FF0000B23F0AD
:1008D000004350EA01045ED052EA03045BD0C3F344
:1008E0000A54C1F30A552C44A4F2F3340194A0FB3A
:1008F0000254C1F3130141F48011C3F3130343F411
:10090000801301FB024400FB034E840A970A44EA69
:10091000815447EA8357A4FB076802958D0A05FBBB
:1009200007854FEA932C04FB0C542705029D4FEAE0
:10093000065847EA1637B5EB08056EEB070C870E2D
:10094000920E47EA811742EA8312A7FB0201B6EB37
:100950000B0164EB00042B0D43EA0C335E1844EBEF
:100960001C50DA465146E7FB0201C5F313044FEA77
:100970000B3343EA14534FEA0432019C43EA060363
:10098000A4F10C040294009CCDE900B400F04EFAEE
:1009900003B0BDE8F08F00200146F9E70EB5C10FA6
:1009A00080EAE0700844CA07002140F233438DE832
:1009B0000E000A460B4600F039FA03B000BD0EB532
:1009C00040F2334102910021CDE900110A460B4665
:1009D00000F02CFA03B000BD70B5C1F30A5201F06B
:1009E00000450024C1F3130140F2FF3341F48011AC
:1009F0009A4201DA002070BD40F233439A42A2F2DB
:100A0000334203DC524200F0BBF800E090402C433C
:100A1000F1D0404270BD00F0004230F000400AD0FA
:100A2000C10D01F56071C0F3160042EA0151C20820
:100A300040071143704700200146704730B5041E3F
:100A400071F1000404DB4FF00044404264EB01010B
:100A5000141E73F1000405DB1C464FF000435242A4
:100A600063EB04038B4208BF824230BD30B5041EE5
:100A700071F1000404DB4FF00044404264EB0101DB
:100A8000141E73F1000405DB1C464FF00043524274
:100A900063EB0403994208BF904230BD01F000436C
:100AA00030B421F0004150EA010206D00A0DA2F54F
:100AB0006072C1F31301002A02DC30BC00207047D1
:100AC000440F44EAC104C100E01830BC00EBC2503E
:100AD00000F066B930B50B46014600202022012403
:100AE00009E021FA02F59D4205D303FA02F5491BFC
:100AF00004FA02F52844151EA2F10102F1DC30BD12
:100B00002DE9F05F0546002092469B468846064642
:100B1000814640241BE0284641464746224600F0D5
:100B20002FF853465A46C01A914110D31146184621
:100B3000224600F016F82D1A67EB01084F462246B0
:100B40000120002100F00DF817EB00094E41201E96
:100B5000A4F10104DFDC484631462A464346BDE89D
:100B6000F09F202A04DB203A00FA02F100207047AF
:100B70009140C2F1200320FA03F3194390407047DB
:100B8000202A04DB203A21FA02F00021704721FAE2
:100B900002F3D040C2F12002914008431946704749
:100BA000202A06DBCB17203A41FA02F043EAE07331
:100BB00006E041FA02F3D040C2F12002914008431E
:100BC0001946704700487047FC4E000810B50446AF
:100BD000FFF7F8FF0068005D00F0010010BD3A2843
:100BE00000D2303820F02002412A01D3A2F1370090
:100BF000884201D34FF0FF30704700000268114473
:100C00001378016018467047D16004495161044966
:100C1000116200211161114600F0FCB9FD0B0008C2
:100C2000CD0B0008426842B1016811F8013B23B1C5
:100C3000521EC0E90012184670470121C160881E8B
:100C4000704742685AB1C368016843B983688B42F0
:100C500005D0491E521CC0E90012002070474FF019
:100C6000FF3070472DE9F05F824600780027154677
:100C70008B460AF10104B946302801D09DB113E03A
:100C800014F8010B0127782803D0582801D045B16A
:100C90000AE00DB1102D07D10027102514F8010B23
:100CA00002E0082500E00A250026B0460EE005FB1C
:100CB000080005FB06F1012701EB10461FFA80F83A
:100CC000B6F5803F00D3B94614F8010B2946FFF76B
:100CD00086FF0028EBDABBF1000F05D00FB1641ED0
:100CE00000E05446CBF80040B9F1000F06D001F007
:100CF0001DFC02210160C81EBDE8F09F48EA0640C5
:100D0000FAE700000FB4002300B589B00CA90091E8
:100D10000B996FF00042CB601E4B06931E4B07935E
:100D20000423CDE901321D4A089202466B46002099
:100D3000FFF7C6FB09B05DF814FB70B586B0064638
:100D40004FF0FF300091CDE90101002015460C461F
:100D500004903246694604A8FFF7D4FF034604987E
:100D6000211825B108B10A4600E022462A60002871
:100D70000DD0002B02DD0098884208D0081B00949B
:100D8000CDE901043246694604A8FFF7BBFF06B06F
:100D900070BD0000250C0008430C0008CD0B0008B6
:100DA0000029A8BF7047401C490008BF20F001007F
:100DB000704710B4B0FA80FC00FA0CF050EA01045D
:100DC00004BF10BC704749B1CCF1200421FA04F4EF
:100DD00011FA0CF118BF012121430843A3EB0C01C8
:100DE000CB1D4FEA00614FEA102042BF002010BC2B
:100DF000704700EBC35010440029A4BF10BC7047DB
:100E0000401C490008BF20F0010010BC704710B51D
:100E1000141E73F1000408DA401C41F1000192181D
:100E20005B411A4301D120F0010010BD2DE9F04DC6
:100E300092469B4611B1B1FA81F202E0B0FA80F21B
:100E400020329046FFF78DFE04460F4640EA0A0026
:100E500041EA0B0153465A46084313D0114653EA60
:100E6000010019D0C8F140025046FFF789FE05463F
:100E70000E46504659464246FFF773FE084305D0DA
:100E8000012004E020463946BDE8F08D00200543EE
:100E900046EAE0762C4337430A986305E40AA0EB60
:100EA00008000022FD0A44EA47540A3002D5002017
:100EB0000146E9E7010510196941DDE90845001916
:100EC0006941BDE8F04DA2E72DE9F04D81EA030448
:100ED00004F0004B21F0004514464FF0000A23F0C7
:100EE000004150EA050220D054EA01021DD0C5F3AA
:100EF0000A570246C5F31303C1F31300C1F30A56A0
:100F000040F4801543F48013A7EB0608101BD64667
:100F100008F2FD3873EB050002D308F1010801E087
:100F200092185B41B8F1000F03DA00200146BDE8DA
:100F3000F08D00204FF48011064684460EE0171B0A
:100F400073EB050705D3121B63EB050306434CEA5D
:100F5000010C49084FEA300092185B4150EA010742
:100F6000EDD152EA030012D082EA040083EA0501BF
:100F7000084305D0101BAB4106D20122002306E036
:100F800000224FF0004302E06FF0010253101AEB11
:100F900006004CEB085110EB0A0041EB0B01BDE8D9
:100FA000F04DFFF734BF0EB540F2334202920022FB
:100FB000CDE900221346FFF739FF03B000BDC1F3AE
:100FC0000A52C1F3130140F2FF3341F480119A42F7
:100FD00002DA00200146704740F233439A42A2F2FF
:100FE000334202DC5242FFF7CBBDFFF7BABD00002F
:100FF000064C074D06E0E06840F0010394E8070066
:1010000098471034AC42F6D3FFF796F864530008C3
:10101000845300082DE9F34F8BB04FF0000801F125
:101020000C000C464FF0010B46460DF1080A0190EA
:10103000626901210198904705002DD0252D2CD003
:10104000216A8847C0B16269012101989047216AED
:1010500088470028F7D1411E62690198904700E057
:10106000761CA1690B988847216A88470028F7D128
:10107000E1690B988847DBE7A1690B988847074629
:10108000A84201D1761CD3E7E1690B9888477F1C01
:1010900002D1B8F1000F6FD046E1002762693D46EA
:1010A0003946019890472A2804D1626901210198A4
:1010B00090470125DFF884926269012101989047E9
:1010C000A0F130010A290AD24F45E5DC07EB870180
:1010D00000EB4107303FDFD445F01005ECE7E906AF
:1010E00001D46FF000476C280AD04C2814D068282F
:1010F00015D06A280DD074281CD07A281AD01DE08B
:1011000062690121019890476C2802D045F00405DE
:1011100014E045F002050DE045F020050AE06269A3
:10112000012101989047682802D045F0080505E0A4
:1011300045F400656269012101989047C4E90157AF
:1011400065283DD019DC58287AD00CDC452837D0EA
:1011500004DC252826D0412831D131E046282FD083
:1011600047282CD12CE05B2877D0612828D0632831
:101170007CD0642823D15AE0D0E06F2848D008DC26
:1011800066281DD067281BD0692821D06E2816D16B
:1011900027E0702845D0732868D0752847D0782874
:1011A0000DD14DE0A1690B988847054625283FF4ED
:1011B00069AFE1690B9888476D1C3FF46AAFB3E0F3
:1011C00023466A466FF001000B99FFF779F99EE01C
:1011D00045F040006060A80723464FF0000236D477
:1011E0003EE0E8077FF447AF2068011D21600068FA
:1011F000290501D506701BE7290701D5068017E7E9
:10120000A90703D5F117C0E9006111E706600FE7F0
:1012100045F040006060A80723464FF0080216D44E
:101220001EE040F60E0125EA0100606016E045F080
:1012300040006060A80723464FF00A0207D40FE081
:1012400045F040006060A80708D5234610226FF0E3
:1012500001000B99AFF3008059E007E0234610220C
:101260006FF001000B99FFF705F850E04FF000090F
:101270004F464B46632802D05B2806D040E0E80684
:1012800001D40120A06001273AE0626901210198A0
:1012900090475E2805D14FF00109626949460198DF
:1012A0009047216939B900210A46534643F8212065
:1012B000491C0829FADBB0B3216969B9C11700EBF1
:1012C000D16253110AEB830122F01F02821A01201E
:1012D0000B68904003430B606269012101989047BD
:1012E0005D28E8D1B9F1000F09D00020514651F82E
:1012F0002020D24341F82020401C0828F7DB02AB15
:10130000224600976FF001000B99AFF30080002890
:101310000CDA401C08D1BBF1000F05D04FF0FF30B4
:101320000DB0BDE8F08FFFE74046F9E7E90701D1CE
:1013300008F1010806444FF0000B79E6CCCCCC0C48
:1013400000BFFEE7704740F25001C2F200010860A2
:1013500000BF40F25001C2F2000109680029F8D133
:1013600070472DE9F04102460025002600200023A9
:101370000024002791F803C00CF00F0591F803C07A
:101380000CF0100CBCF1000F03D091F802C04CEA35
:10139000050591F800C0BCF1000F31D014680020A1
:1013A0002BE04FF0010C0CFA00F3B1F800C00CEA8E
:1013B00003069E4220D183004FF00F0C0CFA03F776
:1013C000BC4305FA03FC4CEA040491F803C0BCF1E9
:1013D000280F06D14FF0010C0CFA00FCC2F814C023
:1013E0000AE091F803C0BCF1480F05D14FF0010CA1
:1013F0000CFA00FCC2F810C0401C0828D1D31460BD
:10140000B1F800C0BCF1FF0F34DD546800202EE0BD
:1014100000F1080C4FF0010808FA0CF3B1F800C015
:101420000CEA03069E4221D183004FF00F0C0CFA08
:1014300003F7BC4305FA03FC4CEA040491F803C02B
:10144000BCF1280F05D100F1080C08FA0CF8C2F81D
:10145000148091F803C0BCF1480F07D100F1080CCB
:101460004FF0010808FA0CF8C2F81080401C082858
:10147000CED35460BDE8F08100BFFEE708B501217E
:10148000080200F02BF90121102000F027F90121BA
:10149000102000F023F90121102000F01FF9102086
:1014A0008DF8030003208DF802004020ADF8000005
:1014B00069464FF40050C4F20100FFF752FF4FF4A9
:1014C0000050ADF8000069464FF48050C4F20100AE
:1014D000FFF747FF4FF40050ADF8000069464FF4A6
:1014E0008050C4F20100FFF73CFF4FF40050ADF80C
:1014F000000069464FF48050C4F20100FFF731FF4D
:1015000008BD00BFFEE7704770B5002100230F2221
:10151000C47834B34EF60C54CEF20004246804F4BC
:10152000E064C4F5E064210AC1F10403CA404478D0
:1015300004FA03F184781440214309014FF4644410
:10154000CEF200040678A155047804F01F050124AA
:10155000AC4005786D11AD0005F1E025C5F80041FE
:101560000CE0047804F01F050124AC404EF2801515
:10157000CEF200050678761145F8264070BD40F0A1
:10158000FD7141F080614EF60C52CEF20002116006
:101590007047F0B587B007460C46182244F66061E4
:1015A000C0F6000101A8FEF7E5FD0097002577E0F1
:1015B00001A850F825100098FEF700FE0090009852
:1015C00018B94FF0FF3007B0F0BD01A951F8250060
:1015D000FEF706FE00990844009035B90A226946D4
:1015E0000098FFF789F8206059E0012D06D10A2202
:1015F00069460098FFF780F8606050E0022D1DD129
:10160000002617E00A2269460098FFF775F804F1F2
:10161000080141F826006068401EB04209D90098D0
:1016200000782C2802D04FF0FF30CCE70098401C07
:101630000090761C6068B042E4D830E0032D1DD1E4
:10164000002617E00A2269460098FFF755F804F5CE
:10165000CC7141F826006068401EB04209D900985C
:1016600000782C2802D04FF0FF30ACE70098401CE7
:101670000090761C6068B042E4D810E004F54A722D
:1016800045F2D401C0F600010098FEF7D7FD45F2FF
:101690007001C0F600010098FEF790FD00906D1CEF
:1016A000062D85DB00208EE7704759B14FF480523C
:1016B000C4F20202D26902434FF48053C4F202031F
:1016C000DA610AE04FF48052C4F20202D269824326
:1016D0004FF48053C4F20203DA61704759B14FF4FA
:1016E0008052C4F20202926902434FF48053C4F262
:1016F00002039A610AE04FF48052C4F20202926936
:1017000082434FF48053C4F202039A61704730B5AC
:1017100000210022002400234FF48055C4F202056A
:101720006D6805F00C0121B1042908D008293BD1CE
:101730000BE04FF49055C0F27A0505603AE04FF4A3
:101740009055C0F27A05056034E04FF48055C4F23C
:1017500002056D6805F470124FF48055C4F202055D
:101760006D6805F48034022505EB924234B94FF4DC
:101770001065C0F23D055543056014E04FF48055F7
:10178000C4F202056D6805F4003535B14FF41065FB
:10179000C0F23D055543056005E04FF49055C0F299
:1017A0007A055543056005E04FF49055C0F27A057F
:1017B000056000BF00BF4FF48055C4F202056D689C
:1017C00005F0F001090940F20005C2F200056B5C6A
:1017D0000568DD4045604FF48055C4F202056D6830
:1017E00005F4E061090A40F20005C2F200056B5CF5
:1017F0004568DD4085604FF48055C4F202056D6890
:1018000005F46051C90A40F20005C2F200056B5CA4
:101810004568DD40C5604FF48055C4F202056D682F
:1018200005F44041890B40F21005C2F200056B5CE3
:10183000C568B5FBF3F5056130BD10B500F020FAC1
:1018400000F034FA00F045FA00F056FA00F05BFBC5
:1018500000F0B7FB00F016FC00F093FA00F0F2FA8B
:1018600010BD70472DE9F04781460C46154601F042
:1018700036FC0646F6B344F69C72C0F6000244F607
:10188000A871C0F60001304601F0CEFB4846FFF7D4
:1018900096F807463A460B4644F6B471C0F6000186
:1018A000304601F0A2FB2046FFF789F807463A468A
:1018B0000B4644F6C471C0F60001304601F095FBBA
:1018C0002846FFF7A8F807463A460B4644F6D47177
:1018D000C0F60001304601F088FB304601F000FD03
:1018E000824651464FF49840C4F2000003F00BFAD0
:1018F000504600E005E001F0FEFC304601F019FC26
:1019000000BFBDE8F0872DE9F05F81460C469246A6
:101910001D4601F0E4FB0646E6B344F6E872C0F665
:10192000000244F6A871C0F60001304601F07CFBCD
:101930004846FFF744F807463A460B4644F6F4712A
:10194000C0F60001304601F050FB524645F200015E
:10195000C0F60001304601F067FB224645F20C015B
:10196000C0F60001304601F05FFB2846FFF753F850
:1019700007463A460B4645F21C01C0F600013046C8
:1019800001F033FB304601F0ABFC834659464FF47F
:10199000984000E00AE0C4F2000003F0B4F95846B1
:1019A00001F0A9FC304601F0C4FB00BFBDE8F09F88
:1019B000F0B5A3B004460D4616461F46234644F62E
:1019C0007072C0F60002802103A88DE8E00000F0EC
:1019D00085FD03A94FF49040C4F2000003F093F991
:1019E00023B0F0BD30B5A1B004460D46234644F601
:1019F0004C72C0F60002802101A8009500F06EFD37
:101A000001A94FF48840C4F2000003F07CF921B032
:101A100030BD10B5044621464FF46050C4F20100B9
:101A200003F071F910BD10B500F001F810BD0CB550
:101A30000020019000904FF48050C4F20200006832
:101A400040F480304FF48051C4F20201086000BFBE
:101A50004FF48050C4F20200006800F4003000909F
:101A60000198401C0190009818B90198B0F5A06F3A
:101A7000EED14FF48050C4F20200006800F4003050
:101A800010B10120009001E0002000900098012892
:101A90005BD14FF40050C4F20200006840F0100027
:101AA0004FF40051C4F2020108600846006820F0BB
:101AB000030008600846006840F0020008604FF428
:101AC0008050C4F2020040684FF48051C4F2020119
:101AD00048600846406848600846406840F48060B6
:101AE00048600846406820F47C104860084640681A
:101AF00040F4E81048600846006840F080700860D4
:101B000000BF4FF48050C4F20200006800F0007083
:101B10000028F6D04FF48050C4F20200406820F054
:101B200003004FF48051C4F2020148600846406847
:101B300040F00200486000BF4FF48050C4F2020041
:101B4000406800F00C000828F6D10CBD10B500204C
:101B500080F3108800BF4FF4A060FFF710FD00F085
:101B600053F810BD002000BF15E040F25001C2F252
:101B7000000151F8201061B140F25001C2F20001A1
:101B800051F82010491E40F25002C2F2000242F801
:101B90002010411CC8B21228E7DB704710B54FF483
:101BA0008050C4F20200006840F001004FF4805100
:101BB000C4F202010860084640680021CFF6FF0128
:101BC00008404FF48051C4F20201486008460068A2
:101BD00020F4102020F0807008600846006820F48F
:101BE000802008600846406820F4FE0048604FF4FA
:101BF0001F008860FFF717FF4FF000604EF6085196
:101C0000CEF20001086010BD70B5002100BF08E0F1
:101C1000002040F25002C2F2000242F82100481CAB
:101C2000C1B21229F4DB4FF4CA52C0F20102B2F180
:101C3000807F00D323E022F07F40401E4FF0E0235E
:101C4000586158170F2300280ADA1C07260E4EF693
:101C50001854CEF2000400F00F052D1F665506E063
:101C60001C07250E4FF46444CEF20004255400BF37
:101C700000204FF0E02398610720186100BF70BD7D
:101C800010B540F25000C2F20000C06A00B110BDB1
:101C900044F65060C0F60000006840F25001C2F205
:101CA0000001C86200F012FB00BFF0E740F25000F4
:101CB000C2F20000006B00B1704744F65060C0F6FD
:101CC0000000406840F25001C2F20001086300BF0A
:101CD000F2E740F25000C2F20000406B00B17047E2
:101CE00044F65060C0F60000806840F25001C2F235
:101CF0000001486300BFF2E740F25000C2F200006A
:101D0000806B00B1704744F65060C0F60000C068B8
:101D100040F25001C2F20001886300BFF2E710B543
:101D200040F225514FF49840C4F2000000F00AFA46
:101D300001281DD10A2040F25001C2F200010861C1
:101D40004FF49840C4F2000000F0B7FAC4B240F279
:101D50002E00C2F2000001880088401C40F22E02D2
:101D6000C2F20002108040F29830C2F200004454E7
:101D700040F225514FF49840C4F2000000F0BAF947
:101D800010BD10B540F25000C2F20000006908B169
:101D9000002010BD40F22E00C2F20000008808B9F9
:101DA0000020F6E7002040F29831C2F2000140F234
:101DB0002E02C2F2000212888854084602F040FE49
:101DC0004FF4807140F29830C2F20000FEF7EBF958
:101DD000002040F22E01C2F2000108800120D8E765
:101DE00010B540F225514FF4A040C4F2000000F0BD
:101DF000A9F901281DD10A2040F25001C2F20001C8
:101E000048614FF4A040C4F2000000F056FAC4B29A
:101E100040F23000C2F2000001880088401C40F20D
:101E20003002C2F20002108040F29840C2F200007C
:101E3000445440F225514FF4A040C4F2000000F099
:101E400059F910BD10B540F25000C2F200004069CF
:101E500008B1002010BD40F23000C2F2000000883E
:101E600008B90020F6E7002040F29841C2F20001D4
:101E700040F23002C2F2000212888854084602F092
:101E8000CFFC4FF4807140F29840C2F20000FEF7A0
:101E90008AF9002040F23001C2F2000108800120DE
:101EA000D8E710B540F225514FF46050C4F201005C
:101EB00000F048F901281DD10A2040F25001C2F279
:101EC000000148604FF46050C4F2010000F0F5F9E1
:101ED000C4B240F22800C2F2000001880088401C11
:101EE00040F22802C2F20002108040F29800C2F2D2
:101EF0000000445440F225514FF46050C4F20100F8
:101F000000F0F8F810BD10B540F25000C2F2000029
:101F1000406808B1002010BD40F22800C2F2000065
:101F2000008808B90020F6E7002040F29801C2F2CC
:101F3000000140F22802C2F20002128888544FF4D5
:101F4000807140F29800C2F20000FEF72CF90020E8
:101F500040F22801C2F2000108800120DBE710B541
:101F600040F225514FF48840C4F2000000F0EAF836
:101F700001281DD10A2040F25001C2F20001886000
:101F80004FF48840C4F2000000F097F9C4B240F268
:101F90002A00C2F2000001880088401C40F22A0298
:101FA000C2F20002108040F29810C2F200004454C5
:101FB00040F225514FF48840C4F2000000F09AF836
:101FC00010BD10B540F25000C2F20000806808B1A8
:101FD000002010BD40F22A00C2F20000008808B9BB
:101FE0000020F6E7002040F29811C2F2000140F212
:101FF0002A02C2F2000212888854084602F011FD3B
:102000004FF4807140F29810C2F20000FEF7CBF856
:10201000002040F22A01C2F2000108800120D8E726
:1020200010B540F225514FF49040C4F2000000F08A
:1020300089F801281DD10A2040F25001C2F20001A6
:10204000C8604FF49040C4F2000000F036F9C4B20A
:1020500040F22C00C2F2000001880088401C40F2CF
:102060002C02C2F20002108040F29820C2F200005E
:10207000445440F225514FF49040C4F2000000F067
:1020800039F810BD10B540F25000C2F20000C0682F
:1020900008B1002010BD40F22C00C2F20000008800
:1020A00008B90020F6E7002040F29821C2F20001B2
:1020B00040F22C02C2F2000212888854084602F054
:1020C00008FD4FF4807140F29820C2F20000FEF744
:1020D0006AF8002040F22C01C2F2000108800120C1
:1020E000D8E701F40072B2F5007F00D100BFCA4307
:1020F0000280704710B50022002340F66A14A14206
:1021000000D100BF0A1201249440A3B2DC43048032
:1021100010BD21B1828942F40052828104E082899B
:102120004DF6FF731A408281704702460020B1F5D8
:10213000007F00D100BF13880B400BB1012000E0ED
:102140000020704770B502460024002300250020BF
:1021500040F66A16B14200D100BFC1F3421501F04A
:102160001F03012606FA03F3012D02D1968933409D
:1021700006E0022D02D1168A334001E0968A3340F0
:102180000C12012606FA04F41688344013B10CB17F
:10219000012000E0002070BDF0B5034600240026B9
:1021A0000025002040F66A17B94200D100BF18464A
:1021B000C1F3421401F01F06012707FA06F5012CAE
:1021C00001D10C3004E0022C01D1103000E01430B9
:1021D0001AB107682F43076002E00768AF43076042
:1021E000F0BD2DE9F04786B005460E460024A24614
:1021F00000BFA1460027B08900B100BF2F462C8A3E
:102200004CF6FF700440F08804432C82AC894EF6F3
:10221000F3100440B08831890843718908430443AE
:10222000AC81AC8A4FF6FF400440B0890443AC82D5
:1022300001A8FFF76CFA4FF46050C4F20100874226
:1022400002D1DDF810A001E0DDF80CA0A88900F4AF
:10225000004040B10AEBCA0000EB0A1031684900A7
:10226000B0FBF1F807E00AEBCA0000EB0A10316896
:102270008900B0FBF1F86420B8FBF0F004012009FC
:10228000642101FB1089A88900F4004040B132208C
:1022900000EBC900B0FBF1F000F00700044308E0D8
:1022A000322000EB09106421B0FBF1F000F00F00C8
:1022B00004432C8106B0BDE8F08701468888C0F34E
:1022C00008007047C1F30802828070472DE9F04191
:1022D00000F005FF0446002C7DD045F2DC12C0F66C
:1022E000000245F2E811C0F60001204600F09CFE15
:1022F00040F23401C2F200010868FEF74FFB0546C8
:102300002A460B4645F2F411C0F60001204600F0C3
:102310006CFE40F23401C2F200014868FEF73EFB59
:1023200005462A460B4645F20421C0F60001204628
:1023300000F05BFE40F29851C2F20001086AFEF71D
:102340002DFB05462A460B4645F21421C0F6000136
:10235000204600F04AFE40F29851C2F2000108689F
:10236000FEF71CFB05462A460B4645F22021C0F627
:102370000001204600F039FE40F29851C2F20001FF
:102380004868FEF70BFB05462A460B4645F22C2112
:10239000C0F60001204600F028FE40F29851C2F23B
:1023A00000018868FEF737FB05462A460B4645F2D2
:1023B0003821C0F60001204600F017FE40F2985187
:1023C000C2F20001C868FEF7FAFA05462A460B4633
:1023D00045F24C2100E07CE0C0F60001204600F010
:1023E00004FE40F29851C2F200010869FEF7D6FAE5
:1023F00005462A460B4645F25C21C0F60001204600
:1024000000F0F3FD40F29851C2F200014869FEF776
:10241000C5FA05462A460B4645F26821C0F600017A
:10242000204600F0E2FD40F29851C2F200018869B6
:10243000FEF7B4FA05462A460B4645F27421C0F66B
:102440000001204600F0D1FD40F29851C2F2000197
:10245000C869FEF7A3FA05462A460B4645F28021D5
:10246000C0F60001204600F0C0FD40F23C01C2F27F
:1024700000010868FEF792FA05462A460B4645F227
:102480008C21C0F60001204600F0AFFD40F23C0177
:10249000C2F200014868FEF781FA05462A460B465B
:1024A00045F29C21C0F60001204600F09EFD20462A
:1024B00000F016FF074639464FF4A040C4F2000072
:1024C00002F021FC384600F016FF204600F031FEF5
:1024D00000BFBDE8F08100BFFEE700000FB41CB5EF
:1024E0000A46521ECDE9000207A9054B6A46069826
:1024F00000F040F9009A002111701CBC5DF814FB3B
:10250000A32E00080FB4084B10B504A902AA039823
:1025100000F030F9044602A9002000F0CDFC20466E
:1025200010BC5DF814FB0000B92E0008004870478D
:102530004C00002030B528B1144C031F0020216846
:102540000A4605E0084630BD9A4203D81046526854
:10255000002AF9D1002800D041680BD00468A3EB11
:102560000005A54204D11B681C440346046002E038
:10257000436000E023603AB11C68D51AA54203D13C
:1025800015682C441C6052685A6030BD440000201D
:102590002DE9F04782460F4C10480D4E0E4F001BA0
:1025A0004FF0000820F007054FF001090022114606
:1025B000504601F035FA002802D1306810B10020F1
:1025C000BDE8F0873C60C4E90058C6F80090EDE72C
:1025D00048000020EC08002044000020E8280020EB
:1025E00002E008C8121F08C1002AFAD170477047DC
:1025F000002001E001C1121F002AFBD1704700003A
:102600002DE9FF5FDDE90220010DDDF838B002435E
:1026100018D044F61050A1F2FF3141430D140F9829
:10262000012820D0A5EB0B00401C5FEA000A4FF008
:102630000004474EDFF81C91A046504616D5CAF15B
:10264000000728E00F98012443A2012808D00021A8
:1026500000980F9BC0E90021C0E90243BDE8FF9F3D
:102660006FEA0B01F4E7CBF10000DEE7074612E06A
:10267000F80707D02246334640464946FEF71CF984
:10268000804689462246334610461946FEF714F91D
:1026900004460E467F10002FEAD1DDE90201BAF1AF
:1026A000000F42464B4602DAFEF706F901E0FEF75C
:1026B0000BFC04460E460022284BFEF7D7F903D840
:1026C0004FF0FF30014607E00022254B20463146FF
:1026D000FEF74BF8FEF773FC102409E0002C0ADB30
:1026E0000A220023FEF70CFA019B30321A55641EB1
:1026F00050EA0102F2D1641C019AC4F1110314449E
:102700000F9A012A03D0012208430DD10AE00843A1
:1027100004D000204FF0110B0F9080E7A3EB0B05C6
:102720006D1E0DE05B4504DD4FF0000205F1010573
:1027300004E003DA4FF00002A5F10105002AECD015
:1027400000980F99C0E90231C0E9004586E7000012
:10275000000024400000F03F300000000000F04383
:102760000000E03F30380A2801D2012070470020E5
:10277000704700002DE9FF4F95B09B4689460646FD
:1027800000250FE2252877D100242746F84A0121A9
:10279000059400E0044316F8013F203B01FA03F0E2
:1027A0001042F7D130782A2811D06FF02F033078FB
:1027B000A0F13002092A16D8059A44F0020402EB6F
:1027C000820203EB42021044761C0590EFE759F8B1
:1027D000042B0592002A03DA504244F40054059079
:1027E00044F00204761C30782E2816D116F8010F1A
:1027F00044F004042A280DD06FF02F023078A0F1A5
:102800003003092B09D807EB870302EB4303C718F2
:10281000761CF3E759F8047B761C30786C280FD0CF
:1028200006DC4C2817D068280DD06A2814D104E0A3
:10283000742810D07A280FD10DE044F400140AE077
:1028400044F4801401E044F440147278824202D1CE
:1028500004F58014761C761C307866280BD013DCC7
:10286000582877D009DC002875D04528F6D04628AE
:10287000F4D047281AD19DE118E0632835D06428A8
:1028800079D0652812D195E1702873D008DC6728CB
:10289000F1D069286FD06E280DD06F2806D1B5E031
:1028A00073282CD0752875D0782874D05A4617997B
:1028B00090476D1C75E1C4F30250022809D003282B
:1028C0000DD0D9F8001004280DD00D6009F10409CD
:1028D00067E1D9F80010EA17C1E90052F6E7D9F824
:1028E00000100D80F2E70D70F0E719F8041B8DF869
:1028F000001000208DF80100EA46012003E059F89D
:1029000004AB4FF0FF3061074FF0000102D40DE03F
:1029100008F101018846B9420FDA8045F8DB1AF860
:1029200008100029F4D108E008F10101884681422D
:10293000FADB1AF808100029F6D105985B46A0EBDF
:10294000080721463846179A00F094FA284400EB0D
:10295000080507E04DE029E10DE01AF8010B5A46A1
:1029600017999047B8F10108F7D25B4621463846DF
:10297000179A13E142E00A220092C4F302524FF088
:10298000000A022A08D059F804CB032A4FEAEC7156
:102990000AD00DE029E02AE009F1070121F0070241
:1029A000F2E802C1914609E00FFA8CFC4FEAEC71A3
:1029B000042A03D14FFA8CFC4FEAEC71002907DAA4
:1029C0000A460021DCF1000C61EB02012D2202E03D
:1029D000220504D52B228DF80420012203E0E20712
:1029E00001D02022F7E7904659E00A2102E01022A8
:1029F0000DE010214FF0000A00910BE010224FF083
:102A0000000A44F004040827009203E008224FF073
:102A1000000A0092C4F30252022A05D059F804CBEE
:102A20000021032A08D009E009F1070121F007027B
:102A3000F2E802C1914605E01FFA8CFC042A01D19C
:102A40000CF0FF0C4FF00008220728D5702806D0A4
:102A5000009B83F0100353EA0A0305D00EE04022E6
:102A60008DF80420012208E05CEA010206D0302241
:102A70008DF804208DF8050002229046009B83F01B
:102A8000080353EA0A030AD15CEA010201D1620792
:102A900005D530228DF804204FF001087F1E5828FC
:102AA00004D034A003900EA802900DE036A0F9E700
:102AB00053466046009AFEF723F884460398825CEA
:102AC0000298401E029002705CEA0100F0D1029868
:102AD00006A9081A00F1200A600702D524F4803400
:102AE00000E00127574502DDA7EB0A0000E00020C7
:102AF00000EB0A01009005984144401A0590E0035C
:102B000006D45B462146179A059800F0B3F90544B0
:102B1000002706E001A85A46C05D179990476D1C32
:102B20007F1C4745F6DBE0030CD55B462146179A30
:102B3000059800F09FF9054404E030205A461799A3
:102B400090476D1C0099481E00900029F5DC08E0B4
:102B5000029802995A460078491C029117999047A9
:102B60006D1CBAF10001AAF1010AF1DC65E1000077
:102B70000928010030313233343536373839616253
:102B80006364656600000000303132333435363717
:102B900038394142434445460000000000F058F9EE
:102BA0000544761C307800287FF4ECAD19B0284637
:102BB000BDE8F08F620700D4062709F1070222F072
:102BC000070CFCE80223E14603F000485FEA080C2A
:102BD00002D00FF2702C0DE05FEA045C02D50FF218
:102BE000682C07E05FEAC47C02D00FF2602C01E0A1
:102BF000AFF2700C4FF0FF3823F00043CDF850C017
:102C000065280CD006DC452809D046281DD0472869
:102C10003DD13DE0662818D067287ED138E00021FC
:102C2000112F01DB112000E0781CCDE9000106A97D
:102C30000EA8FFF7E5FCDDE90F010E9A03910021D4
:102C4000009207F1010A04914DE04FF00040009717
:102C5000CDE9011006A90EA8FFF7D2FCDDE90F02AD
:102C600003920E9B11990022DDF80CA000930492B0
:102C700011B9791C00EB010AB7EB0A0004D4C0F1CA
:102C8000FF3007F1010A0490AAEB0700019044E02D
:102C9000012F00DA01270021112F01DD112000E0B2
:102CA0003846CDE9000106A90EA8FFF7A9FCDDE929
:102CB0000F010E9A0391002104910092BA46210758
:102CC0000CD40399514500DA8A46BAF1010F05DDAB
:102CD000009AAAF10101515C302908D0B84202DA09
:102CE00010F1040F06DA0121CDE9011015E0AAF177
:102CF0000101E9E7002805DC049901440491AAEBED
:102D0000000102E0411C514500DD8A460499401A49
:102D1000401C01904FF000400290200704D401981D
:102D2000504501DBCDF8048000208DF84F0002985B
:102D30000DF14F07B0F1004F25D02B200E900298D7
:102D40004FF0020800280CDA404202902D200E902D
:102D500007E00A210298FDF7BDFE3031029007F826
:102D6000011DB8F10001A8F10108F2DC0298002869
:102D7000EFD1791E0E980870307800F0200040F0F6
:102D8000450007F8020D12A8C01B00F107081498AF
:102D9000007800B1012000EB0A01019801EBE0711D
:102DA00005984144401A401E0590E00306D45B4656
:102DB0002146179A059800F05DF8054414980078AC
:102DC00018B15A46179990476D1CE00324D55B460D
:102DD0002146179A059800F04DF805441CE0049828
:102DE000002807DBDDE90301884203DD0098405C31
:102DF000179901E0179930205A469047049805F139
:102E00000105401C04900198401E019004D12E2021
:102E10005A46179990476D1CBAF10001AAF1010AB0
:102E2000DDDC05E017F8010B5A46179990476D1C39
:102E3000B8F10001A8F10108F4DC5B462146179ABD
:102E40000598ABE62D0000002B00000020000000DC
:102E50002DE9F041044600251E461746880404D497
:102E600005E039462020B0476D1C641EF9D5284680
:102E7000BDE8F0812DE9F041044600251E4690464C
:102E8000C80301D5302700E02027880404D505E0D9
:102E900041463846B0476D1C641EF9D52846BDE84A
:102EA000F0814A68002A06D00A68531C0B60107033
:102EB0004868401E486070470A68531C0B601070D9
:102EC000704770B505460C46002614B10DB1A542F9
:102ED00001D1002070BDAE6826B9AC6064600020EE
:102EE000206007E0706828B12146706801F03DFE5F
:102EF000A86844600120EDE72DE9F04705460E463D
:102F000014461F46DDF820904FF00008C2461DB160
:102F100016B10CB1A54202D10020BDE8F087B9F18D
:102F2000000F07D0304600F030FA8046E06840F4E9
:102F3000007A0CE03946304600F0E7F98046B8F1F7
:102F4000000F01D10020E8E7E06820F4007AA089B2
:102F500000F4007020B9206A10B1206A79688847AF
:102F6000C4F82080C4F80CA021462846FFF7A9FF2A
:102F7000D3E7014609B1086808B90020704719B1C4
:102F8000D1E90120904201D30846F7E702E08868C2
:102F9000401C886041B1D1E90120904204D28A6886
:102FA0000868805C2028F2DDD1E90120904202D13E
:102FB0008868401E88600846E0E770B504460D4604
:102FC00029462046FFF77DFF70BDF8B504460D4643
:102FD0001646002040F21C03C2F200033246294686
:102FE00000902046FFF788FFF8BD2DE9F84306461C
:102FF0000F4614461D462046294600F03DF88046FF
:10300000002040F21C03C2F2000342463946009001
:103010003046FFF771FF10B14046BDE8F8834046E7
:1030200000F087F80020F8E7F8B505460E4614468C
:10303000204600F061F80746002040F21C03C2F26F
:1030400000033A46314600902846FFF755FF08B185
:103050003846F8BD384600F06CF80020F9E710B5A6
:1030600040F21C00C2F2000000F09FF804460CB1D0
:103070002020E060204610BD70B505460E4640F2A7
:103080001C00C2F2000000F090F80446FCB10820D9
:10309000E060C4E906560022CFF6C0724FF6FF7317
:1030A000C4F2DF1328463146FDF7E0FC03D86FF089
:1030B0000040606111E000220023CCF2E0132846BA
:1030C0003146FDF7BBFC03D84FF00040606104E0DF
:1030D00028463146FDF780FC6061204670BD10B582
:1030E00040F21C00C2F2000000F05FF804460CB190
:1030F0004020E060204610BD70B5054640F21C003F
:10310000C2F2000000F051F8044684B11020E060E3
:1031100040F21C01C2F20001284600F0F6F82061DE
:10312000206920B9204600F004F8002070BD204638
:10313000FCE770B5044600252BE02568A08900F463
:10314000807020B9A06810B1A068FFF7F2FFA089D5
:1031500000F4807040B9206930B140F21C02C2F224
:103160000002206951688847A08900F4007040B9C6
:10317000206A30B140F21C02C2F20002206A51689B
:10318000884740F21C00C2F2000041682046884790
:103190002C46002CD1D170BD70B504460D460022DE
:1031A0002946204600F08AF970BD70B504462820F3
:1031B0002168884705461DB128212846FCF7F3FF02
:1031C000284670BD10B5044600221146204600F086
:1031D00073F810BD2DE9F0478AB004460E46154637
:1031E00098461C2103A8FCF7DEFF0027002040F2D0
:1031F0001401C2F200010860486004B106B938E069
:10320000039404960020059040F21C02C2F20002D2
:1032100007CA07AB07C340F21C00C2F20000FFF769
:10322000C4FF074607B924E003A801F071FC8246F9
:10323000FFF79FFE81464946384600F0C8FE00B9B8
:1032400017E0B8F1000F0BD003A8FFF792FEDDE9FD
:103250000410884203D205990398405C00B108E04D
:103260001DB1059903980844286038460AB0BDE8A6
:10327000F08717B13846FFF75CFFDCB101940020FE
:103280000290DDE90410884202D20598029004E021
:10329000049810B10498401E02901DB1DDE90101AF
:1032A0000844286040F21400C2F20000DDE9011277
:1032B00006C000BF0020D9E72DE9F04104460D46C5
:1032C000164614B90020BDE8F0812046FCF788FFBF
:1032D000471C33462A4639462046FFF77BFFF2E774
:1032E00010B5044640F21C02C2F200020121204641
:1032F00000F007FF10BD10B5044640F21C00C2F2FA
:10330000000041682046884710BD2DE9F041044681
:103310000D460026002714B90020BDE8F0812046A4
:10332000FCF75EFF461C30462968884707460FB900
:103330000020F2E7324621463846FCF71BFF3846AC
:10334000EBE770B504460D4604B10DB9012070BD20
:10335000AC4201D10020FAE705E0207808B900204E
:10336000F5E7641C6D1C2078FCF7FEFE0646287805
:10337000FCF7FAFE8642F0D02078FCF7F5FE064610
:103380002878FCF7F1FE301AE1E770472DE9FC5F81
:1033900004460D4616461F4627F00043B24625F068
:1033A00000405246CDE9004020460199FDF75EFB02
:1033B00003D225F00041204602E027F000413046CC
:1033C0008046894600220023C3F6B0434046494662
:1033D000FDF772FA82468B4632463B462046294626
:1033E000FDF764FA21F0004152465B46CDE9000149
:1033F000FDF724FB02D80120BDE8FC9F0020FBE77D
:103400002DE9F04104460D46002600270CB1206846
:1034100010B90020BDE8F081606828B1D4E901103E
:10342000884201D30020F5E7B5F1004F01D3002019
:10343000F0E7A068401C05446068A84203D3A16877
:1034400020680844E6E7206908B10020E2E7B5F10A
:10345000804F07D3B5F1004F02D26FF0004702E072
:103460000020D7E76F00206A60B13946226A2068E1
:1034700090470646DEB9E169206888470020606011
:103480002060C7E73846A1698847064636B9E16932
:1034900020688847002060602060BBE7A068421C6D
:1034A00030462168FCF766FEE1692068884767605E
:1034B0002660A0683044ADE72E2070472DE9F0412A
:1034C00005460E461746002405B116B90020BDE892
:1034D000F081AC685FB100E024688CB1206A78B1FB
:1034E0003046216AFCF783FE0028F5D108E000E0B1
:1034F00024682CB13046216AFFF723FF0028F7D15A
:103500000CB1206A08B90020E1E72046DFE710B5DA
:10351000FEF71CFBFDF7B2FF00F017F84FF4E130A7
:1035200000F0FFF84FF4E13000F061F94FF4E130C2
:1035300000F0C4F94FF4E13000F022F84FF4E1302C
:1035400000F087F800F023FA10BD002040F23401AB
:10355000C2F200010860486040F29851C2F20001D6
:10356000486088610862C86108614861C860886015
:10357000086040F23C01C2F20001486008607047F8
:1035800010B588B0044601211020FEF7A7F80121EC
:10359000C804FEF78AF84FF48060ADF81C000320E1
:1035A0008DF81E0018208DF81F0007A94FF48050D9
:1035B000C4F20100FDF7D5FE4FF40060ADF818002D
:1035C00003208DF81A0048208DF81B0006A94FF43F
:1035D0008050C4F20100FDF7C4FE02940020ADF853
:1035E00014000C20ADF812000020ADF81000ADF86A
:1035F0000E00ADF80C0002A94FF49840C4F2000090
:10360000FEF7EFFD34208DF8040001208DF807004F
:103610008DF8050002208DF8060001A8FDF774FF63
:10362000012240F225514FF49840C4F20000FEF709
:10363000B3FD01214FF49840C4F20000FEF769FD8C
:1036400040214FF49840C4F20000FEF74AFD08B054
:1036500010BD10B588B0044601213020FEF73EF8B9
:1036600001210805FEF721F84FF48050ADF81C0049
:1036700003208DF81E0018208DF81F0007A94FF4B5
:103680008050C4F20100FDF76CFE0420ADF8180074
:1036900003208DF81A0048208DF81B0006A94FF46E
:1036A000A050C4F20100FDF75CFE02940020ADF8CA
:1036B00014000C20ADF812000020ADF81000ADF899
:1036C0000E00ADF80C0002A94FF4A040C4F20000B7
:1036D000FEF787FD35208DF8040001208DF80700E6
:1036E0008DF8050002208DF8060001A8FDF70CFFFB
:1036F000012240F225514FF4A040C4F20000FEF731
:103700004BFD01214FF4A040C4F20000FEF701FD83
:1037100040214FF4A040C4F20000FEF7E2FC08B0E4
:1037200010BD10B588B00446012144F20400FDF735
:10373000D5FF18208DF81F004FF40070ADF81C0065
:1037400003208DF81E0007A94FF40060C4F20100A9
:10375000FDF707FE48208DF81B004FF48060ADF8A0
:10376000180003208DF81A0006A94FF40060C4F277
:103770000100FDF7F6FD02940020ADF80C00ADF855
:103780000E00ADF810000C20ADF812000020ADF8CE
:10379000140002A94FF46050C4F20100FEF721FDAD
:1037A00025208DF8040001208DF807008DF8050014
:1037B00002208DF8060001A8FDF7A6FE012240F2C6
:1037C00025514FF46050C4F20100FEF7E5FC0121E1
:1037D0004FF46050C4F20100FEF79BFC40214FF40F
:1037E0006050C4F20100FEF77CFC08B010BD10B5BB
:1037F00088B0044601210420FDF770FF0121480430
:10380000FDF753FF0420ADF81C0003208DF81E00C7
:1038100018208DF81F0007A94FF40060C4F20100C2
:10382000FDF79FFD0820ADF8180003208DF81A0061
:1038300048208DF81B0006A94FF40060C4F2010077
:10384000FDF78FFD02940020ADF814000C20ADF8B8
:1038500012000020ADF81000ADF80E00ADF80C001D
:1038600002A94FF48840C4F20000FEF7BAFC2620FB
:103870008DF8040001208DF807008DF80500022066
:103880008DF8060001A8FDF73FFE012240F2255108
:103890004FF48840C4F20000FEF77EFC01214FF493
:1038A0008840C4F20000FEF734FC40214FF4884009
:1038B000C4F20000FEF715FC08B010BD10B588B0CA
:1038C000044601210820FDF709FF01218804FDF7C6
:1038D000ECFE4FF48060ADF81C0003208DF81E0054
:1038E00018208DF81F0007A94FF44060C4F20100B2
:1038F000FDF737FD4FF40060ADF8180003208DF898
:103900001A0048208DF81B0006A94FF44060C4F24D
:103910000100FDF726FD02940020ADF814000C20F4
:10392000ADF812000020ADF81000ADF80E00ADF8B3
:103930000C0002A94FF49040C4F20000FEF751FCC5
:1039400027208DF8040001208DF807008DF8050070
:1039500002208DF8060001A8FDF7D6FD012240F2F5
:1039600025514FF49040C4F20000FEF715FC0121F0
:103970004FF49040C4F20000FEF7CBFB40214FF41F
:103980009040C4F20000FEF7ACFB08B010BD10B5CB
:103990004FF4FA70FDF7D7FC45F2F421C0F60001B0
:1039A0004FF4A040C4F2000001F0ADF94FF4FA600A
:1039B000FDF7C9FC45F2FC21C0F600014FF4A04020
:1039C000C4F2000001F09FF94FF4FA60FDF7BBFC70
:1039D00045F22831C0F600014FF4A040C4F20000C7
:1039E00001F091F94FF4FA70FDF7ADFC45F2383172
:1039F000C0F600014FF4A040C4F2000001F083F9CA
:103A00004FF4FA70FDF79FFC45F24831C0F6000113
:103A10004FF46050C4F2010001F075F910BD0000D0
:103A20002DE9F0410B3020F00706104D19E0206819
:103A3000B04215D3B0420AD9871B201DD4F80480A8
:103A4000FCF798FBA019C0E90078286004E06068E2
:103A50002860201DFCF78EFB201D2660BDE8F0814C
:103A6000251D2C68002CE2D10020F7E7440000203F
:103A7000FFF74DFD01E0FDF7E0FEFCE72DE9F04129
:103A800080460C4600250027E068B0F57A7F02D317
:103A90000020BDE8F081E068401CE060A16820687B
:103AA000405C5B2800D05FE0A068401CA06020461E
:103AB000FFF75FFA4CB1D4E90110884205D2A16842
:103AC0002068405C5D2800D13FE01CB1D4E90110C2
:103AD000884203D3A068401EA06045E0A068401E55
:103AE000A06000BF04F11000FFF75FFB064606B9B7
:103AF0003AE015B93546374602E03E607760374612
:103B0000A068401CA0602046FFF733FA21463846E3
:103B100000F05DFA00B927E02046FFF72AFA44B129
:103B2000D4E90110884204D2A1682068405C2C28A6
:103B3000D8D044B1D4E90110884204D2A1682068E9
:103B4000405C5D2800D00FE000BFE068401EE060F0
:103B500005B16F602020C8F80C00C8F80850A068B4
:103B6000401CA060012094E715B12846FFF7E1FA58
:103B700000208EE702460023002100BF23E0505CB6
:103B8000302806DB505C392803DC505C30380344B5
:103B900015E0505C412806DB505C462803DC505C95
:103BA000373803440BE0505C612806DB505C662824
:103BB00003DC505C5738034401E0002070470329C0
:103BC00000D21B01491C0429D9D31846F6E72DE978
:103BD000F04391B080460C4600BF00201090FFF7E4
:103BE0006BFC814600250CB1206818B9002011B08B
:103BF000BDE8F08300253BE0A16820680844405DF3
:103C000034281FD009DCA0F12B0009282DD245F261
:103C10008431C0F60001D1E800F0382816D006DC67
:103C2000352810D036280FD037281ED10DE039287E
:103C30000DD045280FD0652817D10BE000BF00BF7D
:103C400000BF00BF00BF00BF00BF00BF00BF00BF7C
:103C500000BF00BF00BFA16820680844405D0DF8A8
:103C6000050003E00DF8059000E00AE000BF6D1CC0
:103C70003F2D05D224B1A068284461688842BBD397
:103C800000BF00200DF8050010A9684600F05FFF96
:103C900006460F4668461099884201D10020A6E7E3
:103CA000C8E906670022CFF6C0724FF6FF73C4F270
:103CB000DF1330463946FCF7D9FE04D86FF00040D8
:103CC000C8F8140013E000220023CCF2E0133046C1
:103CD0003946FCF7B3FE04D84FF00040C8F8140092
:103CE00005E030463946FCF777FEC8F81400082096
:103CF000C8F80C00A0686A461099891A0844A060A8
:103D0000012074E72DE9F04180460C46002600258D
:103D1000E068B0F57A7F02D30020BDE8F081E0686A
:103D2000401CE06044B1D4E90110884204D2A1688B
:103D30002068405C7B2800D07DE0A068401CA0602B
:103D40002046FFF716F94CB1D4E90110884205D29C
:103D5000A1682068405C7D2800D15DE01CB1D4E9F9
:103D60000110884203D3A068401EA06063E0A068F1
:103D7000401EA06000BF04F11000FFF716FA0746CE
:103D800007B958E016B93E463D4602E02F607D6017
:103D90003D46A068401CA0602046FFF7EAF8214697
:103DA000284600F04EF800B945E02046FFF7E1F85C
:103DB000286928620020286144B1D4E901108842B2
:103DC00004D2A1682068405C3A2800D033E0A068A3
:103DD000401CA0602046FFF7CCF82146284600F0A2
:103DE000F6F800B927E02046FFF7C3F844B1D4E95C
:103DF0000110884204D2A1682068405C2C28BAD007
:103E000044B1D4E90110884204D2A1682068405C22
:103E10007D2800D00FE000BFE068401EE06006B1E2
:103E200075604020C8F80C00C8F80860A068401C05
:103E3000A060012071E716B13046FFF77AF9002043
:103E40006BE72DE9F84F80460C46A16820680844CE
:103E5000461CA16820680844451C002000900027EB
:103E6000A1682068405C222800D0A6E04FF0000A3C
:103E7000D1460DE028785C2809D1681C2168401AD9
:103E80006168884200D398E009F101096D1C6D1C3E
:103E90002068281A6168884202D228782228E9D14D
:103EA0002068281A6168884202D22878222800D027
:103EB00083E0A16820680844281AA0EB090A0AF1E7
:103EC000010021698847074607B976E0009761E05D
:103ED00030785C2807D016F8010B0099087000981C
:103EE000401C009056E04FF00209A81B012800DAA0
:103EF00063E07078662819D008DC222832D02F2899
:103F000032D05C282FD0622840D108E06E2814D02F
:103F1000722819D074281ED0752837D12BE00820BC
:103F2000009908700098401C009030E00C20009927
:103F300008700098401C009029E00A200099087041
:103F40000098401C009022E00D2000990870009815
:103F5000401C00901BE00920009908700098401C4C
:103F6000009014E000BF00BF7078009908700098BE
:103F7000401C00900BE06A462946304600F0D1FE16
:103F80008146B9F1000F00D117E000E015E000BF55
:103F90004E4400BFAE429BD3002000990870102011
:103FA000C8F80C00C8F810702068281AA060A06833
:103FB000401CA0600120BDE8F88F17B13846616948
:103FC000884716B12068301AA0600020F3E770B56A
:103FD00005460C460CB1206808B9002070BDB4B18C
:103FE000A068001D6168884211D8A26821688818FD
:103FF000042244F60C71C0F60001FCF70FF930B949
:104000000420E860A068001DA0600120E6E7B4B1CC
:10401000A068401D6168884211D8A268216888188C
:10402000052244F63C71C0F60001FCF7F7F830B900
:104030000120E860A068401DA0600120CEE7C4B167
:10404000A068001D6168884213D8A268216888189A
:10405000042244F64471C0F60001FCF7DFF840B9D1
:104060000220E86001206861A068001DA0600120B6
:10407000B4E76CB1D4E90110884209D2A168206884
:10408000405C222804D121462846FFF7DAFEA5E746
:10409000BCB1D4E90110884213D2A1682068405C09
:1040A0002D2809D0A1682068405C302809DBA16870
:1040B0002068405C392804DC21462846FFF787FD4C
:1040C0008CE76CB1D4E90110884209D2A16820685C
:1040D000405C5B2804D121462846FFF7CFFC7DE7F2
:1040E0006CB1D4E90110884209D2A1682068405C13
:1040F0007B2804D121462846FFF704FE6EE7002006
:104100006CE7F0B589B007460E4614460025242119
:104110006846FCF748F84FF48070216888470090A3
:104120004FF480700190059694E8070006AB07C332
:10413000009800B933E06946384600F0BCFA00B98F
:104140002DE0684600F014FDA06850B1029B591C98
:104150000098A2689047054605B920E0002000902D
:104160001AE0029A501C21688847054605B916E0F6
:10417000DDE90130401C834201D2019801E0029840
:10418000401C024628460099FBF7F4FF00200299E4
:104190006854009861688847284609B0F0BD0098C7
:1041A00010B100986168884715B128466168884752
:1041B0000020F2E72DE9F04107460C460025A8460D
:1041C000BE6814B90020BDE8F08101212046FFF748
:1041D00017F905460DB90020F5E75B202870A068A7
:1041E000401CA060E068401CE06028E021463046AA
:1041F00000F061FA08B90020E5E7204600F0B8FCBD
:104200003068D8B1606908B1022000E00120804622
:1042100008F101012046FFF7F3F805460DB900202B
:10422000D1E72C2005F8010B606910B1202005F8BA
:10423000010B00202870A0684044A0603668002E62
:10424000D4D102212046FFF7DBF805460DB9002046
:10425000B9E75D2005F8010B00202870E068401EDA
:10426000E0600120AFE72DE9F04F8BB081460F46AB
:104270004FF0000AD9E90645D04600261C2104A8C3
:10428000FBF791FFFFF718F9834600210291039194
:104290001FB900200BB0BDE8F08FCDE90045DDE986
:1042A00000210AB1012200E0002241EA020020F0D0
:1042B0000041C1F17F6101F1E041C90F71B9CDE960
:1042C00000450021CFF6E0710198B1EB400F03D11A
:1042D000009808B9012000E0002040B144F60C71BC
:1042E000C0F6000104A8FEF70DF980463AE0D9F8BF
:1042F0001400FCF753FB22462B46CDE90001FCF7E6
:104300009DFB0AD144F61471C0F6000104A8D9F847
:104310001420FEF7F7F8804624E022462B4644F6A8
:104320001871C0F6000104A8FEF7ECF8804602AA56
:1043300044F62071C0F6000104A8FBF77FFF0128B6
:1043400006D122462B46DDE90201FFF71FF848B9E6
:1043500022462B4644F62471C0F6000104A8FEF75D
:10436000D1F88046B8F1000F02DBB8F1190F01DD7A
:1043700000208FE708F101013846FFF741F8824637
:10438000BAF1000F01D1002084E700260DE004A857
:10439000805D584503D12E200AF8060004E004A8E9
:1043A000805D0AF8060000BF761C4645EFD300206A
:1043B0000AF80600B8684044B86001206AE72DE9B1
:1043C000F04781460C4600250026D9F8087014B93C
:1043D0000020BDE8F087606908B1022000E00120FC
:1043E0000646711C2046FFF70BF805460DB9002064
:1043F000EFE77B2005F8010BE068401CE060606996
:1044000010B10A2005F8010BA0683044A06069E0F3
:104410006069B8B12046E168FEF7F2FF05460DB9C4
:104420000020D6E74FF0000804E0092005F8010B52
:1044300008F10108E0684045F7D8D4E902010844D2
:10444000A06000BF2146386A00F07BF808B9002060
:10445000BFE7204600F08CFB606908B1022000E055
:104460000120064631462046FEF7CAFF05460DB933
:104470000020AEE73A2005F8010B606910B1092071
:1044800005F8010BA0683044A0602146384600F0D2
:1044900012F908B900209CE7204600F069FB60692A
:1044A00008B1012000E00020396809B1012100E0D5
:1044B00000214618711C2046FEF7A2FF05460DB9E3
:1044C000002086E7386810B12C2005F8010B6069E0
:1044D00010B10A2005F8010B00202870A0683044B4
:1044E000A0603F68002F93D1606910B1E068401C64
:1044F00000E0022001462046FEF782FF05460DB986
:10450000002066E7606950B1002003E0092105F84A
:10451000011B401CE168491E8142F7D800BF7D2085
:1045200005F8010B00202870E068401EE0600120C3
:104530004FE770B504460D462946206900F001F8A2
:1045400070BD2DE9F04707468A4600240026002565
:10455000A046A146BAF1000F02D10020BDE8F087C5
:1045600087B903215046FEF74BFF06460EB90020DF
:10457000F4E744F62C71C0F600013046FBF745FE27
:104580000120EBE73C4622E020780C2811D006DC25
:1045900008280DD009280FD00A2810D10AE00D28CC
:1045A00009D0222802D05C2809D100E000BF00BF5A
:1045B00000BF00BF00BF00BF09F1010905E020787E
:1045C000202801DA09F1050900BF00BF641C20782A
:1045D0000028D9D1E01B00EB090808F1030150467F
:1045E000FEF70EFF06460EB90020B7E7B9F1000F3F
:1045F0000FD12220307042463946701CFBF7BAFDBD
:10460000222108F1010031540021401C31540120C5
:10461000A4E722203070751C3C4640E020781F281B
:1046200008DD2078222805D020785C2802D0207868
:10463000287032E05C2005F8010B20780C2815D09A
:1046400006DC08280FD0092819D00A281AD110E052
:104650000D2811D0222803D05C2813D128701BE02C
:104660002220287018E06220287015E0662028704B
:1046700012E06E2028700FE0722028700CE0742089
:10468000287009E0227844F63071C0F6000128460F
:10469000FDF738FF2D1D00BF00BF641C6D1C207886
:1046A0000028BBD1222108F1010031540021401C17
:1046B0003154012052E72DE9F04104460E46002511
:1046C00004B116B90020BDE8F081207B102860D02D
:1046D00008DC01281ED002282DD0042809D0082883
:1046E00066D139E0202859D040285CD080285FD19D
:1046F00037E005213046FEF783FE05460DB9002060
:10470000E1E744F60C71C0F600012846FBF77DFD99
:104710000120D8E706213046FEF772FE05460DB9A6
:104720000020D0E744F63C71C0F600012846FBF7B4
:104730006CFD0120C7E705213046FEF761FE054606
:104740000DB90020BFE744F64471C0F600012846C9
:10475000FBF75BFD0120B6E731462046FFF783FDFE
:10476000B1E70027206908B90020ACE72069FBF712
:1047700037FD471C39463046FEF742FE05460DB967
:104780000020A0E73A4628462169FBF7F3FC012008
:1047900099E731462046FFF7CCFE94E731462046A4
:1047A000FFF708FD8FE731462046FFF708FE8AE74E
:1047B000002088E72DE9F04704008A4616D054F817
:1047C000047CD4F800903E1F564500D9564620463A
:1047D000FDF7B0FE05468846324621465046FFF7B3
:1047E0001FF940B1C0F80090BDE8F087BDE8F04780
:1047F0000846FDF7CDBE44E9017955B129686A182C
:10480000211F8A4202D9611B091F2960C5F8048053
:10481000EAE7024AC2F80080E6E700004400002010
:104820002DE9F14F9AB01A98FEF7CCFC0446002C03
:1048300073D045F24411C0F600012046FEF7ACFCEF
:10484000054645F25411C0F600012046FEF7A4FCCF
:10485000064645F26411C0F600012046FEF79CFCB6
:10486000074645F27011C0F600012046FEF794FCA1
:10487000804645F27C11C0F600012046FEF78CFC14
:10488000814645F28811C0F600012046FEF784FCFF
:10489000824645F22411C0F600012046FEF77CFC5A
:1048A000199045F23411C0F600012046FEF774FC61
:1048B000189045F29411C0F600012046FEF76CFCFA
:1048C000834645F2A811C0F600012046FEF764FCBD
:1048D000179045F2B411C0F600012046FEF75CFCCB
:1048E000169045F2C411C0F600012046FEF754FCB4
:1048F000159045F2D011C0F600012046FEF74CFCA1
:1049000014907DB176B172690AB1012200E00022F3
:1049100011466A6912B1012201E07FE000221046CF
:10492000FDF760F88FB3B8F1000F34D0B9F1000F84
:1049300031D0BAF1000F2ED0DAF814C0BCF1000F5C
:1049400002D04FF0010C01E04FF0000C6346D9F8A3
:1049500014C0BCF1000F02D04FF0010C01E04FF089
:10496000000C6246D8F814C0BCF1000F02D04FF022
:10497000010C01E04FF0000C6146D7F814C0BCF107
:10498000000F03D04FF0010C02E004E04FF0000CE8
:104990006046FDF70DF81998D8B11898C8B1BBF169
:1049A000000F16D0DBE906211046FCF777F81390CC
:1049B000189A52690AB1012200E000221146199AA0
:1049C00052690AB1012200E000221046139AFCF756
:1049D00049FF1798F0B11698E0B11598D0B1149826
:1049E000C0B1169801690BA8FBF70FFC1598016977
:1049F00002A8FBF70AFC1498D0E906211046FCF740
:104A00004DF801901799486902AA0BA9019BFCF780
:104A10007AFF00BF2046FEF78CFB00BF1BB0BDE84D
:104A2000F08F10B5044640F23803C2F200031A1F9B
:104A300045F28001C0F600012046FBF7FFFB10BDE8
:104A40002DE9F041074645F2D801C0F6000138468D
:104A5000FBF7B4FBB8B140F2BC51C2F200013846DA
:104A6000FCF797FD40B900F095F845F2E800C0F674
:104A70000000FCF7CEFF2AE045F20810C0F6000067
:104A8000FCF7C7FF23E03846FEF79CFB0446ECB179
:104A900045F22411C0F600012046FEF77DFB0546D5
:104AA00045F23411C0F600012046FEF775FB0646BC
:104AB00045B13EB140F23C01C2F2000168690860B4
:104AC000706948602046FEF734FB00BF00BFBDE8B8
:104AD000F08110B588B0044640F2B850C2F2000030
:104AE000011F0A1F131FCDE90332CDE9051010384D
:104AF000011F0A1F131FCDE900210290083A45F259
:104B0000A001C0F600012046FBF798FB08B010BDDD
:104B100010B504461CB1206808B1A06808B1002097
:104B200010BD94B1A068001D616888420DD2A268D2
:104B300021688818032244F63871C0F60001FBF79B
:104B40006DFB10B9A068C01CA0602046E8E700B566
:104B500083B00A460021CDE9001101466846FCF702
:104B6000ECF8DDE9000103B000BD0160486070476A
:104B700070B5044600250CB1206800B970BDA1686D
:104B8000206845182846FBF72BFBA1680844A06065
:104B900000BFF3E72DE9F05FFEF7A1FA0446002C11
:104BA0007DD045F2AC22C0F6000245F2E811C0F615
:104BB00000012046FEF738FA40F2BC51C2F2000173
:104BC0000868FBF7FCFE064632460B4645F2B82164
:104BD000C0F600012046FEF708FA40F2BC51C2F2CE
:104BE00000014868FBF7EBFE064632460B4645F2ED
:104BF000C021C0F600012046FEF7F7F9FEF72FFAB4
:104C000005464FF0000A11E040F2C451C2F2000123
:104C100051F82A00FBF7D3FE0646FEF72DFA83462D
:104C200059462846FEF7C9F90AF1010A40F2BC507C
:104C3000C2F2000040685045E6D82A4645F2CC2131
:104C4000C0F600012046FEF7C0F9FEF708FA8046DC
:104C50004FF0000A11E040F25471C2F2000151F825
:104C60002A00FBF7ACFE0646FEF706FA83465946D5
:104C70004046FEF7A2F90AF1010A40F2BC50C2F226
:104C8000000040685045E6D8424645F2D821C0F6BB
:104C900000012046FEF799F940F2BC5100E021E006
:104CA000C2F20001D1F82803FBF7B5FE06463246F2
:104CB0000B4645F2E821C0F600012046FEF795F9C3
:104CC0002046FEF70DFB814649464FF4A040C4F252
:104CD000000000F018F84846FEF70DFB2046FEF7EE
:104CE00028FA00BFBDE8F09F70B504460D4629467E
:104CF0002046FDF7E7FA00BF40212046FDF715FAF0
:104D00000028F9D070BD70B506460C46002504E0B9
:104D1000615D3046FFF7E8FF6D1C605D0028F7D14C
:104D200070BD2DE9FF5F80468946154600240026A8
:104D3000C24600200390834602900190A9EB0A002E
:104D4000062800DA81E00AF10200FEF713FF0646AA
:104D5000B6F55C4F03D3B6F5604F00D275E0B6F5FB
:104D6000584F29D3B6F55C4F26D20AF1060700202A
:104D700000900C200290A9EB0700062800DA64E0FE
:104D800038785C2802D17878752800D05DE0B81CAE
:104D9000FEF7F0FE00900098B0F55C4F03D300984A
:104DA000B0F5604F00D350E0C6F30901009861F3FD
:104DB0009F2000F5803402E0062002903446802CCB
:104DC00002D20120039018E0B4F5006F04D2022053
:104DD0000390C020019010E0B4F5803F04D203207E
:104DE0000390E020019008E0B4F5881F04D204206D
:104DF0000390F020019000E027E00398401E00F0AF
:104E0000FF0B0BE004F0BF0040F08000296801F8C0
:104E10000B00A409ABF1010000F0FF0BBBF1000F88
:104E2000F0DC0398012804DD01982043296808700C
:104E300003E004F07F00296808702968039808449B
:104E40002860029804B0BDE8F09F0020FAE7000057
:104E5000F4010000C8000000C8000000C800000005
:104E600028500008345000084050000850500008F6
:104E700064500008705000080040404040404040EE
:104E8000404041414141414040404040404040401D
:104E900040404040404040404005020202020202C1
:104EA0000202020202020202022020202020202010
:104EB0002020200202020202020290909090909024
:104EC00010101010101010101010101010101010E2
:104ED0001010101002020202020288888888888856
:104EE0000808080808080808080808080808080842
:104EF000080808080202020240000000794E00087B
:104F000025692E25692E2569000000006E756C6CE0
:104F1000000000002564000025312E3135670000B7
:104F2000256C670025312E313767000022220000F2
:104F30007525303478000000EFBBBF0066616C73EC
:104F40006500000074727565000000003C636F6DC1
:104F50006D616E642E73746172743E25642C2564D9
:104F60003C636F6D6D616E642E656E643E0D0A006C
:104F70003C636F6D6D616E642E73746172743E2557
:104F8000642C25642C25642C25643C636F6D6D6155
:104F90006E642E656E643E0D0A000000636F6D6DD9
:104FA0006F6E5F6461746100646174615F747970D5
:104FB000650000007363616E636F64655F4549431C
:104FC000000000007363616E636F64655F646F6F00
:104FD000720000007363616E636F64655F64697380
:104FE000636F756E74000000676F6F64735F646158
:104FF00074610000676F6F64735F69640000000094
:10500000676F6F64735F6E616D650000676F6F64DB
:10501000735F626172636F6465000000676F6F6445
:10502000735F7072696365005B757365725F696455
:105030005D0000005B646174615F6E756D5D000012
:105040005B476F6F647349644C6973742D3E5D00F8
:105050005B476F6F64734E756D6265724C697374F4
:105060002D3E5D005B646973636F756E745D000057
:105070003C696E64656E742E656E643E00000000CF
:105080003C646174612E73746172743E25642C25D6
:10509000643C646174612E656E643E0D0A0000001C
:1050A0003C646174612E73746172743E25642C25B6
:1050B000642C25662C25642C25642C25642C256401
:1050C0002C25642C25643C646174612E656E643EFD
:1050D0000D0A0000256600003C696E64656E742E42
:1050E00073746172743E0000E69CACE6ACA1E8AE5D
:1050F000A2E58D95E4BFA1E681AFE4B88AE4BCA047
:10510000E68890E58A9F2100E8AEA2E58D95E4BF90
:10511000A1E681AFE8A7A3E69E90E99499E8AFAF36
:10512000210000007363616E636F64655F454943EE
:10513000000000007363616E636F64655F646F6F8E
:1051400072000000656E7472616E63655F4549436D
:1051500000000000656E7472616E63655F646F6F5E
:105160007200000073656E736F725F454943000003
:1051700073656E736F725F626565700073656E73E1
:105180006F725F6C616D700073656E736F725F66D6
:10519000616E00007363616E636F64655F64697361
:1051A000636F756E74000000676F6F64735F69648E
:1051B00000000000676F6F64735F626172636F6409
:1051C00065000000676F6F64735F6E616D6500005E
:1051D000676F6F64735F707269636500636F6D6D95
:1051E0006F6E5F6461746100646174615F74797093
:1051F00065000000656E7472616E63655F454943CA
:1052000000000000656E7472616E63655F646F6FAD
:105210007200000073656E736F725F454943000052
:1052200073656E736F725F74656D700073656E7316
:105230006F725F68756D690073656E736F725F532F
:105240006D6F6B6553636F706500000073656E73FF
:105250006F725F6C696768740000000073656E733D
:105260006F725F666972650073656E736F725F6CF3
:10527000616D700073656E736F725F62656570005B
:1052800073656E736F725F66616E00007363616E4B
:10529000636F64655F454943000000007363616E9E
:1052A000636F64655F646F6F72000000696E6465B0
:1052B0006E745F6461746100757365725F69640028
:1052C000646174615F6E756D00000000476F6F640C
:1052D0007349644C69737400476F6F64734E756DE6
:1052E0006265724C69737400646973636F756E7480
:1052F0000000000041540D0A0000000041542B43FF
:10530000495053544152543D22544350222C22318F
:1053100039322E3136382E31322E3731222C39386F
:1053200030300D0A0000000041542B4349504D4FCE
:1053300044453D310D0A000041542B43495053452B
:105340004E440D0A00000000E5889DE5A78BE58C22
:105350009677696669E68890E58A9FEFBC815C7202
:105360000A000000905300080000002050000000D8
:10537000E0250008E0530008500000209848000095
:10538000F02500081B281C2528111213140000000A
:1053900000000000010203040102030406070809DB
:1053A000020406080000000000000000912500082B
:1053B00035250008B5470008000000000000000087
:1053C00000000000000000000000000000000000DD
:1053D00000000000000000000000000000000000CD
:0400000508000131BD
:00000001FF
